{
  "_format": "hh-sol-artifact-1",
  "contractName": "Dice",
  "sourceName": "contracts/games/Dice.sol",
  "abi": [
    {
      "inputs": [
        {
          "internalType": "address",
          "name": "_shellToken",
          "type": "address"
        },
        {
          "internalType": "address",
          "name": "_houseBankroll",
          "type": "address"
        },
        {
          "internalType": "address",
          "name": "_feeRecipient",
          "type": "address"
        }
      ],
      "stateMutability": "nonpayable",
      "type": "constructor"
    },
    {
      "inputs": [],
      "name": "GameAlreadySettled",
      "type": "error"
    },
    {
      "inputs": [],
      "name": "GameInProgress",
      "type": "error"
    },
    {
      "inputs": [],
      "name": "GameNotExpired",
      "type": "error"
    },
    {
      "inputs": [],
      "name": "InsufficientBankroll",
      "type": "error"
    },
    {
      "inputs": [],
      "name": "InvalidBet",
      "type": "error"
    },
    {
      "inputs": [],
      "name": "InvalidReveal",
      "type": "error"
    },
    {
      "inputs": [],
      "name": "InvalidState",
      "type": "error"
    },
    {
      "inputs": [],
      "name": "InvalidTarget",
      "type": "error"
    },
    {
      "inputs": [],
      "name": "NoActiveGame",
      "type": "error"
    },
    {
      "inputs": [],
      "name": "NotYourGame",
      "type": "error"
    },
    {
      "inputs": [
        {
          "internalType": "address",
          "name": "owner",
          "type": "address"
        }
      ],
      "name": "OwnableInvalidOwner",
      "type": "error"
    },
    {
      "inputs": [
        {
          "internalType": "address",
          "name": "account",
          "type": "address"
        }
      ],
      "name": "OwnableUnauthorizedAccount",
      "type": "error"
    },
    {
      "inputs": [],
      "name": "ReentrancyGuardReentrantCall",
      "type": "error"
    },
    {
      "inputs": [],
      "name": "RevealTooEarly",
      "type": "error"
    },
    {
      "inputs": [
        {
          "internalType": "address",
          "name": "token",
          "type": "address"
        }
      ],
      "name": "SafeERC20FailedOperation",
      "type": "error"
    },
    {
      "anonymous": false,
      "inputs": [
        {
          "indexed": true,
          "internalType": "uint256",
          "name": "gameId",
          "type": "uint256"
        },
        {
          "indexed": false,
          "internalType": "uint8",
          "name": "roll",
          "type": "uint8"
        },
        {
          "indexed": false,
          "internalType": "bool",
          "name": "won",
          "type": "bool"
        },
        {
          "indexed": false,
          "internalType": "uint256",
          "name": "payout",
          "type": "uint256"
        }
      ],
      "name": "GameRevealed",
      "type": "event"
    },
    {
      "anonymous": false,
      "inputs": [
        {
          "indexed": true,
          "internalType": "uint256",
          "name": "gameId",
          "type": "uint256"
        },
        {
          "indexed": true,
          "internalType": "address",
          "name": "player",
          "type": "address"
        },
        {
          "indexed": false,
          "internalType": "uint256",
          "name": "betAmount",
          "type": "uint256"
        },
        {
          "indexed": false,
          "internalType": "uint8",
          "name": "target",
          "type": "uint8"
        },
        {
          "indexed": false,
          "internalType": "bytes32",
          "name": "commitment",
          "type": "bytes32"
        }
      ],
      "name": "GameStarted",
      "type": "event"
    },
    {
      "anonymous": false,
      "inputs": [
        {
          "indexed": true,
          "internalType": "address",
          "name": "previousOwner",
          "type": "address"
        },
        {
          "indexed": true,
          "internalType": "address",
          "name": "newOwner",
          "type": "address"
        }
      ],
      "name": "OwnershipTransferred",
      "type": "event"
    },
    {
      "inputs": [],
      "name": "GAME_TIMEOUT_BLOCKS",
      "outputs": [
        {
          "internalType": "uint256",
          "name": "",
          "type": "uint256"
        }
      ],
      "stateMutability": "view",
      "type": "function"
    },
    {
      "inputs": [],
      "name": "HOUSE_EDGE_BPS",
      "outputs": [
        {
          "internalType": "uint256",
          "name": "",
          "type": "uint256"
        }
      ],
      "stateMutability": "view",
      "type": "function"
    },
    {
      "inputs": [],
      "name": "MAX_TARGET",
      "outputs": [
        {
          "internalType": "uint256",
          "name": "",
          "type": "uint256"
        }
      ],
      "stateMutability": "view",
      "type": "function"
    },
    {
      "inputs": [],
      "name": "MIN_TARGET",
      "outputs": [
        {
          "internalType": "uint256",
          "name": "",
          "type": "uint256"
        }
      ],
      "stateMutability": "view",
      "type": "function"
    },
    {
      "inputs": [],
      "name": "PROTOCOL_FEE_BPS",
      "outputs": [
        {
          "internalType": "uint256",
          "name": "",
          "type": "uint256"
        }
      ],
      "stateMutability": "view",
      "type": "function"
    },
    {
      "inputs": [],
      "name": "ROLL_RANGE",
      "outputs": [
        {
          "internalType": "uint256",
          "name": "",
          "type": "uint256"
        }
      ],
      "stateMutability": "view",
      "type": "function"
    },
    {
      "inputs": [
        {
          "internalType": "address",
          "name": "",
          "type": "address"
        }
      ],
      "name": "activeGame",
      "outputs": [
        {
          "internalType": "uint256",
          "name": "",
          "type": "uint256"
        }
      ],
      "stateMutability": "view",
      "type": "function"
    },
    {
      "inputs": [
        {
          "internalType": "uint256",
          "name": "betAmount",
          "type": "uint256"
        },
        {
          "internalType": "uint8",
          "name": "target",
          "type": "uint8"
        }
      ],
      "name": "calculatePayout",
      "outputs": [
        {
          "internalType": "uint256",
          "name": "",
          "type": "uint256"
        }
      ],
      "stateMutability": "pure",
      "type": "function"
    },
    {
      "inputs": [],
      "name": "feeRecipient",
      "outputs": [
        {
          "internalType": "address",
          "name": "",
          "type": "address"
        }
      ],
      "stateMutability": "view",
      "type": "function"
    },
    {
      "inputs": [
        {
          "internalType": "uint256",
          "name": "gameId",
          "type": "uint256"
        }
      ],
      "name": "forceExpire",
      "outputs": [],
      "stateMutability": "nonpayable",
      "type": "function"
    },
    {
      "inputs": [],
      "name": "gameCounter",
      "outputs": [
        {
          "internalType": "uint256",
          "name": "",
          "type": "uint256"
        }
      ],
      "stateMutability": "view",
      "type": "function"
    },
    {
      "inputs": [
        {
          "internalType": "uint256",
          "name": "",
          "type": "uint256"
        }
      ],
      "name": "games",
      "outputs": [
        {
          "internalType": "address",
          "name": "player",
          "type": "address"
        },
        {
          "internalType": "enum Dice.GameState",
          "name": "state",
          "type": "uint8"
        },
        {
          "internalType": "uint256",
          "name": "betAmount",
          "type": "uint256"
        },
        {
          "internalType": "uint8",
          "name": "target",
          "type": "uint8"
        },
        {
          "internalType": "bytes32",
          "name": "commitment",
          "type": "bytes32"
        },
        {
          "internalType": "uint256",
          "name": "commitBlock",
          "type": "uint256"
        },
        {
          "internalType": "uint8",
          "name": "roll",
          "type": "uint8"
        },
        {
          "internalType": "bool",
          "name": "won",
          "type": "bool"
        },
        {
          "internalType": "uint256",
          "name": "payout",
          "type": "uint256"
        }
      ],
      "stateMutability": "view",
      "type": "function"
    },
    {
      "inputs": [
        {
          "internalType": "uint256",
          "name": "gameId",
          "type": "uint256"
        }
      ],
      "name": "getGame",
      "outputs": [
        {
          "internalType": "address",
          "name": "player",
          "type": "address"
        },
        {
          "internalType": "enum Dice.GameState",
          "name": "state",
          "type": "uint8"
        },
        {
          "internalType": "uint256",
          "name": "betAmount",
          "type": "uint256"
        },
        {
          "internalType": "uint8",
          "name": "target",
          "type": "uint8"
        },
        {
          "internalType": "uint8",
          "name": "roll",
          "type": "uint8"
        },
        {
          "internalType": "bool",
          "name": "won",
          "type": "bool"
        },
        {
          "internalType": "uint256",
          "name": "payout",
          "type": "uint256"
        }
      ],
      "stateMutability": "view",
      "type": "function"
    },
    {
      "inputs": [
        {
          "internalType": "uint8",
          "name": "target",
          "type": "uint8"
        }
      ],
      "name": "getMaxBetForTarget",
      "outputs": [
        {
          "internalType": "uint256",
          "name": "",
          "type": "uint256"
        }
      ],
      "stateMutability": "view",
      "type": "function"
    },
    {
      "inputs": [
        {
          "internalType": "uint8",
          "name": "target",
          "type": "uint8"
        }
      ],
      "name": "getMultiplier",
      "outputs": [
        {
          "internalType": "uint256",
          "name": "",
          "type": "uint256"
        }
      ],
      "stateMutability": "pure",
      "type": "function"
    },
    {
      "inputs": [
        {
          "internalType": "address",
          "name": "player",
          "type": "address"
        }
      ],
      "name": "getPlayerStats",
      "outputs": [
        {
          "internalType": "uint256",
          "name": "wins",
          "type": "uint256"
        },
        {
          "internalType": "uint256",
          "name": "losses",
          "type": "uint256"
        },
        {
          "internalType": "uint256",
          "name": "active",
          "type": "uint256"
        }
      ],
      "stateMutability": "view",
      "type": "function"
    },
    {
      "inputs": [
        {
          "internalType": "uint8",
          "name": "target",
          "type": "uint8"
        }
      ],
      "name": "getWinProbability",
      "outputs": [
        {
          "internalType": "uint256",
          "name": "",
          "type": "uint256"
        }
      ],
      "stateMutability": "pure",
      "type": "function"
    },
    {
      "inputs": [],
      "name": "houseBankroll",
      "outputs": [
        {
          "internalType": "address",
          "name": "",
          "type": "address"
        }
      ],
      "stateMutability": "view",
      "type": "function"
    },
    {
      "inputs": [
        {
          "internalType": "uint256",
          "name": "gameId",
          "type": "uint256"
        }
      ],
      "name": "isGameExpired",
      "outputs": [
        {
          "internalType": "bool",
          "name": "",
          "type": "bool"
        }
      ],
      "stateMutability": "view",
      "type": "function"
    },
    {
      "inputs": [],
      "name": "maxBet",
      "outputs": [
        {
          "internalType": "uint256",
          "name": "",
          "type": "uint256"
        }
      ],
      "stateMutability": "view",
      "type": "function"
    },
    {
      "inputs": [],
      "name": "minBet",
      "outputs": [
        {
          "internalType": "uint256",
          "name": "",
          "type": "uint256"
        }
      ],
      "stateMutability": "view",
      "type": "function"
    },
    {
      "inputs": [],
      "name": "owner",
      "outputs": [
        {
          "internalType": "address",
          "name": "",
          "type": "address"
        }
      ],
      "stateMutability": "view",
      "type": "function"
    },
    {
      "inputs": [
        {
          "internalType": "address",
          "name": "",
          "type": "address"
        }
      ],
      "name": "playerLosses",
      "outputs": [
        {
          "internalType": "uint256",
          "name": "",
          "type": "uint256"
        }
      ],
      "stateMutability": "view",
      "type": "function"
    },
    {
      "inputs": [
        {
          "internalType": "address",
          "name": "",
          "type": "address"
        }
      ],
      "name": "playerWins",
      "outputs": [
        {
          "internalType": "uint256",
          "name": "",
          "type": "uint256"
        }
      ],
      "stateMutability": "view",
      "type": "function"
    },
    {
      "inputs": [],
      "name": "renounceOwnership",
      "outputs": [],
      "stateMutability": "nonpayable",
      "type": "function"
    },
    {
      "inputs": [
        {
          "internalType": "uint256",
          "name": "gameId",
          "type": "uint256"
        },
        {
          "internalType": "uint256",
          "name": "secret",
          "type": "uint256"
        }
      ],
      "name": "reveal",
      "outputs": [],
      "stateMutability": "nonpayable",
      "type": "function"
    },
    {
      "inputs": [
        {
          "internalType": "uint256",
          "name": "_minBet",
          "type": "uint256"
        },
        {
          "internalType": "uint256",
          "name": "_maxBet",
          "type": "uint256"
        }
      ],
      "name": "setBetLimits",
      "outputs": [],
      "stateMutability": "nonpayable",
      "type": "function"
    },
    {
      "inputs": [
        {
          "internalType": "address",
          "name": "_feeRecipient",
          "type": "address"
        }
      ],
      "name": "setFeeRecipient",
      "outputs": [],
      "stateMutability": "nonpayable",
      "type": "function"
    },
    {
      "inputs": [
        {
          "internalType": "address",
          "name": "_houseBankroll",
          "type": "address"
        }
      ],
      "name": "setHouseBankroll",
      "outputs": [],
      "stateMutability": "nonpayable",
      "type": "function"
    },
    {
      "inputs": [],
      "name": "shellToken",
      "outputs": [
        {
          "internalType": "contract IERC20",
          "name": "",
          "type": "address"
        }
      ],
      "stateMutability": "view",
      "type": "function"
    },
    {
      "inputs": [
        {
          "internalType": "uint256",
          "name": "betAmount",
          "type": "uint256"
        },
        {
          "internalType": "uint8",
          "name": "target",
          "type": "uint8"
        },
        {
          "internalType": "bytes32",
          "name": "commitment",
          "type": "bytes32"
        }
      ],
      "name": "startGame",
      "outputs": [
        {
          "internalType": "uint256",
          "name": "gameId",
          "type": "uint256"
        }
      ],
      "stateMutability": "nonpayable",
      "type": "function"
    },
    {
      "inputs": [],
      "name": "totalGamesPlayed",
      "outputs": [
        {
          "internalType": "uint256",
          "name": "",
          "type": "uint256"
        }
      ],
      "stateMutability": "view",
      "type": "function"
    },
    {
      "inputs": [],
      "name": "totalVolume",
      "outputs": [
        {
          "internalType": "uint256",
          "name": "",
          "type": "uint256"
        }
      ],
      "stateMutability": "view",
      "type": "function"
    },
    {
      "inputs": [
        {
          "internalType": "address",
          "name": "newOwner",
          "type": "address"
        }
      ],
      "name": "transferOwnership",
      "outputs": [],
      "stateMutability": "nonpayable",
      "type": "function"
    }
  ],
  "bytecode": "0x60a0604052670de0b6b3a7640000600455683635c9adc5dea000006005553480156200002a57600080fd5b506040516200193a3803806200193a8339810160408190526200004d9162000217565b600160005533806200007a57604051631e4fbdf760e01b8152600060048201526024015b60405180910390fd5b6200008581620001a8565b506001600160a01b038316620000ce5760405162461bcd60e51b815260206004820152600d60248201526c24b73b30b634b2103a37b5b2b760991b604482015260640162000071565b6001600160a01b038216620001195760405162461bcd60e51b815260206004820152601060248201526f125b9d985b1a590818985b9adc9bdb1b60821b604482015260640162000071565b6001600160a01b038116620001715760405162461bcd60e51b815260206004820152601560248201527f496e76616c69642066656520726563697069656e740000000000000000000000604482015260640162000071565b6001600160a01b03928316608052600280549284166001600160a01b03199384161790556003805491909316911617905562000261565b600180546001600160a01b038381166001600160a01b0319831681179093556040519116919082907f8be0079c531659141344cd1fd0a4f28419497f9722a3daafe3b4186f6b6457e090600090a35050565b80516001600160a01b03811681146200021257600080fd5b919050565b6000806000606084860312156200022d57600080fd5b6200023884620001fa565b92506200024860208501620001fa565b91506200025860408501620001fa565b90509250925092565b60805161169a620002a0600039600081816103d6015281816106d30152818161089101528181610dbf01528181610e000152610e72015261169a6000f3fe608060405234801561001057600080fd5b50600436106102065760003560e01c80638b31fb891161011a578063ab782b98116100ad578063d52cdc991161007c578063d52cdc9914610532578063e74b981b14610545578063f2fde38b14610558578063f7ba2c0d1461056b578063fedb848a1461057357600080fd5b8063ab782b981461050f578063b32ff2be14610522578063b640a95d1461052a578063be378228146102ae57600080fd5b80639619367d116100e95780639619367d14610460578063a2f77bcc14610469578063a83d3e8d146104dc578063aaf6e0d5146104fc57600080fd5b80638b31fb89146104135780638da5cb5b14610433578063910f8b2e146104445780639348cef71461044d57600080fd5b8063469048401161019d5780635f81a57c1161016c5780635f81a57c146103a557806365b3a7ca146103ae5780636aae314c146103d1578063715018a6146103f85780637687dd491461040057600080fd5b806346904840146103035780634fd66eae1461032e5780635c492129146103895780635da3a21d1461039257600080fd5b80632e5b2168116101d95780632e5b2168146102bf578063346c0b93146102c857806344813f26146102db5780634481e3a2146102f057600080fd5b80630b072b8d1461020b578063117a5b901461023157806314f4b046146102ae5780632e0be39a146102b6575b600080fd5b61021e6102193660046113dd565b610593565b6040519081526020015b60405180910390f35b61029961023f3660046113f8565b60096020526000908152604090208054600182015460028301546003840154600485015460058601546006909601546001600160a01b0386169660ff600160a01b9097048716969485169481811692610100909204169089565b60405161022899989796959493929190611449565b61021e606481565b61021e60065481565b61021e60055481565b61021e6102d63660046113dd565b6105e3565b6102ee6102e93660046113f8565b610615565b005b61021e6102fe3660046114a3565b610753565b600354610316906001600160a01b031681565b6040516001600160a01b039091168152602001610228565b61036e61033c3660046114d8565b6001600160a01b03166000908152600b6020908152604080832054600c835281842054600a9093529220549192909190565b60408051938452602084019290925290820152606001610228565b61021e60085481565b61021e6103a03660046113dd565b6109a8565b61021e60075481565b6103c16103bc3660046113f8565b610a60565b6040519015158152602001610228565b6103167f000000000000000000000000000000000000000000000000000000000000000081565b6102ee610ab7565b6102ee61040e366004611501565b610acb565b61021e6104213660046114d8565b600b6020526000908152604090205481565b6001546001600160a01b0316610316565b61021e61010081565b6102ee61045b366004611501565b610b2f565b61021e60045481565b6104c96104773660046113f8565b600090815260096020526040902080546001820154600283015460058401546006909401546001600160a01b0384169560ff600160a01b90950485169593949283169383811693610100909104169190565b6040516102289796959493929190611523565b61021e6104ea3660046114d8565b600a6020526000908152604090205481565b600254610316906001600160a01b031681565b6102ee61051d3660046114d8565b610fd8565b61021e60c881565b61021e600281565b61021e61054036600461156c565b61104b565b6102ee6105533660046114d8565b61107c565b6102ee6105663660046114d8565b6110f4565b61021e606281565b61021e6105813660046114d8565b600c6020526000908152604090205481565b600060028260ff1610806105aa575060628260ff16115b156105b757506000919050565b60ff82166105c860c86127106115ae565b6105d39060646115c1565b6105dd91906115ee565b92915050565b600060028260ff1610806105fa575060628260ff16115b1561060757506000919050565b6105dd60ff831660646115c1565b61061d61112f565b600081815260096020526040902060018154600160a01b900460ff16600281111561064a5761064a611411565b1461066857604051636e2ab89360e11b815260040160405180910390fd5b610100816004015461067a9190611602565b43101561069a57604051637e22a63960e11b815260040160405180910390fd5b8054600160a11b60ff60a01b1982161782556001600160a01b039081166000908152600a6020526040812055815460018301546106fc927f00000000000000000000000000000000000000000000000000000000000000008116921690611159565b600181015460408051600080825260208201529081019190915282907ffe65d56385cefdfd1690ebfea726e466351f5d1b66eca4daf3ba957a168afc2d9060600160405180910390a2506107506001600055565b50565b600061075d61112f565b60045484108061076e575060055484115b1561078c5760405163aa82224960e01b815260040160405180910390fd5b60028360ff1610806107a1575060628360ff16115b156107bf5760405163416aebb560e11b815260040160405180910390fd5b336000908152600a6020526040902054156107ed57604051633497d0d160e21b815260040160405180910390fd5b60006107f9858561104b565b6002546040516372b3630d60e11b8152600481018390529192506001600160a01b03169063e566c61a90602401602060405180830381865afa158015610843573d6000803e3d6000fd5b505050506040513d601f19601f820116820180604052508101906108679190611615565b61088457604051632c0861a960e01b815260040160405180910390fd5b6108b96001600160a01b037f0000000000000000000000000000000000000000000000000000000000000000163330886111bd565b6006600081546108c890611637565b9182905550600081815260096020908152604080832080543360ff60a01b1981166001600160a81b031990921691909117600160a01b178255600182018b905560028201805460ff191660ff8c16179055600382018990554360048301558452600a9092528220839055600780549395509092889290610949908490611602565b90915550506040805187815260ff87166020820152908101859052339084907fb8c831602db82cfad7e6f8ab684b76c502e97d9e96e6db0025c15107b13c9b3a9060600160405180910390a350506109a16001600055565b9392505050565b600060028260ff1610806109bf575060628260ff16115b156109cc57506000919050565b60006109da6005548461104b565b6002546040516372b3630d60e11b8152600481018390529192506001600160a01b03169063e566c61a90602401602060405180830381865afa158015610a24573d6000803e3d6000fd5b505050506040513d601f19601f82011682018060405250810190610a489190611615565b15610a57575050600554919050565b50600092915050565b600081815260096020526040812060018154600160a01b900460ff166002811115610a8d57610a8d611411565b14610a9b5750600092915050565b6101008160040154610aad9190611602565b4310159392505050565b610abf6111fc565b610ac96000611229565b565b610ad36111fc565b600082118015610ae257508181115b610b245760405162461bcd60e51b815260206004820152600e60248201526d496e76616c6964206c696d69747360901b60448201526064015b60405180910390fd5b600491909155600555565b610b3761112f565b600082815260096020526040902080546001600160a01b03163314610b6f57604051631794a8af60e11b815260040160405180910390fd5b60018154600160a01b900460ff166002811115610b8e57610b8e611411565b14610bac5760405163baf3f0f760e01b815260040160405180910390fd5b80600401544311610bd05760405163c349402d60e01b815260040160405180910390fd5b60038101546040805160208101859052016040516020818303038152906040528051906020012014610c1557604051639ea6d12760e01b815260040160405180910390fd5b6004810154406000819003610c3357610c2f6001436115ae565b4090505b6040805160208082018690528183018490524460608084019190915242608084015233901b6bffffffffffffffffffffffff191660a08301528251808303609401815260b49092019092528051910120610c8e606482611650565b600584018054600286015461ffff1990911660ff9384169081176101009285169091108202179182905590041615610e5c5760018301546002840154600091610cd99160ff1661104b565b9050600084600101548211610cef576000610cfe565b6001850154610cfe90836115ae565b90506000612710610d106064846115c1565b610d1a91906115ee565b90506000610d2882846115ae565b9050808760010154610d3a9190611602565b60068801558215610daa5760025460405163093cc7db60e41b8152306004820152602481018590526001600160a01b03909116906393cc7db090604401600060405180830381600087803b158015610d9157600080fd5b505af1158015610da5573d6000803e3d6000fd5b505050505b86546006880154610de9916001600160a01b037f0000000000000000000000000000000000000000000000000000000000000000811692911690611159565b8115610e2957600354610e29906001600160a01b037f00000000000000000000000000000000000000000000000000000000000000008116911684611159565b86546001600160a01b03166000908152600b60205260408120805491610e4e83611637565b919050555050505050610f31565b6002546001840154610e9c916001600160a01b037f000000000000000000000000000000000000000000000000000000000000000081169291169061127b565b600254600184015460405163033c19ab60e41b81526001600160a01b03909216916333c19ab091610ed39160040190815260200190565b600060405180830381600087803b158015610eed57600080fd5b505af1158015610f01573d6000803e3d6000fd5b505084546001600160a01b03166000908152600c60205260408120805493509150610f2b83611637565b91905055505b8254600160a11b60ff60a01b1982161784556001600160a01b03166000908152600a602052604081208190556008805491610f6b83611637565b9091555050600583015460068401546040805160ff80851682526101009094049093161515602084015282015285907ffe65d56385cefdfd1690ebfea726e466351f5d1b66eca4daf3ba957a168afc2d9060600160405180910390a2505050610fd46001600055565b5050565b610fe06111fc565b6001600160a01b0381166110295760405162461bcd60e51b815260206004820152601060248201526f125b9d985b1a590818985b9adc9bdb1b60821b6044820152606401610b1b565b600280546001600160a01b0319166001600160a01b0392909216919091179055565b600061105b60ff831660646115c1565b61106860c86127106115ae565b61107290856115c1565b6109a191906115ee565b6110846111fc565b6001600160a01b0381166110d25760405162461bcd60e51b8152602060048201526015602482015274125b9d985b1a5908199959481c9958da5c1a595b9d605a1b6044820152606401610b1b565b600380546001600160a01b0319166001600160a01b0392909216919091179055565b6110fc6111fc565b6001600160a01b03811661112657604051631e4fbdf760e01b815260006004820152602401610b1b565b61075081611229565b60026000540361115257604051633ee5aeb560e01b815260040160405180910390fd5b6002600055565b6040516001600160a01b038381166024830152604482018390526111b891859182169063a9059cbb906064015b604051602081830303815290604052915060e01b6020820180516001600160e01b038381831617835250505050611307565b505050565b6040516001600160a01b0384811660248301528381166044830152606482018390526111f69186918216906323b872dd90608401611186565b50505050565b6001546001600160a01b03163314610ac95760405163118cdaa760e01b8152336004820152602401610b1b565b600180546001600160a01b038381166001600160a01b0319831681179093556040519116919082907f8be0079c531659141344cd1fd0a4f28419497f9722a3daafe3b4186f6b6457e090600090a35050565b604080516001600160a01b038416602482015260448082018490528251808303909101815260649091019091526020810180516001600160e01b031663095ea7b360e01b1790526112cc8482611378565b6111f6576040516001600160a01b0384811660248301526000604483015261130191869182169063095ea7b390606401611186565b6111f684825b600080602060008451602086016000885af18061132a576040513d6000823e3d81fd5b50506000513d9150811561134257806001141561134f565b6001600160a01b0384163b155b156111f657604051635274afe760e01b81526001600160a01b0385166004820152602401610b1b565b6000806000806020600086516020880160008a5af192503d915060005190508280156113bd575081156113ae57806001146113bd565b6000866001600160a01b03163b115b9695505050505050565b803560ff811681146113d857600080fd5b919050565b6000602082840312156113ef57600080fd5b6109a1826113c7565b60006020828403121561140a57600080fd5b5035919050565b634e487b7160e01b600052602160045260246000fd5b6003811061144557634e487b7160e01b600052602160045260246000fd5b9052565b6001600160a01b038a1681526101208101611467602083018b611427565b604082019890985260ff9687166060820152608081019590955260a0850193909352931660c083015291151560e0820152610100015292915050565b6000806000606084860312156114b857600080fd5b833592506114c8602085016113c7565b9150604084013590509250925092565b6000602082840312156114ea57600080fd5b81356001600160a01b03811681146109a157600080fd5b6000806040838503121561151457600080fd5b50508035926020909101359150565b6001600160a01b038816815260e081016115406020830189611427565b604082019690965260ff9485166060820152929093166080830152151560a082015260c0015292915050565b6000806040838503121561157f57600080fd5b8235915061158f602084016113c7565b90509250929050565b634e487b7160e01b600052601160045260246000fd5b818103818111156105dd576105dd611598565b80820281158282048414176105dd576105dd611598565b634e487b7160e01b600052601260045260246000fd5b6000826115fd576115fd6115d8565b500490565b808201808211156105dd576105dd611598565b60006020828403121561162757600080fd5b815180151581146109a157600080fd5b60006001820161164957611649611598565b5060010190565b60008261165f5761165f6115d8565b50069056fea264697066735822122003c6420270c5f3611a5856bfb3715062717fb5d85f6307bde5a305888e28c28264736f6c63430008140033",
  "linkReferences": {},
  "deployedLinkReferences": {}
}