{
  "_format": "hh-sol-artifact-1",
  "contractName": "ShellRouletteV2",
  "sourceName": "contracts/ShellRouletteV2.sol",
  "abi": [
    {
      "inputs": [
        {
          "internalType": "address",
          "name": "_shellToken",
          "type": "address"
        }
      ],
      "stateMutability": "nonpayable",
      "type": "constructor"
    },
    {
      "inputs": [
        {
          "internalType": "address",
          "name": "owner",
          "type": "address"
        }
      ],
      "name": "OwnableInvalidOwner",
      "type": "error"
    },
    {
      "inputs": [
        {
          "internalType": "address",
          "name": "account",
          "type": "address"
        }
      ],
      "name": "OwnableUnauthorizedAccount",
      "type": "error"
    },
    {
      "inputs": [],
      "name": "ReentrancyGuardReentrantCall",
      "type": "error"
    },
    {
      "inputs": [
        {
          "internalType": "address",
          "name": "token",
          "type": "address"
        }
      ],
      "name": "SafeERC20FailedOperation",
      "type": "error"
    },
    {
      "anonymous": false,
      "inputs": [
        {
          "indexed": true,
          "internalType": "address",
          "name": "agent",
          "type": "address"
        },
        {
          "indexed": false,
          "internalType": "string",
          "name": "name",
          "type": "string"
        }
      ],
      "name": "AgentVerified",
      "type": "event"
    },
    {
      "anonymous": false,
      "inputs": [
        {
          "indexed": true,
          "internalType": "address",
          "name": "agent",
          "type": "address"
        },
        {
          "indexed": true,
          "internalType": "address",
          "name": "verifier",
          "type": "address"
        }
      ],
      "name": "AgentVerifiedByMoltbook",
      "type": "event"
    },
    {
      "anonymous": false,
      "inputs": [
        {
          "indexed": true,
          "internalType": "uint256",
          "name": "roundId",
          "type": "uint256"
        },
        {
          "indexed": true,
          "internalType": "address",
          "name": "eliminated",
          "type": "address"
        },
        {
          "indexed": false,
          "internalType": "address[5]",
          "name": "survivors",
          "type": "address[5]"
        },
        {
          "indexed": false,
          "internalType": "uint256",
          "name": "prizePerSurvivor",
          "type": "uint256"
        }
      ],
      "name": "ChamberSpun",
      "type": "event"
    },
    {
      "anonymous": false,
      "inputs": [
        {
          "indexed": true,
          "internalType": "address",
          "name": "previousOwner",
          "type": "address"
        },
        {
          "indexed": true,
          "internalType": "address",
          "name": "newOwner",
          "type": "address"
        }
      ],
      "name": "OwnershipTransferred",
      "type": "event"
    },
    {
      "anonymous": false,
      "inputs": [
        {
          "indexed": true,
          "internalType": "address",
          "name": "player",
          "type": "address"
        },
        {
          "indexed": false,
          "internalType": "uint256",
          "name": "betAmount",
          "type": "uint256"
        },
        {
          "indexed": false,
          "internalType": "uint8",
          "name": "position",
          "type": "uint8"
        }
      ],
      "name": "PoolEntered",
      "type": "event"
    },
    {
      "anonymous": false,
      "inputs": [
        {
          "indexed": true,
          "internalType": "address",
          "name": "player",
          "type": "address"
        },
        {
          "indexed": false,
          "internalType": "uint256",
          "name": "betAmount",
          "type": "uint256"
        }
      ],
      "name": "PoolExited",
      "type": "event"
    },
    {
      "anonymous": false,
      "inputs": [
        {
          "indexed": true,
          "internalType": "uint256",
          "name": "roundId",
          "type": "uint256"
        },
        {
          "indexed": false,
          "internalType": "uint256",
          "name": "betAmount",
          "type": "uint256"
        },
        {
          "indexed": false,
          "internalType": "address[6]",
          "name": "players",
          "type": "address[6]"
        }
      ],
      "name": "RoundTriggered",
      "type": "event"
    },
    {
      "inputs": [],
      "name": "PLAYERS_PER_ROUND",
      "outputs": [
        {
          "internalType": "uint256",
          "name": "",
          "type": "uint256"
        }
      ],
      "stateMutability": "view",
      "type": "function"
    },
    {
      "inputs": [
        {
          "internalType": "uint256",
          "name": "amount",
          "type": "uint256"
        }
      ],
      "name": "addSupportedBet",
      "outputs": [],
      "stateMutability": "nonpayable",
      "type": "function"
    },
    {
      "inputs": [
        {
          "internalType": "address",
          "name": "",
          "type": "address"
        }
      ],
      "name": "agentInPool",
      "outputs": [
        {
          "internalType": "uint256",
          "name": "",
          "type": "uint256"
        }
      ],
      "stateMutability": "view",
      "type": "function"
    },
    {
      "inputs": [
        {
          "internalType": "address",
          "name": "",
          "type": "address"
        }
      ],
      "name": "agentNames",
      "outputs": [
        {
          "internalType": "string",
          "name": "",
          "type": "string"
        }
      ],
      "stateMutability": "view",
      "type": "function"
    },
    {
      "inputs": [
        {
          "internalType": "address",
          "name": "",
          "type": "address"
        }
      ],
      "name": "agentStatus",
      "outputs": [
        {
          "internalType": "enum ShellRouletteV2.VerificationStatus",
          "name": "",
          "type": "uint8"
        }
      ],
      "stateMutability": "view",
      "type": "function"
    },
    {
      "inputs": [
        {
          "internalType": "address",
          "name": "",
          "type": "address"
        }
      ],
      "name": "eliminationCount",
      "outputs": [
        {
          "internalType": "uint256",
          "name": "",
          "type": "uint256"
        }
      ],
      "stateMutability": "view",
      "type": "function"
    },
    {
      "inputs": [
        {
          "internalType": "uint256",
          "name": "betAmount",
          "type": "uint256"
        }
      ],
      "name": "enterChamber",
      "outputs": [
        {
          "internalType": "bool",
          "name": "triggered",
          "type": "bool"
        },
        {
          "internalType": "address",
          "name": "eliminated",
          "type": "address"
        }
      ],
      "stateMutability": "nonpayable",
      "type": "function"
    },
    {
      "inputs": [
        {
          "internalType": "uint256",
          "name": "betAmount",
          "type": "uint256"
        }
      ],
      "name": "exitChamber",
      "outputs": [],
      "stateMutability": "nonpayable",
      "type": "function"
    },
    {
      "inputs": [
        {
          "internalType": "address",
          "name": "agent",
          "type": "address"
        }
      ],
      "name": "getAgentStats",
      "outputs": [
        {
          "internalType": "string",
          "name": "name",
          "type": "string"
        },
        {
          "internalType": "uint256",
          "name": "survived",
          "type": "uint256"
        },
        {
          "internalType": "uint256",
          "name": "eliminated",
          "type": "uint256"
        },
        {
          "internalType": "uint256",
          "name": "wagered",
          "type": "uint256"
        },
        {
          "internalType": "int256",
          "name": "pnl",
          "type": "int256"
        },
        {
          "internalType": "uint256",
          "name": "survivalRate",
          "type": "uint256"
        }
      ],
      "stateMutability": "view",
      "type": "function"
    },
    {
      "inputs": [],
      "name": "getAllPoolStatus",
      "outputs": [
        {
          "internalType": "uint256[]",
          "name": "bets",
          "type": "uint256[]"
        },
        {
          "internalType": "uint8[]",
          "name": "counts",
          "type": "uint8[]"
        }
      ],
      "stateMutability": "view",
      "type": "function"
    },
    {
      "inputs": [
        {
          "internalType": "uint256",
          "name": "betAmount",
          "type": "uint256"
        }
      ],
      "name": "getPoolStatus",
      "outputs": [
        {
          "internalType": "uint8",
          "name": "playerCount",
          "type": "uint8"
        },
        {
          "internalType": "address[]",
          "name": "players",
          "type": "address[]"
        },
        {
          "internalType": "uint256",
          "name": "waitingSince",
          "type": "uint256"
        }
      ],
      "stateMutability": "view",
      "type": "function"
    },
    {
      "inputs": [
        {
          "internalType": "uint256",
          "name": "count",
          "type": "uint256"
        }
      ],
      "name": "getRecentRounds",
      "outputs": [
        {
          "components": [
            {
              "internalType": "uint256",
              "name": "roundId",
              "type": "uint256"
            },
            {
              "internalType": "uint256",
              "name": "betAmount",
              "type": "uint256"
            },
            {
              "internalType": "address[6]",
              "name": "players",
              "type": "address[6]"
            },
            {
              "internalType": "address",
              "name": "eliminated",
              "type": "address"
            },
            {
              "internalType": "uint256",
              "name": "prizePerSurvivor",
              "type": "uint256"
            },
            {
              "internalType": "uint256",
              "name": "timestamp",
              "type": "uint256"
            }
          ],
          "internalType": "struct ShellRouletteV2.RoundResult[]",
          "name": "",
          "type": "tuple[]"
        }
      ],
      "stateMutability": "view",
      "type": "function"
    },
    {
      "inputs": [],
      "name": "getSupportedBets",
      "outputs": [
        {
          "internalType": "uint256[]",
          "name": "",
          "type": "uint256[]"
        }
      ],
      "stateMutability": "view",
      "type": "function"
    },
    {
      "inputs": [
        {
          "internalType": "address",
          "name": "agent",
          "type": "address"
        }
      ],
      "name": "isMoltbookVerified",
      "outputs": [
        {
          "internalType": "bool",
          "name": "",
          "type": "bool"
        }
      ],
      "stateMutability": "view",
      "type": "function"
    },
    {
      "inputs": [
        {
          "internalType": "uint256",
          "name": "",
          "type": "uint256"
        }
      ],
      "name": "isSupportedBet",
      "outputs": [
        {
          "internalType": "bool",
          "name": "",
          "type": "bool"
        }
      ],
      "stateMutability": "view",
      "type": "function"
    },
    {
      "inputs": [],
      "name": "owner",
      "outputs": [
        {
          "internalType": "address",
          "name": "",
          "type": "address"
        }
      ],
      "stateMutability": "view",
      "type": "function"
    },
    {
      "inputs": [
        {
          "internalType": "uint256",
          "name": "",
          "type": "uint256"
        }
      ],
      "name": "poolCreatedAt",
      "outputs": [
        {
          "internalType": "uint256",
          "name": "",
          "type": "uint256"
        }
      ],
      "stateMutability": "view",
      "type": "function"
    },
    {
      "inputs": [
        {
          "internalType": "address",
          "name": "",
          "type": "address"
        }
      ],
      "name": "profitLoss",
      "outputs": [
        {
          "internalType": "int256",
          "name": "",
          "type": "int256"
        }
      ],
      "stateMutability": "view",
      "type": "function"
    },
    {
      "inputs": [],
      "name": "protocolFeeBps",
      "outputs": [
        {
          "internalType": "uint256",
          "name": "",
          "type": "uint256"
        }
      ],
      "stateMutability": "view",
      "type": "function"
    },
    {
      "inputs": [
        {
          "internalType": "string",
          "name": "name",
          "type": "string"
        }
      ],
      "name": "registerAgent",
      "outputs": [],
      "stateMutability": "nonpayable",
      "type": "function"
    },
    {
      "inputs": [],
      "name": "renounceOwnership",
      "outputs": [],
      "stateMutability": "nonpayable",
      "type": "function"
    },
    {
      "inputs": [
        {
          "internalType": "uint256",
          "name": "",
          "type": "uint256"
        }
      ],
      "name": "roundHistory",
      "outputs": [
        {
          "internalType": "uint256",
          "name": "roundId",
          "type": "uint256"
        },
        {
          "internalType": "uint256",
          "name": "betAmount",
          "type": "uint256"
        },
        {
          "internalType": "address",
          "name": "eliminated",
          "type": "address"
        },
        {
          "internalType": "uint256",
          "name": "prizePerSurvivor",
          "type": "uint256"
        },
        {
          "internalType": "uint256",
          "name": "timestamp",
          "type": "uint256"
        }
      ],
      "stateMutability": "view",
      "type": "function"
    },
    {
      "inputs": [
        {
          "internalType": "uint256",
          "name": "_feeBps",
          "type": "uint256"
        }
      ],
      "name": "setProtocolFee",
      "outputs": [],
      "stateMutability": "nonpayable",
      "type": "function"
    },
    {
      "inputs": [
        {
          "internalType": "address",
          "name": "verifier",
          "type": "address"
        },
        {
          "internalType": "bool",
          "name": "status",
          "type": "bool"
        }
      ],
      "name": "setVerifier",
      "outputs": [],
      "stateMutability": "nonpayable",
      "type": "function"
    },
    {
      "inputs": [],
      "name": "shellToken",
      "outputs": [
        {
          "internalType": "contract IERC20",
          "name": "",
          "type": "address"
        }
      ],
      "stateMutability": "view",
      "type": "function"
    },
    {
      "inputs": [
        {
          "internalType": "uint256",
          "name": "",
          "type": "uint256"
        }
      ],
      "name": "supportedBets",
      "outputs": [
        {
          "internalType": "uint256",
          "name": "",
          "type": "uint256"
        }
      ],
      "stateMutability": "view",
      "type": "function"
    },
    {
      "inputs": [
        {
          "internalType": "address",
          "name": "",
          "type": "address"
        }
      ],
      "name": "survivalCount",
      "outputs": [
        {
          "internalType": "uint256",
          "name": "",
          "type": "uint256"
        }
      ],
      "stateMutability": "view",
      "type": "function"
    },
    {
      "inputs": [],
      "name": "totalEliminated",
      "outputs": [
        {
          "internalType": "uint256",
          "name": "",
          "type": "uint256"
        }
      ],
      "stateMutability": "view",
      "type": "function"
    },
    {
      "inputs": [],
      "name": "totalRoundsPlayed",
      "outputs": [
        {
          "internalType": "uint256",
          "name": "",
          "type": "uint256"
        }
      ],
      "stateMutability": "view",
      "type": "function"
    },
    {
      "inputs": [],
      "name": "totalVolume",
      "outputs": [
        {
          "internalType": "uint256",
          "name": "",
          "type": "uint256"
        }
      ],
      "stateMutability": "view",
      "type": "function"
    },
    {
      "inputs": [
        {
          "internalType": "address",
          "name": "",
          "type": "address"
        }
      ],
      "name": "totalWagered",
      "outputs": [
        {
          "internalType": "uint256",
          "name": "",
          "type": "uint256"
        }
      ],
      "stateMutability": "view",
      "type": "function"
    },
    {
      "inputs": [
        {
          "internalType": "address",
          "name": "newOwner",
          "type": "address"
        }
      ],
      "name": "transferOwnership",
      "outputs": [],
      "stateMutability": "nonpayable",
      "type": "function"
    },
    {
      "inputs": [
        {
          "internalType": "address",
          "name": "",
          "type": "address"
        }
      ],
      "name": "verifiedAgents",
      "outputs": [
        {
          "internalType": "bool",
          "name": "",
          "type": "bool"
        }
      ],
      "stateMutability": "view",
      "type": "function"
    },
    {
      "inputs": [
        {
          "internalType": "address",
          "name": "",
          "type": "address"
        }
      ],
      "name": "verifiers",
      "outputs": [
        {
          "internalType": "bool",
          "name": "",
          "type": "bool"
        }
      ],
      "stateMutability": "view",
      "type": "function"
    },
    {
      "inputs": [
        {
          "internalType": "address",
          "name": "agent",
          "type": "address"
        }
      ],
      "name": "verifyAgentIdentity",
      "outputs": [],
      "stateMutability": "nonpayable",
      "type": "function"
    },
    {
      "inputs": [
        {
          "internalType": "uint256",
          "name": "",
          "type": "uint256"
        },
        {
          "internalType": "uint256",
          "name": "",
          "type": "uint256"
        }
      ],
      "name": "waitingPlayers",
      "outputs": [
        {
          "internalType": "address",
          "name": "",
          "type": "address"
        }
      ],
      "stateMutability": "view",
      "type": "function"
    }
  ],
  "bytecode": "0x60a060405260c86002553480156200001657600080fd5b506040516200268d3803806200268d8339810160408190526200003991620001e1565b600160005533806200006557604051631e4fbdf760e01b81526000600482015260240160405180910390fd5b62000070816200012a565b506001600160a01b038116608052336000908152600e60205260409020805460ff19166001179055620000ab678ac7230489e800006200017c565b620000bf68015af1d78b58c400006200017c565b620000d36802b5e3af16b18800006200017c565b620000e768056bc75e2d631000006200017c565b620000fb680d8d726b7177a800006200017c565b6200010f681b1ae4d6e2ef5000006200017c565b62000123683635c9adc5dea000006200017c565b5062000213565b600180546001600160a01b038381166001600160a01b0319831681179093556040519116919082907f8be0079c531659141344cd1fd0a4f28419497f9722a3daafe3b4186f6b6457e090600090a35050565b60008181526007602052604090205460ff16620001de576006805460018181019092557ff652222313e28459528d920b65115c16c04f3efc82aaedc97be59f3f377c0d3f018290556000828152600760205260409020805460ff191690911790555b50565b600060208284031215620001f457600080fd5b81516001600160a01b03811681146200020c57600080fd5b9392505050565b60805161244962000244600039600081816103ad01528181610cc7015281816113ae01526118fc01526124496000f3fe608060405234801561001057600080fd5b506004361061021c5760003560e01c8063715018a611610125578063b111dfac116100ad578063d7da98d11161007c578063d7da98d11461059f578063e2905d4f146105bf578063eca33449146105c8578063f2fde38b146105db578063f6601f16146105ee57600080fd5b8063b111dfac14610518578063b34a5f7214610538578063b5695b381461055a578063c61483091461057f57600080fd5b8063a964cab5116100f4578063a964cab514610487578063ac9b5671146104b9578063ae82455f146104cc578063b02a5e90146104ef578063b087ae4f1461050557600080fd5b8063715018a61461043b578063787dce3d146104435780638da5cb5b14610456578063a5f35f291461046757600080fd5b8063343d9232116101a85780635f81a57c116101775780635f81a57c1461037f5780636796c973146103885780636aae314c146103a85780636c824487146103cf5780636d3c4c10146103f257600080fd5b8063343d92321461032e57806335659fb814610341578063470762e91461034a5780634c6ae76f1461036a57600080fd5b8063133f5fea116101ef578063133f5fea14610297578063191ae8ad146102c257806328f3fac9146102cb5780632cbc1660146102fb5780632d2a95851461031b57600080fd5b8063011b66b71461022157806308763f621461023657806308f3b429146102515780630f394b6114610284575b600080fd5b61023461022f366004611cd5565b61060e565b005b61023e600681565b6040519081526020015b60405180910390f35b61027461025f366004611cd5565b60076020526000908152604090205460ff1681565b6040519015158152602001610248565b610234610292366004611d0a565b610622565b6102aa6102a5366004611d2c565b610735565b6040516001600160a01b039091168152602001610248565b61023e60035481565b6102ee6102d9366004611d0a565b600d6020526000908152604090205460ff1681565b6040516102489190611d64565b61030e610309366004611d0a565b61076d565b6040516102489190611dd2565b610234610329366004611de5565b610807565b61023e61033c366004611cd5565b61090d565b61023e60025481565b61023e610358366004611d0a565b60116020526000908152604090205481565b61037261092e565b6040516102489190611e92565b61023e60045481565b61023e610396366004611cd5565b60096020526000908152604090205481565b6102aa7f000000000000000000000000000000000000000000000000000000000000000081565b6102746103dd366004611d0a565b600e6020526000908152604090205460ff1681565b610405610400366004611cd5565b610986565b6040805195865260208601949094526001600160a01b03909216928401929092526060830191909152608082015260a001610248565b6102346109d1565b610234610451366004611cd5565b6109e5565b6001546001600160a01b03166102aa565b61047a610475366004611cd5565b610a31565b6040516102489190611ed1565b61049a610495366004611cd5565b610bab565b6040805192151583526001600160a01b03909116602083015201610248565b6102346104c7366004611f5e565b610e65565b6102746104da366004611d0a565b600b6020526000908152604090205460ff1681565b6104f7610e98565b604051610248929190611f9a565b610274610513366004611d0a565b610fe1565b61023e610526366004611d0a565b60126020526000908152604090205481565b61054b610546366004611cd5565b611019565b60405161024893929190611ff4565b61056d610568366004611d0a565b61109d565b60405161024896959493929190612057565b61023e61058d366004611d0a565b60106020526000908152604090205481565b61023e6105ad366004611d0a565b600f6020526000908152604090205481565b61023e60055481565b6102346105d6366004611cd5565b611207565b6102346105e9366004611d0a565b611415565b61023e6105fc366004611d0a565b60136020526000908152604090205481565b610616611450565b61061f8161147d565b50565b336000908152600e602052604090205460ff166106775760405162461bcd60e51b815260206004820152600e60248201526d2737ba1030903b32b934b334b2b960911b60448201526064015b60405180910390fd5b60016001600160a01b0382166000908152600d602052604090205460ff1660028111156106a6576106a6611d4e565b146106e75760405162461bcd60e51b81526020600482015260116024820152704167656e74206e6f742070656e64696e6760781b604482015260640161066e565b6001600160a01b0381166000818152600d6020526040808220805460ff19166002179055513392917f7f5835461dbf886f27de41a9adf55100f10e6974a3fc4a867ded38b50daf358d91a350565b6008602052816000526040600020818154811061075157600080fd5b6000918252602090912001546001600160a01b03169150829050565b600c602052600090815260409020805461078690612093565b80601f01602080910402602001604051908101604052809291908181526020018280546107b290612093565b80156107ff5780601f106107d4576101008083540402835291602001916107ff565b820191906000526020600020905b8154815290600101906020018083116107e257829003601f168201915b505050505081565b8015801590610817575060208111155b6108525760405162461bcd60e51b815260206004820152600c60248201526b496e76616c6964206e616d6560a01b604482015260640161066e565b336000908152600b60209081526040808320805460ff19166001179055600c9091529020610881828483612131565b50336000908152600d602052604081205460ff1660028111156108a6576108a6611d4e565b036108c657336000908152600d60205260409020805460ff191660011790555b336001600160a01b03167f45127b38457c2f5c381cad14d94b51d80a7700dfb7a910a1d816fee3d3e1059183836040516109019291906121f2565b60405180910390a25050565b6006818154811061091d57600080fd5b600091825260209091200154905081565b6060600680548060200260200160405190810160405280929190818152602001828054801561097c57602002820191906000526020600020905b815481526020019060010190808311610968575b5050505050905090565b600a818154811061099657600080fd5b60009182526020909120600b909102018054600182015460088301546009840154600a9094015492945090926001600160a01b039091169185565b6109d9611450565b6109e360006114e0565b565b6109ed611450565b6101f4811115610a2c5760405162461bcd60e51b815260206004820152600a6024820152694d61782035252066656560b01b604482015260640161066e565b600255565b600a5460609080831115610a43578092505b60008367ffffffffffffffff811115610a5e57610a5e6120cd565b604051908082528060200260200182016040528015610a9757816020015b610a84611bc9565b815260200190600190039081610a7c5790505b50905060005b84811015610ba357600a81610ab3600186612237565b610abd9190612237565b81548110610acd57610acd612250565b90600052602060002090600b02016040518060c0016040529081600082015481526020016001820154815260200160028201600680602002604051908101604052809291908260068015610b40576020028201915b81546001600160a01b03168152600190910190602001808311610b22575b505050918352505060088201546001600160a01b0316602082015260098201546040820152600a909101546060909101528251839083908110610b8557610b85612250565b60200260200101819052508080610b9b90612266565b915050610a9d565b509392505050565b336000908152600b6020526040812054819060ff16610c035760405162461bcd60e51b8152602060048201526014602482015273139bdd0818481d995c9a599a5959081859d95b9d60621b604482015260640161066e565b610c0b611532565b60008381526007602052604090205460ff16610c695760405162461bcd60e51b815260206004820152601860248201527f557365206120737570706f727465642062657420746965720000000000000000604482015260640161066e565b3360009081526013602052604090205415610cba5760405162461bcd60e51b8152602060048201526011602482015270105b1c9958591e481a5b8818481c1bdbdb607a1b604482015260640161066e565b610cef6001600160a01b037f00000000000000000000000000000000000000000000000000000000000000001633308661155c565b6000838152600860205260408120905b8154811015610d8f57336001600160a01b0316828281548110610d2457610d24612250565b6000918252602090912001546001600160a01b031603610d7d5760405162461bcd60e51b8152602060048201526014602482015273105b1c9958591e481a5b881d1a1a5cc81c1bdbdb60621b604482015260640161066e565b80610d8781612266565b915050610cff565b5080546001810182556000828152602080822090920180546001600160a01b0319163390811790915581526013825260408082208790558682526009909252908120549003610dea5760008481526009602052604090204290555b805460405133917f4af9253c060f8b592f8160f3873718ad63ce9582e72617d6742b49725727370e91610e289188825260ff16602082015260400190565b60405180910390a2805460051901610e4d57610e43846115c9565b9250925050610e56565b60008092509250505b610e606001600055565b915091565b610e6d611450565b6001600160a01b03919091166000908152600e60205260409020805460ff1916911515919091179055565b60065460609081908067ffffffffffffffff811115610eb957610eb96120cd565b604051908082528060200260200182016040528015610ee2578160200160208202803683370190505b5092508067ffffffffffffffff811115610efe57610efe6120cd565b604051908082528060200260200182016040528015610f27578160200160208202803683370190505b50915060005b81811015610fdb5760068181548110610f4857610f48612250565b9060005260206000200154848281518110610f6557610f65612250565b6020026020010181815250506008600060068381548110610f8857610f88612250565b9060005260206000200154815260200190815260200160002080549050838281518110610fb757610fb7612250565b60ff9092166020928302919091019091015280610fd381612266565b915050610f2d565b50509091565b600060026001600160a01b0383166000908152600d602052604090205460ff16600281111561101257611012611d4e565b1492915050565b60008181526008602090815260408083208054600984528285205483518286028101860190945281845260609486948492918390859083018282801561108857602002820191906000526020600020905b81546001600160a01b0316815260019091019060200180831161106a575b50505050509150935093509350509193909250565b6001600160a01b038116600090815260106020908152604080832054600f90925282205460609291829182918291829182916110d9919061227f565b905060008082116110eb57600061111c565b6001600160a01b0389166000908152600f6020526040902054829061111290612710612292565b61111c91906122bf565b6001600160a01b038a166000908152600c60209081526040808320600f8352818420546010845282852054601185528386205460129095529290942054815495965090949192918690869061117090612093565b80601f016020809104026020016040519081016040528092919081815260200182805461119c90612093565b80156111e95780601f106111be576101008083540402835291602001916111e9565b820191906000526020600020905b8154815290600101906020018083116111cc57829003601f168201915b50505050509550975097509750975097509750505091939550919395565b61120f611532565b3360009081526013602052604090205481146112605760405162461bcd60e51b815260206004820152601060248201526f139bdd081a5b881d1a1a5cc81c1bdbdb60821b604482015260640161066e565b6000818152600860205260408120905b815481101561137657336001600160a01b031682828154811061129557611295612250565b6000918252602090912001546001600160a01b03160361136457815482906112bf90600190612237565b815481106112cf576112cf612250565b9060005260206000200160009054906101000a90046001600160a01b03168282815481106112ff576112ff612250565b9060005260206000200160006101000a8154816001600160a01b0302191690836001600160a01b031602179055508180548061133d5761133d6122d3565b600082815260209020810160001990810180546001600160a01b0319169055019055611376565b8061136e81612266565b915050611270565b50336000908152601360205260408120819055815490036113a1576000828152600960205260408120555b6113d56001600160a01b037f0000000000000000000000000000000000000000000000000000000000000000163384611a10565b60405182815233907fbc865856a1e9f1dfe2abde98edc2eefe87b6c391a47032388ef36d8c2474aad39060200160405180910390a25061061f6001600055565b61141d611450565b6001600160a01b03811661144757604051631e4fbdf760e01b81526000600482015260240161066e565b61061f816114e0565b6001546001600160a01b031633146109e35760405163118cdaa760e01b815233600482015260240161066e565b60008181526007602052604090205460ff1661061f576006805460018181019092557ff652222313e28459528d920b65115c16c04f3efc82aaedc97be59f3f377c0d3f018290556000828152600760205260409020805460ff1916909117905550565b600180546001600160a01b038381166001600160a01b0319831681179093556040519116919082907f8be0079c531659141344cd1fd0a4f28419497f9722a3daafe3b4186f6b6457e090600090a35050565b60026000540361155557604051633ee5aeb560e01b815260040160405180910390fd5b6002600055565b6040516001600160a01b0384811660248301528381166044830152606482018390526115c39186918216906323b872dd906084015b604051602081830303815290604052915060e01b6020820180516001600160e01b038381831617835250505050611a46565b50505050565b600081815260086020526040812081906115e1611c0e565b60005b6006811015611692578281815481106115ff576115ff612250565b6000918252602090912001546001600160a01b031682826006811061162657611626612250565b60200201906001600160a01b031690816001600160a01b03168152505060006013600085848154811061165b5761165b612250565b60009182526020808320909101546001600160a01b031683528201929092526040019020558061168a81612266565b9150506115e4565b5060008581526008602052604081206116aa91611c2c565b600085815260096020908152604080832083905560035490516116d392449242928792016122e9565b60408051601f198184030181529190528051602090910120905060006116fa60068361233c565b90506000838260ff166006811061171357611713612250565b602002015190506000611727896006612292565b905060006127106002548361173c9190612292565b61174691906122bf565b905060006117548284612237565b905060006117636005836122bf565b60038054919250600061177583612266565b9190505550836004600082825461178c919061227f565b9091555050600580549060006117a183612266565b91905055506117ae611c4a565b6000805b60068160ff16101561196b5760008b8260ff16600681106117d5576117d5612250565b602002015190508f60116000836001600160a01b03166001600160a01b031681526020019081526020016000206000828254611811919061227f565b909155505060ff808b169083160361188c576001600160a01b038116600090815260106020526040812080549161184783612266565b91905055508f60126000836001600160a01b03166001600160a01b0316815260200190815260200160002060008282546118819190612350565b909155506119589050565b6001600160a01b0381166000908152600f602052604081208054916118b083612266565b91905055508f856118c19190612350565b6001600160a01b038216600090815260126020526040812080549091906118e9908490612377565b9091555061192390506001600160a01b037f0000000000000000000000000000000000000000000000000000000000000000168287611a10565b80848461192f8161239f565b955060ff166005811061194457611944612250565b6001600160a01b0390921660209290920201525b50806119638161239f565b9150506117b2565b506119788e8b8986611ab7565b6003547fd91b4a127487a962f7a5a6620d9b959528c22269f415cbdc8e44ca18b893fc2e8f8c6040516119ac9291906123be565b60405180910390a2866001600160a01b03166003547fb1236ba836486814b3b4ed56c13869206572d39ce6990ff55bda0d3752bfc22884866040516119f29291906123d2565b60405180910390a35060019d959c50949a5050505050505050505050565b6040516001600160a01b03838116602483015260448201839052611a4191859182169063a9059cbb90606401611591565b505050565b600080602060008451602086016000885af180611a69576040513d6000823e3d81fd5b50506000513d91508115611a81578060011415611a8e565b6001600160a01b0384163b155b156115c357604051635274afe760e01b81526001600160a01b038516600482015260240161066e565b611abf611bc9565b600354815260208101858152604082018581526001600160a01b0385166060840152608083018490524260a0840152600a80546001810182556000919091528351600b9091027fc65a7bb8d6351c1cf70c95a316cc6a92839c986682d98bc35f958f4883f9d2a8810191825592517fc65a7bb8d6351c1cf70c95a316cc6a92839c986682d98bc35f958f4883f9d2a984015590518392611b85917fc65a7bb8d6351c1cf70c95a316cc6a92839c986682d98bc35f958f4883f9d2aa909101906006611c68565b5060608201516008820180546001600160a01b0319166001600160a01b039092169190911790556080820151600982015560a090910151600a909101555050505050565b6040518060c001604052806000815260200160008152602001611bea611c0e565b815260200160006001600160a01b0316815260200160008152602001600081525090565b6040518060c001604052806006906020820280368337509192915050565b508054600082559060005260206000209081019061061f9190611cc0565b6040518060a001604052806005906020820280368337509192915050565b8260068101928215611cb0579160200282015b82811115611cb057825182546001600160a01b0319166001600160a01b03909116178255602090920191600190910190611c7b565b50611cbc929150611cc0565b5090565b5b80821115611cbc5760008155600101611cc1565b600060208284031215611ce757600080fd5b5035919050565b80356001600160a01b0381168114611d0557600080fd5b919050565b600060208284031215611d1c57600080fd5b611d2582611cee565b9392505050565b60008060408385031215611d3f57600080fd5b50508035926020909101359150565b634e487b7160e01b600052602160045260246000fd5b6020810160038310611d8657634e487b7160e01b600052602160045260246000fd5b91905290565b6000815180845260005b81811015611db257602081850181015186830182015201611d96565b506000602082860101526020601f19601f83011685010191505092915050565b602081526000611d256020830184611d8c565b60008060208385031215611df857600080fd5b823567ffffffffffffffff80821115611e1057600080fd5b818501915085601f830112611e2457600080fd5b813581811115611e3357600080fd5b866020828501011115611e4557600080fd5b60209290920196919550909350505050565b600081518084526020808501945080840160005b83811015611e8757815187529582019590820190600101611e6b565b509495945050505050565b602081526000611d256020830184611e57565b8060005b60068110156115c35781516001600160a01b0316845260209384019390910190600101611ea9565b602080825282518282018190526000919060409081850190868401855b82811015611f5157815180518552868101518786015285810151611f1487870182611ea5565b5060608101516001600160a01b0316610100860152608081015161012086015260a001516101408501526101609093019290850190600101611eee565b5091979650505050505050565b60008060408385031215611f7157600080fd5b611f7a83611cee565b915060208301358015158114611f8f57600080fd5b809150509250929050565b604081526000611fad6040830185611e57565b82810360208481019190915284518083528582019282019060005b81811015611fe757845160ff1683529383019391830191600101611fc8565b5090979650505050505050565b60006060820160ff861683526020606081850152818651808452608086019150828801935060005b818110156120415784516001600160a01b03168352938301939183019160010161201c565b5050809350505050826040830152949350505050565b60c08152600061206a60c0830189611d8c565b60208301979097525060408101949094526060840192909252608083015260a090910152919050565b600181811c908216806120a757607f821691505b6020821081036120c757634e487b7160e01b600052602260045260246000fd5b50919050565b634e487b7160e01b600052604160045260246000fd5b601f821115611a4157600081815260208120601f850160051c8101602086101561210a5750805b601f850160051c820191505b8181101561212957828155600101612116565b505050505050565b67ffffffffffffffff831115612149576121496120cd565b61215d836121578354612093565b836120e3565b6000601f84116001811461219157600085156121795750838201355b600019600387901b1c1916600186901b1783556121eb565b600083815260209020601f19861690835b828110156121c257868501358255602094850194600190920191016121a2565b50868210156121df5760001960f88860031b161c19848701351681555b505060018560011b0183555b5050505050565b60208152816020820152818360408301376000818301604090810191909152601f909201601f19160101919050565b634e487b7160e01b600052601160045260246000fd5b8181038181111561224a5761224a612221565b92915050565b634e487b7160e01b600052603260045260246000fd5b60006001820161227857612278612221565b5060010190565b8082018082111561224a5761224a612221565b808202811582820484141761224a5761224a612221565b634e487b7160e01b600052601260045260246000fd5b6000826122ce576122ce6122a9565b500490565b634e487b7160e01b600052603160045260246000fd5b848152600060208581840152604083018560005b60068110156123235781516001600160a01b0316835291830191908301906001016122fd565b5050505050610100810191909152610120019392505050565b60008261234b5761234b6122a9565b500690565b818103600083128015838313168383128216171561237057612370612221565b5092915050565b808201828112600083128015821682158216171561239757612397612221565b505092915050565b600060ff821660ff81036123b5576123b5612221565b60010192915050565b82815260e08101611d256020830184611ea5565b60c08101818460005b60058110156124035781516001600160a01b03168352602092830192909101906001016123db565b5050508260a0830152939250505056fea2646970667358221220b37f144757b627ef779fcb1fc0e31ea51a8ddfd3c1d4cd5e5d3014e5c25ddc5f64736f6c63430008140033",
  "linkReferences": {},
  "deployedLinkReferences": {}
}