{"contracts/ShellCoinflip.sol":{"ShellCoinflip":{"abi":[{"inputs":[{"internalType":"address","name":"_shellToken","type":"address"}],"stateMutability":"nonpayable","type":"constructor"},{"inputs":[{"internalType":"address","name":"owner","type":"address"}],"name":"OwnableInvalidOwner","type":"error"},{"inputs":[{"internalType":"address","name":"account","type":"address"}],"name":"OwnableUnauthorizedAccount","type":"error"},{"inputs":[],"name":"ReentrancyGuardReentrantCall","type":"error"},{"inputs":[{"internalType":"address","name":"token","type":"address"}],"name":"SafeERC20FailedOperation","type":"error"},{"anonymous":false,"inputs":[{"indexed":true,"internalType":"address","name":"agent","type":"address"},{"indexed":false,"internalType":"string","name":"name","type":"string"}],"name":"AgentRegistered","type":"event"},{"anonymous":false,"inputs":[{"indexed":true,"internalType":"address","name":"agent","type":"address"},{"indexed":false,"internalType":"string","name":"name","type":"string"}],"name":"AgentVerified","type":"event"},{"anonymous":false,"inputs":[{"indexed":true,"internalType":"address","name":"agent","type":"address"},{"indexed":true,"internalType":"address","name":"verifier","type":"address"}],"name":"AgentVerifiedByMoltbook","type":"event"},{"anonymous":false,"inputs":[{"indexed":true,"internalType":"uint256","name":"gameId","type":"uint256"},{"indexed":true,"internalType":"address","name":"challenger","type":"address"},{"indexed":true,"internalType":"address","name":"challenged","type":"address"},{"indexed":false,"internalType":"uint256","name":"betAmount","type":"uint256"}],"name":"ChallengeIssued","type":"event"},{"anonymous":false,"inputs":[{"indexed":true,"internalType":"uint256","name":"gameId","type":"uint256"}],"name":"GameCancelled","type":"event"},{"anonymous":false,"inputs":[{"indexed":true,"internalType":"uint256","name":"gameId","type":"uint256"},{"indexed":true,"internalType":"address","name":"player1","type":"address"},{"indexed":false,"internalType":"uint256","name":"betAmount","type":"uint256"},{"indexed":true,"internalType":"address","name":"challenged","type":"address"}],"name":"GameCreated","type":"event"},{"anonymous":false,"inputs":[{"indexed":true,"internalType":"uint256","name":"gameId","type":"uint256"},{"indexed":false,"internalType":"string","name":"reason","type":"string"}],"name":"GameExpired","type":"event"},{"anonymous":false,"inputs":[{"indexed":true,"internalType":"uint256","name":"gameId","type":"uint256"},{"indexed":true,"internalType":"address","name":"player2","type":"address"},{"indexed":false,"internalType":"uint8","name":"choice","type":"uint8"}],"name":"GameJoined","type":"event"},{"anonymous":false,"inputs":[{"indexed":true,"internalType":"uint256","name":"gameId","type":"uint256"},{"indexed":true,"internalType":"address","name":"winner","type":"address"},{"indexed":false,"internalType":"uint256","name":"payout","type":"uint256"}],"name":"GameResolved","type":"event"},{"anonymous":false,"inputs":[{"indexed":true,"internalType":"address","name":"previousOwner","type":"address"},{"indexed":true,"internalType":"address","name":"newOwner","type":"address"}],"name":"OwnershipTransferred","type":"event"},{"anonymous":false,"inputs":[{"indexed":true,"internalType":"address","name":"verifier","type":"address"},{"indexed":false,"internalType":"bool","name":"status","type":"bool"}],"name":"VerifierUpdated","type":"event"},{"inputs":[{"internalType":"address","name":"","type":"address"}],"name":"agentNames","outputs":[{"internalType":"string","name":"","type":"string"}],"stateMutability":"view","type":"function"},{"inputs":[{"internalType":"address","name":"","type":"address"}],"name":"agentStatus","outputs":[{"internalType":"enum ShellCoinflip.VerificationStatus","name":"","type":"uint8"}],"stateMutability":"view","type":"function"},{"inputs":[{"internalType":"address[]","name":"agents","type":"address[]"}],"name":"batchVerifyAgents","outputs":[],"stateMutability":"nonpayable","type":"function"},{"inputs":[{"internalType":"uint256","name":"gameId","type":"uint256"}],"name":"cancelGame","outputs":[],"stateMutability":"nonpayable","type":"function"},{"inputs":[{"internalType":"uint256","name":"betAmount","type":"uint256"},{"internalType":"bytes32","name":"commitment","type":"bytes32"},{"internalType":"address","name":"opponent","type":"address"}],"name":"challengeAgent","outputs":[{"internalType":"uint256","name":"","type":"uint256"}],"stateMutability":"nonpayable","type":"function"},{"inputs":[{"internalType":"address","name":"","type":"address"},{"internalType":"uint256","name":"","type":"uint256"}],"name":"challengesReceived","outputs":[{"internalType":"uint256","name":"","type":"uint256"}],"stateMutability":"view","type":"function"},{"inputs":[{"internalType":"address","name":"","type":"address"},{"internalType":"uint256","name":"","type":"uint256"}],"name":"challengesSent","outputs":[{"internalType":"uint256","name":"","type":"uint256"}],"stateMutability":"view","type":"function"},{"inputs":[{"internalType":"uint256","name":"betAmount","type":"uint256"},{"internalType":"bytes32","name":"commitment","type":"bytes32"}],"name":"createGame","outputs":[{"internalType":"uint256","name":"","type":"uint256"}],"stateMutability":"nonpayable","type":"function"},{"inputs":[{"internalType":"uint256","name":"gameId","type":"uint256"}],"name":"forceResolve","outputs":[],"stateMutability":"nonpayable","type":"function"},{"inputs":[],"name":"gameTimeout","outputs":[{"internalType":"uint256","name":"","type":"uint256"}],"stateMutability":"view","type":"function"},{"inputs":[{"internalType":"uint256","name":"","type":"uint256"}],"name":"games","outputs":[{"internalType":"address","name":"player1","type":"address"},{"internalType":"address","name":"player2","type":"address"},{"internalType":"address","name":"challenged","type":"address"},{"internalType":"uint256","name":"betAmount","type":"uint256"},{"internalType":"bytes32","name":"player1Commit","type":"bytes32"},{"internalType":"uint8","name":"player2Choice","type":"uint8"},{"internalType":"enum ShellCoinflip.GameState","name":"state","type":"uint8"},{"internalType":"uint256","name":"createdAt","type":"uint256"},{"internalType":"uint256","name":"joinedAt","type":"uint256"},{"internalType":"address","name":"winner","type":"address"}],"stateMutability":"view","type":"function"},{"inputs":[{"internalType":"uint8","name":"choice","type":"uint8"},{"internalType":"bytes32","name":"secret","type":"bytes32"}],"name":"generateCommitment","outputs":[{"internalType":"bytes32","name":"","type":"bytes32"}],"stateMutability":"pure","type":"function"},{"inputs":[{"internalType":"address","name":"agent","type":"address"}],"name":"getAgentProfile","outputs":[{"internalType":"string","name":"name","type":"string"},{"internalType":"uint256","name":"_wins","type":"uint256"},{"internalType":"uint256","name":"_losses","type":"uint256"},{"internalType":"uint256","name":"wagered","type":"uint256"},{"internalType":"bool","name":"canPlay","type":"bool"},{"internalType":"bool","name":"moltbookVerified","type":"bool"}],"stateMutability":"view","type":"function"},{"inputs":[{"internalType":"address","name":"agent","type":"address"}],"name":"getAgentStats","outputs":[{"internalType":"uint256","name":"_wins","type":"uint256"},{"internalType":"uint256","name":"_losses","type":"uint256"},{"internalType":"uint256","name":"_totalWagered","type":"uint256"},{"internalType":"string","name":"_name","type":"string"}],"stateMutability":"view","type":"function"},{"inputs":[{"internalType":"uint256","name":"gameId","type":"uint256"}],"name":"getGame","outputs":[{"components":[{"internalType":"address","name":"player1","type":"address"},{"internalType":"address","name":"player2","type":"address"},{"internalType":"address","name":"challenged","type":"address"},{"internalType":"uint256","name":"betAmount","type":"uint256"},{"internalType":"bytes32","name":"player1Commit","type":"bytes32"},{"internalType":"uint8","name":"player2Choice","type":"uint8"},{"internalType":"enum ShellCoinflip.GameState","name":"state","type":"uint8"},{"internalType":"uint256","name":"createdAt","type":"uint256"},{"internalType":"uint256","name":"joinedAt","type":"uint256"},{"internalType":"address","name":"winner","type":"address"}],"internalType":"struct ShellCoinflip.Game","name":"","type":"tuple"}],"stateMutability":"view","type":"function"},{"inputs":[{"internalType":"uint256","name":"offset","type":"uint256"},{"internalType":"uint256","name":"limit","type":"uint256"}],"name":"getOpenGames","outputs":[{"internalType":"uint256[]","name":"gameIds","type":"uint256[]"},{"components":[{"internalType":"address","name":"player1","type":"address"},{"internalType":"address","name":"player2","type":"address"},{"internalType":"address","name":"challenged","type":"address"},{"internalType":"uint256","name":"betAmount","type":"uint256"},{"internalType":"bytes32","name":"player1Commit","type":"bytes32"},{"internalType":"uint8","name":"player2Choice","type":"uint8"},{"internalType":"enum ShellCoinflip.GameState","name":"state","type":"uint8"},{"internalType":"uint256","name":"createdAt","type":"uint256"},{"internalType":"uint256","name":"joinedAt","type":"uint256"},{"internalType":"address","name":"winner","type":"address"}],"internalType":"struct ShellCoinflip.Game[]","name":"openGames","type":"tuple[]"}],"stateMutability":"view","type":"function"},{"inputs":[{"internalType":"address","name":"agent","type":"address"}],"name":"getPendingChallenges","outputs":[{"internalType":"uint256[]","name":"gameIds","type":"uint256[]"},{"components":[{"internalType":"address","name":"player1","type":"address"},{"internalType":"address","name":"player2","type":"address"},{"internalType":"address","name":"challenged","type":"address"},{"internalType":"uint256","name":"betAmount","type":"uint256"},{"internalType":"bytes32","name":"player1Commit","type":"bytes32"},{"internalType":"uint8","name":"player2Choice","type":"uint8"},{"internalType":"enum ShellCoinflip.GameState","name":"state","type":"uint8"},{"internalType":"uint256","name":"createdAt","type":"uint256"},{"internalType":"uint256","name":"joinedAt","type":"uint256"},{"internalType":"address","name":"winner","type":"address"}],"internalType":"struct ShellCoinflip.Game[]","name":"challengeGames","type":"tuple[]"}],"stateMutability":"view","type":"function"},{"inputs":[{"internalType":"address","name":"agent","type":"address"},{"internalType":"uint256","name":"start","type":"uint256"},{"internalType":"uint256","name":"limit","type":"uint256"}],"name":"getPendingChallengesPaginated","outputs":[{"internalType":"uint256[]","name":"gameIds","type":"uint256[]"},{"components":[{"internalType":"address","name":"player1","type":"address"},{"internalType":"address","name":"player2","type":"address"},{"internalType":"address","name":"challenged","type":"address"},{"internalType":"uint256","name":"betAmount","type":"uint256"},{"internalType":"bytes32","name":"player1Commit","type":"bytes32"},{"internalType":"uint8","name":"player2Choice","type":"uint8"},{"internalType":"enum ShellCoinflip.GameState","name":"state","type":"uint8"},{"internalType":"uint256","name":"createdAt","type":"uint256"},{"internalType":"uint256","name":"joinedAt","type":"uint256"},{"internalType":"address","name":"winner","type":"address"}],"internalType":"struct ShellCoinflip.Game[]","name":"challengeGames","type":"tuple[]"}],"stateMutability":"view","type":"function"},{"inputs":[{"internalType":"address","name":"agent","type":"address"}],"name":"getSentChallenges","outputs":[{"internalType":"uint256[]","name":"gameIds","type":"uint256[]"},{"components":[{"internalType":"address","name":"player1","type":"address"},{"internalType":"address","name":"player2","type":"address"},{"internalType":"address","name":"challenged","type":"address"},{"internalType":"uint256","name":"betAmount","type":"uint256"},{"internalType":"bytes32","name":"player1Commit","type":"bytes32"},{"internalType":"uint8","name":"player2Choice","type":"uint8"},{"internalType":"enum ShellCoinflip.GameState","name":"state","type":"uint8"},{"internalType":"uint256","name":"createdAt","type":"uint256"},{"internalType":"uint256","name":"joinedAt","type":"uint256"},{"internalType":"address","name":"winner","type":"address"}],"internalType":"struct ShellCoinflip.Game[]","name":"challengeGames","type":"tuple[]"}],"stateMutability":"view","type":"function"},{"inputs":[{"internalType":"address","name":"agent","type":"address"},{"internalType":"uint256","name":"start","type":"uint256"},{"internalType":"uint256","name":"limit","type":"uint256"}],"name":"getSentChallengesPaginated","outputs":[{"internalType":"uint256[]","name":"gameIds","type":"uint256[]"},{"components":[{"internalType":"address","name":"player1","type":"address"},{"internalType":"address","name":"player2","type":"address"},{"internalType":"address","name":"challenged","type":"address"},{"internalType":"uint256","name":"betAmount","type":"uint256"},{"internalType":"bytes32","name":"player1Commit","type":"bytes32"},{"internalType":"uint8","name":"player2Choice","type":"uint8"},{"internalType":"enum ShellCoinflip.GameState","name":"state","type":"uint8"},{"internalType":"uint256","name":"createdAt","type":"uint256"},{"internalType":"uint256","name":"joinedAt","type":"uint256"},{"internalType":"address","name":"winner","type":"address"}],"internalType":"struct ShellCoinflip.Game[]","name":"challengeGames","type":"tuple[]"}],"stateMutability":"view","type":"function"},{"inputs":[{"internalType":"uint256","name":"gameId","type":"uint256"}],"name":"isGameExpired","outputs":[{"internalType":"bool","name":"expired","type":"bool"},{"internalType":"string","name":"reason","type":"string"}],"stateMutability":"view","type":"function"},{"inputs":[{"internalType":"address","name":"agent","type":"address"}],"name":"isMoltbookVerified","outputs":[{"internalType":"bool","name":"","type":"bool"}],"stateMutability":"view","type":"function"},{"inputs":[{"internalType":"uint256","name":"gameId","type":"uint256"},{"internalType":"uint8","name":"choice","type":"uint8"}],"name":"joinGame","outputs":[],"stateMutability":"nonpayable","type":"function"},{"inputs":[{"internalType":"address","name":"","type":"address"}],"name":"losses","outputs":[{"internalType":"uint256","name":"","type":"uint256"}],"stateMutability":"view","type":"function"},{"inputs":[],"name":"maxBet","outputs":[{"internalType":"uint256","name":"","type":"uint256"}],"stateMutability":"view","type":"function"},{"inputs":[],"name":"minBet","outputs":[{"internalType":"uint256","name":"","type":"uint256"}],"stateMutability":"view","type":"function"},{"inputs":[],"name":"nextGameId","outputs":[{"internalType":"uint256","name":"","type":"uint256"}],"stateMutability":"view","type":"function"},{"inputs":[],"name":"owner","outputs":[{"internalType":"address","name":"","type":"address"}],"stateMutability":"view","type":"function"},{"inputs":[],"name":"protocolFeeBps","outputs":[{"internalType":"uint256","name":"","type":"uint256"}],"stateMutability":"view","type":"function"},{"inputs":[{"internalType":"string","name":"name","type":"string"}],"name":"registerAgent","outputs":[],"stateMutability":"nonpayable","type":"function"},{"inputs":[],"name":"renounceOwnership","outputs":[],"stateMutability":"nonpayable","type":"function"},{"inputs":[{"internalType":"uint256","name":"gameId","type":"uint256"},{"internalType":"uint8","name":"choice","type":"uint8"},{"internalType":"bytes32","name":"secret","type":"bytes32"}],"name":"revealAndResolve","outputs":[],"stateMutability":"nonpayable","type":"function"},{"inputs":[],"name":"revealTimeout","outputs":[{"internalType":"uint256","name":"","type":"uint256"}],"stateMutability":"view","type":"function"},{"inputs":[{"internalType":"uint256","name":"_min","type":"uint256"},{"internalType":"uint256","name":"_max","type":"uint256"}],"name":"setBetLimits","outputs":[],"stateMutability":"nonpayable","type":"function"},{"inputs":[{"internalType":"uint256","name":"_timeout","type":"uint256"}],"name":"setGameTimeout","outputs":[],"stateMutability":"nonpayable","type":"function"},{"inputs":[{"internalType":"uint256","name":"_feeBps","type":"uint256"}],"name":"setProtocolFee","outputs":[],"stateMutability":"nonpayable","type":"function"},{"inputs":[{"internalType":"uint256","name":"_timeout","type":"uint256"}],"name":"setRevealTimeout","outputs":[],"stateMutability":"nonpayable","type":"function"},{"inputs":[{"internalType":"address","name":"verifier","type":"address"},{"internalType":"bool","name":"status","type":"bool"}],"name":"setVerifier","outputs":[],"stateMutability":"nonpayable","type":"function"},{"inputs":[],"name":"shellToken","outputs":[{"internalType":"contract IERC20","name":"","type":"address"}],"stateMutability":"view","type":"function"},{"inputs":[],"name":"totalGamesPlayed","outputs":[{"internalType":"uint256","name":"","type":"uint256"}],"stateMutability":"view","type":"function"},{"inputs":[],"name":"totalVolume","outputs":[{"internalType":"uint256","name":"","type":"uint256"}],"stateMutability":"view","type":"function"},{"inputs":[{"internalType":"address","name":"","type":"address"}],"name":"totalWagered","outputs":[{"internalType":"uint256","name":"","type":"uint256"}],"stateMutability":"view","type":"function"},{"inputs":[{"internalType":"address","name":"newOwner","type":"address"}],"name":"transferOwnership","outputs":[],"stateMutability":"nonpayable","type":"function"},{"inputs":[{"internalType":"address","name":"","type":"address"}],"name":"verifiedAgents","outputs":[{"internalType":"bool","name":"","type":"bool"}],"stateMutability":"view","type":"function"},{"inputs":[{"internalType":"address","name":"","type":"address"}],"name":"verifiers","outputs":[{"internalType":"bool","name":"","type":"bool"}],"stateMutability":"view","type":"function"},{"inputs":[{"internalType":"address","name":"agent","type":"address"}],"name":"verifyAgentIdentity","outputs":[],"stateMutability":"nonpayable","type":"function"},{"inputs":[{"internalType":"address","name":"","type":"address"}],"name":"wins","outputs":[{"internalType":"uint256","name":"","type":"uint256"}],"stateMutability":"view","type":"function"},{"inputs":[{"internalType":"address","name":"to","type":"address"}],"name":"withdrawFees","outputs":[],"stateMutability":"nonpayable","type":"function"}],"evm":{"bytecode":{"linkReferences":{},"object":"60a0604052670de0b6b3a7640000600255683635c9adc5dea000006003556064600455610e10600755610e106008556001600a553480156200004057600080fd5b5060405162003a5e38038062003a5e833981016040819052620000639162000119565b600160005533806200008f57604051631e4fbdf760e01b81526000600482015260240160405180910390fd5b6200009a81620000c7565b506001600160a01b0316608052336000908152600e60205260409020805460ff191660011790556200014b565b600180546001600160a01b038381166001600160a01b0319831681179093556040519116919082907f8be0079c531659141344cd1fd0a4f28419497f9722a3daafe3b4186f6b6457e090600090a35050565b6000602082840312156200012c57600080fd5b81516001600160a01b03811681146200014457600080fd5b9392505050565b6080516138c662000198600039600081816104ee01528181610a9101528181610c360152818161167e01528181611ff1015281816123290152818161282a0152612d4b01526138c66000f3fe608060405234801561001057600080fd5b50600436106102a05760003560e01c80636c82448711610167578063ab8b3721116100ce578063b135bbb011610087578063b135bbb014610713578063b5695b381461071c578063c903c2331461073f578063ca6649c51461075f578063de92285f14610772578063f2fde38b1461078557600080fd5b8063ab8b372114610654578063ac258d9714610667578063ac9b5671146106b7578063ae82455f146106ca578063af499c35146106ed578063b087ae4f1461070057600080fd5b80638da5cb5b116101205780638da5cb5b146105e15780638fbf281d146105f25780639619367d14610605578063a1506dee1461060e578063a2f77bcc14610621578063a34803ad1461064157600080fd5b80636c8244871461053b578063715018a61461056e5780637687dd4914610576578063787dce3d1461058957806378dc93a41461059c5780638047a97a146105c157600080fd5b80632e5b21681161020b5780635c492129116101c45780635c492129146104a35780635f81a57c146104ac57806365b3a7ca146104b557806369958ab9146104d65780636aae314c146104e95780636c6b12561461052857600080fd5b80632e5b21681461044257806335659fb81461044b57806338b64085146104545780634376cb3414610467578063470762e9146104705780635b0215251461049057600080fd5b806328f3fac91161025d57806328f3fac9146103985780632a0ec7f3146103c85780632ba86b12146103db5780632beb8bb2146103fc5780632cbc16601461040f5780632d2a95851461042f57600080fd5b806302559eeb146102a55780630d8b2def146102ba5780630f394b61146102e0578063117a5b90146102f3578063164e68de1461037c5780631e72553d1461038f575b600080fd5b6102b86102b3366004613095565b610798565b005b6102cd6102c8366004613126565b610932565b6040519081526020015b60405180910390f35b6102b86102ee366004613150565b610963565b61036661030136600461316b565b6009602052600090815260409020805460018201546002830154600384015460048501546005860154600687015460078801546008909801546001600160a01b039788169896881697958616969495939460ff8085169561010090950416939091168a565b6040516102d79a999897969594939291906131ae565b6102b861038a366004613150565b610a71565b6102cd60075481565b6103bb6103a6366004613150565b600b6020526000908152604090205460ff1681565b6040516102d7919061321b565b6102cd6103d6366004613235565b610c5d565b6103ee6103e9366004613257565b610cb2565b6040516102d7929190613338565b6102cd61040a3660046133be565b61100c565b61042261041d366004613150565b6111ee565b6040516102d79190613439565b6102b861043d36600461344c565b611288565b6102cd60035481565b6102cd60045481565b6102b861046236600461316b565b6113c8565b6102cd60085481565b6102cd61047e366004613150565b60116020526000908152604090205481565b6103ee61049e366004613150565b611428565b6102cd60055481565b6102cd60065481565b6104c86104c336600461316b565b611441565b6040516102d79291906134ac565b6102b86104e436600461316b565b611573565b6105107f000000000000000000000000000000000000000000000000000000000000000081565b6040516001600160a01b0390911681526020016102d7565b6103ee610536366004613257565b611766565b61055e610549366004613150565b600e6020526000908152604090205460ff1681565b60405190151581526020016102d7565b6102b8611ab1565b6102b8610584366004613235565b611ac5565b6102b861059736600461316b565b611b18565b6105af6105aa366004613150565b611b66565b6040516102d7969594939291906134cf565b6102cd6105cf366004613150565b600f6020526000908152604090205481565b6001546001600160a01b0316610510565b6102b8610600366004613520565b611c79565b6102cd60025481565b6103ee61061c366004613150565b61206c565b61063461062f36600461316b565b61207c565b6040516102d79190613555565b6102b861064f36600461316b565b612150565b6102b861066236600461316b565b612419565b6102cd610675366004613564565b6040516001600160f81b031960f884901b1660208201526021810182905260009060410160405160208183030381529060405280519060200120905092915050565b6102b86106c5366004613580565b612479565b61055e6106d8366004613150565b600d6020526000908152604090205460ff1681565b6102cd6106fb366004613126565b6124d9565b61055e61070e366004613150565b6124f5565b6102cd600a5481565b61072f61072a366004613150565b61252d565b6040516102d794939291906135bc565b6102cd61074d366004613150565b60106020526000908152604090205481565b6102b861076d3660046135eb565b612607565b6103ee610780366004613235565b6128cf565b6102b8610793366004613150565b612bb6565b336000908152600e602052604090205460ff166107ed5760405162461bcd60e51b815260206004820152600e60248201526d2737ba1030903b32b934b334b2b960911b60448201526064015b60405180910390fd5b60005b8181101561092d576001600b600085858581811061081057610810613617565b90506020020160208101906108259190613150565b6001600160a01b0316815260208101919091526040016000205460ff16600281111561085357610853613184565b0361091b576002600b600085858581811061087057610870613617565b90506020020160208101906108859190613150565b6001600160a01b031681526020810191909152604001600020805460ff191660018360028111156108b8576108b8613184565b0217905550338383838181106108d0576108d0613617565b90506020020160208101906108e59190613150565b6001600160a01b03167f7f5835461dbf886f27de41a9adf55100f10e6974a3fc4a867ded38b50daf358d60405160405180910390a35b8061092581613643565b9150506107f0565b505050565b6012602052816000526040600020818154811061094e57600080fd5b90600052602060002001600091509150505481565b336000908152600e602052604090205460ff166109b35760405162461bcd60e51b815260206004820152600e60248201526d2737ba1030903b32b934b334b2b960911b60448201526064016107e4565b60016001600160a01b0382166000908152600b602052604090205460ff1660028111156109e2576109e2613184565b14610a235760405162461bcd60e51b81526020600482015260116024820152704167656e74206e6f742070656e64696e6760781b60448201526064016107e4565b6001600160a01b0381166000818152600b6020526040808220805460ff19166002179055513392917f7f5835461dbf886f27de41a9adf55100f10e6974a3fc4a867ded38b50daf358d91a350565b610a79612bf1565b6040516370a0823160e01b81523060048201526000907f00000000000000000000000000000000000000000000000000000000000000006001600160a01b0316906370a0823190602401602060405180830381865afa158015610ae0573d6000803e3d6000fd5b505050506040513d601f19601f82011682018060405250810190610b04919061365c565b9050600060015b600a54811015610bd8576001600082815260096020526040902060050154610100900460ff166003811115610b4257610b42613184565b03610b6a57600081815260096020526040902060030154610b639083613675565b9150610bc6565b6002600082815260096020526040902060050154610100900460ff166003811115610b9757610b97613184565b03610bc657600081815260096020526040902060030154610bb9906002613688565b610bc39083613675565b91505b80610bd081613643565b915050610b0b565b50808211610c1e5760405162461bcd60e51b81526020600482015260136024820152724e6f206665657320746f20776974686472617760681b60448201526064016107e4565b61092d83610c2c838561369f565b6001600160a01b037f0000000000000000000000000000000000000000000000000000000000000000169190612c1e565b336000908152600d602052604081205460ff16610c8c5760405162461bcd60e51b81526004016107e4906136b2565b610c94612c7d565b610ca083836000612ca7565b9050610cac6001600055565b92915050565b6001600160a01b0383166000908152601260205260409020805460609182918510610d1b5760408051600080825260208201818152828401909352909190610d10565b610cfd613039565b815260200190600190039081610cf55790505b509250925050611004565b6064841115610d2957606493505b8054600090610d388688613675565b11610d4c57610d478587613675565b610d4f565b81545b90506000865b82811015610dd557600160096000868481548110610d7557610d75613617565b9060005260206000200154815260200190815260200160002060050160019054906101000a900460ff166003811115610db057610db0613184565b03610dc35781610dbf81613643565b9250505b80610dcd81613643565b915050610d55565b508067ffffffffffffffff811115610def57610def6136e0565b604051908082528060200260200182016040528015610e18578160200160208202803683370190505b5094508067ffffffffffffffff811115610e3457610e346136e0565b604051908082528060200260200182016040528015610e6d57816020015b610e5a613039565b815260200190600190039081610e525790505b5093506000875b8381108015610e8257508282105b15610ffe576000858281548110610e9b57610e9b613617565b60009182526020909120015490506001600082815260096020526040902060050154610100900460ff166003811115610ed657610ed6613184565b03610feb5780888481518110610eee57610eee613617565b60209081029190910181019190915260008281526009825260409081902081516101408101835281546001600160a01b0390811682526001830154811694820194909452600282015490931691830191909152600380820154606084015260048201546080840152600582015460ff80821660a086015260c08501926101009092041690811115610f8157610f81613184565b6003811115610f9257610f92613184565b815260068201546020820152600782015460408201526008909101546001600160a01b03166060909101528751889085908110610fd157610fd1613617565b60200260200101819052508280610fe790613643565b9350505b5080610ff681613643565b915050610e74565b50505050505b935093915050565b336000908152600d602052604081205460ff1661103b5760405162461bcd60e51b81526004016107e4906136b2565b611043612c7d565b6001600160a01b03821661108c5760405162461bcd60e51b815260206004820152601060248201526f125b9d985b1a59081bdc1c1bdb995b9d60821b60448201526064016107e4565b336001600160a01b038316036110e45760405162461bcd60e51b815260206004820152601960248201527f43616e6e6f74206368616c6c656e676520796f757273656c660000000000000060448201526064016107e4565b6001600160a01b0382166000908152600d602052604090205460ff1661114c5760405162461bcd60e51b815260206004820152601d60248201527f4f70706f6e656e74206e6f742061207665726966696564206167656e7400000060448201526064016107e4565b6000611159858585612ca7565b6001600160a01b03841660008181526012602090815260408083208054600180820183559185528385200186905533808552601384528285208054928301815585529383902001859055518981529394509192909184917f689d6025813ec7a85f98f14388328e9e48053a65b79e20e34bf3f3142decebce910160405180910390a490506111e76001600055565b9392505050565b600c6020526000908152604090208054611207906136f6565b80601f0160208091040260200160405190810160405280929190818152602001828054611233906136f6565b80156112805780601f1061125557610100808354040283529160200191611280565b820191906000526020600020905b81548152906001019060200180831161126357829003601f168201915b505050505081565b8015801590611298575060208111155b6112d35760405162461bcd60e51b815260206004820152600c60248201526b496e76616c6964206e616d6560a01b60448201526064016107e4565b336000908152600d60209081526040808320805460ff19166001179055600c909152902061130282848361377e565b50336000908152600b602052604081205460ff16600281111561132757611327613184565b0361138157336000818152600b602052604090819020805460ff19166001179055517fda816ca2fc37b9eecec62ae8263008ec6be1afb38dc28bc9c7c51d7e348da9c290611378908590859061383f565b60405180910390a25b336001600160a01b03167f45127b38457c2f5c381cad14d94b51d80a7700dfb7a910a1d816fee3d3e1059183836040516113bc92919061383f565b60405180910390a25050565b6113d0612bf1565b61070881101580156113e557506202a3008111155b6114235760405162461bcd60e51b815260206004820152600f60248201526e125b9d985b1a59081d1a5b595bdd5d608a1b60448201526064016107e4565b600855565b6060806114388360006032610cb2565b91509150915091565b600081815260096020526040812060609060016005820154610100900460ff16600381111561147257611472613184565b036114d75760075481600601546114899190613675565b4211156114d25760016040518060400160405280601a81526020017f4e6f206f70706f6e656e74206a6f696e656420696e2074696d650000000000008152509250925050915091565b611557565b60026005820154610100900460ff1660038111156114f7576114f7613184565b0361155757600854816007015461150e9190613675565b4211156115575760016040518060400160405280601e81526020017f506c617965723120646964206e6f742072657665616c20696e2074696d6500008152509250925050915091565b6000604051806020016040528060008152509250925050915091565b61157b612c7d565b600081815260096020526040902060016005820154610100900460ff1660038111156115a9576115a9613184565b146115e65760405162461bcd60e51b815260206004820152600d60248201526c10d85b9b9bdd0818d85b98d95b609a1b60448201526064016107e4565b805460075460068301546001600160a01b039290921633149160009161160b91613675565b4211905081806116185750805b6116585760405162461bcd60e51b815260206004820152601160248201527010d85b9b9bdd0818d85b98d95b081e595d607a1b60448201526064016107e4565b60058301805461ff001916610300179055825460038401546116a8916001600160a01b037f0000000000000000000000000000000000000000000000000000000000000000811692911690612c1e565b8080156116b3575081155b1561172b57837fd38304b601013934ec411ac3ecc152228d5349b6671f052480451a7e348f8de36040516117229060208082526021908201527f47616d652074696d656f7574202d206e6f206f70706f6e656e74206a6f696e656040820152601960fa1b606082015260800190565b60405180910390a25b60405184907f681705fdbd93dba3b679fd712577e9a86d57c5551c520f8c74857deb57f9623f90600090a25050506117636001600055565b50565b6001600160a01b03831660009081526013602052604090208054606091829185106117ce5760408051600080825260208201818152828401909352909190610d10565b6117b1613039565b8152602001906001900390816117a9579050509250925050611004565b60648411156117dc57606493505b80546000906117eb8688613675565b116117ff576117fa8587613675565b611802565b81545b90506000865b828110156118885760016009600086848154811061182857611828613617565b9060005260206000200154815260200190815260200160002060050160019054906101000a900460ff16600381111561186357611863613184565b03611876578161187281613643565b9250505b8061188081613643565b915050611808565b508067ffffffffffffffff8111156118a2576118a26136e0565b6040519080825280602002602001820160405280156118cb578160200160208202803683370190505b5094508067ffffffffffffffff8111156118e7576118e76136e0565b60405190808252806020026020018201604052801561192057816020015b61190d613039565b8152602001906001900390816119055790505b5093506000875b838110801561193557508282105b15610ffe57600085828154811061194e5761194e613617565b60009182526020909120015490506001600082815260096020526040902060050154610100900460ff16600381111561198957611989613184565b03611a9e57808884815181106119a1576119a1613617565b60209081029190910181019190915260008281526009825260409081902081516101408101835281546001600160a01b0390811682526001830154811694820194909452600282015490931691830191909152600380820154606084015260048201546080840152600582015460ff80821660a086015260c08501926101009092041690811115611a3457611a34613184565b6003811115611a4557611a45613184565b815260068201546020820152600782015460408201526008909101546001600160a01b03166060909101528751889085908110611a8457611a84613617565b60200260200101819052508280611a9a90613643565b9350505b5080611aa981613643565b915050611927565b611ab9612bf1565b611ac36000612f37565b565b611acd612bf1565b808210611b0d5760405162461bcd60e51b815260206004820152600e60248201526d496e76616c6964206c696d69747360901b60448201526064016107e4565b600291909155600355565b611b20612bf1565b6101f4811115611b615760405162461bcd60e51b815260206004820152600c60248201526b08ccaca40e8dede40d0d2ced60a31b60448201526064016107e4565b600455565b6001600160a01b0381166000908152600c60209081526040808320600f83528184205460108452828520546011855283862054600d865284872054600b909652938620546060969586958695869586959194909391929160ff908116916002911681811115611bd757611bd7613184565b14858054611be4906136f6565b80601f0160208091040260200160405190810160405280929190818152602001828054611c10906136f6565b8015611c5d5780601f10611c3257610100808354040283529160200191611c5d565b820191906000526020600020905b815481529060010190602001808311611c4057829003601f168201915b5050505050955095509550955095509550955091939550919395565b611c81612c7d565b600083815260096020526040902060026005820154610100900460ff166003811115611caf57611caf613184565b14611cfc5760405162461bcd60e51b815260206004820152601960248201527f47616d65206e6f7420726561647920746f207265736f6c76650000000000000060448201526064016107e4565b80546001600160a01b03163314611d555760405162461bcd60e51b815260206004820152601760248201527f4f6e6c7920706c61796572312063616e2072657665616c00000000000000000060448201526064016107e4565b60018360ff161115611d9a5760405162461bcd60e51b815260206004820152600e60248201526d496e76616c69642063686f69636560901b60448201526064016107e4565b6040516001600160f81b031960f885901b1660208201526021810183905260009060410160405160208183030381529060405280519060200120905081600401548114611e1a5760405162461bcd60e51b815260206004820152600e60248201526d125b9d985b1a59081c995d99585b60921b60448201526064016107e4565b600582015460009060ff90811690861603611e40575081546001600160a01b0316611e50565b5060018201546001600160a01b03165b6008830180546001600160a01b0319166001600160a01b03831617905560058301805461ff0019166103001790556003830154600090611e91906002613688565b9050600061271060045483611ea69190613688565b611eb0919061386e565b90506000611ebe828461369f565b600580549192506000611ed083613643565b91905055508260066000828254611ee79190613675565b90915550506001600160a01b0384166000908152600f60205260408120805491611f1083613643565b909155505085546010906000906001600160a01b03878116911614611f3f5787546001600160a01b0316611f4e565b60018801546001600160a01b03165b6001600160a01b0316815260208101919091526040016000908120805491611f7583613643565b9091555050600386015486546001600160a01b031660009081526011602052604081208054909190611fa8908490613675565b9091555050600386015460018701546001600160a01b031660009081526011602052604081208054909190611fde908490613675565b9091555061201890506001600160a01b037f0000000000000000000000000000000000000000000000000000000000000000168583612c1e565b836001600160a01b0316897f36e33eea5df2e6c873949c5c856feb597f250ea8a329ed5ac38c39ab969053598360405161205491815260200190565b60405180910390a350505050505061092d6001600055565b6060806114388360006032611766565b612084613039565b60008281526009602090815260409182902082516101408101845281546001600160a01b0390811682526001830154811693820193909352600282015490921692820192909252600380830154606083015260048301546080830152600583015460ff80821660a085015292939260c0850192610100909204169081111561210e5761210e613184565b600381111561211f5761211f613184565b815260068201546020820152600782015460408201526008909101546001600160a01b031660609091015292915050565b612158612c7d565b600081815260096020526040902060026005820154610100900460ff16600381111561218657612186613184565b146121c55760405162461bcd60e51b815260206004820152600f60248201526e11d85b59481b9bdd081a9bda5b9959608a1b60448201526064016107e4565b60085481600701546121d79190613675565b421161221a5760405162461bcd60e51b8152602060048201526012602482015271546f6f206561726c7920746f20666f72636560701b60448201526064016107e4565b60018101546008820180546001600160a01b0319166001600160a01b0390921691909117905560058101805461ff0019166103001790556003810154600090612264906002613688565b90506000612710600454836122799190613688565b612283919061386e565b90506000612291828461369f565b6005805491925060006122a383613643565b919050555082600660008282546122ba9190613675565b909155505060018401546001600160a01b03166000908152600f602052604081208054916122e783613643565b909155505083546001600160a01b0316600090815260106020526040812080549161231183613643565b90915550506001840154612352906001600160a01b037f00000000000000000000000000000000000000000000000000000000000000008116911683612c1e565b847fd38304b601013934ec411ac3ecc152228d5349b6671f052480451a7e348f8de36040516123bd9060208082526022908201527f52657665616c2074696d656f7574202d20706c617965723120666f7266656974604082015261195960f21b606082015260800190565b60405180910390a260018401546040518281526001600160a01b039091169086907f36e33eea5df2e6c873949c5c856feb597f250ea8a329ed5ac38c39ab969053599060200160405180910390a3505050506117636001600055565b612421612bf1565b61038481101580156124365750620151808111155b6124745760405162461bcd60e51b815260206004820152600f60248201526e125b9d985b1a59081d1a5b595bdd5d608a1b60448201526064016107e4565b600755565b612481612bf1565b6001600160a01b0382166000818152600e6020908152604091829020805460ff191685151590811790915591519182527fba5f7031ad83095931ee4b5138591db2dc3cfc56178367622fa4b05c2efad23191016113bc565b6013602052816000526040600020818154811061094e57600080fd5b600060026001600160a01b0383166000908152600b602052604090205460ff16600281111561252657612526613184565b1492915050565b6001600160a01b0381166000908152600f602090815260408083205460108352818420546011845282852054600c9094529184208054859485946060949390928190612578906136f6565b80601f01602080910402602001604051908101604052809291908181526020018280546125a4906136f6565b80156125f15780601f106125c6576101008083540402835291602001916125f1565b820191906000526020600020905b8154815290600101906020018083116125d457829003601f168201915b5050505050905093509350935093509193509193565b336000908152600d602052604090205460ff166126365760405162461bcd60e51b81526004016107e4906136b2565b61263e612c7d565b600082815260096020526040902060016005820154610100900460ff16600381111561266c5761266c613184565b146126ae5760405162461bcd60e51b815260206004820152601260248201527147616d65206e6f7420617661696c61626c6560701b60448201526064016107e4565b8054336001600160a01b03909116036127005760405162461bcd60e51b815260206004820152601460248201527321b0b73737ba10383630bc903cb7bab939b2b63360611b60448201526064016107e4565b60018260ff16111561274c5760405162461bcd60e51b815260206004820152601560248201527443686f696365206d7573742062652030206f72203160581b60448201526064016107e4565b600754816006015461275e9190613675565b42111561279c5760405162461bcd60e51b815260206004820152600c60248201526b11d85b5948195e1c1a5c995960a21b60448201526064016107e4565b60028101546001600160a01b0316156128175760028101546001600160a01b031633146128175760405162461bcd60e51b815260206004820152602360248201527f54686973206368616c6c656e676520697320666f7220616e6f74686572206167604482015262195b9d60ea1b60648201526084016107e4565b6003810154612854906001600160a01b037f0000000000000000000000000000000000000000000000000000000000000000169033903090612f89565b6001810180546001600160a01b0319163390811790915560058201805460ff851661ffff19909116811761020017909155426007840155604080519182525185917f9543429ff4d0366bda7e6f7907ab4d8c123ad250f9a8d6ecffabe880ab084e04919081900360200190a3506128cb6001600055565b5050565b606080600060015b600a54811080156128e757508482105b15612963576001600082815260096020526040902060050154610100900460ff16600381111561291957612919613184565b14801561293e57506000818152600960205260409020600201546001600160a01b0316155b15612951578161294d81613643565b9250505b8061295b81613643565b9150506128d7565b508067ffffffffffffffff81111561297d5761297d6136e0565b6040519080825280602002602001820160405280156129a6578160200160208202803683370190505b5092508067ffffffffffffffff8111156129c2576129c26136e0565b6040519080825280602002602001820160405280156129fb57816020015b6129e8613039565b8152602001906001900390816129e05790505b50915060008060015b600a5481108015612a1457508383105b15612bab576001600082815260096020526040902060050154610100900460ff166003811115612a4657612a46613184565b148015612a6b57506000818152600960205260409020600201546001600160a01b0316155b15612b9957878210612b8b5780868481518110612a8a57612a8a613617565b60209081029190910181019190915260008281526009825260409081902081516101408101835281546001600160a01b0390811682526001830154811694820194909452600282015490931691830191909152600380820154606084015260048201546080840152600582015460ff80821660a086015260c08501926101009092041690811115612b1d57612b1d613184565b6003811115612b2e57612b2e613184565b815260068201546020820152600782015460408201526008909101546001600160a01b03166060909101528551869085908110612b6d57612b6d613617565b60200260200101819052508280612b8390613643565b935050612b99565b81612b9581613643565b9250505b80612ba381613643565b915050612a04565b505050509250929050565b612bbe612bf1565b6001600160a01b038116612be857604051631e4fbdf760e01b8152600060048201526024016107e4565b61176381612f37565b6001546001600160a01b03163314611ac35760405163118cdaa760e01b81523360048201526024016107e4565b6040516001600160a01b0383811660248301526044820183905261092d91859182169063a9059cbb906064015b604051602081830303815290604052915060e01b6020820180516001600160e01b038381831617835250505050612fc8565b600260005403612ca057604051633ee5aeb560e01b815260040160405180910390fd5b6002600055565b60006002548410158015612cbd57506003548411155b612cfc5760405162461bcd60e51b815260206004820152601060248201526f426574206f7574206f662072616e676560801b60448201526064016107e4565b82612d3e5760405162461bcd60e51b8152602060048201526012602482015271125b9d985b1a590818dbdb5b5a5d1b595b9d60721b60448201526064016107e4565b612d736001600160a01b037f000000000000000000000000000000000000000000000000000000000000000016333087612f89565b600a805460009182612d8483613643565b919050559050604051806101400160405280336001600160a01b0316815260200160006001600160a01b03168152602001846001600160a01b03168152602001868152602001858152602001600060ff16815260200160016003811115612ded57612ded613184565b8152426020808301919091526000604080840182905260609384018290528582526009835290819020845181546001600160a01b039182166001600160a01b03199182161783559386015160018301805491831691861691909117905591850151600282018054919093169316929092179055908201516003808301919091556080830151600483015560a083015160058301805460ff90921660ff1983168117825560c086015193919261ffff19161790610100908490811115612eb457612eb4613184565b021790555060e08201516006820155610100820151600782015561012090910151600890910180546001600160a01b0319166001600160a01b0392831617905560405186815290841690339083907fc94e0e39f6c88eefe2da1019ef63fcd57321af4dde03fbe73dadb0275cb061529060200160405180910390a4949350505050565b600180546001600160a01b038381166001600160a01b0319831681179093556040519116919082907f8be0079c531659141344cd1fd0a4f28419497f9722a3daafe3b4186f6b6457e090600090a35050565b6040516001600160a01b038481166024830152838116604483015260648201839052612fc29186918216906323b872dd90608401612c4b565b50505050565b600080602060008451602086016000885af180612feb576040513d6000823e3d81fd5b50506000513d91508115613003578060011415613010565b6001600160a01b0384163b155b15612fc257604051635274afe760e01b81526001600160a01b03851660048201526024016107e4565b6040805161014081018252600080825260208201819052918101829052606081018290526080810182905260a081018290529060c08201908152602001600081526020016000815260200160006001600160a01b031681525090565b600080602083850312156130a857600080fd5b823567ffffffffffffffff808211156130c057600080fd5b818501915085601f8301126130d457600080fd5b8135818111156130e357600080fd5b8660208260051b85010111156130f857600080fd5b60209290920196919550909350505050565b80356001600160a01b038116811461312157600080fd5b919050565b6000806040838503121561313957600080fd5b6131428361310a565b946020939093013593505050565b60006020828403121561316257600080fd5b6111e78261310a565b60006020828403121561317d57600080fd5b5035919050565b634e487b7160e01b600052602160045260246000fd5b600481106131aa576131aa613184565b9052565b6001600160a01b038b811682528a811660208301528981166040830152606082018990526080820188905260ff871660a08301526101408201906131f560c084018861319a565b8560e084015284610100840152808416610120840152509b9a5050505050505050505050565b602081016003831061322f5761322f613184565b91905290565b6000806040838503121561324857600080fd5b50508035926020909101359150565b60008060006060848603121561326c57600080fd5b6132758461310a565b95602085013595506040909401359392505050565b80516001600160a01b0316825260208101516132b160208401826001600160a01b03169052565b5060408101516132cc60408401826001600160a01b03169052565b50606081015160608301526080810151608083015260a08101516132f560a084018260ff169052565b5060c081015161330860c084018261319a565b5060e081810151908301526101008082015190830152610120808201516001600160a01b03811682850152612fc2565b604080825283519082018190526000906020906060840190828701845b8281101561337157815184529284019290840190600101613355565b5050508381038285015284518082528583019183019060005b818110156133b15761339d83855161328a565b92840192610140929092019160010161338a565b5090979650505050505050565b6000806000606084860312156133d357600080fd5b83359250602084013591506133ea6040850161310a565b90509250925092565b6000815180845260005b81811015613419576020818501810151868301820152016133fd565b506000602082860101526020601f19601f83011685010191505092915050565b6020815260006111e760208301846133f3565b6000806020838503121561345f57600080fd5b823567ffffffffffffffff8082111561347757600080fd5b818501915085601f83011261348b57600080fd5b81358181111561349a57600080fd5b8660208285010111156130f857600080fd5b82151581526040602082015260006134c760408301846133f3565b949350505050565b60c0815260006134e260c08301896133f3565b6020830197909752506040810194909452606084019290925215156080830152151560a090910152919050565b803560ff8116811461312157600080fd5b60008060006060848603121561353557600080fd5b833592506135456020850161350f565b9150604084013590509250925092565b6101408101610cac828461328a565b6000806040838503121561357757600080fd5b6131428361350f565b6000806040838503121561359357600080fd5b61359c8361310a565b9150602083013580151581146135b157600080fd5b809150509250929050565b8481528360208201528260408201526080606082015260006135e160808301846133f3565b9695505050505050565b600080604083850312156135fe57600080fd5b8235915061360e6020840161350f565b90509250929050565b634e487b7160e01b600052603260045260246000fd5b634e487b7160e01b600052601160045260246000fd5b6000600182016136555761365561362d565b5060010190565b60006020828403121561366e57600080fd5b5051919050565b80820180821115610cac57610cac61362d565b8082028115828204841417610cac57610cac61362d565b81810381811115610cac57610cac61362d565b602080825260149082015273139bdd0818481d995c9a599a5959081859d95b9d60621b604082015260600190565b634e487b7160e01b600052604160045260246000fd5b600181811c9082168061370a57607f821691505b60208210810361372a57634e487b7160e01b600052602260045260246000fd5b50919050565b601f82111561092d57600081815260208120601f850160051c810160208610156137575750805b601f850160051c820191505b8181101561377657828155600101613763565b505050505050565b67ffffffffffffffff831115613796576137966136e0565b6137aa836137a483546136f6565b83613730565b6000601f8411600181146137de57600085156137c65750838201355b600019600387901b1c1916600186901b178355613838565b600083815260209020601f19861690835b8281101561380f57868501358255602094850194600190920191016137ef565b508682101561382c5760001960f88860031b161c19848701351681555b505060018560011b0183555b5050505050565b60208152816020820152818360408301376000818301604090810191909152601f909201601f19160101919050565b60008261388b57634e487b7160e01b600052601260045260246000fd5b50049056fea264697066735822122038dfdeec46a85c9838d50fcaee4d589abdf5ed66929e86e50e730d099d8c7cc964736f6c63430008140033","opcodes":"PUSH1 0xA0 PUSH1 0x40 MSTORE PUSH8 0xDE0B6B3A7640000 PUSH1 0x2 SSTORE PUSH9 0x3635C9ADC5DEA00000 PUSH1 0x3 SSTORE PUSH1 0x64 PUSH1 0x4 SSTORE PUSH2 0xE10 PUSH1 0x7 SSTORE PUSH2 0xE10 PUSH1 0x8 SSTORE PUSH1 0x1 PUSH1 0xA SSTORE CALLVALUE DUP1 ISZERO PUSH3 0x40 JUMPI PUSH1 0x0 DUP1 REVERT JUMPDEST POP PUSH1 0x40 MLOAD PUSH3 0x3A5E CODESIZE SUB DUP1 PUSH3 0x3A5E DUP4 CODECOPY DUP2 ADD PUSH1 0x40 DUP2 SWAP1 MSTORE PUSH3 0x63 SWAP2 PUSH3 0x119 JUMP JUMPDEST PUSH1 0x1 PUSH1 0x0 SSTORE CALLER DUP1 PUSH3 0x8F JUMPI PUSH1 0x40 MLOAD PUSH4 0x1E4FBDF7 PUSH1 0xE0 SHL DUP2 MSTORE PUSH1 0x0 PUSH1 0x4 DUP3 ADD MSTORE PUSH1 0x24 ADD PUSH1 0x40 MLOAD DUP1 SWAP2 SUB SWAP1 REVERT JUMPDEST PUSH3 0x9A DUP2 PUSH3 0xC7 JUMP JUMPDEST POP PUSH1 0x1 PUSH1 0x1 PUSH1 0xA0 SHL SUB AND PUSH1 0x80 MSTORE CALLER PUSH1 0x0 SWAP1 DUP2 MSTORE PUSH1 0xE PUSH1 0x20 MSTORE PUSH1 0x40 SWAP1 KECCAK256 DUP1 SLOAD PUSH1 0xFF NOT AND PUSH1 0x1 OR SWAP1 SSTORE PUSH3 0x14B JUMP JUMPDEST PUSH1 0x1 DUP1 SLOAD PUSH1 0x1 PUSH1 0x1 PUSH1 0xA0 SHL SUB DUP4 DUP2 AND PUSH1 0x1 PUSH1 0x1 PUSH1 0xA0 SHL SUB NOT DUP4 AND DUP2 OR SWAP1 SWAP4 SSTORE PUSH1 0x40 MLOAD SWAP2 AND SWAP2 SWAP1 DUP3 SWAP1 PUSH32 0x8BE0079C531659141344CD1FD0A4F28419497F9722A3DAAFE3B4186F6B6457E0 SWAP1 PUSH1 0x0 SWAP1 LOG3 POP POP JUMP JUMPDEST PUSH1 0x0 PUSH1 0x20 DUP3 DUP5 SUB SLT ISZERO PUSH3 0x12C JUMPI PUSH1 0x0 DUP1 REVERT JUMPDEST DUP2 MLOAD PUSH1 0x1 PUSH1 0x1 PUSH1 0xA0 SHL SUB DUP2 AND DUP2 EQ PUSH3 0x144 JUMPI PUSH1 0x0 DUP1 REVERT JUMPDEST SWAP4 SWAP3 POP POP POP JUMP JUMPDEST PUSH1 0x80 MLOAD PUSH2 0x38C6 PUSH3 0x198 PUSH1 0x0 CODECOPY PUSH1 0x0 DUP2 DUP2 PUSH2 0x4EE ADD MSTORE DUP2 DUP2 PUSH2 0xA91 ADD MSTORE DUP2 DUP2 PUSH2 0xC36 ADD MSTORE DUP2 DUP2 PUSH2 0x167E ADD MSTORE DUP2 DUP2 PUSH2 0x1FF1 ADD MSTORE DUP2 DUP2 PUSH2 0x2329 ADD MSTORE DUP2 DUP2 PUSH2 0x282A ADD MSTORE PUSH2 0x2D4B ADD MSTORE PUSH2 0x38C6 PUSH1 0x0 RETURN INVALID PUSH1 0x80 PUSH1 0x40 MSTORE CALLVALUE DUP1 ISZERO PUSH2 0x10 JUMPI PUSH1 0x0 DUP1 REVERT JUMPDEST POP PUSH1 0x4 CALLDATASIZE LT PUSH2 0x2A0 JUMPI PUSH1 0x0 CALLDATALOAD PUSH1 0xE0 SHR DUP1 PUSH4 0x6C824487 GT PUSH2 0x167 JUMPI DUP1 PUSH4 0xAB8B3721 GT PUSH2 0xCE JUMPI DUP1 PUSH4 0xB135BBB0 GT PUSH2 0x87 JUMPI DUP1 PUSH4 0xB135BBB0 EQ PUSH2 0x713 JUMPI DUP1 PUSH4 0xB5695B38 EQ PUSH2 0x71C JUMPI DUP1 PUSH4 0xC903C233 EQ PUSH2 0x73F JUMPI DUP1 PUSH4 0xCA6649C5 EQ PUSH2 0x75F JUMPI DUP1 PUSH4 0xDE92285F EQ PUSH2 0x772 JUMPI DUP1 PUSH4 0xF2FDE38B EQ PUSH2 0x785 JUMPI PUSH1 0x0 DUP1 REVERT JUMPDEST DUP1 PUSH4 0xAB8B3721 EQ PUSH2 0x654 JUMPI DUP1 PUSH4 0xAC258D97 EQ PUSH2 0x667 JUMPI DUP1 PUSH4 0xAC9B5671 EQ PUSH2 0x6B7 JUMPI DUP1 PUSH4 0xAE82455F EQ PUSH2 0x6CA JUMPI DUP1 PUSH4 0xAF499C35 EQ PUSH2 0x6ED JUMPI DUP1 PUSH4 0xB087AE4F EQ PUSH2 0x700 JUMPI PUSH1 0x0 DUP1 REVERT JUMPDEST DUP1 PUSH4 0x8DA5CB5B GT PUSH2 0x120 JUMPI DUP1 PUSH4 0x8DA5CB5B EQ PUSH2 0x5E1 JUMPI DUP1 PUSH4 0x8FBF281D EQ PUSH2 0x5F2 JUMPI DUP1 PUSH4 0x9619367D EQ PUSH2 0x605 JUMPI DUP1 PUSH4 0xA1506DEE EQ PUSH2 0x60E JUMPI DUP1 PUSH4 0xA2F77BCC EQ PUSH2 0x621 JUMPI DUP1 PUSH4 0xA34803AD EQ PUSH2 0x641 JUMPI PUSH1 0x0 DUP1 REVERT JUMPDEST DUP1 PUSH4 0x6C824487 EQ PUSH2 0x53B JUMPI DUP1 PUSH4 0x715018A6 EQ PUSH2 0x56E JUMPI DUP1 PUSH4 0x7687DD49 EQ PUSH2 0x576 JUMPI DUP1 PUSH4 0x787DCE3D EQ PUSH2 0x589 JUMPI DUP1 PUSH4 0x78DC93A4 EQ PUSH2 0x59C JUMPI DUP1 PUSH4 0x8047A97A EQ PUSH2 0x5C1 JUMPI PUSH1 0x0 DUP1 REVERT JUMPDEST DUP1 PUSH4 0x2E5B2168 GT PUSH2 0x20B JUMPI DUP1 PUSH4 0x5C492129 GT PUSH2 0x1C4 JUMPI DUP1 PUSH4 0x5C492129 EQ PUSH2 0x4A3 JUMPI DUP1 PUSH4 0x5F81A57C EQ PUSH2 0x4AC JUMPI DUP1 PUSH4 0x65B3A7CA EQ PUSH2 0x4B5 JUMPI DUP1 PUSH4 0x69958AB9 EQ PUSH2 0x4D6 JUMPI DUP1 PUSH4 0x6AAE314C EQ PUSH2 0x4E9 JUMPI DUP1 PUSH4 0x6C6B1256 EQ PUSH2 0x528 JUMPI PUSH1 0x0 DUP1 REVERT JUMPDEST DUP1 PUSH4 0x2E5B2168 EQ PUSH2 0x442 JUMPI DUP1 PUSH4 0x35659FB8 EQ PUSH2 0x44B JUMPI DUP1 PUSH4 0x38B64085 EQ PUSH2 0x454 JUMPI DUP1 PUSH4 0x4376CB34 EQ PUSH2 0x467 JUMPI DUP1 PUSH4 0x470762E9 EQ PUSH2 0x470 JUMPI DUP1 PUSH4 0x5B021525 EQ PUSH2 0x490 JUMPI PUSH1 0x0 DUP1 REVERT JUMPDEST DUP1 PUSH4 0x28F3FAC9 GT PUSH2 0x25D JUMPI DUP1 PUSH4 0x28F3FAC9 EQ PUSH2 0x398 JUMPI DUP1 PUSH4 0x2A0EC7F3 EQ PUSH2 0x3C8 JUMPI DUP1 PUSH4 0x2BA86B12 EQ PUSH2 0x3DB JUMPI DUP1 PUSH4 0x2BEB8BB2 EQ PUSH2 0x3FC JUMPI DUP1 PUSH4 0x2CBC1660 EQ PUSH2 0x40F JUMPI DUP1 PUSH4 0x2D2A9585 EQ PUSH2 0x42F JUMPI PUSH1 0x0 DUP1 REVERT JUMPDEST DUP1 PUSH4 0x2559EEB EQ PUSH2 0x2A5 JUMPI DUP1 PUSH4 0xD8B2DEF EQ PUSH2 0x2BA JUMPI DUP1 PUSH4 0xF394B61 EQ PUSH2 0x2E0 JUMPI DUP1 PUSH4 0x117A5B90 EQ PUSH2 0x2F3 JUMPI DUP1 PUSH4 0x164E68DE EQ PUSH2 0x37C JUMPI DUP1 PUSH4 0x1E72553D EQ PUSH2 0x38F JUMPI JUMPDEST PUSH1 0x0 DUP1 REVERT JUMPDEST PUSH2 0x2B8 PUSH2 0x2B3 CALLDATASIZE PUSH1 0x4 PUSH2 0x3095 JUMP JUMPDEST PUSH2 0x798 JUMP JUMPDEST STOP JUMPDEST PUSH2 0x2CD PUSH2 0x2C8 CALLDATASIZE PUSH1 0x4 PUSH2 0x3126 JUMP JUMPDEST PUSH2 0x932 JUMP JUMPDEST PUSH1 0x40 MLOAD SWAP1 DUP2 MSTORE PUSH1 0x20 ADD JUMPDEST PUSH1 0x40 MLOAD DUP1 SWAP2 SUB SWAP1 RETURN JUMPDEST PUSH2 0x2B8 PUSH2 0x2EE CALLDATASIZE PUSH1 0x4 PUSH2 0x3150 JUMP JUMPDEST PUSH2 0x963 JUMP JUMPDEST PUSH2 0x366 PUSH2 0x301 CALLDATASIZE PUSH1 0x4 PUSH2 0x316B JUMP JUMPDEST PUSH1 0x9 PUSH1 0x20 MSTORE PUSH1 0x0 SWAP1 DUP2 MSTORE PUSH1 0x40 SWAP1 KECCAK256 DUP1 SLOAD PUSH1 0x1 DUP3 ADD SLOAD PUSH1 0x2 DUP4 ADD SLOAD PUSH1 0x3 DUP5 ADD SLOAD PUSH1 0x4 DUP6 ADD SLOAD PUSH1 0x5 DUP7 ADD SLOAD PUSH1 0x6 DUP8 ADD SLOAD PUSH1 0x7 DUP9 ADD SLOAD PUSH1 0x8 SWAP1 SWAP9 ADD SLOAD PUSH1 0x1 PUSH1 0x1 PUSH1 0xA0 SHL SUB SWAP8 DUP9 AND SWAP9 SWAP7 DUP9 AND SWAP8 SWAP6 DUP7 AND SWAP7 SWAP5 SWAP6 SWAP4 SWAP5 PUSH1 0xFF DUP1 DUP6 AND SWAP6 PUSH2 0x100 SWAP1 SWAP6 DIV AND SWAP4 SWAP1 SWAP2 AND DUP11 JUMP JUMPDEST PUSH1 0x40 MLOAD PUSH2 0x2D7 SWAP11 SWAP10 SWAP9 SWAP8 SWAP7 SWAP6 SWAP5 SWAP4 SWAP3 SWAP2 SWAP1 PUSH2 0x31AE JUMP JUMPDEST PUSH2 0x2B8 PUSH2 0x38A CALLDATASIZE PUSH1 0x4 PUSH2 0x3150 JUMP JUMPDEST PUSH2 0xA71 JUMP JUMPDEST PUSH2 0x2CD PUSH1 0x7 SLOAD DUP2 JUMP JUMPDEST PUSH2 0x3BB PUSH2 0x3A6 CALLDATASIZE PUSH1 0x4 PUSH2 0x3150 JUMP JUMPDEST PUSH1 0xB PUSH1 0x20 MSTORE PUSH1 0x0 SWAP1 DUP2 MSTORE PUSH1 0x40 SWAP1 KECCAK256 SLOAD PUSH1 0xFF AND DUP2 JUMP JUMPDEST PUSH1 0x40 MLOAD PUSH2 0x2D7 SWAP2 SWAP1 PUSH2 0x321B JUMP JUMPDEST PUSH2 0x2CD PUSH2 0x3D6 CALLDATASIZE PUSH1 0x4 PUSH2 0x3235 JUMP JUMPDEST PUSH2 0xC5D JUMP JUMPDEST PUSH2 0x3EE PUSH2 0x3E9 CALLDATASIZE PUSH1 0x4 PUSH2 0x3257 JUMP JUMPDEST PUSH2 0xCB2 JUMP JUMPDEST PUSH1 0x40 MLOAD PUSH2 0x2D7 SWAP3 SWAP2 SWAP1 PUSH2 0x3338 JUMP JUMPDEST PUSH2 0x2CD PUSH2 0x40A CALLDATASIZE PUSH1 0x4 PUSH2 0x33BE JUMP JUMPDEST PUSH2 0x100C JUMP JUMPDEST PUSH2 0x422 PUSH2 0x41D CALLDATASIZE PUSH1 0x4 PUSH2 0x3150 JUMP JUMPDEST PUSH2 0x11EE JUMP JUMPDEST PUSH1 0x40 MLOAD PUSH2 0x2D7 SWAP2 SWAP1 PUSH2 0x3439 JUMP JUMPDEST PUSH2 0x2B8 PUSH2 0x43D CALLDATASIZE PUSH1 0x4 PUSH2 0x344C JUMP JUMPDEST PUSH2 0x1288 JUMP JUMPDEST PUSH2 0x2CD PUSH1 0x3 SLOAD DUP2 JUMP JUMPDEST PUSH2 0x2CD PUSH1 0x4 SLOAD DUP2 JUMP JUMPDEST PUSH2 0x2B8 PUSH2 0x462 CALLDATASIZE PUSH1 0x4 PUSH2 0x316B JUMP JUMPDEST PUSH2 0x13C8 JUMP JUMPDEST PUSH2 0x2CD PUSH1 0x8 SLOAD DUP2 JUMP JUMPDEST PUSH2 0x2CD PUSH2 0x47E CALLDATASIZE PUSH1 0x4 PUSH2 0x3150 JUMP JUMPDEST PUSH1 0x11 PUSH1 0x20 MSTORE PUSH1 0x0 SWAP1 DUP2 MSTORE PUSH1 0x40 SWAP1 KECCAK256 SLOAD DUP2 JUMP JUMPDEST PUSH2 0x3EE PUSH2 0x49E CALLDATASIZE PUSH1 0x4 PUSH2 0x3150 JUMP JUMPDEST PUSH2 0x1428 JUMP JUMPDEST PUSH2 0x2CD PUSH1 0x5 SLOAD DUP2 JUMP JUMPDEST PUSH2 0x2CD PUSH1 0x6 SLOAD DUP2 JUMP JUMPDEST PUSH2 0x4C8 PUSH2 0x4C3 CALLDATASIZE PUSH1 0x4 PUSH2 0x316B JUMP JUMPDEST PUSH2 0x1441 JUMP JUMPDEST PUSH1 0x40 MLOAD PUSH2 0x2D7 SWAP3 SWAP2 SWAP1 PUSH2 0x34AC JUMP JUMPDEST PUSH2 0x2B8 PUSH2 0x4E4 CALLDATASIZE PUSH1 0x4 PUSH2 0x316B JUMP JUMPDEST PUSH2 0x1573 JUMP JUMPDEST PUSH2 0x510 PUSH32 0x0 DUP2 JUMP JUMPDEST PUSH1 0x40 MLOAD PUSH1 0x1 PUSH1 0x1 PUSH1 0xA0 SHL SUB SWAP1 SWAP2 AND DUP2 MSTORE PUSH1 0x20 ADD PUSH2 0x2D7 JUMP JUMPDEST PUSH2 0x3EE PUSH2 0x536 CALLDATASIZE PUSH1 0x4 PUSH2 0x3257 JUMP JUMPDEST PUSH2 0x1766 JUMP JUMPDEST PUSH2 0x55E PUSH2 0x549 CALLDATASIZE PUSH1 0x4 PUSH2 0x3150 JUMP JUMPDEST PUSH1 0xE PUSH1 0x20 MSTORE PUSH1 0x0 SWAP1 DUP2 MSTORE PUSH1 0x40 SWAP1 KECCAK256 SLOAD PUSH1 0xFF AND DUP2 JUMP JUMPDEST PUSH1 0x40 MLOAD SWAP1 ISZERO ISZERO DUP2 MSTORE PUSH1 0x20 ADD PUSH2 0x2D7 JUMP JUMPDEST PUSH2 0x2B8 PUSH2 0x1AB1 JUMP JUMPDEST PUSH2 0x2B8 PUSH2 0x584 CALLDATASIZE PUSH1 0x4 PUSH2 0x3235 JUMP JUMPDEST PUSH2 0x1AC5 JUMP JUMPDEST PUSH2 0x2B8 PUSH2 0x597 CALLDATASIZE PUSH1 0x4 PUSH2 0x316B JUMP JUMPDEST PUSH2 0x1B18 JUMP JUMPDEST PUSH2 0x5AF PUSH2 0x5AA CALLDATASIZE PUSH1 0x4 PUSH2 0x3150 JUMP JUMPDEST PUSH2 0x1B66 JUMP JUMPDEST PUSH1 0x40 MLOAD PUSH2 0x2D7 SWAP7 SWAP6 SWAP5 SWAP4 SWAP3 SWAP2 SWAP1 PUSH2 0x34CF JUMP JUMPDEST PUSH2 0x2CD PUSH2 0x5CF CALLDATASIZE PUSH1 0x4 PUSH2 0x3150 JUMP JUMPDEST PUSH1 0xF PUSH1 0x20 MSTORE PUSH1 0x0 SWAP1 DUP2 MSTORE PUSH1 0x40 SWAP1 KECCAK256 SLOAD DUP2 JUMP JUMPDEST PUSH1 0x1 SLOAD PUSH1 0x1 PUSH1 0x1 PUSH1 0xA0 SHL SUB AND PUSH2 0x510 JUMP JUMPDEST PUSH2 0x2B8 PUSH2 0x600 CALLDATASIZE PUSH1 0x4 PUSH2 0x3520 JUMP JUMPDEST PUSH2 0x1C79 JUMP JUMPDEST PUSH2 0x2CD PUSH1 0x2 SLOAD DUP2 JUMP JUMPDEST PUSH2 0x3EE PUSH2 0x61C CALLDATASIZE PUSH1 0x4 PUSH2 0x3150 JUMP JUMPDEST PUSH2 0x206C JUMP JUMPDEST PUSH2 0x634 PUSH2 0x62F CALLDATASIZE PUSH1 0x4 PUSH2 0x316B JUMP JUMPDEST PUSH2 0x207C JUMP JUMPDEST PUSH1 0x40 MLOAD PUSH2 0x2D7 SWAP2 SWAP1 PUSH2 0x3555 JUMP JUMPDEST PUSH2 0x2B8 PUSH2 0x64F CALLDATASIZE PUSH1 0x4 PUSH2 0x316B JUMP JUMPDEST PUSH2 0x2150 JUMP JUMPDEST PUSH2 0x2B8 PUSH2 0x662 CALLDATASIZE PUSH1 0x4 PUSH2 0x316B JUMP JUMPDEST PUSH2 0x2419 JUMP JUMPDEST PUSH2 0x2CD PUSH2 0x675 CALLDATASIZE PUSH1 0x4 PUSH2 0x3564 JUMP JUMPDEST PUSH1 0x40 MLOAD PUSH1 0x1 PUSH1 0x1 PUSH1 0xF8 SHL SUB NOT PUSH1 0xF8 DUP5 SWAP1 SHL AND PUSH1 0x20 DUP3 ADD MSTORE PUSH1 0x21 DUP2 ADD DUP3 SWAP1 MSTORE PUSH1 0x0 SWAP1 PUSH1 0x41 ADD PUSH1 0x40 MLOAD PUSH1 0x20 DUP2 DUP4 SUB SUB DUP2 MSTORE SWAP1 PUSH1 0x40 MSTORE DUP1 MLOAD SWAP1 PUSH1 0x20 ADD KECCAK256 SWAP1 POP SWAP3 SWAP2 POP POP JUMP JUMPDEST PUSH2 0x2B8 PUSH2 0x6C5 CALLDATASIZE PUSH1 0x4 PUSH2 0x3580 JUMP JUMPDEST PUSH2 0x2479 JUMP JUMPDEST PUSH2 0x55E PUSH2 0x6D8 CALLDATASIZE PUSH1 0x4 PUSH2 0x3150 JUMP JUMPDEST PUSH1 0xD PUSH1 0x20 MSTORE PUSH1 0x0 SWAP1 DUP2 MSTORE PUSH1 0x40 SWAP1 KECCAK256 SLOAD PUSH1 0xFF AND DUP2 JUMP JUMPDEST PUSH2 0x2CD PUSH2 0x6FB CALLDATASIZE PUSH1 0x4 PUSH2 0x3126 JUMP JUMPDEST PUSH2 0x24D9 JUMP JUMPDEST PUSH2 0x55E PUSH2 0x70E CALLDATASIZE PUSH1 0x4 PUSH2 0x3150 JUMP JUMPDEST PUSH2 0x24F5 JUMP JUMPDEST PUSH2 0x2CD PUSH1 0xA SLOAD DUP2 JUMP JUMPDEST PUSH2 0x72F PUSH2 0x72A CALLDATASIZE PUSH1 0x4 PUSH2 0x3150 JUMP JUMPDEST PUSH2 0x252D JUMP JUMPDEST PUSH1 0x40 MLOAD PUSH2 0x2D7 SWAP5 SWAP4 SWAP3 SWAP2 SWAP1 PUSH2 0x35BC JUMP JUMPDEST PUSH2 0x2CD PUSH2 0x74D CALLDATASIZE PUSH1 0x4 PUSH2 0x3150 JUMP JUMPDEST PUSH1 0x10 PUSH1 0x20 MSTORE PUSH1 0x0 SWAP1 DUP2 MSTORE PUSH1 0x40 SWAP1 KECCAK256 SLOAD DUP2 JUMP JUMPDEST PUSH2 0x2B8 PUSH2 0x76D CALLDATASIZE PUSH1 0x4 PUSH2 0x35EB JUMP JUMPDEST PUSH2 0x2607 JUMP JUMPDEST PUSH2 0x3EE PUSH2 0x780 CALLDATASIZE PUSH1 0x4 PUSH2 0x3235 JUMP JUMPDEST PUSH2 0x28CF JUMP JUMPDEST PUSH2 0x2B8 PUSH2 0x793 CALLDATASIZE PUSH1 0x4 PUSH2 0x3150 JUMP JUMPDEST PUSH2 0x2BB6 JUMP JUMPDEST CALLER PUSH1 0x0 SWAP1 DUP2 MSTORE PUSH1 0xE PUSH1 0x20 MSTORE PUSH1 0x40 SWAP1 KECCAK256 SLOAD PUSH1 0xFF AND PUSH2 0x7ED JUMPI PUSH1 0x40 MLOAD PUSH3 0x461BCD PUSH1 0xE5 SHL DUP2 MSTORE PUSH1 0x20 PUSH1 0x4 DUP3 ADD MSTORE PUSH1 0xE PUSH1 0x24 DUP3 ADD MSTORE PUSH14 0x2737BA1030903B32B934B334B2B9 PUSH1 0x91 SHL PUSH1 0x44 DUP3 ADD MSTORE PUSH1 0x64 ADD JUMPDEST PUSH1 0x40 MLOAD DUP1 SWAP2 SUB SWAP1 REVERT JUMPDEST PUSH1 0x0 JUMPDEST DUP2 DUP2 LT ISZERO PUSH2 0x92D JUMPI PUSH1 0x1 PUSH1 0xB PUSH1 0x0 DUP6 DUP6 DUP6 DUP2 DUP2 LT PUSH2 0x810 JUMPI PUSH2 0x810 PUSH2 0x3617 JUMP JUMPDEST SWAP1 POP PUSH1 0x20 MUL ADD PUSH1 0x20 DUP2 ADD SWAP1 PUSH2 0x825 SWAP2 SWAP1 PUSH2 0x3150 JUMP JUMPDEST PUSH1 0x1 PUSH1 0x1 PUSH1 0xA0 SHL SUB AND DUP2 MSTORE PUSH1 0x20 DUP2 ADD SWAP2 SWAP1 SWAP2 MSTORE PUSH1 0x40 ADD PUSH1 0x0 KECCAK256 SLOAD PUSH1 0xFF AND PUSH1 0x2 DUP2 GT ISZERO PUSH2 0x853 JUMPI PUSH2 0x853 PUSH2 0x3184 JUMP JUMPDEST SUB PUSH2 0x91B JUMPI PUSH1 0x2 PUSH1 0xB PUSH1 0x0 DUP6 DUP6 DUP6 DUP2 DUP2 LT PUSH2 0x870 JUMPI PUSH2 0x870 PUSH2 0x3617 JUMP JUMPDEST SWAP1 POP PUSH1 0x20 MUL ADD PUSH1 0x20 DUP2 ADD SWAP1 PUSH2 0x885 SWAP2 SWAP1 PUSH2 0x3150 JUMP JUMPDEST PUSH1 0x1 PUSH1 0x1 PUSH1 0xA0 SHL SUB AND DUP2 MSTORE PUSH1 0x20 DUP2 ADD SWAP2 SWAP1 SWAP2 MSTORE PUSH1 0x40 ADD PUSH1 0x0 KECCAK256 DUP1 SLOAD PUSH1 0xFF NOT AND PUSH1 0x1 DUP4 PUSH1 0x2 DUP2 GT ISZERO PUSH2 0x8B8 JUMPI PUSH2 0x8B8 PUSH2 0x3184 JUMP JUMPDEST MUL OR SWAP1 SSTORE POP CALLER DUP4 DUP4 DUP4 DUP2 DUP2 LT PUSH2 0x8D0 JUMPI PUSH2 0x8D0 PUSH2 0x3617 JUMP JUMPDEST SWAP1 POP PUSH1 0x20 MUL ADD PUSH1 0x20 DUP2 ADD SWAP1 PUSH2 0x8E5 SWAP2 SWAP1 PUSH2 0x3150 JUMP JUMPDEST PUSH1 0x1 PUSH1 0x1 PUSH1 0xA0 SHL SUB AND PUSH32 0x7F5835461DBF886F27DE41A9ADF55100F10E6974A3FC4A867DED38B50DAF358D PUSH1 0x40 MLOAD PUSH1 0x40 MLOAD DUP1 SWAP2 SUB SWAP1 LOG3 JUMPDEST DUP1 PUSH2 0x925 DUP2 PUSH2 0x3643 JUMP JUMPDEST SWAP2 POP POP PUSH2 0x7F0 JUMP JUMPDEST POP POP POP JUMP JUMPDEST PUSH1 0x12 PUSH1 0x20 MSTORE DUP2 PUSH1 0x0 MSTORE PUSH1 0x40 PUSH1 0x0 KECCAK256 DUP2 DUP2 SLOAD DUP2 LT PUSH2 0x94E JUMPI PUSH1 0x0 DUP1 REVERT JUMPDEST SWAP1 PUSH1 0x0 MSTORE PUSH1 0x20 PUSH1 0x0 KECCAK256 ADD PUSH1 0x0 SWAP2 POP SWAP2 POP POP SLOAD DUP2 JUMP JUMPDEST CALLER PUSH1 0x0 SWAP1 DUP2 MSTORE PUSH1 0xE PUSH1 0x20 MSTORE PUSH1 0x40 SWAP1 KECCAK256 SLOAD PUSH1 0xFF AND PUSH2 0x9B3 JUMPI PUSH1 0x40 MLOAD PUSH3 0x461BCD PUSH1 0xE5 SHL DUP2 MSTORE PUSH1 0x20 PUSH1 0x4 DUP3 ADD MSTORE PUSH1 0xE PUSH1 0x24 DUP3 ADD MSTORE PUSH14 0x2737BA1030903B32B934B334B2B9 PUSH1 0x91 SHL PUSH1 0x44 DUP3 ADD MSTORE PUSH1 0x64 ADD PUSH2 0x7E4 JUMP JUMPDEST PUSH1 0x1 PUSH1 0x1 PUSH1 0x1 PUSH1 0xA0 SHL SUB DUP3 AND PUSH1 0x0 SWAP1 DUP2 MSTORE PUSH1 0xB PUSH1 0x20 MSTORE PUSH1 0x40 SWAP1 KECCAK256 SLOAD PUSH1 0xFF AND PUSH1 0x2 DUP2 GT ISZERO PUSH2 0x9E2 JUMPI PUSH2 0x9E2 PUSH2 0x3184 JUMP JUMPDEST EQ PUSH2 0xA23 JUMPI PUSH1 0x40 MLOAD PUSH3 0x461BCD PUSH1 0xE5 SHL DUP2 MSTORE PUSH1 0x20 PUSH1 0x4 DUP3 ADD MSTORE PUSH1 0x11 PUSH1 0x24 DUP3 ADD MSTORE PUSH17 0x4167656E74206E6F742070656E64696E67 PUSH1 0x78 SHL PUSH1 0x44 DUP3 ADD MSTORE PUSH1 0x64 ADD PUSH2 0x7E4 JUMP JUMPDEST PUSH1 0x1 PUSH1 0x1 PUSH1 0xA0 SHL SUB DUP2 AND PUSH1 0x0 DUP2 DUP2 MSTORE PUSH1 0xB PUSH1 0x20 MSTORE PUSH1 0x40 DUP1 DUP3 KECCAK256 DUP1 SLOAD PUSH1 0xFF NOT AND PUSH1 0x2 OR SWAP1 SSTORE MLOAD CALLER SWAP3 SWAP2 PUSH32 0x7F5835461DBF886F27DE41A9ADF55100F10E6974A3FC4A867DED38B50DAF358D SWAP2 LOG3 POP JUMP JUMPDEST PUSH2 0xA79 PUSH2 0x2BF1 JUMP JUMPDEST PUSH1 0x40 MLOAD PUSH4 0x70A08231 PUSH1 0xE0 SHL DUP2 MSTORE ADDRESS PUSH1 0x4 DUP3 ADD MSTORE PUSH1 0x0 SWAP1 PUSH32 0x0 PUSH1 0x1 PUSH1 0x1 PUSH1 0xA0 SHL SUB AND SWAP1 PUSH4 0x70A08231 SWAP1 PUSH1 0x24 ADD PUSH1 0x20 PUSH1 0x40 MLOAD DUP1 DUP4 SUB DUP2 DUP7 GAS STATICCALL ISZERO DUP1 ISZERO PUSH2 0xAE0 JUMPI RETURNDATASIZE PUSH1 0x0 DUP1 RETURNDATACOPY RETURNDATASIZE PUSH1 0x0 REVERT JUMPDEST POP POP POP POP PUSH1 0x40 MLOAD RETURNDATASIZE PUSH1 0x1F NOT PUSH1 0x1F DUP3 ADD AND DUP3 ADD DUP1 PUSH1 0x40 MSTORE POP DUP2 ADD SWAP1 PUSH2 0xB04 SWAP2 SWAP1 PUSH2 0x365C JUMP JUMPDEST SWAP1 POP PUSH1 0x0 PUSH1 0x1 JUMPDEST PUSH1 0xA SLOAD DUP2 LT ISZERO PUSH2 0xBD8 JUMPI PUSH1 0x1 PUSH1 0x0 DUP3 DUP2 MSTORE PUSH1 0x9 PUSH1 0x20 MSTORE PUSH1 0x40 SWAP1 KECCAK256 PUSH1 0x5 ADD SLOAD PUSH2 0x100 SWAP1 DIV PUSH1 0xFF AND PUSH1 0x3 DUP2 GT ISZERO PUSH2 0xB42 JUMPI PUSH2 0xB42 PUSH2 0x3184 JUMP JUMPDEST SUB PUSH2 0xB6A JUMPI PUSH1 0x0 DUP2 DUP2 MSTORE PUSH1 0x9 PUSH1 0x20 MSTORE PUSH1 0x40 SWAP1 KECCAK256 PUSH1 0x3 ADD SLOAD PUSH2 0xB63 SWAP1 DUP4 PUSH2 0x3675 JUMP JUMPDEST SWAP2 POP PUSH2 0xBC6 JUMP JUMPDEST PUSH1 0x2 PUSH1 0x0 DUP3 DUP2 MSTORE PUSH1 0x9 PUSH1 0x20 MSTORE PUSH1 0x40 SWAP1 KECCAK256 PUSH1 0x5 ADD SLOAD PUSH2 0x100 SWAP1 DIV PUSH1 0xFF AND PUSH1 0x3 DUP2 GT ISZERO PUSH2 0xB97 JUMPI PUSH2 0xB97 PUSH2 0x3184 JUMP JUMPDEST SUB PUSH2 0xBC6 JUMPI PUSH1 0x0 DUP2 DUP2 MSTORE PUSH1 0x9 PUSH1 0x20 MSTORE PUSH1 0x40 SWAP1 KECCAK256 PUSH1 0x3 ADD SLOAD PUSH2 0xBB9 SWAP1 PUSH1 0x2 PUSH2 0x3688 JUMP JUMPDEST PUSH2 0xBC3 SWAP1 DUP4 PUSH2 0x3675 JUMP JUMPDEST SWAP2 POP JUMPDEST DUP1 PUSH2 0xBD0 DUP2 PUSH2 0x3643 JUMP JUMPDEST SWAP2 POP POP PUSH2 0xB0B JUMP JUMPDEST POP DUP1 DUP3 GT PUSH2 0xC1E JUMPI PUSH1 0x40 MLOAD PUSH3 0x461BCD PUSH1 0xE5 SHL DUP2 MSTORE PUSH1 0x20 PUSH1 0x4 DUP3 ADD MSTORE PUSH1 0x13 PUSH1 0x24 DUP3 ADD MSTORE PUSH19 0x4E6F206665657320746F207769746864726177 PUSH1 0x68 SHL PUSH1 0x44 DUP3 ADD MSTORE PUSH1 0x64 ADD PUSH2 0x7E4 JUMP JUMPDEST PUSH2 0x92D DUP4 PUSH2 0xC2C DUP4 DUP6 PUSH2 0x369F JUMP JUMPDEST PUSH1 0x1 PUSH1 0x1 PUSH1 0xA0 SHL SUB PUSH32 0x0 AND SWAP2 SWAP1 PUSH2 0x2C1E JUMP JUMPDEST CALLER PUSH1 0x0 SWAP1 DUP2 MSTORE PUSH1 0xD PUSH1 0x20 MSTORE PUSH1 0x40 DUP2 KECCAK256 SLOAD PUSH1 0xFF AND PUSH2 0xC8C JUMPI PUSH1 0x40 MLOAD PUSH3 0x461BCD PUSH1 0xE5 SHL DUP2 MSTORE PUSH1 0x4 ADD PUSH2 0x7E4 SWAP1 PUSH2 0x36B2 JUMP JUMPDEST PUSH2 0xC94 PUSH2 0x2C7D JUMP JUMPDEST PUSH2 0xCA0 DUP4 DUP4 PUSH1 0x0 PUSH2 0x2CA7 JUMP JUMPDEST SWAP1 POP PUSH2 0xCAC PUSH1 0x1 PUSH1 0x0 SSTORE JUMP JUMPDEST SWAP3 SWAP2 POP POP JUMP JUMPDEST PUSH1 0x1 PUSH1 0x1 PUSH1 0xA0 SHL SUB DUP4 AND PUSH1 0x0 SWAP1 DUP2 MSTORE PUSH1 0x12 PUSH1 0x20 MSTORE PUSH1 0x40 SWAP1 KECCAK256 DUP1 SLOAD PUSH1 0x60 SWAP2 DUP3 SWAP2 DUP6 LT PUSH2 0xD1B JUMPI PUSH1 0x40 DUP1 MLOAD PUSH1 0x0 DUP1 DUP3 MSTORE PUSH1 0x20 DUP3 ADD DUP2 DUP2 MSTORE DUP3 DUP5 ADD SWAP1 SWAP4 MSTORE SWAP1 SWAP2 SWAP1 PUSH2 0xD10 JUMP JUMPDEST PUSH2 0xCFD PUSH2 0x3039 JUMP JUMPDEST DUP2 MSTORE PUSH1 0x20 ADD SWAP1 PUSH1 0x1 SWAP1 SUB SWAP1 DUP2 PUSH2 0xCF5 JUMPI SWAP1 POP JUMPDEST POP SWAP3 POP SWAP3 POP POP PUSH2 0x1004 JUMP JUMPDEST PUSH1 0x64 DUP5 GT ISZERO PUSH2 0xD29 JUMPI PUSH1 0x64 SWAP4 POP JUMPDEST DUP1 SLOAD PUSH1 0x0 SWAP1 PUSH2 0xD38 DUP7 DUP9 PUSH2 0x3675 JUMP JUMPDEST GT PUSH2 0xD4C JUMPI PUSH2 0xD47 DUP6 DUP8 PUSH2 0x3675 JUMP JUMPDEST PUSH2 0xD4F JUMP JUMPDEST DUP2 SLOAD JUMPDEST SWAP1 POP PUSH1 0x0 DUP7 JUMPDEST DUP3 DUP2 LT ISZERO PUSH2 0xDD5 JUMPI PUSH1 0x1 PUSH1 0x9 PUSH1 0x0 DUP7 DUP5 DUP2 SLOAD DUP2 LT PUSH2 0xD75 JUMPI PUSH2 0xD75 PUSH2 0x3617 JUMP JUMPDEST SWAP1 PUSH1 0x0 MSTORE PUSH1 0x20 PUSH1 0x0 KECCAK256 ADD SLOAD DUP2 MSTORE PUSH1 0x20 ADD SWAP1 DUP2 MSTORE PUSH1 0x20 ADD PUSH1 0x0 KECCAK256 PUSH1 0x5 ADD PUSH1 0x1 SWAP1 SLOAD SWAP1 PUSH2 0x100 EXP SWAP1 DIV PUSH1 0xFF AND PUSH1 0x3 DUP2 GT ISZERO PUSH2 0xDB0 JUMPI PUSH2 0xDB0 PUSH2 0x3184 JUMP JUMPDEST SUB PUSH2 0xDC3 JUMPI DUP2 PUSH2 0xDBF DUP2 PUSH2 0x3643 JUMP JUMPDEST SWAP3 POP POP JUMPDEST DUP1 PUSH2 0xDCD DUP2 PUSH2 0x3643 JUMP JUMPDEST SWAP2 POP POP PUSH2 0xD55 JUMP JUMPDEST POP DUP1 PUSH8 0xFFFFFFFFFFFFFFFF DUP2 GT ISZERO PUSH2 0xDEF JUMPI PUSH2 0xDEF PUSH2 0x36E0 JUMP JUMPDEST PUSH1 0x40 MLOAD SWAP1 DUP1 DUP3 MSTORE DUP1 PUSH1 0x20 MUL PUSH1 0x20 ADD DUP3 ADD PUSH1 0x40 MSTORE DUP1 ISZERO PUSH2 0xE18 JUMPI DUP2 PUSH1 0x20 ADD PUSH1 0x20 DUP3 MUL DUP1 CALLDATASIZE DUP4 CALLDATACOPY ADD SWAP1 POP JUMPDEST POP SWAP5 POP DUP1 PUSH8 0xFFFFFFFFFFFFFFFF DUP2 GT ISZERO PUSH2 0xE34 JUMPI PUSH2 0xE34 PUSH2 0x36E0 JUMP JUMPDEST PUSH1 0x40 MLOAD SWAP1 DUP1 DUP3 MSTORE DUP1 PUSH1 0x20 MUL PUSH1 0x20 ADD DUP3 ADD PUSH1 0x40 MSTORE DUP1 ISZERO PUSH2 0xE6D JUMPI DUP2 PUSH1 0x20 ADD JUMPDEST PUSH2 0xE5A PUSH2 0x3039 JUMP JUMPDEST DUP2 MSTORE PUSH1 0x20 ADD SWAP1 PUSH1 0x1 SWAP1 SUB SWAP1 DUP2 PUSH2 0xE52 JUMPI SWAP1 POP JUMPDEST POP SWAP4 POP PUSH1 0x0 DUP8 JUMPDEST DUP4 DUP2 LT DUP1 ISZERO PUSH2 0xE82 JUMPI POP DUP3 DUP3 LT JUMPDEST ISZERO PUSH2 0xFFE JUMPI PUSH1 0x0 DUP6 DUP3 DUP2 SLOAD DUP2 LT PUSH2 0xE9B JUMPI PUSH2 0xE9B PUSH2 0x3617 JUMP JUMPDEST PUSH1 0x0 SWAP2 DUP3 MSTORE PUSH1 0x20 SWAP1 SWAP2 KECCAK256 ADD SLOAD SWAP1 POP PUSH1 0x1 PUSH1 0x0 DUP3 DUP2 MSTORE PUSH1 0x9 PUSH1 0x20 MSTORE PUSH1 0x40 SWAP1 KECCAK256 PUSH1 0x5 ADD SLOAD PUSH2 0x100 SWAP1 DIV PUSH1 0xFF AND PUSH1 0x3 DUP2 GT ISZERO PUSH2 0xED6 JUMPI PUSH2 0xED6 PUSH2 0x3184 JUMP JUMPDEST SUB PUSH2 0xFEB JUMPI DUP1 DUP9 DUP5 DUP2 MLOAD DUP2 LT PUSH2 0xEEE JUMPI PUSH2 0xEEE PUSH2 0x3617 JUMP JUMPDEST PUSH1 0x20 SWAP1 DUP2 MUL SWAP2 SWAP1 SWAP2 ADD DUP2 ADD SWAP2 SWAP1 SWAP2 MSTORE PUSH1 0x0 DUP3 DUP2 MSTORE PUSH1 0x9 DUP3 MSTORE PUSH1 0x40 SWAP1 DUP2 SWAP1 KECCAK256 DUP2 MLOAD PUSH2 0x140 DUP2 ADD DUP4 MSTORE DUP2 SLOAD PUSH1 0x1 PUSH1 0x1 PUSH1 0xA0 SHL SUB SWAP1 DUP2 AND DUP3 MSTORE PUSH1 0x1 DUP4 ADD SLOAD DUP2 AND SWAP5 DUP3 ADD SWAP5 SWAP1 SWAP5 MSTORE PUSH1 0x2 DUP3 ADD SLOAD SWAP1 SWAP4 AND SWAP2 DUP4 ADD SWAP2 SWAP1 SWAP2 MSTORE PUSH1 0x3 DUP1 DUP3 ADD SLOAD PUSH1 0x60 DUP5 ADD MSTORE PUSH1 0x4 DUP3 ADD SLOAD PUSH1 0x80 DUP5 ADD MSTORE PUSH1 0x5 DUP3 ADD SLOAD PUSH1 0xFF DUP1 DUP3 AND PUSH1 0xA0 DUP7 ADD MSTORE PUSH1 0xC0 DUP6 ADD SWAP3 PUSH2 0x100 SWAP1 SWAP3 DIV AND SWAP1 DUP2 GT ISZERO PUSH2 0xF81 JUMPI PUSH2 0xF81 PUSH2 0x3184 JUMP JUMPDEST PUSH1 0x3 DUP2 GT ISZERO PUSH2 0xF92 JUMPI PUSH2 0xF92 PUSH2 0x3184 JUMP JUMPDEST DUP2 MSTORE PUSH1 0x6 DUP3 ADD SLOAD PUSH1 0x20 DUP3 ADD MSTORE PUSH1 0x7 DUP3 ADD SLOAD PUSH1 0x40 DUP3 ADD MSTORE PUSH1 0x8 SWAP1 SWAP2 ADD SLOAD PUSH1 0x1 PUSH1 0x1 PUSH1 0xA0 SHL SUB AND PUSH1 0x60 SWAP1 SWAP2 ADD MSTORE DUP8 MLOAD DUP9 SWAP1 DUP6 SWAP1 DUP2 LT PUSH2 0xFD1 JUMPI PUSH2 0xFD1 PUSH2 0x3617 JUMP JUMPDEST PUSH1 0x20 MUL PUSH1 0x20 ADD ADD DUP2 SWAP1 MSTORE POP DUP3 DUP1 PUSH2 0xFE7 SWAP1 PUSH2 0x3643 JUMP JUMPDEST SWAP4 POP POP JUMPDEST POP DUP1 PUSH2 0xFF6 DUP2 PUSH2 0x3643 JUMP JUMPDEST SWAP2 POP POP PUSH2 0xE74 JUMP JUMPDEST POP POP POP POP POP JUMPDEST SWAP4 POP SWAP4 SWAP2 POP POP JUMP JUMPDEST CALLER PUSH1 0x0 SWAP1 DUP2 MSTORE PUSH1 0xD PUSH1 0x20 MSTORE PUSH1 0x40 DUP2 KECCAK256 SLOAD PUSH1 0xFF AND PUSH2 0x103B JUMPI PUSH1 0x40 MLOAD PUSH3 0x461BCD PUSH1 0xE5 SHL DUP2 MSTORE PUSH1 0x4 ADD PUSH2 0x7E4 SWAP1 PUSH2 0x36B2 JUMP JUMPDEST PUSH2 0x1043 PUSH2 0x2C7D JUMP JUMPDEST PUSH1 0x1 PUSH1 0x1 PUSH1 0xA0 SHL SUB DUP3 AND PUSH2 0x108C JUMPI PUSH1 0x40 MLOAD PUSH3 0x461BCD PUSH1 0xE5 SHL DUP2 MSTORE PUSH1 0x20 PUSH1 0x4 DUP3 ADD MSTORE PUSH1 0x10 PUSH1 0x24 DUP3 ADD MSTORE PUSH16 0x125B9D985B1A59081BDC1C1BDB995B9D PUSH1 0x82 SHL PUSH1 0x44 DUP3 ADD MSTORE PUSH1 0x64 ADD PUSH2 0x7E4 JUMP JUMPDEST CALLER PUSH1 0x1 PUSH1 0x1 PUSH1 0xA0 SHL SUB DUP4 AND SUB PUSH2 0x10E4 JUMPI PUSH1 0x40 MLOAD PUSH3 0x461BCD PUSH1 0xE5 SHL DUP2 MSTORE PUSH1 0x20 PUSH1 0x4 DUP3 ADD MSTORE PUSH1 0x19 PUSH1 0x24 DUP3 ADD MSTORE PUSH32 0x43616E6E6F74206368616C6C656E676520796F757273656C6600000000000000 PUSH1 0x44 DUP3 ADD MSTORE PUSH1 0x64 ADD PUSH2 0x7E4 JUMP JUMPDEST PUSH1 0x1 PUSH1 0x1 PUSH1 0xA0 SHL SUB DUP3 AND PUSH1 0x0 SWAP1 DUP2 MSTORE PUSH1 0xD PUSH1 0x20 MSTORE PUSH1 0x40 SWAP1 KECCAK256 SLOAD PUSH1 0xFF AND PUSH2 0x114C JUMPI PUSH1 0x40 MLOAD PUSH3 0x461BCD PUSH1 0xE5 SHL DUP2 MSTORE PUSH1 0x20 PUSH1 0x4 DUP3 ADD MSTORE PUSH1 0x1D PUSH1 0x24 DUP3 ADD MSTORE PUSH32 0x4F70706F6E656E74206E6F742061207665726966696564206167656E74000000 PUSH1 0x44 DUP3 ADD MSTORE PUSH1 0x64 ADD PUSH2 0x7E4 JUMP JUMPDEST PUSH1 0x0 PUSH2 0x1159 DUP6 DUP6 DUP6 PUSH2 0x2CA7 JUMP JUMPDEST PUSH1 0x1 PUSH1 0x1 PUSH1 0xA0 SHL SUB DUP5 AND PUSH1 0x0 DUP2 DUP2 MSTORE PUSH1 0x12 PUSH1 0x20 SWAP1 DUP2 MSTORE PUSH1 0x40 DUP1 DUP4 KECCAK256 DUP1 SLOAD PUSH1 0x1 DUP1 DUP3 ADD DUP4 SSTORE SWAP2 DUP6 MSTORE DUP4 DUP6 KECCAK256 ADD DUP7 SWAP1 SSTORE CALLER DUP1 DUP6 MSTORE PUSH1 0x13 DUP5 MSTORE DUP3 DUP6 KECCAK256 DUP1 SLOAD SWAP3 DUP4 ADD DUP2 SSTORE DUP6 MSTORE SWAP4 DUP4 SWAP1 KECCAK256 ADD DUP6 SWAP1 SSTORE MLOAD DUP10 DUP2 MSTORE SWAP4 SWAP5 POP SWAP2 SWAP3 SWAP1 SWAP2 DUP5 SWAP2 PUSH32 0x689D6025813EC7A85F98F14388328E9E48053A65B79E20E34BF3F3142DECEBCE SWAP2 ADD PUSH1 0x40 MLOAD DUP1 SWAP2 SUB SWAP1 LOG4 SWAP1 POP PUSH2 0x11E7 PUSH1 0x1 PUSH1 0x0 SSTORE JUMP JUMPDEST SWAP4 SWAP3 POP POP POP JUMP JUMPDEST PUSH1 0xC PUSH1 0x20 MSTORE PUSH1 0x0 SWAP1 DUP2 MSTORE PUSH1 0x40 SWAP1 KECCAK256 DUP1 SLOAD PUSH2 0x1207 SWAP1 PUSH2 0x36F6 JUMP JUMPDEST DUP1 PUSH1 0x1F ADD PUSH1 0x20 DUP1 SWAP2 DIV MUL PUSH1 0x20 ADD PUSH1 0x40 MLOAD SWAP1 DUP2 ADD PUSH1 0x40 MSTORE DUP1 SWAP3 SWAP2 SWAP1 DUP2 DUP2 MSTORE PUSH1 0x20 ADD DUP3 DUP1 SLOAD PUSH2 0x1233 SWAP1 PUSH2 0x36F6 JUMP JUMPDEST DUP1 ISZERO PUSH2 0x1280 JUMPI DUP1 PUSH1 0x1F LT PUSH2 0x1255 JUMPI PUSH2 0x100 DUP1 DUP4 SLOAD DIV MUL DUP4 MSTORE SWAP2 PUSH1 0x20 ADD SWAP2 PUSH2 0x1280 JUMP JUMPDEST DUP3 ADD SWAP2 SWAP1 PUSH1 0x0 MSTORE PUSH1 0x20 PUSH1 0x0 KECCAK256 SWAP1 JUMPDEST DUP2 SLOAD DUP2 MSTORE SWAP1 PUSH1 0x1 ADD SWAP1 PUSH1 0x20 ADD DUP1 DUP4 GT PUSH2 0x1263 JUMPI DUP3 SWAP1 SUB PUSH1 0x1F AND DUP3 ADD SWAP2 JUMPDEST POP POP POP POP POP DUP2 JUMP JUMPDEST DUP1 ISZERO DUP1 ISZERO SWAP1 PUSH2 0x1298 JUMPI POP PUSH1 0x20 DUP2 GT ISZERO JUMPDEST PUSH2 0x12D3 JUMPI PUSH1 0x40 MLOAD PUSH3 0x461BCD PUSH1 0xE5 SHL DUP2 MSTORE PUSH1 0x20 PUSH1 0x4 DUP3 ADD MSTORE PUSH1 0xC PUSH1 0x24 DUP3 ADD MSTORE PUSH12 0x496E76616C6964206E616D65 PUSH1 0xA0 SHL PUSH1 0x44 DUP3 ADD MSTORE PUSH1 0x64 ADD PUSH2 0x7E4 JUMP JUMPDEST CALLER PUSH1 0x0 SWAP1 DUP2 MSTORE PUSH1 0xD PUSH1 0x20 SWAP1 DUP2 MSTORE PUSH1 0x40 DUP1 DUP4 KECCAK256 DUP1 SLOAD PUSH1 0xFF NOT AND PUSH1 0x1 OR SWAP1 SSTORE PUSH1 0xC SWAP1 SWAP2 MSTORE SWAP1 KECCAK256 PUSH2 0x1302 DUP3 DUP5 DUP4 PUSH2 0x377E JUMP JUMPDEST POP CALLER PUSH1 0x0 SWAP1 DUP2 MSTORE PUSH1 0xB PUSH1 0x20 MSTORE PUSH1 0x40 DUP2 KECCAK256 SLOAD PUSH1 0xFF AND PUSH1 0x2 DUP2 GT ISZERO PUSH2 0x1327 JUMPI PUSH2 0x1327 PUSH2 0x3184 JUMP JUMPDEST SUB PUSH2 0x1381 JUMPI CALLER PUSH1 0x0 DUP2 DUP2 MSTORE PUSH1 0xB PUSH1 0x20 MSTORE PUSH1 0x40 SWAP1 DUP2 SWAP1 KECCAK256 DUP1 SLOAD PUSH1 0xFF NOT AND PUSH1 0x1 OR SWAP1 SSTORE MLOAD PUSH32 0xDA816CA2FC37B9EECEC62AE8263008EC6BE1AFB38DC28BC9C7C51D7E348DA9C2 SWAP1 PUSH2 0x1378 SWAP1 DUP6 SWAP1 DUP6 SWAP1 PUSH2 0x383F JUMP JUMPDEST PUSH1 0x40 MLOAD DUP1 SWAP2 SUB SWAP1 LOG2 JUMPDEST CALLER PUSH1 0x1 PUSH1 0x1 PUSH1 0xA0 SHL SUB AND PUSH32 0x45127B38457C2F5C381CAD14D94B51D80A7700DFB7A910A1D816FEE3D3E10591 DUP4 DUP4 PUSH1 0x40 MLOAD PUSH2 0x13BC SWAP3 SWAP2 SWAP1 PUSH2 0x383F JUMP JUMPDEST PUSH1 0x40 MLOAD DUP1 SWAP2 SUB SWAP1 LOG2 POP POP JUMP JUMPDEST PUSH2 0x13D0 PUSH2 0x2BF1 JUMP JUMPDEST PUSH2 0x708 DUP2 LT ISZERO DUP1 ISZERO PUSH2 0x13E5 JUMPI POP PUSH3 0x2A300 DUP2 GT ISZERO JUMPDEST PUSH2 0x1423 JUMPI PUSH1 0x40 MLOAD PUSH3 0x461BCD PUSH1 0xE5 SHL DUP2 MSTORE PUSH1 0x20 PUSH1 0x4 DUP3 ADD MSTORE PUSH1 0xF PUSH1 0x24 DUP3 ADD MSTORE PUSH15 0x125B9D985B1A59081D1A5B595BDD5D PUSH1 0x8A SHL PUSH1 0x44 DUP3 ADD MSTORE PUSH1 0x64 ADD PUSH2 0x7E4 JUMP JUMPDEST PUSH1 0x8 SSTORE JUMP JUMPDEST PUSH1 0x60 DUP1 PUSH2 0x1438 DUP4 PUSH1 0x0 PUSH1 0x32 PUSH2 0xCB2 JUMP JUMPDEST SWAP2 POP SWAP2 POP SWAP2 POP SWAP2 JUMP JUMPDEST PUSH1 0x0 DUP2 DUP2 MSTORE PUSH1 0x9 PUSH1 0x20 MSTORE PUSH1 0x40 DUP2 KECCAK256 PUSH1 0x60 SWAP1 PUSH1 0x1 PUSH1 0x5 DUP3 ADD SLOAD PUSH2 0x100 SWAP1 DIV PUSH1 0xFF AND PUSH1 0x3 DUP2 GT ISZERO PUSH2 0x1472 JUMPI PUSH2 0x1472 PUSH2 0x3184 JUMP JUMPDEST SUB PUSH2 0x14D7 JUMPI PUSH1 0x7 SLOAD DUP2 PUSH1 0x6 ADD SLOAD PUSH2 0x1489 SWAP2 SWAP1 PUSH2 0x3675 JUMP JUMPDEST TIMESTAMP GT ISZERO PUSH2 0x14D2 JUMPI PUSH1 0x1 PUSH1 0x40 MLOAD DUP1 PUSH1 0x40 ADD PUSH1 0x40 MSTORE DUP1 PUSH1 0x1A DUP2 MSTORE PUSH1 0x20 ADD PUSH32 0x4E6F206F70706F6E656E74206A6F696E656420696E2074696D65000000000000 DUP2 MSTORE POP SWAP3 POP SWAP3 POP POP SWAP2 POP SWAP2 JUMP JUMPDEST PUSH2 0x1557 JUMP JUMPDEST PUSH1 0x2 PUSH1 0x5 DUP3 ADD SLOAD PUSH2 0x100 SWAP1 DIV PUSH1 0xFF AND PUSH1 0x3 DUP2 GT ISZERO PUSH2 0x14F7 JUMPI PUSH2 0x14F7 PUSH2 0x3184 JUMP JUMPDEST SUB PUSH2 0x1557 JUMPI PUSH1 0x8 SLOAD DUP2 PUSH1 0x7 ADD SLOAD PUSH2 0x150E SWAP2 SWAP1 PUSH2 0x3675 JUMP JUMPDEST TIMESTAMP GT ISZERO PUSH2 0x1557 JUMPI PUSH1 0x1 PUSH1 0x40 MLOAD DUP1 PUSH1 0x40 ADD PUSH1 0x40 MSTORE DUP1 PUSH1 0x1E DUP2 MSTORE PUSH1 0x20 ADD PUSH32 0x506C617965723120646964206E6F742072657665616C20696E2074696D650000 DUP2 MSTORE POP SWAP3 POP SWAP3 POP POP SWAP2 POP SWAP2 JUMP JUMPDEST PUSH1 0x0 PUSH1 0x40 MLOAD DUP1 PUSH1 0x20 ADD PUSH1 0x40 MSTORE DUP1 PUSH1 0x0 DUP2 MSTORE POP SWAP3 POP SWAP3 POP POP SWAP2 POP SWAP2 JUMP JUMPDEST PUSH2 0x157B PUSH2 0x2C7D JUMP JUMPDEST PUSH1 0x0 DUP2 DUP2 MSTORE PUSH1 0x9 PUSH1 0x20 MSTORE PUSH1 0x40 SWAP1 KECCAK256 PUSH1 0x1 PUSH1 0x5 DUP3 ADD SLOAD PUSH2 0x100 SWAP1 DIV PUSH1 0xFF AND PUSH1 0x3 DUP2 GT ISZERO PUSH2 0x15A9 JUMPI PUSH2 0x15A9 PUSH2 0x3184 JUMP JUMPDEST EQ PUSH2 0x15E6 JUMPI PUSH1 0x40 MLOAD PUSH3 0x461BCD PUSH1 0xE5 SHL DUP2 MSTORE PUSH1 0x20 PUSH1 0x4 DUP3 ADD MSTORE PUSH1 0xD PUSH1 0x24 DUP3 ADD MSTORE PUSH13 0x10D85B9B9BDD0818D85B98D95B PUSH1 0x9A SHL PUSH1 0x44 DUP3 ADD MSTORE PUSH1 0x64 ADD PUSH2 0x7E4 JUMP JUMPDEST DUP1 SLOAD PUSH1 0x7 SLOAD PUSH1 0x6 DUP4 ADD SLOAD PUSH1 0x1 PUSH1 0x1 PUSH1 0xA0 SHL SUB SWAP3 SWAP1 SWAP3 AND CALLER EQ SWAP2 PUSH1 0x0 SWAP2 PUSH2 0x160B SWAP2 PUSH2 0x3675 JUMP JUMPDEST TIMESTAMP GT SWAP1 POP DUP2 DUP1 PUSH2 0x1618 JUMPI POP DUP1 JUMPDEST PUSH2 0x1658 JUMPI PUSH1 0x40 MLOAD PUSH3 0x461BCD PUSH1 0xE5 SHL DUP2 MSTORE PUSH1 0x20 PUSH1 0x4 DUP3 ADD MSTORE PUSH1 0x11 PUSH1 0x24 DUP3 ADD MSTORE PUSH17 0x10D85B9B9BDD0818D85B98D95B081E595D PUSH1 0x7A SHL PUSH1 0x44 DUP3 ADD MSTORE PUSH1 0x64 ADD PUSH2 0x7E4 JUMP JUMPDEST PUSH1 0x5 DUP4 ADD DUP1 SLOAD PUSH2 0xFF00 NOT AND PUSH2 0x300 OR SWAP1 SSTORE DUP3 SLOAD PUSH1 0x3 DUP5 ADD SLOAD PUSH2 0x16A8 SWAP2 PUSH1 0x1 PUSH1 0x1 PUSH1 0xA0 SHL SUB PUSH32 0x0 DUP2 AND SWAP3 SWAP2 AND SWAP1 PUSH2 0x2C1E JUMP JUMPDEST DUP1 DUP1 ISZERO PUSH2 0x16B3 JUMPI POP DUP2 ISZERO JUMPDEST ISZERO PUSH2 0x172B JUMPI DUP4 PUSH32 0xD38304B601013934EC411AC3ECC152228D5349B6671F052480451A7E348F8DE3 PUSH1 0x40 MLOAD PUSH2 0x1722 SWAP1 PUSH1 0x20 DUP1 DUP3 MSTORE PUSH1 0x21 SWAP1 DUP3 ADD MSTORE PUSH32 0x47616D652074696D656F7574202D206E6F206F70706F6E656E74206A6F696E65 PUSH1 0x40 DUP3 ADD MSTORE PUSH1 0x19 PUSH1 0xFA SHL PUSH1 0x60 DUP3 ADD MSTORE PUSH1 0x80 ADD SWAP1 JUMP JUMPDEST PUSH1 0x40 MLOAD DUP1 SWAP2 SUB SWAP1 LOG2 JUMPDEST PUSH1 0x40 MLOAD DUP5 SWAP1 PUSH32 0x681705FDBD93DBA3B679FD712577E9A86D57C5551C520F8C74857DEB57F9623F SWAP1 PUSH1 0x0 SWAP1 LOG2 POP POP POP PUSH2 0x1763 PUSH1 0x1 PUSH1 0x0 SSTORE JUMP JUMPDEST POP JUMP JUMPDEST PUSH1 0x1 PUSH1 0x1 PUSH1 0xA0 SHL SUB DUP4 AND PUSH1 0x0 SWAP1 DUP2 MSTORE PUSH1 0x13 PUSH1 0x20 MSTORE PUSH1 0x40 SWAP1 KECCAK256 DUP1 SLOAD PUSH1 0x60 SWAP2 DUP3 SWAP2 DUP6 LT PUSH2 0x17CE JUMPI PUSH1 0x40 DUP1 MLOAD PUSH1 0x0 DUP1 DUP3 MSTORE PUSH1 0x20 DUP3 ADD DUP2 DUP2 MSTORE DUP3 DUP5 ADD SWAP1 SWAP4 MSTORE SWAP1 SWAP2 SWAP1 PUSH2 0xD10 JUMP JUMPDEST PUSH2 0x17B1 PUSH2 0x3039 JUMP JUMPDEST DUP2 MSTORE PUSH1 0x20 ADD SWAP1 PUSH1 0x1 SWAP1 SUB SWAP1 DUP2 PUSH2 0x17A9 JUMPI SWAP1 POP POP SWAP3 POP SWAP3 POP POP PUSH2 0x1004 JUMP JUMPDEST PUSH1 0x64 DUP5 GT ISZERO PUSH2 0x17DC JUMPI PUSH1 0x64 SWAP4 POP JUMPDEST DUP1 SLOAD PUSH1 0x0 SWAP1 PUSH2 0x17EB DUP7 DUP9 PUSH2 0x3675 JUMP JUMPDEST GT PUSH2 0x17FF JUMPI PUSH2 0x17FA DUP6 DUP8 PUSH2 0x3675 JUMP JUMPDEST PUSH2 0x1802 JUMP JUMPDEST DUP2 SLOAD JUMPDEST SWAP1 POP PUSH1 0x0 DUP7 JUMPDEST DUP3 DUP2 LT ISZERO PUSH2 0x1888 JUMPI PUSH1 0x1 PUSH1 0x9 PUSH1 0x0 DUP7 DUP5 DUP2 SLOAD DUP2 LT PUSH2 0x1828 JUMPI PUSH2 0x1828 PUSH2 0x3617 JUMP JUMPDEST SWAP1 PUSH1 0x0 MSTORE PUSH1 0x20 PUSH1 0x0 KECCAK256 ADD SLOAD DUP2 MSTORE PUSH1 0x20 ADD SWAP1 DUP2 MSTORE PUSH1 0x20 ADD PUSH1 0x0 KECCAK256 PUSH1 0x5 ADD PUSH1 0x1 SWAP1 SLOAD SWAP1 PUSH2 0x100 EXP SWAP1 DIV PUSH1 0xFF AND PUSH1 0x3 DUP2 GT ISZERO PUSH2 0x1863 JUMPI PUSH2 0x1863 PUSH2 0x3184 JUMP JUMPDEST SUB PUSH2 0x1876 JUMPI DUP2 PUSH2 0x1872 DUP2 PUSH2 0x3643 JUMP JUMPDEST SWAP3 POP POP JUMPDEST DUP1 PUSH2 0x1880 DUP2 PUSH2 0x3643 JUMP JUMPDEST SWAP2 POP POP PUSH2 0x1808 JUMP JUMPDEST POP DUP1 PUSH8 0xFFFFFFFFFFFFFFFF DUP2 GT ISZERO PUSH2 0x18A2 JUMPI PUSH2 0x18A2 PUSH2 0x36E0 JUMP JUMPDEST PUSH1 0x40 MLOAD SWAP1 DUP1 DUP3 MSTORE DUP1 PUSH1 0x20 MUL PUSH1 0x20 ADD DUP3 ADD PUSH1 0x40 MSTORE DUP1 ISZERO PUSH2 0x18CB JUMPI DUP2 PUSH1 0x20 ADD PUSH1 0x20 DUP3 MUL DUP1 CALLDATASIZE DUP4 CALLDATACOPY ADD SWAP1 POP JUMPDEST POP SWAP5 POP DUP1 PUSH8 0xFFFFFFFFFFFFFFFF DUP2 GT ISZERO PUSH2 0x18E7 JUMPI PUSH2 0x18E7 PUSH2 0x36E0 JUMP JUMPDEST PUSH1 0x40 MLOAD SWAP1 DUP1 DUP3 MSTORE DUP1 PUSH1 0x20 MUL PUSH1 0x20 ADD DUP3 ADD PUSH1 0x40 MSTORE DUP1 ISZERO PUSH2 0x1920 JUMPI DUP2 PUSH1 0x20 ADD JUMPDEST PUSH2 0x190D PUSH2 0x3039 JUMP JUMPDEST DUP2 MSTORE PUSH1 0x20 ADD SWAP1 PUSH1 0x1 SWAP1 SUB SWAP1 DUP2 PUSH2 0x1905 JUMPI SWAP1 POP JUMPDEST POP SWAP4 POP PUSH1 0x0 DUP8 JUMPDEST DUP4 DUP2 LT DUP1 ISZERO PUSH2 0x1935 JUMPI POP DUP3 DUP3 LT JUMPDEST ISZERO PUSH2 0xFFE JUMPI PUSH1 0x0 DUP6 DUP3 DUP2 SLOAD DUP2 LT PUSH2 0x194E JUMPI PUSH2 0x194E PUSH2 0x3617 JUMP JUMPDEST PUSH1 0x0 SWAP2 DUP3 MSTORE PUSH1 0x20 SWAP1 SWAP2 KECCAK256 ADD SLOAD SWAP1 POP PUSH1 0x1 PUSH1 0x0 DUP3 DUP2 MSTORE PUSH1 0x9 PUSH1 0x20 MSTORE PUSH1 0x40 SWAP1 KECCAK256 PUSH1 0x5 ADD SLOAD PUSH2 0x100 SWAP1 DIV PUSH1 0xFF AND PUSH1 0x3 DUP2 GT ISZERO PUSH2 0x1989 JUMPI PUSH2 0x1989 PUSH2 0x3184 JUMP JUMPDEST SUB PUSH2 0x1A9E JUMPI DUP1 DUP9 DUP5 DUP2 MLOAD DUP2 LT PUSH2 0x19A1 JUMPI PUSH2 0x19A1 PUSH2 0x3617 JUMP JUMPDEST PUSH1 0x20 SWAP1 DUP2 MUL SWAP2 SWAP1 SWAP2 ADD DUP2 ADD SWAP2 SWAP1 SWAP2 MSTORE PUSH1 0x0 DUP3 DUP2 MSTORE PUSH1 0x9 DUP3 MSTORE PUSH1 0x40 SWAP1 DUP2 SWAP1 KECCAK256 DUP2 MLOAD PUSH2 0x140 DUP2 ADD DUP4 MSTORE DUP2 SLOAD PUSH1 0x1 PUSH1 0x1 PUSH1 0xA0 SHL SUB SWAP1 DUP2 AND DUP3 MSTORE PUSH1 0x1 DUP4 ADD SLOAD DUP2 AND SWAP5 DUP3 ADD SWAP5 SWAP1 SWAP5 MSTORE PUSH1 0x2 DUP3 ADD SLOAD SWAP1 SWAP4 AND SWAP2 DUP4 ADD SWAP2 SWAP1 SWAP2 MSTORE PUSH1 0x3 DUP1 DUP3 ADD SLOAD PUSH1 0x60 DUP5 ADD MSTORE PUSH1 0x4 DUP3 ADD SLOAD PUSH1 0x80 DUP5 ADD MSTORE PUSH1 0x5 DUP3 ADD SLOAD PUSH1 0xFF DUP1 DUP3 AND PUSH1 0xA0 DUP7 ADD MSTORE PUSH1 0xC0 DUP6 ADD SWAP3 PUSH2 0x100 SWAP1 SWAP3 DIV AND SWAP1 DUP2 GT ISZERO PUSH2 0x1A34 JUMPI PUSH2 0x1A34 PUSH2 0x3184 JUMP JUMPDEST PUSH1 0x3 DUP2 GT ISZERO PUSH2 0x1A45 JUMPI PUSH2 0x1A45 PUSH2 0x3184 JUMP JUMPDEST DUP2 MSTORE PUSH1 0x6 DUP3 ADD SLOAD PUSH1 0x20 DUP3 ADD MSTORE PUSH1 0x7 DUP3 ADD SLOAD PUSH1 0x40 DUP3 ADD MSTORE PUSH1 0x8 SWAP1 SWAP2 ADD SLOAD PUSH1 0x1 PUSH1 0x1 PUSH1 0xA0 SHL SUB AND PUSH1 0x60 SWAP1 SWAP2 ADD MSTORE DUP8 MLOAD DUP9 SWAP1 DUP6 SWAP1 DUP2 LT PUSH2 0x1A84 JUMPI PUSH2 0x1A84 PUSH2 0x3617 JUMP JUMPDEST PUSH1 0x20 MUL PUSH1 0x20 ADD ADD DUP2 SWAP1 MSTORE POP DUP3 DUP1 PUSH2 0x1A9A SWAP1 PUSH2 0x3643 JUMP JUMPDEST SWAP4 POP POP JUMPDEST POP DUP1 PUSH2 0x1AA9 DUP2 PUSH2 0x3643 JUMP JUMPDEST SWAP2 POP POP PUSH2 0x1927 JUMP JUMPDEST PUSH2 0x1AB9 PUSH2 0x2BF1 JUMP JUMPDEST PUSH2 0x1AC3 PUSH1 0x0 PUSH2 0x2F37 JUMP JUMPDEST JUMP JUMPDEST PUSH2 0x1ACD PUSH2 0x2BF1 JUMP JUMPDEST DUP1 DUP3 LT PUSH2 0x1B0D JUMPI PUSH1 0x40 MLOAD PUSH3 0x461BCD PUSH1 0xE5 SHL DUP2 MSTORE PUSH1 0x20 PUSH1 0x4 DUP3 ADD MSTORE PUSH1 0xE PUSH1 0x24 DUP3 ADD MSTORE PUSH14 0x496E76616C6964206C696D697473 PUSH1 0x90 SHL PUSH1 0x44 DUP3 ADD MSTORE PUSH1 0x64 ADD PUSH2 0x7E4 JUMP JUMPDEST PUSH1 0x2 SWAP2 SWAP1 SWAP2 SSTORE PUSH1 0x3 SSTORE JUMP JUMPDEST PUSH2 0x1B20 PUSH2 0x2BF1 JUMP JUMPDEST PUSH2 0x1F4 DUP2 GT ISZERO PUSH2 0x1B61 JUMPI PUSH1 0x40 MLOAD PUSH3 0x461BCD PUSH1 0xE5 SHL DUP2 MSTORE PUSH1 0x20 PUSH1 0x4 DUP3 ADD MSTORE PUSH1 0xC PUSH1 0x24 DUP3 ADD MSTORE PUSH12 0x8CCACA40E8DEDE40D0D2CED PUSH1 0xA3 SHL PUSH1 0x44 DUP3 ADD MSTORE PUSH1 0x64 ADD PUSH2 0x7E4 JUMP JUMPDEST PUSH1 0x4 SSTORE JUMP JUMPDEST PUSH1 0x1 PUSH1 0x1 PUSH1 0xA0 SHL SUB DUP2 AND PUSH1 0x0 SWAP1 DUP2 MSTORE PUSH1 0xC PUSH1 0x20 SWAP1 DUP2 MSTORE PUSH1 0x40 DUP1 DUP4 KECCAK256 PUSH1 0xF DUP4 MSTORE DUP2 DUP5 KECCAK256 SLOAD PUSH1 0x10 DUP5 MSTORE DUP3 DUP6 KECCAK256 SLOAD PUSH1 0x11 DUP6 MSTORE DUP4 DUP7 KECCAK256 SLOAD PUSH1 0xD DUP7 MSTORE DUP5 DUP8 KECCAK256 SLOAD PUSH1 0xB SWAP1 SWAP7 MSTORE SWAP4 DUP7 KECCAK256 SLOAD PUSH1 0x60 SWAP7 SWAP6 DUP7 SWAP6 DUP7 SWAP6 DUP7 SWAP6 DUP7 SWAP6 SWAP2 SWAP5 SWAP1 SWAP4 SWAP2 SWAP3 SWAP2 PUSH1 0xFF SWAP1 DUP2 AND SWAP2 PUSH1 0x2 SWAP2 AND DUP2 DUP2 GT ISZERO PUSH2 0x1BD7 JUMPI PUSH2 0x1BD7 PUSH2 0x3184 JUMP JUMPDEST EQ DUP6 DUP1 SLOAD PUSH2 0x1BE4 SWAP1 PUSH2 0x36F6 JUMP JUMPDEST DUP1 PUSH1 0x1F ADD PUSH1 0x20 DUP1 SWAP2 DIV MUL PUSH1 0x20 ADD PUSH1 0x40 MLOAD SWAP1 DUP2 ADD PUSH1 0x40 MSTORE DUP1 SWAP3 SWAP2 SWAP1 DUP2 DUP2 MSTORE PUSH1 0x20 ADD DUP3 DUP1 SLOAD PUSH2 0x1C10 SWAP1 PUSH2 0x36F6 JUMP JUMPDEST DUP1 ISZERO PUSH2 0x1C5D JUMPI DUP1 PUSH1 0x1F LT PUSH2 0x1C32 JUMPI PUSH2 0x100 DUP1 DUP4 SLOAD DIV MUL DUP4 MSTORE SWAP2 PUSH1 0x20 ADD SWAP2 PUSH2 0x1C5D JUMP JUMPDEST DUP3 ADD SWAP2 SWAP1 PUSH1 0x0 MSTORE PUSH1 0x20 PUSH1 0x0 KECCAK256 SWAP1 JUMPDEST DUP2 SLOAD DUP2 MSTORE SWAP1 PUSH1 0x1 ADD SWAP1 PUSH1 0x20 ADD DUP1 DUP4 GT PUSH2 0x1C40 JUMPI DUP3 SWAP1 SUB PUSH1 0x1F AND DUP3 ADD SWAP2 JUMPDEST POP POP POP POP POP SWAP6 POP SWAP6 POP SWAP6 POP SWAP6 POP SWAP6 POP SWAP6 POP SWAP6 POP SWAP2 SWAP4 SWAP6 POP SWAP2 SWAP4 SWAP6 JUMP JUMPDEST PUSH2 0x1C81 PUSH2 0x2C7D JUMP JUMPDEST PUSH1 0x0 DUP4 DUP2 MSTORE PUSH1 0x9 PUSH1 0x20 MSTORE PUSH1 0x40 SWAP1 KECCAK256 PUSH1 0x2 PUSH1 0x5 DUP3 ADD SLOAD PUSH2 0x100 SWAP1 DIV PUSH1 0xFF AND PUSH1 0x3 DUP2 GT ISZERO PUSH2 0x1CAF JUMPI PUSH2 0x1CAF PUSH2 0x3184 JUMP JUMPDEST EQ PUSH2 0x1CFC JUMPI PUSH1 0x40 MLOAD PUSH3 0x461BCD PUSH1 0xE5 SHL DUP2 MSTORE PUSH1 0x20 PUSH1 0x4 DUP3 ADD MSTORE PUSH1 0x19 PUSH1 0x24 DUP3 ADD MSTORE PUSH32 0x47616D65206E6F7420726561647920746F207265736F6C766500000000000000 PUSH1 0x44 DUP3 ADD MSTORE PUSH1 0x64 ADD PUSH2 0x7E4 JUMP JUMPDEST DUP1 SLOAD PUSH1 0x1 PUSH1 0x1 PUSH1 0xA0 SHL SUB AND CALLER EQ PUSH2 0x1D55 JUMPI PUSH1 0x40 MLOAD PUSH3 0x461BCD PUSH1 0xE5 SHL DUP2 MSTORE PUSH1 0x20 PUSH1 0x4 DUP3 ADD MSTORE PUSH1 0x17 PUSH1 0x24 DUP3 ADD MSTORE PUSH32 0x4F6E6C7920706C61796572312063616E2072657665616C000000000000000000 PUSH1 0x44 DUP3 ADD MSTORE PUSH1 0x64 ADD PUSH2 0x7E4 JUMP JUMPDEST PUSH1 0x1 DUP4 PUSH1 0xFF AND GT ISZERO PUSH2 0x1D9A JUMPI PUSH1 0x40 MLOAD PUSH3 0x461BCD PUSH1 0xE5 SHL DUP2 MSTORE PUSH1 0x20 PUSH1 0x4 DUP3 ADD MSTORE PUSH1 0xE PUSH1 0x24 DUP3 ADD MSTORE PUSH14 0x496E76616C69642063686F696365 PUSH1 0x90 SHL PUSH1 0x44 DUP3 ADD MSTORE PUSH1 0x64 ADD PUSH2 0x7E4 JUMP JUMPDEST PUSH1 0x40 MLOAD PUSH1 0x1 PUSH1 0x1 PUSH1 0xF8 SHL SUB NOT PUSH1 0xF8 DUP6 SWAP1 SHL AND PUSH1 0x20 DUP3 ADD MSTORE PUSH1 0x21 DUP2 ADD DUP4 SWAP1 MSTORE PUSH1 0x0 SWAP1 PUSH1 0x41 ADD PUSH1 0x40 MLOAD PUSH1 0x20 DUP2 DUP4 SUB SUB DUP2 MSTORE SWAP1 PUSH1 0x40 MSTORE DUP1 MLOAD SWAP1 PUSH1 0x20 ADD KECCAK256 SWAP1 POP DUP2 PUSH1 0x4 ADD SLOAD DUP2 EQ PUSH2 0x1E1A JUMPI PUSH1 0x40 MLOAD PUSH3 0x461BCD PUSH1 0xE5 SHL DUP2 MSTORE PUSH1 0x20 PUSH1 0x4 DUP3 ADD MSTORE PUSH1 0xE PUSH1 0x24 DUP3 ADD MSTORE PUSH14 0x125B9D985B1A59081C995D99585B PUSH1 0x92 SHL PUSH1 0x44 DUP3 ADD MSTORE PUSH1 0x64 ADD PUSH2 0x7E4 JUMP JUMPDEST PUSH1 0x5 DUP3 ADD SLOAD PUSH1 0x0 SWAP1 PUSH1 0xFF SWAP1 DUP2 AND SWAP1 DUP7 AND SUB PUSH2 0x1E40 JUMPI POP DUP2 SLOAD PUSH1 0x1 PUSH1 0x1 PUSH1 0xA0 SHL SUB AND PUSH2 0x1E50 JUMP JUMPDEST POP PUSH1 0x1 DUP3 ADD SLOAD PUSH1 0x1 PUSH1 0x1 PUSH1 0xA0 SHL SUB AND JUMPDEST PUSH1 0x8 DUP4 ADD DUP1 SLOAD PUSH1 0x1 PUSH1 0x1 PUSH1 0xA0 SHL SUB NOT AND PUSH1 0x1 PUSH1 0x1 PUSH1 0xA0 SHL SUB DUP4 AND OR SWAP1 SSTORE PUSH1 0x5 DUP4 ADD DUP1 SLOAD PUSH2 0xFF00 NOT AND PUSH2 0x300 OR SWAP1 SSTORE PUSH1 0x3 DUP4 ADD SLOAD PUSH1 0x0 SWAP1 PUSH2 0x1E91 SWAP1 PUSH1 0x2 PUSH2 0x3688 JUMP JUMPDEST SWAP1 POP PUSH1 0x0 PUSH2 0x2710 PUSH1 0x4 SLOAD DUP4 PUSH2 0x1EA6 SWAP2 SWAP1 PUSH2 0x3688 JUMP JUMPDEST PUSH2 0x1EB0 SWAP2 SWAP1 PUSH2 0x386E JUMP JUMPDEST SWAP1 POP PUSH1 0x0 PUSH2 0x1EBE DUP3 DUP5 PUSH2 0x369F JUMP JUMPDEST PUSH1 0x5 DUP1 SLOAD SWAP2 SWAP3 POP PUSH1 0x0 PUSH2 0x1ED0 DUP4 PUSH2 0x3643 JUMP JUMPDEST SWAP2 SWAP1 POP SSTORE POP DUP3 PUSH1 0x6 PUSH1 0x0 DUP3 DUP3 SLOAD PUSH2 0x1EE7 SWAP2 SWAP1 PUSH2 0x3675 JUMP JUMPDEST SWAP1 SWAP2 SSTORE POP POP PUSH1 0x1 PUSH1 0x1 PUSH1 0xA0 SHL SUB DUP5 AND PUSH1 0x0 SWAP1 DUP2 MSTORE PUSH1 0xF PUSH1 0x20 MSTORE PUSH1 0x40 DUP2 KECCAK256 DUP1 SLOAD SWAP2 PUSH2 0x1F10 DUP4 PUSH2 0x3643 JUMP JUMPDEST SWAP1 SWAP2 SSTORE POP POP DUP6 SLOAD PUSH1 0x10 SWAP1 PUSH1 0x0 SWAP1 PUSH1 0x1 PUSH1 0x1 PUSH1 0xA0 SHL SUB DUP8 DUP2 AND SWAP2 AND EQ PUSH2 0x1F3F JUMPI DUP8 SLOAD PUSH1 0x1 PUSH1 0x1 PUSH1 0xA0 SHL SUB AND PUSH2 0x1F4E JUMP JUMPDEST PUSH1 0x1 DUP9 ADD SLOAD PUSH1 0x1 PUSH1 0x1 PUSH1 0xA0 SHL SUB AND JUMPDEST PUSH1 0x1 PUSH1 0x1 PUSH1 0xA0 SHL SUB AND DUP2 MSTORE PUSH1 0x20 DUP2 ADD SWAP2 SWAP1 SWAP2 MSTORE PUSH1 0x40 ADD PUSH1 0x0 SWAP1 DUP2 KECCAK256 DUP1 SLOAD SWAP2 PUSH2 0x1F75 DUP4 PUSH2 0x3643 JUMP JUMPDEST SWAP1 SWAP2 SSTORE POP POP PUSH1 0x3 DUP7 ADD SLOAD DUP7 SLOAD PUSH1 0x1 PUSH1 0x1 PUSH1 0xA0 SHL SUB AND PUSH1 0x0 SWAP1 DUP2 MSTORE PUSH1 0x11 PUSH1 0x20 MSTORE PUSH1 0x40 DUP2 KECCAK256 DUP1 SLOAD SWAP1 SWAP2 SWAP1 PUSH2 0x1FA8 SWAP1 DUP5 SWAP1 PUSH2 0x3675 JUMP JUMPDEST SWAP1 SWAP2 SSTORE POP POP PUSH1 0x3 DUP7 ADD SLOAD PUSH1 0x1 DUP8 ADD SLOAD PUSH1 0x1 PUSH1 0x1 PUSH1 0xA0 SHL SUB AND PUSH1 0x0 SWAP1 DUP2 MSTORE PUSH1 0x11 PUSH1 0x20 MSTORE PUSH1 0x40 DUP2 KECCAK256 DUP1 SLOAD SWAP1 SWAP2 SWAP1 PUSH2 0x1FDE SWAP1 DUP5 SWAP1 PUSH2 0x3675 JUMP JUMPDEST SWAP1 SWAP2 SSTORE POP PUSH2 0x2018 SWAP1 POP PUSH1 0x1 PUSH1 0x1 PUSH1 0xA0 SHL SUB PUSH32 0x0 AND DUP6 DUP4 PUSH2 0x2C1E JUMP JUMPDEST DUP4 PUSH1 0x1 PUSH1 0x1 PUSH1 0xA0 SHL SUB AND DUP10 PUSH32 0x36E33EEA5DF2E6C873949C5C856FEB597F250EA8A329ED5AC38C39AB96905359 DUP4 PUSH1 0x40 MLOAD PUSH2 0x2054 SWAP2 DUP2 MSTORE PUSH1 0x20 ADD SWAP1 JUMP JUMPDEST PUSH1 0x40 MLOAD DUP1 SWAP2 SUB SWAP1 LOG3 POP POP POP POP POP POP PUSH2 0x92D PUSH1 0x1 PUSH1 0x0 SSTORE JUMP JUMPDEST PUSH1 0x60 DUP1 PUSH2 0x1438 DUP4 PUSH1 0x0 PUSH1 0x32 PUSH2 0x1766 JUMP JUMPDEST PUSH2 0x2084 PUSH2 0x3039 JUMP JUMPDEST PUSH1 0x0 DUP3 DUP2 MSTORE PUSH1 0x9 PUSH1 0x20 SWAP1 DUP2 MSTORE PUSH1 0x40 SWAP2 DUP3 SWAP1 KECCAK256 DUP3 MLOAD PUSH2 0x140 DUP2 ADD DUP5 MSTORE DUP2 SLOAD PUSH1 0x1 PUSH1 0x1 PUSH1 0xA0 SHL SUB SWAP1 DUP2 AND DUP3 MSTORE PUSH1 0x1 DUP4 ADD SLOAD DUP2 AND SWAP4 DUP3 ADD SWAP4 SWAP1 SWAP4 MSTORE PUSH1 0x2 DUP3 ADD SLOAD SWAP1 SWAP3 AND SWAP3 DUP3 ADD SWAP3 SWAP1 SWAP3 MSTORE PUSH1 0x3 DUP1 DUP4 ADD SLOAD PUSH1 0x60 DUP4 ADD MSTORE PUSH1 0x4 DUP4 ADD SLOAD PUSH1 0x80 DUP4 ADD MSTORE PUSH1 0x5 DUP4 ADD SLOAD PUSH1 0xFF DUP1 DUP3 AND PUSH1 0xA0 DUP6 ADD MSTORE SWAP3 SWAP4 SWAP3 PUSH1 0xC0 DUP6 ADD SWAP3 PUSH2 0x100 SWAP1 SWAP3 DIV AND SWAP1 DUP2 GT ISZERO PUSH2 0x210E JUMPI PUSH2 0x210E PUSH2 0x3184 JUMP JUMPDEST PUSH1 0x3 DUP2 GT ISZERO PUSH2 0x211F JUMPI PUSH2 0x211F PUSH2 0x3184 JUMP JUMPDEST DUP2 MSTORE PUSH1 0x6 DUP3 ADD SLOAD PUSH1 0x20 DUP3 ADD MSTORE PUSH1 0x7 DUP3 ADD SLOAD PUSH1 0x40 DUP3 ADD MSTORE PUSH1 0x8 SWAP1 SWAP2 ADD SLOAD PUSH1 0x1 PUSH1 0x1 PUSH1 0xA0 SHL SUB AND PUSH1 0x60 SWAP1 SWAP2 ADD MSTORE SWAP3 SWAP2 POP POP JUMP JUMPDEST PUSH2 0x2158 PUSH2 0x2C7D JUMP JUMPDEST PUSH1 0x0 DUP2 DUP2 MSTORE PUSH1 0x9 PUSH1 0x20 MSTORE PUSH1 0x40 SWAP1 KECCAK256 PUSH1 0x2 PUSH1 0x5 DUP3 ADD SLOAD PUSH2 0x100 SWAP1 DIV PUSH1 0xFF AND PUSH1 0x3 DUP2 GT ISZERO PUSH2 0x2186 JUMPI PUSH2 0x2186 PUSH2 0x3184 JUMP JUMPDEST EQ PUSH2 0x21C5 JUMPI PUSH1 0x40 MLOAD PUSH3 0x461BCD PUSH1 0xE5 SHL DUP2 MSTORE PUSH1 0x20 PUSH1 0x4 DUP3 ADD MSTORE PUSH1 0xF PUSH1 0x24 DUP3 ADD MSTORE PUSH15 0x11D85B59481B9BDD081A9BDA5B9959 PUSH1 0x8A SHL PUSH1 0x44 DUP3 ADD MSTORE PUSH1 0x64 ADD PUSH2 0x7E4 JUMP JUMPDEST PUSH1 0x8 SLOAD DUP2 PUSH1 0x7 ADD SLOAD PUSH2 0x21D7 SWAP2 SWAP1 PUSH2 0x3675 JUMP JUMPDEST TIMESTAMP GT PUSH2 0x221A JUMPI PUSH1 0x40 MLOAD PUSH3 0x461BCD PUSH1 0xE5 SHL DUP2 MSTORE PUSH1 0x20 PUSH1 0x4 DUP3 ADD MSTORE PUSH1 0x12 PUSH1 0x24 DUP3 ADD MSTORE PUSH18 0x546F6F206561726C7920746F20666F726365 PUSH1 0x70 SHL PUSH1 0x44 DUP3 ADD MSTORE PUSH1 0x64 ADD PUSH2 0x7E4 JUMP JUMPDEST PUSH1 0x1 DUP2 ADD SLOAD PUSH1 0x8 DUP3 ADD DUP1 SLOAD PUSH1 0x1 PUSH1 0x1 PUSH1 0xA0 SHL SUB NOT AND PUSH1 0x1 PUSH1 0x1 PUSH1 0xA0 SHL SUB SWAP1 SWAP3 AND SWAP2 SWAP1 SWAP2 OR SWAP1 SSTORE PUSH1 0x5 DUP2 ADD DUP1 SLOAD PUSH2 0xFF00 NOT AND PUSH2 0x300 OR SWAP1 SSTORE PUSH1 0x3 DUP2 ADD SLOAD PUSH1 0x0 SWAP1 PUSH2 0x2264 SWAP1 PUSH1 0x2 PUSH2 0x3688 JUMP JUMPDEST SWAP1 POP PUSH1 0x0 PUSH2 0x2710 PUSH1 0x4 SLOAD DUP4 PUSH2 0x2279 SWAP2 SWAP1 PUSH2 0x3688 JUMP JUMPDEST PUSH2 0x2283 SWAP2 SWAP1 PUSH2 0x386E JUMP JUMPDEST SWAP1 POP PUSH1 0x0 PUSH2 0x2291 DUP3 DUP5 PUSH2 0x369F JUMP JUMPDEST PUSH1 0x5 DUP1 SLOAD SWAP2 SWAP3 POP PUSH1 0x0 PUSH2 0x22A3 DUP4 PUSH2 0x3643 JUMP JUMPDEST SWAP2 SWAP1 POP SSTORE POP DUP3 PUSH1 0x6 PUSH1 0x0 DUP3 DUP3 SLOAD PUSH2 0x22BA SWAP2 SWAP1 PUSH2 0x3675 JUMP JUMPDEST SWAP1 SWAP2 SSTORE POP POP PUSH1 0x1 DUP5 ADD SLOAD PUSH1 0x1 PUSH1 0x1 PUSH1 0xA0 SHL SUB AND PUSH1 0x0 SWAP1 DUP2 MSTORE PUSH1 0xF PUSH1 0x20 MSTORE PUSH1 0x40 DUP2 KECCAK256 DUP1 SLOAD SWAP2 PUSH2 0x22E7 DUP4 PUSH2 0x3643 JUMP JUMPDEST SWAP1 SWAP2 SSTORE POP POP DUP4 SLOAD PUSH1 0x1 PUSH1 0x1 PUSH1 0xA0 SHL SUB AND PUSH1 0x0 SWAP1 DUP2 MSTORE PUSH1 0x10 PUSH1 0x20 MSTORE PUSH1 0x40 DUP2 KECCAK256 DUP1 SLOAD SWAP2 PUSH2 0x2311 DUP4 PUSH2 0x3643 JUMP JUMPDEST SWAP1 SWAP2 SSTORE POP POP PUSH1 0x1 DUP5 ADD SLOAD PUSH2 0x2352 SWAP1 PUSH1 0x1 PUSH1 0x1 PUSH1 0xA0 SHL SUB PUSH32 0x0 DUP2 AND SWAP2 AND DUP4 PUSH2 0x2C1E JUMP JUMPDEST DUP5 PUSH32 0xD38304B601013934EC411AC3ECC152228D5349B6671F052480451A7E348F8DE3 PUSH1 0x40 MLOAD PUSH2 0x23BD SWAP1 PUSH1 0x20 DUP1 DUP3 MSTORE PUSH1 0x22 SWAP1 DUP3 ADD MSTORE PUSH32 0x52657665616C2074696D656F7574202D20706C617965723120666F7266656974 PUSH1 0x40 DUP3 ADD MSTORE PUSH2 0x1959 PUSH1 0xF2 SHL PUSH1 0x60 DUP3 ADD MSTORE PUSH1 0x80 ADD SWAP1 JUMP JUMPDEST PUSH1 0x40 MLOAD DUP1 SWAP2 SUB SWAP1 LOG2 PUSH1 0x1 DUP5 ADD SLOAD PUSH1 0x40 MLOAD DUP3 DUP2 MSTORE PUSH1 0x1 PUSH1 0x1 PUSH1 0xA0 SHL SUB SWAP1 SWAP2 AND SWAP1 DUP7 SWAP1 PUSH32 0x36E33EEA5DF2E6C873949C5C856FEB597F250EA8A329ED5AC38C39AB96905359 SWAP1 PUSH1 0x20 ADD PUSH1 0x40 MLOAD DUP1 SWAP2 SUB SWAP1 LOG3 POP POP POP POP PUSH2 0x1763 PUSH1 0x1 PUSH1 0x0 SSTORE JUMP JUMPDEST PUSH2 0x2421 PUSH2 0x2BF1 JUMP JUMPDEST PUSH2 0x384 DUP2 LT ISZERO DUP1 ISZERO PUSH2 0x2436 JUMPI POP PUSH3 0x15180 DUP2 GT ISZERO JUMPDEST PUSH2 0x2474 JUMPI PUSH1 0x40 MLOAD PUSH3 0x461BCD PUSH1 0xE5 SHL DUP2 MSTORE PUSH1 0x20 PUSH1 0x4 DUP3 ADD MSTORE PUSH1 0xF PUSH1 0x24 DUP3 ADD MSTORE PUSH15 0x125B9D985B1A59081D1A5B595BDD5D PUSH1 0x8A SHL PUSH1 0x44 DUP3 ADD MSTORE PUSH1 0x64 ADD PUSH2 0x7E4 JUMP JUMPDEST PUSH1 0x7 SSTORE JUMP JUMPDEST PUSH2 0x2481 PUSH2 0x2BF1 JUMP JUMPDEST PUSH1 0x1 PUSH1 0x1 PUSH1 0xA0 SHL SUB DUP3 AND PUSH1 0x0 DUP2 DUP2 MSTORE PUSH1 0xE PUSH1 0x20 SWAP1 DUP2 MSTORE PUSH1 0x40 SWAP2 DUP3 SWAP1 KECCAK256 DUP1 SLOAD PUSH1 0xFF NOT AND DUP6 ISZERO ISZERO SWAP1 DUP2 OR SWAP1 SWAP2 SSTORE SWAP2 MLOAD SWAP2 DUP3 MSTORE PUSH32 0xBA5F7031AD83095931EE4B5138591DB2DC3CFC56178367622FA4B05C2EFAD231 SWAP2 ADD PUSH2 0x13BC JUMP JUMPDEST PUSH1 0x13 PUSH1 0x20 MSTORE DUP2 PUSH1 0x0 MSTORE PUSH1 0x40 PUSH1 0x0 KECCAK256 DUP2 DUP2 SLOAD DUP2 LT PUSH2 0x94E JUMPI PUSH1 0x0 DUP1 REVERT JUMPDEST PUSH1 0x0 PUSH1 0x2 PUSH1 0x1 PUSH1 0x1 PUSH1 0xA0 SHL SUB DUP4 AND PUSH1 0x0 SWAP1 DUP2 MSTORE PUSH1 0xB PUSH1 0x20 MSTORE PUSH1 0x40 SWAP1 KECCAK256 SLOAD PUSH1 0xFF AND PUSH1 0x2 DUP2 GT ISZERO PUSH2 0x2526 JUMPI PUSH2 0x2526 PUSH2 0x3184 JUMP JUMPDEST EQ SWAP3 SWAP2 POP POP JUMP JUMPDEST PUSH1 0x1 PUSH1 0x1 PUSH1 0xA0 SHL SUB DUP2 AND PUSH1 0x0 SWAP1 DUP2 MSTORE PUSH1 0xF PUSH1 0x20 SWAP1 DUP2 MSTORE PUSH1 0x40 DUP1 DUP4 KECCAK256 SLOAD PUSH1 0x10 DUP4 MSTORE DUP2 DUP5 KECCAK256 SLOAD PUSH1 0x11 DUP5 MSTORE DUP3 DUP6 KECCAK256 SLOAD PUSH1 0xC SWAP1 SWAP5 MSTORE SWAP2 DUP5 KECCAK256 DUP1 SLOAD DUP6 SWAP5 DUP6 SWAP5 PUSH1 0x60 SWAP5 SWAP4 SWAP1 SWAP3 DUP2 SWAP1 PUSH2 0x2578 SWAP1 PUSH2 0x36F6 JUMP JUMPDEST DUP1 PUSH1 0x1F ADD PUSH1 0x20 DUP1 SWAP2 DIV MUL PUSH1 0x20 ADD PUSH1 0x40 MLOAD SWAP1 DUP2 ADD PUSH1 0x40 MSTORE DUP1 SWAP3 SWAP2 SWAP1 DUP2 DUP2 MSTORE PUSH1 0x20 ADD DUP3 DUP1 SLOAD PUSH2 0x25A4 SWAP1 PUSH2 0x36F6 JUMP JUMPDEST DUP1 ISZERO PUSH2 0x25F1 JUMPI DUP1 PUSH1 0x1F LT PUSH2 0x25C6 JUMPI PUSH2 0x100 DUP1 DUP4 SLOAD DIV MUL DUP4 MSTORE SWAP2 PUSH1 0x20 ADD SWAP2 PUSH2 0x25F1 JUMP JUMPDEST DUP3 ADD SWAP2 SWAP1 PUSH1 0x0 MSTORE PUSH1 0x20 PUSH1 0x0 KECCAK256 SWAP1 JUMPDEST DUP2 SLOAD DUP2 MSTORE SWAP1 PUSH1 0x1 ADD SWAP1 PUSH1 0x20 ADD DUP1 DUP4 GT PUSH2 0x25D4 JUMPI DUP3 SWAP1 SUB PUSH1 0x1F AND DUP3 ADD SWAP2 JUMPDEST POP POP POP POP POP SWAP1 POP SWAP4 POP SWAP4 POP SWAP4 POP SWAP4 POP SWAP2 SWAP4 POP SWAP2 SWAP4 JUMP JUMPDEST CALLER PUSH1 0x0 SWAP1 DUP2 MSTORE PUSH1 0xD PUSH1 0x20 MSTORE PUSH1 0x40 SWAP1 KECCAK256 SLOAD PUSH1 0xFF AND PUSH2 0x2636 JUMPI PUSH1 0x40 MLOAD PUSH3 0x461BCD PUSH1 0xE5 SHL DUP2 MSTORE PUSH1 0x4 ADD PUSH2 0x7E4 SWAP1 PUSH2 0x36B2 JUMP JUMPDEST PUSH2 0x263E PUSH2 0x2C7D JUMP JUMPDEST PUSH1 0x0 DUP3 DUP2 MSTORE PUSH1 0x9 PUSH1 0x20 MSTORE PUSH1 0x40 SWAP1 KECCAK256 PUSH1 0x1 PUSH1 0x5 DUP3 ADD SLOAD PUSH2 0x100 SWAP1 DIV PUSH1 0xFF AND PUSH1 0x3 DUP2 GT ISZERO PUSH2 0x266C JUMPI PUSH2 0x266C PUSH2 0x3184 JUMP JUMPDEST EQ PUSH2 0x26AE JUMPI PUSH1 0x40 MLOAD PUSH3 0x461BCD PUSH1 0xE5 SHL DUP2 MSTORE PUSH1 0x20 PUSH1 0x4 DUP3 ADD MSTORE PUSH1 0x12 PUSH1 0x24 DUP3 ADD MSTORE PUSH18 0x47616D65206E6F7420617661696C61626C65 PUSH1 0x70 SHL PUSH1 0x44 DUP3 ADD MSTORE PUSH1 0x64 ADD PUSH2 0x7E4 JUMP JUMPDEST DUP1 SLOAD CALLER PUSH1 0x1 PUSH1 0x1 PUSH1 0xA0 SHL SUB SWAP1 SWAP2 AND SUB PUSH2 0x2700 JUMPI PUSH1 0x40 MLOAD PUSH3 0x461BCD PUSH1 0xE5 SHL DUP2 MSTORE PUSH1 0x20 PUSH1 0x4 DUP3 ADD MSTORE PUSH1 0x14 PUSH1 0x24 DUP3 ADD MSTORE PUSH20 0x21B0B73737BA10383630BC903CB7BAB939B2B633 PUSH1 0x61 SHL PUSH1 0x44 DUP3 ADD MSTORE PUSH1 0x64 ADD PUSH2 0x7E4 JUMP JUMPDEST PUSH1 0x1 DUP3 PUSH1 0xFF AND GT ISZERO PUSH2 0x274C JUMPI PUSH1 0x40 MLOAD PUSH3 0x461BCD PUSH1 0xE5 SHL DUP2 MSTORE PUSH1 0x20 PUSH1 0x4 DUP3 ADD MSTORE PUSH1 0x15 PUSH1 0x24 DUP3 ADD MSTORE PUSH21 0x43686F696365206D7573742062652030206F722031 PUSH1 0x58 SHL PUSH1 0x44 DUP3 ADD MSTORE PUSH1 0x64 ADD PUSH2 0x7E4 JUMP JUMPDEST PUSH1 0x7 SLOAD DUP2 PUSH1 0x6 ADD SLOAD PUSH2 0x275E SWAP2 SWAP1 PUSH2 0x3675 JUMP JUMPDEST TIMESTAMP GT ISZERO PUSH2 0x279C JUMPI PUSH1 0x40 MLOAD PUSH3 0x461BCD PUSH1 0xE5 SHL DUP2 MSTORE PUSH1 0x20 PUSH1 0x4 DUP3 ADD MSTORE PUSH1 0xC PUSH1 0x24 DUP3 ADD MSTORE PUSH12 0x11D85B5948195E1C1A5C9959 PUSH1 0xA2 SHL PUSH1 0x44 DUP3 ADD MSTORE PUSH1 0x64 ADD PUSH2 0x7E4 JUMP JUMPDEST PUSH1 0x2 DUP2 ADD SLOAD PUSH1 0x1 PUSH1 0x1 PUSH1 0xA0 SHL SUB AND ISZERO PUSH2 0x2817 JUMPI PUSH1 0x2 DUP2 ADD SLOAD PUSH1 0x1 PUSH1 0x1 PUSH1 0xA0 SHL SUB AND CALLER EQ PUSH2 0x2817 JUMPI PUSH1 0x40 MLOAD PUSH3 0x461BCD PUSH1 0xE5 SHL DUP2 MSTORE PUSH1 0x20 PUSH1 0x4 DUP3 ADD MSTORE PUSH1 0x23 PUSH1 0x24 DUP3 ADD MSTORE PUSH32 0x54686973206368616C6C656E676520697320666F7220616E6F74686572206167 PUSH1 0x44 DUP3 ADD MSTORE PUSH3 0x195B9D PUSH1 0xEA SHL PUSH1 0x64 DUP3 ADD MSTORE PUSH1 0x84 ADD PUSH2 0x7E4 JUMP JUMPDEST PUSH1 0x3 DUP2 ADD SLOAD PUSH2 0x2854 SWAP1 PUSH1 0x1 PUSH1 0x1 PUSH1 0xA0 SHL SUB PUSH32 0x0 AND SWAP1 CALLER SWAP1 ADDRESS SWAP1 PUSH2 0x2F89 JUMP JUMPDEST PUSH1 0x1 DUP2 ADD DUP1 SLOAD PUSH1 0x1 PUSH1 0x1 PUSH1 0xA0 SHL SUB NOT AND CALLER SWAP1 DUP2 OR SWAP1 SWAP2 SSTORE PUSH1 0x5 DUP3 ADD DUP1 SLOAD PUSH1 0xFF DUP6 AND PUSH2 0xFFFF NOT SWAP1 SWAP2 AND DUP2 OR PUSH2 0x200 OR SWAP1 SWAP2 SSTORE TIMESTAMP PUSH1 0x7 DUP5 ADD SSTORE PUSH1 0x40 DUP1 MLOAD SWAP2 DUP3 MSTORE MLOAD DUP6 SWAP2 PUSH32 0x9543429FF4D0366BDA7E6F7907AB4D8C123AD250F9A8D6ECFFABE880AB084E04 SWAP2 SWAP1 DUP2 SWAP1 SUB PUSH1 0x20 ADD SWAP1 LOG3 POP PUSH2 0x28CB PUSH1 0x1 PUSH1 0x0 SSTORE JUMP JUMPDEST POP POP JUMP JUMPDEST PUSH1 0x60 DUP1 PUSH1 0x0 PUSH1 0x1 JUMPDEST PUSH1 0xA SLOAD DUP2 LT DUP1 ISZERO PUSH2 0x28E7 JUMPI POP DUP5 DUP3 LT JUMPDEST ISZERO PUSH2 0x2963 JUMPI PUSH1 0x1 PUSH1 0x0 DUP3 DUP2 MSTORE PUSH1 0x9 PUSH1 0x20 MSTORE PUSH1 0x40 SWAP1 KECCAK256 PUSH1 0x5 ADD SLOAD PUSH2 0x100 SWAP1 DIV PUSH1 0xFF AND PUSH1 0x3 DUP2 GT ISZERO PUSH2 0x2919 JUMPI PUSH2 0x2919 PUSH2 0x3184 JUMP JUMPDEST EQ DUP1 ISZERO PUSH2 0x293E JUMPI POP PUSH1 0x0 DUP2 DUP2 MSTORE PUSH1 0x9 PUSH1 0x20 MSTORE PUSH1 0x40 SWAP1 KECCAK256 PUSH1 0x2 ADD SLOAD PUSH1 0x1 PUSH1 0x1 PUSH1 0xA0 SHL SUB AND ISZERO JUMPDEST ISZERO PUSH2 0x2951 JUMPI DUP2 PUSH2 0x294D DUP2 PUSH2 0x3643 JUMP JUMPDEST SWAP3 POP POP JUMPDEST DUP1 PUSH2 0x295B DUP2 PUSH2 0x3643 JUMP JUMPDEST SWAP2 POP POP PUSH2 0x28D7 JUMP JUMPDEST POP DUP1 PUSH8 0xFFFFFFFFFFFFFFFF DUP2 GT ISZERO PUSH2 0x297D JUMPI PUSH2 0x297D PUSH2 0x36E0 JUMP JUMPDEST PUSH1 0x40 MLOAD SWAP1 DUP1 DUP3 MSTORE DUP1 PUSH1 0x20 MUL PUSH1 0x20 ADD DUP3 ADD PUSH1 0x40 MSTORE DUP1 ISZERO PUSH2 0x29A6 JUMPI DUP2 PUSH1 0x20 ADD PUSH1 0x20 DUP3 MUL DUP1 CALLDATASIZE DUP4 CALLDATACOPY ADD SWAP1 POP JUMPDEST POP SWAP3 POP DUP1 PUSH8 0xFFFFFFFFFFFFFFFF DUP2 GT ISZERO PUSH2 0x29C2 JUMPI PUSH2 0x29C2 PUSH2 0x36E0 JUMP JUMPDEST PUSH1 0x40 MLOAD SWAP1 DUP1 DUP3 MSTORE DUP1 PUSH1 0x20 MUL PUSH1 0x20 ADD DUP3 ADD PUSH1 0x40 MSTORE DUP1 ISZERO PUSH2 0x29FB JUMPI DUP2 PUSH1 0x20 ADD JUMPDEST PUSH2 0x29E8 PUSH2 0x3039 JUMP JUMPDEST DUP2 MSTORE PUSH1 0x20 ADD SWAP1 PUSH1 0x1 SWAP1 SUB SWAP1 DUP2 PUSH2 0x29E0 JUMPI SWAP1 POP JUMPDEST POP SWAP2 POP PUSH1 0x0 DUP1 PUSH1 0x1 JUMPDEST PUSH1 0xA SLOAD DUP2 LT DUP1 ISZERO PUSH2 0x2A14 JUMPI POP DUP4 DUP4 LT JUMPDEST ISZERO PUSH2 0x2BAB JUMPI PUSH1 0x1 PUSH1 0x0 DUP3 DUP2 MSTORE PUSH1 0x9 PUSH1 0x20 MSTORE PUSH1 0x40 SWAP1 KECCAK256 PUSH1 0x5 ADD SLOAD PUSH2 0x100 SWAP1 DIV PUSH1 0xFF AND PUSH1 0x3 DUP2 GT ISZERO PUSH2 0x2A46 JUMPI PUSH2 0x2A46 PUSH2 0x3184 JUMP JUMPDEST EQ DUP1 ISZERO PUSH2 0x2A6B JUMPI POP PUSH1 0x0 DUP2 DUP2 MSTORE PUSH1 0x9 PUSH1 0x20 MSTORE PUSH1 0x40 SWAP1 KECCAK256 PUSH1 0x2 ADD SLOAD PUSH1 0x1 PUSH1 0x1 PUSH1 0xA0 SHL SUB AND ISZERO JUMPDEST ISZERO PUSH2 0x2B99 JUMPI DUP8 DUP3 LT PUSH2 0x2B8B JUMPI DUP1 DUP7 DUP5 DUP2 MLOAD DUP2 LT PUSH2 0x2A8A JUMPI PUSH2 0x2A8A PUSH2 0x3617 JUMP JUMPDEST PUSH1 0x20 SWAP1 DUP2 MUL SWAP2 SWAP1 SWAP2 ADD DUP2 ADD SWAP2 SWAP1 SWAP2 MSTORE PUSH1 0x0 DUP3 DUP2 MSTORE PUSH1 0x9 DUP3 MSTORE PUSH1 0x40 SWAP1 DUP2 SWAP1 KECCAK256 DUP2 MLOAD PUSH2 0x140 DUP2 ADD DUP4 MSTORE DUP2 SLOAD PUSH1 0x1 PUSH1 0x1 PUSH1 0xA0 SHL SUB SWAP1 DUP2 AND DUP3 MSTORE PUSH1 0x1 DUP4 ADD SLOAD DUP2 AND SWAP5 DUP3 ADD SWAP5 SWAP1 SWAP5 MSTORE PUSH1 0x2 DUP3 ADD SLOAD SWAP1 SWAP4 AND SWAP2 DUP4 ADD SWAP2 SWAP1 SWAP2 MSTORE PUSH1 0x3 DUP1 DUP3 ADD SLOAD PUSH1 0x60 DUP5 ADD MSTORE PUSH1 0x4 DUP3 ADD SLOAD PUSH1 0x80 DUP5 ADD MSTORE PUSH1 0x5 DUP3 ADD SLOAD PUSH1 0xFF DUP1 DUP3 AND PUSH1 0xA0 DUP7 ADD MSTORE PUSH1 0xC0 DUP6 ADD SWAP3 PUSH2 0x100 SWAP1 SWAP3 DIV AND SWAP1 DUP2 GT ISZERO PUSH2 0x2B1D JUMPI PUSH2 0x2B1D PUSH2 0x3184 JUMP JUMPDEST PUSH1 0x3 DUP2 GT ISZERO PUSH2 0x2B2E JUMPI PUSH2 0x2B2E PUSH2 0x3184 JUMP JUMPDEST DUP2 MSTORE PUSH1 0x6 DUP3 ADD SLOAD PUSH1 0x20 DUP3 ADD MSTORE PUSH1 0x7 DUP3 ADD SLOAD PUSH1 0x40 DUP3 ADD MSTORE PUSH1 0x8 SWAP1 SWAP2 ADD SLOAD PUSH1 0x1 PUSH1 0x1 PUSH1 0xA0 SHL SUB AND PUSH1 0x60 SWAP1 SWAP2 ADD MSTORE DUP6 MLOAD DUP7 SWAP1 DUP6 SWAP1 DUP2 LT PUSH2 0x2B6D JUMPI PUSH2 0x2B6D PUSH2 0x3617 JUMP JUMPDEST PUSH1 0x20 MUL PUSH1 0x20 ADD ADD DUP2 SWAP1 MSTORE POP DUP3 DUP1 PUSH2 0x2B83 SWAP1 PUSH2 0x3643 JUMP JUMPDEST SWAP4 POP POP PUSH2 0x2B99 JUMP JUMPDEST DUP2 PUSH2 0x2B95 DUP2 PUSH2 0x3643 JUMP JUMPDEST SWAP3 POP POP JUMPDEST DUP1 PUSH2 0x2BA3 DUP2 PUSH2 0x3643 JUMP JUMPDEST SWAP2 POP POP PUSH2 0x2A04 JUMP JUMPDEST POP POP POP POP SWAP3 POP SWAP3 SWAP1 POP JUMP JUMPDEST PUSH2 0x2BBE PUSH2 0x2BF1 JUMP JUMPDEST PUSH1 0x1 PUSH1 0x1 PUSH1 0xA0 SHL SUB DUP2 AND PUSH2 0x2BE8 JUMPI PUSH1 0x40 MLOAD PUSH4 0x1E4FBDF7 PUSH1 0xE0 SHL DUP2 MSTORE PUSH1 0x0 PUSH1 0x4 DUP3 ADD MSTORE PUSH1 0x24 ADD PUSH2 0x7E4 JUMP JUMPDEST PUSH2 0x1763 DUP2 PUSH2 0x2F37 JUMP JUMPDEST PUSH1 0x1 SLOAD PUSH1 0x1 PUSH1 0x1 PUSH1 0xA0 SHL SUB AND CALLER EQ PUSH2 0x1AC3 JUMPI PUSH1 0x40 MLOAD PUSH4 0x118CDAA7 PUSH1 0xE0 SHL DUP2 MSTORE CALLER PUSH1 0x4 DUP3 ADD MSTORE PUSH1 0x24 ADD PUSH2 0x7E4 JUMP JUMPDEST PUSH1 0x40 MLOAD PUSH1 0x1 PUSH1 0x1 PUSH1 0xA0 SHL SUB DUP4 DUP2 AND PUSH1 0x24 DUP4 ADD MSTORE PUSH1 0x44 DUP3 ADD DUP4 SWAP1 MSTORE PUSH2 0x92D SWAP2 DUP6 SWAP2 DUP3 AND SWAP1 PUSH4 0xA9059CBB SWAP1 PUSH1 0x64 ADD JUMPDEST PUSH1 0x40 MLOAD PUSH1 0x20 DUP2 DUP4 SUB SUB DUP2 MSTORE SWAP1 PUSH1 0x40 MSTORE SWAP2 POP PUSH1 0xE0 SHL PUSH1 0x20 DUP3 ADD DUP1 MLOAD PUSH1 0x1 PUSH1 0x1 PUSH1 0xE0 SHL SUB DUP4 DUP2 DUP4 AND OR DUP4 MSTORE POP POP POP POP PUSH2 0x2FC8 JUMP JUMPDEST PUSH1 0x2 PUSH1 0x0 SLOAD SUB PUSH2 0x2CA0 JUMPI PUSH1 0x40 MLOAD PUSH4 0x3EE5AEB5 PUSH1 0xE0 SHL DUP2 MSTORE PUSH1 0x4 ADD PUSH1 0x40 MLOAD DUP1 SWAP2 SUB SWAP1 REVERT JUMPDEST PUSH1 0x2 PUSH1 0x0 SSTORE JUMP JUMPDEST PUSH1 0x0 PUSH1 0x2 SLOAD DUP5 LT ISZERO DUP1 ISZERO PUSH2 0x2CBD JUMPI POP PUSH1 0x3 SLOAD DUP5 GT ISZERO JUMPDEST PUSH2 0x2CFC JUMPI PUSH1 0x40 MLOAD PUSH3 0x461BCD PUSH1 0xE5 SHL DUP2 MSTORE PUSH1 0x20 PUSH1 0x4 DUP3 ADD MSTORE PUSH1 0x10 PUSH1 0x24 DUP3 ADD MSTORE PUSH16 0x426574206F7574206F662072616E6765 PUSH1 0x80 SHL PUSH1 0x44 DUP3 ADD MSTORE PUSH1 0x64 ADD PUSH2 0x7E4 JUMP JUMPDEST DUP3 PUSH2 0x2D3E JUMPI PUSH1 0x40 MLOAD PUSH3 0x461BCD PUSH1 0xE5 SHL DUP2 MSTORE PUSH1 0x20 PUSH1 0x4 DUP3 ADD MSTORE PUSH1 0x12 PUSH1 0x24 DUP3 ADD MSTORE PUSH18 0x125B9D985B1A590818DBDB5B5A5D1B595B9D PUSH1 0x72 SHL PUSH1 0x44 DUP3 ADD MSTORE PUSH1 0x64 ADD PUSH2 0x7E4 JUMP JUMPDEST PUSH2 0x2D73 PUSH1 0x1 PUSH1 0x1 PUSH1 0xA0 SHL SUB PUSH32 0x0 AND CALLER ADDRESS DUP8 PUSH2 0x2F89 JUMP JUMPDEST PUSH1 0xA DUP1 SLOAD PUSH1 0x0 SWAP2 DUP3 PUSH2 0x2D84 DUP4 PUSH2 0x3643 JUMP JUMPDEST SWAP2 SWAP1 POP SSTORE SWAP1 POP PUSH1 0x40 MLOAD DUP1 PUSH2 0x140 ADD PUSH1 0x40 MSTORE DUP1 CALLER PUSH1 0x1 PUSH1 0x1 PUSH1 0xA0 SHL SUB AND DUP2 MSTORE PUSH1 0x20 ADD PUSH1 0x0 PUSH1 0x1 PUSH1 0x1 PUSH1 0xA0 SHL SUB AND DUP2 MSTORE PUSH1 0x20 ADD DUP5 PUSH1 0x1 PUSH1 0x1 PUSH1 0xA0 SHL SUB AND DUP2 MSTORE PUSH1 0x20 ADD DUP7 DUP2 MSTORE PUSH1 0x20 ADD DUP6 DUP2 MSTORE PUSH1 0x20 ADD PUSH1 0x0 PUSH1 0xFF AND DUP2 MSTORE PUSH1 0x20 ADD PUSH1 0x1 PUSH1 0x3 DUP2 GT ISZERO PUSH2 0x2DED JUMPI PUSH2 0x2DED PUSH2 0x3184 JUMP JUMPDEST DUP2 MSTORE TIMESTAMP PUSH1 0x20 DUP1 DUP4 ADD SWAP2 SWAP1 SWAP2 MSTORE PUSH1 0x0 PUSH1 0x40 DUP1 DUP5 ADD DUP3 SWAP1 MSTORE PUSH1 0x60 SWAP4 DUP5 ADD DUP3 SWAP1 MSTORE DUP6 DUP3 MSTORE PUSH1 0x9 DUP4 MSTORE SWAP1 DUP2 SWAP1 KECCAK256 DUP5 MLOAD DUP2 SLOAD PUSH1 0x1 PUSH1 0x1 PUSH1 0xA0 SHL SUB SWAP2 DUP3 AND PUSH1 0x1 PUSH1 0x1 PUSH1 0xA0 SHL SUB NOT SWAP2 DUP3 AND OR DUP4 SSTORE SWAP4 DUP7 ADD MLOAD PUSH1 0x1 DUP4 ADD DUP1 SLOAD SWAP2 DUP4 AND SWAP2 DUP7 AND SWAP2 SWAP1 SWAP2 OR SWAP1 SSTORE SWAP2 DUP6 ADD MLOAD PUSH1 0x2 DUP3 ADD DUP1 SLOAD SWAP2 SWAP1 SWAP4 AND SWAP4 AND SWAP3 SWAP1 SWAP3 OR SWAP1 SSTORE SWAP1 DUP3 ADD MLOAD PUSH1 0x3 DUP1 DUP4 ADD SWAP2 SWAP1 SWAP2 SSTORE PUSH1 0x80 DUP4 ADD MLOAD PUSH1 0x4 DUP4 ADD SSTORE PUSH1 0xA0 DUP4 ADD MLOAD PUSH1 0x5 DUP4 ADD DUP1 SLOAD PUSH1 0xFF SWAP1 SWAP3 AND PUSH1 0xFF NOT DUP4 AND DUP2 OR DUP3 SSTORE PUSH1 0xC0 DUP7 ADD MLOAD SWAP4 SWAP2 SWAP3 PUSH2 0xFFFF NOT AND OR SWAP1 PUSH2 0x100 SWAP1 DUP5 SWAP1 DUP2 GT ISZERO PUSH2 0x2EB4 JUMPI PUSH2 0x2EB4 PUSH2 0x3184 JUMP JUMPDEST MUL OR SWAP1 SSTORE POP PUSH1 0xE0 DUP3 ADD MLOAD PUSH1 0x6 DUP3 ADD SSTORE PUSH2 0x100 DUP3 ADD MLOAD PUSH1 0x7 DUP3 ADD SSTORE PUSH2 0x120 SWAP1 SWAP2 ADD MLOAD PUSH1 0x8 SWAP1 SWAP2 ADD DUP1 SLOAD PUSH1 0x1 PUSH1 0x1 PUSH1 0xA0 SHL SUB NOT AND PUSH1 0x1 PUSH1 0x1 PUSH1 0xA0 SHL SUB SWAP3 DUP4 AND OR SWAP1 SSTORE PUSH1 0x40 MLOAD DUP7 DUP2 MSTORE SWAP1 DUP5 AND SWAP1 CALLER SWAP1 DUP4 SWAP1 PUSH32 0xC94E0E39F6C88EEFE2DA1019EF63FCD57321AF4DDE03FBE73DADB0275CB06152 SWAP1 PUSH1 0x20 ADD PUSH1 0x40 MLOAD DUP1 SWAP2 SUB SWAP1 LOG4 SWAP5 SWAP4 POP POP POP POP JUMP JUMPDEST PUSH1 0x1 DUP1 SLOAD PUSH1 0x1 PUSH1 0x1 PUSH1 0xA0 SHL SUB DUP4 DUP2 AND PUSH1 0x1 PUSH1 0x1 PUSH1 0xA0 SHL SUB NOT DUP4 AND DUP2 OR SWAP1 SWAP4 SSTORE PUSH1 0x40 MLOAD SWAP2 AND SWAP2 SWAP1 DUP3 SWAP1 PUSH32 0x8BE0079C531659141344CD1FD0A4F28419497F9722A3DAAFE3B4186F6B6457E0 SWAP1 PUSH1 0x0 SWAP1 LOG3 POP POP JUMP JUMPDEST PUSH1 0x40 MLOAD PUSH1 0x1 PUSH1 0x1 PUSH1 0xA0 SHL SUB DUP5 DUP2 AND PUSH1 0x24 DUP4 ADD MSTORE DUP4 DUP2 AND PUSH1 0x44 DUP4 ADD MSTORE PUSH1 0x64 DUP3 ADD DUP4 SWAP1 MSTORE PUSH2 0x2FC2 SWAP2 DUP7 SWAP2 DUP3 AND SWAP1 PUSH4 0x23B872DD SWAP1 PUSH1 0x84 ADD PUSH2 0x2C4B JUMP JUMPDEST POP POP POP POP JUMP JUMPDEST PUSH1 0x0 DUP1 PUSH1 0x20 PUSH1 0x0 DUP5 MLOAD PUSH1 0x20 DUP7 ADD PUSH1 0x0 DUP9 GAS CALL DUP1 PUSH2 0x2FEB JUMPI PUSH1 0x40 MLOAD RETURNDATASIZE PUSH1 0x0 DUP3 RETURNDATACOPY RETURNDATASIZE DUP2 REVERT JUMPDEST POP POP PUSH1 0x0 MLOAD RETURNDATASIZE SWAP2 POP DUP2 ISZERO PUSH2 0x3003 JUMPI DUP1 PUSH1 0x1 EQ ISZERO PUSH2 0x3010 JUMP JUMPDEST PUSH1 0x1 PUSH1 0x1 PUSH1 0xA0 SHL SUB DUP5 AND EXTCODESIZE ISZERO JUMPDEST ISZERO PUSH2 0x2FC2 JUMPI PUSH1 0x40 MLOAD PUSH4 0x5274AFE7 PUSH1 0xE0 SHL DUP2 MSTORE PUSH1 0x1 PUSH1 0x1 PUSH1 0xA0 SHL SUB DUP6 AND PUSH1 0x4 DUP3 ADD MSTORE PUSH1 0x24 ADD PUSH2 0x7E4 JUMP JUMPDEST PUSH1 0x40 DUP1 MLOAD PUSH2 0x140 DUP2 ADD DUP3 MSTORE PUSH1 0x0 DUP1 DUP3 MSTORE PUSH1 0x20 DUP3 ADD DUP2 SWAP1 MSTORE SWAP2 DUP2 ADD DUP3 SWAP1 MSTORE PUSH1 0x60 DUP2 ADD DUP3 SWAP1 MSTORE PUSH1 0x80 DUP2 ADD DUP3 SWAP1 MSTORE PUSH1 0xA0 DUP2 ADD DUP3 SWAP1 MSTORE SWAP1 PUSH1 0xC0 DUP3 ADD SWAP1 DUP2 MSTORE PUSH1 0x20 ADD PUSH1 0x0 DUP2 MSTORE PUSH1 0x20 ADD PUSH1 0x0 DUP2 MSTORE PUSH1 0x20 ADD PUSH1 0x0 PUSH1 0x1 PUSH1 0x1 PUSH1 0xA0 SHL SUB AND DUP2 MSTORE POP SWAP1 JUMP JUMPDEST PUSH1 0x0 DUP1 PUSH1 0x20 DUP4 DUP6 SUB SLT ISZERO PUSH2 0x30A8 JUMPI PUSH1 0x0 DUP1 REVERT JUMPDEST DUP3 CALLDATALOAD PUSH8 0xFFFFFFFFFFFFFFFF DUP1 DUP3 GT ISZERO PUSH2 0x30C0 JUMPI PUSH1 0x0 DUP1 REVERT JUMPDEST DUP2 DUP6 ADD SWAP2 POP DUP6 PUSH1 0x1F DUP4 ADD SLT PUSH2 0x30D4 JUMPI PUSH1 0x0 DUP1 REVERT JUMPDEST DUP2 CALLDATALOAD DUP2 DUP2 GT ISZERO PUSH2 0x30E3 JUMPI PUSH1 0x0 DUP1 REVERT JUMPDEST DUP7 PUSH1 0x20 DUP3 PUSH1 0x5 SHL DUP6 ADD ADD GT ISZERO PUSH2 0x30F8 JUMPI PUSH1 0x0 DUP1 REVERT JUMPDEST PUSH1 0x20 SWAP3 SWAP1 SWAP3 ADD SWAP7 SWAP2 SWAP6 POP SWAP1 SWAP4 POP POP POP POP JUMP JUMPDEST DUP1 CALLDATALOAD PUSH1 0x1 PUSH1 0x1 PUSH1 0xA0 SHL SUB DUP2 AND DUP2 EQ PUSH2 0x3121 JUMPI PUSH1 0x0 DUP1 REVERT JUMPDEST SWAP2 SWAP1 POP JUMP JUMPDEST PUSH1 0x0 DUP1 PUSH1 0x40 DUP4 DUP6 SUB SLT ISZERO PUSH2 0x3139 JUMPI PUSH1 0x0 DUP1 REVERT JUMPDEST PUSH2 0x3142 DUP4 PUSH2 0x310A JUMP JUMPDEST SWAP5 PUSH1 0x20 SWAP4 SWAP1 SWAP4 ADD CALLDATALOAD SWAP4 POP POP POP JUMP JUMPDEST PUSH1 0x0 PUSH1 0x20 DUP3 DUP5 SUB SLT ISZERO PUSH2 0x3162 JUMPI PUSH1 0x0 DUP1 REVERT JUMPDEST PUSH2 0x11E7 DUP3 PUSH2 0x310A JUMP JUMPDEST PUSH1 0x0 PUSH1 0x20 DUP3 DUP5 SUB SLT ISZERO PUSH2 0x317D JUMPI PUSH1 0x0 DUP1 REVERT JUMPDEST POP CALLDATALOAD SWAP2 SWAP1 POP JUMP JUMPDEST PUSH4 0x4E487B71 PUSH1 0xE0 SHL PUSH1 0x0 MSTORE PUSH1 0x21 PUSH1 0x4 MSTORE PUSH1 0x24 PUSH1 0x0 REVERT JUMPDEST PUSH1 0x4 DUP2 LT PUSH2 0x31AA JUMPI PUSH2 0x31AA PUSH2 0x3184 JUMP JUMPDEST SWAP1 MSTORE JUMP JUMPDEST PUSH1 0x1 PUSH1 0x1 PUSH1 0xA0 SHL SUB DUP12 DUP2 AND DUP3 MSTORE DUP11 DUP2 AND PUSH1 0x20 DUP4 ADD MSTORE DUP10 DUP2 AND PUSH1 0x40 DUP4 ADD MSTORE PUSH1 0x60 DUP3 ADD DUP10 SWAP1 MSTORE PUSH1 0x80 DUP3 ADD DUP9 SWAP1 MSTORE PUSH1 0xFF DUP8 AND PUSH1 0xA0 DUP4 ADD MSTORE PUSH2 0x140 DUP3 ADD SWAP1 PUSH2 0x31F5 PUSH1 0xC0 DUP5 ADD DUP9 PUSH2 0x319A JUMP JUMPDEST DUP6 PUSH1 0xE0 DUP5 ADD MSTORE DUP5 PUSH2 0x100 DUP5 ADD MSTORE DUP1 DUP5 AND PUSH2 0x120 DUP5 ADD MSTORE POP SWAP12 SWAP11 POP POP POP POP POP POP POP POP POP POP POP JUMP JUMPDEST PUSH1 0x20 DUP2 ADD PUSH1 0x3 DUP4 LT PUSH2 0x322F JUMPI PUSH2 0x322F PUSH2 0x3184 JUMP JUMPDEST SWAP2 SWAP1 MSTORE SWAP1 JUMP JUMPDEST PUSH1 0x0 DUP1 PUSH1 0x40 DUP4 DUP6 SUB SLT ISZERO PUSH2 0x3248 JUMPI PUSH1 0x0 DUP1 REVERT JUMPDEST POP POP DUP1 CALLDATALOAD SWAP3 PUSH1 0x20 SWAP1 SWAP2 ADD CALLDATALOAD SWAP2 POP JUMP JUMPDEST PUSH1 0x0 DUP1 PUSH1 0x0 PUSH1 0x60 DUP5 DUP7 SUB SLT ISZERO PUSH2 0x326C JUMPI PUSH1 0x0 DUP1 REVERT JUMPDEST PUSH2 0x3275 DUP5 PUSH2 0x310A JUMP JUMPDEST SWAP6 PUSH1 0x20 DUP6 ADD CALLDATALOAD SWAP6 POP PUSH1 0x40 SWAP1 SWAP5 ADD CALLDATALOAD SWAP4 SWAP3 POP POP POP JUMP JUMPDEST DUP1 MLOAD PUSH1 0x1 PUSH1 0x1 PUSH1 0xA0 SHL SUB AND DUP3 MSTORE PUSH1 0x20 DUP2 ADD MLOAD PUSH2 0x32B1 PUSH1 0x20 DUP5 ADD DUP3 PUSH1 0x1 PUSH1 0x1 PUSH1 0xA0 SHL SUB AND SWAP1 MSTORE JUMP JUMPDEST POP PUSH1 0x40 DUP2 ADD MLOAD PUSH2 0x32CC PUSH1 0x40 DUP5 ADD DUP3 PUSH1 0x1 PUSH1 0x1 PUSH1 0xA0 SHL SUB AND SWAP1 MSTORE JUMP JUMPDEST POP PUSH1 0x60 DUP2 ADD MLOAD PUSH1 0x60 DUP4 ADD MSTORE PUSH1 0x80 DUP2 ADD MLOAD PUSH1 0x80 DUP4 ADD MSTORE PUSH1 0xA0 DUP2 ADD MLOAD PUSH2 0x32F5 PUSH1 0xA0 DUP5 ADD DUP3 PUSH1 0xFF AND SWAP1 MSTORE JUMP JUMPDEST POP PUSH1 0xC0 DUP2 ADD MLOAD PUSH2 0x3308 PUSH1 0xC0 DUP5 ADD DUP3 PUSH2 0x319A JUMP JUMPDEST POP PUSH1 0xE0 DUP2 DUP2 ADD MLOAD SWAP1 DUP4 ADD MSTORE PUSH2 0x100 DUP1 DUP3 ADD MLOAD SWAP1 DUP4 ADD MSTORE PUSH2 0x120 DUP1 DUP3 ADD MLOAD PUSH1 0x1 PUSH1 0x1 PUSH1 0xA0 SHL SUB DUP2 AND DUP3 DUP6 ADD MSTORE PUSH2 0x2FC2 JUMP JUMPDEST PUSH1 0x40 DUP1 DUP3 MSTORE DUP4 MLOAD SWAP1 DUP3 ADD DUP2 SWAP1 MSTORE PUSH1 0x0 SWAP1 PUSH1 0x20 SWAP1 PUSH1 0x60 DUP5 ADD SWAP1 DUP3 DUP8 ADD DUP5 JUMPDEST DUP3 DUP2 LT ISZERO PUSH2 0x3371 JUMPI DUP2 MLOAD DUP5 MSTORE SWAP3 DUP5 ADD SWAP3 SWAP1 DUP5 ADD SWAP1 PUSH1 0x1 ADD PUSH2 0x3355 JUMP JUMPDEST POP POP POP DUP4 DUP2 SUB DUP3 DUP6 ADD MSTORE DUP5 MLOAD DUP1 DUP3 MSTORE DUP6 DUP4 ADD SWAP2 DUP4 ADD SWAP1 PUSH1 0x0 JUMPDEST DUP2 DUP2 LT ISZERO PUSH2 0x33B1 JUMPI PUSH2 0x339D DUP4 DUP6 MLOAD PUSH2 0x328A JUMP JUMPDEST SWAP3 DUP5 ADD SWAP3 PUSH2 0x140 SWAP3 SWAP1 SWAP3 ADD SWAP2 PUSH1 0x1 ADD PUSH2 0x338A JUMP JUMPDEST POP SWAP1 SWAP8 SWAP7 POP POP POP POP POP POP POP JUMP JUMPDEST PUSH1 0x0 DUP1 PUSH1 0x0 PUSH1 0x60 DUP5 DUP7 SUB SLT ISZERO PUSH2 0x33D3 JUMPI PUSH1 0x0 DUP1 REVERT JUMPDEST DUP4 CALLDATALOAD SWAP3 POP PUSH1 0x20 DUP5 ADD CALLDATALOAD SWAP2 POP PUSH2 0x33EA PUSH1 0x40 DUP6 ADD PUSH2 0x310A JUMP JUMPDEST SWAP1 POP SWAP3 POP SWAP3 POP SWAP3 JUMP JUMPDEST PUSH1 0x0 DUP2 MLOAD DUP1 DUP5 MSTORE PUSH1 0x0 JUMPDEST DUP2 DUP2 LT ISZERO PUSH2 0x3419 JUMPI PUSH1 0x20 DUP2 DUP6 ADD DUP2 ADD MLOAD DUP7 DUP4 ADD DUP3 ADD MSTORE ADD PUSH2 0x33FD JUMP JUMPDEST POP PUSH1 0x0 PUSH1 0x20 DUP3 DUP7 ADD ADD MSTORE PUSH1 0x20 PUSH1 0x1F NOT PUSH1 0x1F DUP4 ADD AND DUP6 ADD ADD SWAP2 POP POP SWAP3 SWAP2 POP POP JUMP JUMPDEST PUSH1 0x20 DUP2 MSTORE PUSH1 0x0 PUSH2 0x11E7 PUSH1 0x20 DUP4 ADD DUP5 PUSH2 0x33F3 JUMP JUMPDEST PUSH1 0x0 DUP1 PUSH1 0x20 DUP4 DUP6 SUB SLT ISZERO PUSH2 0x345F JUMPI PUSH1 0x0 DUP1 REVERT JUMPDEST DUP3 CALLDATALOAD PUSH8 0xFFFFFFFFFFFFFFFF DUP1 DUP3 GT ISZERO PUSH2 0x3477 JUMPI PUSH1 0x0 DUP1 REVERT JUMPDEST DUP2 DUP6 ADD SWAP2 POP DUP6 PUSH1 0x1F DUP4 ADD SLT PUSH2 0x348B JUMPI PUSH1 0x0 DUP1 REVERT JUMPDEST DUP2 CALLDATALOAD DUP2 DUP2 GT ISZERO PUSH2 0x349A JUMPI PUSH1 0x0 DUP1 REVERT JUMPDEST DUP7 PUSH1 0x20 DUP3 DUP6 ADD ADD GT ISZERO PUSH2 0x30F8 JUMPI PUSH1 0x0 DUP1 REVERT JUMPDEST DUP3 ISZERO ISZERO DUP2 MSTORE PUSH1 0x40 PUSH1 0x20 DUP3 ADD MSTORE PUSH1 0x0 PUSH2 0x34C7 PUSH1 0x40 DUP4 ADD DUP5 PUSH2 0x33F3 JUMP JUMPDEST SWAP5 SWAP4 POP POP POP POP JUMP JUMPDEST PUSH1 0xC0 DUP2 MSTORE PUSH1 0x0 PUSH2 0x34E2 PUSH1 0xC0 DUP4 ADD DUP10 PUSH2 0x33F3 JUMP JUMPDEST PUSH1 0x20 DUP4 ADD SWAP8 SWAP1 SWAP8 MSTORE POP PUSH1 0x40 DUP2 ADD SWAP5 SWAP1 SWAP5 MSTORE PUSH1 0x60 DUP5 ADD SWAP3 SWAP1 SWAP3 MSTORE ISZERO ISZERO PUSH1 0x80 DUP4 ADD MSTORE ISZERO ISZERO PUSH1 0xA0 SWAP1 SWAP2 ADD MSTORE SWAP2 SWAP1 POP JUMP JUMPDEST DUP1 CALLDATALOAD PUSH1 0xFF DUP2 AND DUP2 EQ PUSH2 0x3121 JUMPI PUSH1 0x0 DUP1 REVERT JUMPDEST PUSH1 0x0 DUP1 PUSH1 0x0 PUSH1 0x60 DUP5 DUP7 SUB SLT ISZERO PUSH2 0x3535 JUMPI PUSH1 0x0 DUP1 REVERT JUMPDEST DUP4 CALLDATALOAD SWAP3 POP PUSH2 0x3545 PUSH1 0x20 DUP6 ADD PUSH2 0x350F JUMP JUMPDEST SWAP2 POP PUSH1 0x40 DUP5 ADD CALLDATALOAD SWAP1 POP SWAP3 POP SWAP3 POP SWAP3 JUMP JUMPDEST PUSH2 0x140 DUP2 ADD PUSH2 0xCAC DUP3 DUP5 PUSH2 0x328A JUMP JUMPDEST PUSH1 0x0 DUP1 PUSH1 0x40 DUP4 DUP6 SUB SLT ISZERO PUSH2 0x3577 JUMPI PUSH1 0x0 DUP1 REVERT JUMPDEST PUSH2 0x3142 DUP4 PUSH2 0x350F JUMP JUMPDEST PUSH1 0x0 DUP1 PUSH1 0x40 DUP4 DUP6 SUB SLT ISZERO PUSH2 0x3593 JUMPI PUSH1 0x0 DUP1 REVERT JUMPDEST PUSH2 0x359C DUP4 PUSH2 0x310A JUMP JUMPDEST SWAP2 POP PUSH1 0x20 DUP4 ADD CALLDATALOAD DUP1 ISZERO ISZERO DUP2 EQ PUSH2 0x35B1 JUMPI PUSH1 0x0 DUP1 REVERT JUMPDEST DUP1 SWAP2 POP POP SWAP3 POP SWAP3 SWAP1 POP JUMP JUMPDEST DUP5 DUP2 MSTORE DUP4 PUSH1 0x20 DUP3 ADD MSTORE DUP3 PUSH1 0x40 DUP3 ADD MSTORE PUSH1 0x80 PUSH1 0x60 DUP3 ADD MSTORE PUSH1 0x0 PUSH2 0x35E1 PUSH1 0x80 DUP4 ADD DUP5 PUSH2 0x33F3 JUMP JUMPDEST SWAP7 SWAP6 POP POP POP POP POP POP JUMP JUMPDEST PUSH1 0x0 DUP1 PUSH1 0x40 DUP4 DUP6 SUB SLT ISZERO PUSH2 0x35FE JUMPI PUSH1 0x0 DUP1 REVERT JUMPDEST DUP3 CALLDATALOAD SWAP2 POP PUSH2 0x360E PUSH1 0x20 DUP5 ADD PUSH2 0x350F JUMP JUMPDEST SWAP1 POP SWAP3 POP SWAP3 SWAP1 POP JUMP JUMPDEST PUSH4 0x4E487B71 PUSH1 0xE0 SHL PUSH1 0x0 MSTORE PUSH1 0x32 PUSH1 0x4 MSTORE PUSH1 0x24 PUSH1 0x0 REVERT JUMPDEST PUSH4 0x4E487B71 PUSH1 0xE0 SHL PUSH1 0x0 MSTORE PUSH1 0x11 PUSH1 0x4 MSTORE PUSH1 0x24 PUSH1 0x0 REVERT JUMPDEST PUSH1 0x0 PUSH1 0x1 DUP3 ADD PUSH2 0x3655 JUMPI PUSH2 0x3655 PUSH2 0x362D JUMP JUMPDEST POP PUSH1 0x1 ADD SWAP1 JUMP JUMPDEST PUSH1 0x0 PUSH1 0x20 DUP3 DUP5 SUB SLT ISZERO PUSH2 0x366E JUMPI PUSH1 0x0 DUP1 REVERT JUMPDEST POP MLOAD SWAP2 SWAP1 POP JUMP JUMPDEST DUP1 DUP3 ADD DUP1 DUP3 GT ISZERO PUSH2 0xCAC JUMPI PUSH2 0xCAC PUSH2 0x362D JUMP JUMPDEST DUP1 DUP3 MUL DUP2 ISZERO DUP3 DUP3 DIV DUP5 EQ OR PUSH2 0xCAC JUMPI PUSH2 0xCAC PUSH2 0x362D JUMP JUMPDEST DUP2 DUP2 SUB DUP2 DUP2 GT ISZERO PUSH2 0xCAC JUMPI PUSH2 0xCAC PUSH2 0x362D JUMP JUMPDEST PUSH1 0x20 DUP1 DUP3 MSTORE PUSH1 0x14 SWAP1 DUP3 ADD MSTORE PUSH20 0x139BDD0818481D995C9A599A5959081859D95B9D PUSH1 0x62 SHL PUSH1 0x40 DUP3 ADD MSTORE PUSH1 0x60 ADD SWAP1 JUMP JUMPDEST PUSH4 0x4E487B71 PUSH1 0xE0 SHL PUSH1 0x0 MSTORE PUSH1 0x41 PUSH1 0x4 MSTORE PUSH1 0x24 PUSH1 0x0 REVERT JUMPDEST PUSH1 0x1 DUP2 DUP2 SHR SWAP1 DUP3 AND DUP1 PUSH2 0x370A JUMPI PUSH1 0x7F DUP3 AND SWAP2 POP JUMPDEST PUSH1 0x20 DUP3 LT DUP2 SUB PUSH2 0x372A JUMPI PUSH4 0x4E487B71 PUSH1 0xE0 SHL PUSH1 0x0 MSTORE PUSH1 0x22 PUSH1 0x4 MSTORE PUSH1 0x24 PUSH1 0x0 REVERT JUMPDEST POP SWAP2 SWAP1 POP JUMP JUMPDEST PUSH1 0x1F DUP3 GT ISZERO PUSH2 0x92D JUMPI PUSH1 0x0 DUP2 DUP2 MSTORE PUSH1 0x20 DUP2 KECCAK256 PUSH1 0x1F DUP6 ADD PUSH1 0x5 SHR DUP2 ADD PUSH1 0x20 DUP7 LT ISZERO PUSH2 0x3757 JUMPI POP DUP1 JUMPDEST PUSH1 0x1F DUP6 ADD PUSH1 0x5 SHR DUP3 ADD SWAP2 POP JUMPDEST DUP2 DUP2 LT ISZERO PUSH2 0x3776 JUMPI DUP3 DUP2 SSTORE PUSH1 0x1 ADD PUSH2 0x3763 JUMP JUMPDEST POP POP POP POP POP POP JUMP JUMPDEST PUSH8 0xFFFFFFFFFFFFFFFF DUP4 GT ISZERO PUSH2 0x3796 JUMPI PUSH2 0x3796 PUSH2 0x36E0 JUMP JUMPDEST PUSH2 0x37AA DUP4 PUSH2 0x37A4 DUP4 SLOAD PUSH2 0x36F6 JUMP JUMPDEST DUP4 PUSH2 0x3730 JUMP JUMPDEST PUSH1 0x0 PUSH1 0x1F DUP5 GT PUSH1 0x1 DUP2 EQ PUSH2 0x37DE JUMPI PUSH1 0x0 DUP6 ISZERO PUSH2 0x37C6 JUMPI POP DUP4 DUP3 ADD CALLDATALOAD JUMPDEST PUSH1 0x0 NOT PUSH1 0x3 DUP8 SWAP1 SHL SHR NOT AND PUSH1 0x1 DUP7 SWAP1 SHL OR DUP4 SSTORE PUSH2 0x3838 JUMP JUMPDEST PUSH1 0x0 DUP4 DUP2 MSTORE PUSH1 0x20 SWAP1 KECCAK256 PUSH1 0x1F NOT DUP7 AND SWAP1 DUP4 JUMPDEST DUP3 DUP2 LT ISZERO PUSH2 0x380F JUMPI DUP7 DUP6 ADD CALLDATALOAD DUP3 SSTORE PUSH1 0x20 SWAP5 DUP6 ADD SWAP5 PUSH1 0x1 SWAP1 SWAP3 ADD SWAP2 ADD PUSH2 0x37EF JUMP JUMPDEST POP DUP7 DUP3 LT ISZERO PUSH2 0x382C JUMPI PUSH1 0x0 NOT PUSH1 0xF8 DUP9 PUSH1 0x3 SHL AND SHR NOT DUP5 DUP8 ADD CALLDATALOAD AND DUP2 SSTORE JUMPDEST POP POP PUSH1 0x1 DUP6 PUSH1 0x1 SHL ADD DUP4 SSTORE JUMPDEST POP POP POP POP POP JUMP JUMPDEST PUSH1 0x20 DUP2 MSTORE DUP2 PUSH1 0x20 DUP3 ADD MSTORE DUP2 DUP4 PUSH1 0x40 DUP4 ADD CALLDATACOPY PUSH1 0x0 DUP2 DUP4 ADD PUSH1 0x40 SWAP1 DUP2 ADD SWAP2 SWAP1 SWAP2 MSTORE PUSH1 0x1F SWAP1 SWAP3 ADD PUSH1 0x1F NOT AND ADD ADD SWAP2 SWAP1 POP JUMP JUMPDEST PUSH1 0x0 DUP3 PUSH2 0x388B JUMPI PUSH4 0x4E487B71 PUSH1 0xE0 SHL PUSH1 0x0 MSTORE PUSH1 0x12 PUSH1 0x4 MSTORE PUSH1 0x24 PUSH1 0x0 REVERT JUMPDEST POP DIV SWAP1 JUMP INVALID LOG2 PUSH5 0x6970667358 0x22 SLT KECCAK256 CODESIZE 0xDF 0xDE 0xEC CHAINID 0xA8 0x5C SWAP9 CODESIZE 0xD5 0xF 0xCA 0xEE 0x4D PC SWAP11 0xBD CREATE2 0xED PUSH7 0x929E86E50E730D MULMOD SWAP14 DUP13 PUSH29 0xC964736F6C634300081400330000000000000000000000000000000000 "},"methodIdentifiers":{"agentNames(address)":"2cbc1660","agentStatus(address)":"28f3fac9","batchVerifyAgents(address[])":"02559eeb","cancelGame(uint256)":"69958ab9","challengeAgent(uint256,bytes32,address)":"2beb8bb2","challengesReceived(address,uint256)":"0d8b2def","challengesSent(address,uint256)":"af499c35","createGame(uint256,bytes32)":"2a0ec7f3","forceResolve(uint256)":"a34803ad","gameTimeout()":"1e72553d","games(uint256)":"117a5b90","generateCommitment(uint8,bytes32)":"ac258d97","getAgentProfile(address)":"78dc93a4","getAgentStats(address)":"b5695b38","getGame(uint256)":"a2f77bcc","getOpenGames(uint256,uint256)":"de92285f","getPendingChallenges(address)":"5b021525","getPendingChallengesPaginated(address,uint256,uint256)":"2ba86b12","getSentChallenges(address)":"a1506dee","getSentChallengesPaginated(address,uint256,uint256)":"6c6b1256","isGameExpired(uint256)":"65b3a7ca","isMoltbookVerified(address)":"b087ae4f","joinGame(uint256,uint8)":"ca6649c5","losses(address)":"c903c233","maxBet()":"2e5b2168","minBet()":"9619367d","nextGameId()":"b135bbb0","owner()":"8da5cb5b","protocolFeeBps()":"35659fb8","registerAgent(string)":"2d2a9585","renounceOwnership()":"715018a6","revealAndResolve(uint256,uint8,bytes32)":"8fbf281d","revealTimeout()":"4376cb34","setBetLimits(uint256,uint256)":"7687dd49","setGameTimeout(uint256)":"ab8b3721","setProtocolFee(uint256)":"787dce3d","setRevealTimeout(uint256)":"38b64085","setVerifier(address,bool)":"ac9b5671","shellToken()":"6aae314c","totalGamesPlayed()":"5c492129","totalVolume()":"5f81a57c","totalWagered(address)":"470762e9","transferOwnership(address)":"f2fde38b","verifiedAgents(address)":"ae82455f","verifiers(address)":"6c824487","verifyAgentIdentity(address)":"0f394b61","wins(address)":"8047a97a","withdrawFees(address)":"164e68de"}}}}}