{"contracts/ShellCoinflipV3.sol":{"ShellCoinflipV3":{"abi":[{"inputs":[{"internalType":"address","name":"_shellToken","type":"address"}],"stateMutability":"nonpayable","type":"constructor"},{"inputs":[{"internalType":"address","name":"owner","type":"address"}],"name":"OwnableInvalidOwner","type":"error"},{"inputs":[{"internalType":"address","name":"account","type":"address"}],"name":"OwnableUnauthorizedAccount","type":"error"},{"inputs":[],"name":"ReentrancyGuardReentrantCall","type":"error"},{"inputs":[{"internalType":"address","name":"token","type":"address"}],"name":"SafeERC20FailedOperation","type":"error"},{"anonymous":false,"inputs":[{"indexed":true,"internalType":"address","name":"agent","type":"address"},{"indexed":false,"internalType":"string","name":"name","type":"string"}],"name":"AgentVerified","type":"event"},{"anonymous":false,"inputs":[{"indexed":true,"internalType":"address","name":"agent","type":"address"},{"indexed":true,"internalType":"address","name":"verifier","type":"address"}],"name":"AgentVerifiedByMoltbook","type":"event"},{"anonymous":false,"inputs":[{"indexed":true,"internalType":"uint256","name":"challengeId","type":"uint256"},{"indexed":true,"internalType":"address","name":"challenged","type":"address"}],"name":"ChallengeAccepted","type":"event"},{"anonymous":false,"inputs":[{"indexed":true,"internalType":"uint256","name":"challengeId","type":"uint256"}],"name":"ChallengeCancelled","type":"event"},{"anonymous":false,"inputs":[{"indexed":true,"internalType":"uint256","name":"challengeId","type":"uint256"},{"indexed":true,"internalType":"address","name":"challenger","type":"address"},{"indexed":true,"internalType":"address","name":"challenged","type":"address"},{"indexed":false,"internalType":"uint256","name":"betAmount","type":"uint256"}],"name":"ChallengeCreated","type":"event"},{"anonymous":false,"inputs":[{"indexed":true,"internalType":"uint256","name":"challengeId","type":"uint256"},{"indexed":true,"internalType":"address","name":"winner","type":"address"},{"indexed":false,"internalType":"uint256","name":"payout","type":"uint256"}],"name":"ChallengeResolved","type":"event"},{"anonymous":false,"inputs":[{"indexed":true,"internalType":"uint256","name":"matchId","type":"uint256"},{"indexed":true,"internalType":"address","name":"player1","type":"address"},{"indexed":true,"internalType":"address","name":"player2","type":"address"},{"indexed":false,"internalType":"uint256","name":"betAmount","type":"uint256"},{"indexed":false,"internalType":"address","name":"winner","type":"address"},{"indexed":false,"internalType":"uint256","name":"payout","type":"uint256"}],"name":"InstantMatch","type":"event"},{"anonymous":false,"inputs":[{"indexed":true,"internalType":"address","name":"previousOwner","type":"address"},{"indexed":true,"internalType":"address","name":"newOwner","type":"address"}],"name":"OwnershipTransferred","type":"event"},{"anonymous":false,"inputs":[{"indexed":true,"internalType":"address","name":"player","type":"address"},{"indexed":false,"internalType":"uint256","name":"betAmount","type":"uint256"},{"indexed":false,"internalType":"uint8","name":"choice","type":"uint8"}],"name":"PoolEntered","type":"event"},{"anonymous":false,"inputs":[{"indexed":true,"internalType":"address","name":"player","type":"address"},{"indexed":false,"internalType":"uint256","name":"betAmount","type":"uint256"}],"name":"PoolExited","type":"event"},{"inputs":[{"internalType":"uint256","name":"challengeId","type":"uint256"},{"internalType":"uint8","name":"choice","type":"uint8"}],"name":"acceptChallenge","outputs":[],"stateMutability":"nonpayable","type":"function"},{"inputs":[{"internalType":"uint256","name":"amount","type":"uint256"}],"name":"addSupportedBet","outputs":[],"stateMutability":"nonpayable","type":"function"},{"inputs":[{"internalType":"address","name":"","type":"address"}],"name":"agentNames","outputs":[{"internalType":"string","name":"","type":"string"}],"stateMutability":"view","type":"function"},{"inputs":[{"internalType":"address","name":"","type":"address"}],"name":"agentStatus","outputs":[{"internalType":"enum ShellCoinflipV3.VerificationStatus","name":"","type":"uint8"}],"stateMutability":"view","type":"function"},{"inputs":[{"internalType":"uint256","name":"challengeId","type":"uint256"}],"name":"cancelChallenge","outputs":[],"stateMutability":"nonpayable","type":"function"},{"inputs":[],"name":"challengeTimeout","outputs":[{"internalType":"uint256","name":"","type":"uint256"}],"stateMutability":"view","type":"function"},{"inputs":[{"internalType":"uint256","name":"","type":"uint256"}],"name":"challenges","outputs":[{"internalType":"address","name":"challenger","type":"address"},{"internalType":"address","name":"challenged","type":"address"},{"internalType":"uint256","name":"betAmount","type":"uint256"},{"internalType":"uint8","name":"challengerChoice","type":"uint8"},{"internalType":"uint256","name":"createdAt","type":"uint256"},{"internalType":"bool","name":"accepted","type":"bool"},{"internalType":"bool","name":"resolved","type":"bool"},{"internalType":"address","name":"winner","type":"address"}],"stateMutability":"view","type":"function"},{"inputs":[{"internalType":"address","name":"challenged","type":"address"},{"internalType":"uint256","name":"betAmount","type":"uint256"},{"internalType":"uint8","name":"choice","type":"uint8"}],"name":"createChallenge","outputs":[{"internalType":"uint256","name":"challengeId","type":"uint256"}],"stateMutability":"nonpayable","type":"function"},{"inputs":[{"internalType":"uint256","name":"betAmount","type":"uint256"},{"internalType":"uint8","name":"choice","type":"uint8"}],"name":"enterPool","outputs":[{"internalType":"bool","name":"matched","type":"bool"},{"internalType":"address","name":"opponent","type":"address"},{"internalType":"address","name":"winner","type":"address"}],"stateMutability":"nonpayable","type":"function"},{"inputs":[{"internalType":"uint256","name":"betAmount","type":"uint256"}],"name":"exitPool","outputs":[],"stateMutability":"nonpayable","type":"function"},{"inputs":[{"internalType":"uint256","name":"betAmount","type":"uint256"}],"name":"forceExitStalePool","outputs":[],"stateMutability":"nonpayable","type":"function"},{"inputs":[{"internalType":"address","name":"agent","type":"address"}],"name":"getAgentStats","outputs":[{"internalType":"uint256","name":"_wins","type":"uint256"},{"internalType":"uint256","name":"_losses","type":"uint256"},{"internalType":"uint256","name":"_totalWagered","type":"uint256"},{"internalType":"string","name":"_name","type":"string"}],"stateMutability":"view","type":"function"},{"inputs":[],"name":"getAllPoolStatus","outputs":[{"internalType":"uint256[]","name":"bets","type":"uint256[]"},{"internalType":"bool[]","name":"hasWaiting","type":"bool[]"},{"internalType":"address[]","name":"waitingPlayers","type":"address[]"}],"stateMutability":"view","type":"function"},{"inputs":[{"internalType":"uint256","name":"challengeId","type":"uint256"}],"name":"getChallenge","outputs":[{"components":[{"internalType":"address","name":"challenger","type":"address"},{"internalType":"address","name":"challenged","type":"address"},{"internalType":"uint256","name":"betAmount","type":"uint256"},{"internalType":"uint8","name":"challengerChoice","type":"uint8"},{"internalType":"uint256","name":"createdAt","type":"uint256"},{"internalType":"bool","name":"accepted","type":"bool"},{"internalType":"bool","name":"resolved","type":"bool"},{"internalType":"address","name":"winner","type":"address"}],"internalType":"struct ShellCoinflipV3.Challenge","name":"","type":"tuple"}],"stateMutability":"view","type":"function"},{"inputs":[{"internalType":"uint256","name":"betAmount","type":"uint256"}],"name":"getPoolStatus","outputs":[{"internalType":"bool","name":"hasWaiting","type":"bool"},{"internalType":"address","name":"waitingPlayer","type":"address"},{"internalType":"uint8","name":"waitingChoice","type":"uint8"},{"internalType":"uint256","name":"waitingSince","type":"uint256"}],"stateMutability":"view","type":"function"},{"inputs":[],"name":"getSupportedBets","outputs":[{"internalType":"uint256[]","name":"","type":"uint256[]"}],"stateMutability":"view","type":"function"},{"inputs":[{"internalType":"address","name":"agent","type":"address"}],"name":"isMoltbookVerified","outputs":[{"internalType":"bool","name":"","type":"bool"}],"stateMutability":"view","type":"function"},{"inputs":[{"internalType":"uint256","name":"","type":"uint256"}],"name":"isSupportedBet","outputs":[{"internalType":"bool","name":"","type":"bool"}],"stateMutability":"view","type":"function"},{"inputs":[{"internalType":"address","name":"","type":"address"}],"name":"losses","outputs":[{"internalType":"uint256","name":"","type":"uint256"}],"stateMutability":"view","type":"function"},{"inputs":[{"internalType":"uint256","name":"","type":"uint256"}],"name":"matchingPool","outputs":[{"internalType":"address","name":"","type":"address"}],"stateMutability":"view","type":"function"},{"inputs":[],"name":"nextChallengeId","outputs":[{"internalType":"uint256","name":"","type":"uint256"}],"stateMutability":"view","type":"function"},{"inputs":[],"name":"owner","outputs":[{"internalType":"address","name":"","type":"address"}],"stateMutability":"view","type":"function"},{"inputs":[{"internalType":"uint256","name":"","type":"uint256"}],"name":"poolPlayerChoice","outputs":[{"internalType":"uint8","name":"","type":"uint8"}],"stateMutability":"view","type":"function"},{"inputs":[{"internalType":"uint256","name":"","type":"uint256"}],"name":"poolTimestamp","outputs":[{"internalType":"uint256","name":"","type":"uint256"}],"stateMutability":"view","type":"function"},{"inputs":[],"name":"protocolFeeBps","outputs":[{"internalType":"uint256","name":"","type":"uint256"}],"stateMutability":"view","type":"function"},{"inputs":[{"internalType":"string","name":"name","type":"string"}],"name":"registerAgent","outputs":[],"stateMutability":"nonpayable","type":"function"},{"inputs":[{"internalType":"uint256","name":"amount","type":"uint256"}],"name":"removeSupportedBet","outputs":[],"stateMutability":"nonpayable","type":"function"},{"inputs":[],"name":"renounceOwnership","outputs":[],"stateMutability":"nonpayable","type":"function"},{"inputs":[{"internalType":"uint256","name":"_timeout","type":"uint256"}],"name":"setChallengeTimeout","outputs":[],"stateMutability":"nonpayable","type":"function"},{"inputs":[{"internalType":"uint256","name":"_feeBps","type":"uint256"}],"name":"setProtocolFee","outputs":[],"stateMutability":"nonpayable","type":"function"},{"inputs":[{"internalType":"address","name":"verifier","type":"address"},{"internalType":"bool","name":"status","type":"bool"}],"name":"setVerifier","outputs":[],"stateMutability":"nonpayable","type":"function"},{"inputs":[],"name":"shellToken","outputs":[{"internalType":"contract IERC20","name":"","type":"address"}],"stateMutability":"view","type":"function"},{"inputs":[{"internalType":"uint256","name":"","type":"uint256"}],"name":"supportedBets","outputs":[{"internalType":"uint256","name":"","type":"uint256"}],"stateMutability":"view","type":"function"},{"inputs":[],"name":"totalGamesPlayed","outputs":[{"internalType":"uint256","name":"","type":"uint256"}],"stateMutability":"view","type":"function"},{"inputs":[],"name":"totalVolume","outputs":[{"internalType":"uint256","name":"","type":"uint256"}],"stateMutability":"view","type":"function"},{"inputs":[{"internalType":"address","name":"","type":"address"}],"name":"totalWagered","outputs":[{"internalType":"uint256","name":"","type":"uint256"}],"stateMutability":"view","type":"function"},{"inputs":[{"internalType":"address","name":"newOwner","type":"address"}],"name":"transferOwnership","outputs":[],"stateMutability":"nonpayable","type":"function"},{"inputs":[{"internalType":"address","name":"","type":"address"}],"name":"verifiedAgents","outputs":[{"internalType":"bool","name":"","type":"bool"}],"stateMutability":"view","type":"function"},{"inputs":[{"internalType":"address","name":"","type":"address"}],"name":"verifiers","outputs":[{"internalType":"bool","name":"","type":"bool"}],"stateMutability":"view","type":"function"},{"inputs":[{"internalType":"address","name":"agent","type":"address"}],"name":"verifyAgentIdentity","outputs":[],"stateMutability":"nonpayable","type":"function"},{"inputs":[{"internalType":"address","name":"","type":"address"}],"name":"wins","outputs":[{"internalType":"uint256","name":"","type":"uint256"}],"stateMutability":"view","type":"function"},{"inputs":[{"internalType":"address","name":"to","type":"address"}],"name":"withdrawFees","outputs":[],"stateMutability":"nonpayable","type":"function"}],"evm":{"bytecode":{"linkReferences":{},"object":"60a060405260646002556001600b5561012c600c553480156200002157600080fd5b5060405162002e8f38038062002e8f833981016040819052620000449162000212565b600160005533806200007057604051631e4fbdf760e01b81526000600482015260240160405180910390fd5b6200007b816200015b565b506001600160a01b038116608052336000908152601060205260409020805460ff19166001179055620000b6670de0b6b3a7640000620001ad565b620000c9674563918244f40000620001ad565b620000dc678ac7230489e80000620001ad565b620000f068015af1d78b58c40000620001ad565b620001046802b5e3af16b1880000620001ad565b6200011868056bc75e2d63100000620001ad565b6200012c680d8d726b7177a80000620001ad565b62000140681b1ae4d6e2ef500000620001ad565b62000154683635c9adc5dea00000620001ad565b5062000244565b600180546001600160a01b038381166001600160a01b0319831681179093556040519116919082907f8be0079c531659141344cd1fd0a4f28419497f9722a3daafe3b4186f6b6457e090600090a35050565b60008181526006602052604090205460ff166200020f576005805460018181019092557f036b6384b5eca791c62761152d0c79bb0604c104a5fb6f4eb0703f3154bb3db0018290556000828152600660205260409020805460ff191690911790555b50565b6000602082840312156200022557600080fd5b81516001600160a01b03811681146200023d57600080fd5b9392505050565b608051612be9620002a6600039600081816104b3015281816109c301528181610b2e01528181610f21015281816111090152818161132e0152818161196c01528181611b0001528181611ced01528181611f94015261250d0152612be96000f3fe608060405234801561001057600080fd5b506004361061025e5760003560e01c806387e6ffe711610146578063b34a5f72116100c3578063c903c23311610087578063c903c233146107d8578063ca2ad0aa146107f8578063e0e710b51461080b578063edc3cc2514610840578063f2fde38b14610860578063fc67aa501461087357600080fd5b8063b34a5f72146106c3578063b5695b381461073f578063b582735014610762578063be1d24ad1461079c578063c54a8e7c146107af57600080fd5b8063ac9b56711161010a578063ac9b567114610650578063ae82455f14610663578063af3b586714610686578063b02a5e9014610699578063b087ae4f146106b057600080fd5b806387e6ffe71461054b5780638da5cb5b1461055e5780638f1d37761461056f5780639eacdacb1461062a578063a41483e31461063d57600080fd5b8063470762e9116101df5780635f81a57c116101a35780635f81a57c146104a55780636aae314c146104ae5780636c824487146104ed578063715018a614610510578063787dce3d146105185780638047a97a1461052b57600080fd5b8063470762e91461044b5780634c6ae76f1461046b57806351c544461461048057806358cae0b0146104895780635c4921291461049c57600080fd5b806328f3fac91161022657806328f3fac9146103be5780632cbc1660146103ee5780632d2a95851461040e578063343d92321461042157806335659fb81461044257600080fd5b8063011b66b71461026357806308f3b429146102785780630f394b61146102b0578063164e68de146102c35780631bdd4b74146102d6575b600080fd5b61027661027136600461253f565b61087c565b005b61029b61028636600461253f565b60066020526000908152604090205460ff1681565b60405190151581526020015b60405180910390f35b6102766102be366004612574565b610890565b6102766102d1366004612574565b6109a3565b6103b16102e436600461253f565b6040805161010081018252600080825260208201819052918101829052606081018290526080810182905260a0810182905260c0810182905260e0810191909152506000908152600a60209081526040918290208251610100808201855282546001600160a01b0390811683526001840154811694830194909452600283015494820194909452600382015460ff908116606083015260048301546080830152600590920154808316151560a0830152938404909116151560c0820152620100009092041660e082015290565b6040516102a7919061258f565b6103e16103cc366004612574565b600f6020526000908152604090205460ff1681565b6040516102a7919061262a565b6104016103fc366004612574565b610b5a565b6040516102a79190612698565b61027661041c3660046126ab565b610bf4565b61043461042f36600461253f565b610cfa565b6040519081526020016102a7565b61043460025481565b610434610459366004612574565b60136020526000908152604090205481565b610473610d1b565b6040516102a79190612758565b610434600c5481565b61027661049736600461253f565b610d73565b61043460035481565b61043460045481565b6104d57f000000000000000000000000000000000000000000000000000000000000000081565b6040516001600160a01b0390911681526020016102a7565b61029b6104fb366004612574565b60106020526000908152604090205460ff1681565b610276610dd1565b61027661052636600461253f565b610de5565b610434610539366004612574565b60116020526000908152604090205481565b61027661055936600461253f565b610e33565b6001546001600160a01b03166104d5565b6105d961057d36600461253f565b600a602052600090815260409020805460018201546002830154600384015460048501546005909501546001600160a01b039485169593851694929360ff92831693909282811692610100810490911691620100009091041688565b604080516001600160a01b03998a168152978916602089015287019590955260ff90931660608601526080850191909152151560a0840152151560c08301529190911660e0820152610100016102a7565b61027661063836600461253f565b610f9e565b61027661064b36600461253f565b611014565b61027661065e36600461276b565b611172565b61029b610671366004612574565b600d6020526000908152604090205460ff1681565b6104346106943660046127b8565b6111a5565b6106a161153c565b6040516102a7939291906127f4565b61029b6106be366004612574565b61173d565b61070d6106d136600461253f565b600090815260076020908152604080832054600883528184205460099093529220546001600160a01b0390921680151593909260ff9092169190565b6040805194151585526001600160a01b03909316602085015260ff9091169183019190915260608201526080016102a7565b61075261074d366004612574565b611775565b6040516102a7949392919061288e565b6107756107703660046128bd565b61184f565b6040805193151584526001600160a01b0392831660208501529116908201526060016102a7565b6102766107aa36600461253f565b611a64565b6104d56107bd36600461253f565b6007602052600090815260409020546001600160a01b031681565b6104346107e6366004612574565b60126020526000908152604090205481565b6102766108063660046128bd565b611b6e565b61082e61081936600461253f565b60086020526000908152604090205460ff1681565b60405160ff90911681526020016102a7565b61043461084e36600461253f565b60096020526000908152604090205481565b61027661086e366004612574565b612015565b610434600b5481565b610884612050565b61088d8161207d565b50565b3360009081526010602052604090205460ff166108e55760405162461bcd60e51b815260206004820152600e60248201526d2737ba1030903b32b934b334b2b960911b60448201526064015b60405180910390fd5b60016001600160a01b0382166000908152600f602052604090205460ff16600281111561091457610914612614565b146109555760405162461bcd60e51b81526020600482015260116024820152704167656e74206e6f742070656e64696e6760781b60448201526064016108dc565b6001600160a01b0381166000818152600f6020526040808220805460ff19166002179055513392917f7f5835461dbf886f27de41a9adf55100f10e6974a3fc4a867ded38b50daf358d91a350565b6109ab612050565b6040516370a0823160e01b81523060048201526000907f00000000000000000000000000000000000000000000000000000000000000006001600160a01b0316906370a0823190602401602060405180830381865afa158015610a12573d6000803e3d6000fd5b505050506040513d601f19601f82011682018060405250810190610a3691906128e9565b90506000805b600554811015610ad05760006001600160a01b03166007600060058481548110610a6857610a68612902565b600091825260208083209091015483528201929092526040019020546001600160a01b031614610abe5760058181548110610aa557610aa5612902565b906000526020600020015482610abb919061292e565b91505b80610ac881612947565b915050610a3c565b50808211610b165760405162461bcd60e51b81526020600482015260136024820152724e6f206665657320746f20776974686472617760681b60448201526064016108dc565b610b5583610b248385612960565b6001600160a01b037f00000000000000000000000000000000000000000000000000000000000000001691906120e0565b505050565b600e6020526000908152604090208054610b7390612973565b80601f0160208091040260200160405190810160405280929190818152602001828054610b9f90612973565b8015610bec5780601f10610bc157610100808354040283529160200191610bec565b820191906000526020600020905b815481529060010190602001808311610bcf57829003601f168201915b505050505081565b8015801590610c04575060208111155b610c3f5760405162461bcd60e51b815260206004820152600c60248201526b496e76616c6964206e616d6560a01b60448201526064016108dc565b336000908152600d60209081526040808320805460ff19166001179055600e9091529020610c6e828483612a11565b50336000908152600f602052604081205460ff166002811115610c9357610c93612614565b03610cb357336000908152600f60205260409020805460ff191660011790555b336001600160a01b03167f45127b38457c2f5c381cad14d94b51d80a7700dfb7a910a1d816fee3d3e105918383604051610cee929190612ad2565b60405180910390a25050565b60058181548110610d0a57600080fd5b600091825260209091200154905081565b60606005805480602002602001604051908101604052809291908181526020018280548015610d6957602002820191906000526020600020905b815481526020019060010190808311610d55575b5050505050905090565b610d7b612050565b603c8110158015610d8e5750610e108111155b610dcc5760405162461bcd60e51b815260206004820152600f60248201526e125b9d985b1a59081d1a5b595bdd5d608a1b60448201526064016108dc565b600c55565b610dd9612050565b610de3600061213f565b565b610ded612050565b6101f4811115610e2e5760405162461bcd60e51b815260206004820152600c60248201526b08ccaca40e8dede40d0d2ced60a31b60448201526064016108dc565b600255565b610e3b612191565b6000818152600760205260409020546001600160a01b031680610e8d5760405162461bcd60e51b815260206004820152600a602482015269506f6f6c20656d70747960b01b60448201526064016108dc565b600082815260096020526040902054610ea890610e1061292e565b4211610ee65760405162461bcd60e51b815260206004820152600d60248201526c139bdd081cdd185b19481e595d609a1b60448201526064016108dc565b600082815260076020908152604080832080546001600160a01b031916905560088252808320805460ff191690556009909152812055610f507f00000000000000000000000000000000000000000000000000000000000000006001600160a01b031682846120e0565b806001600160a01b03167fbc865856a1e9f1dfe2abde98edc2eefe87b6c391a47032388ef36d8c2474aad383604051610f8b91815260200190565b60405180910390a25061088d6001600055565b610fa6612050565b6000818152600760205260409020546001600160a01b031615610ffc5760405162461bcd60e51b815260206004820152600e60248201526d506f6f6c206e6f7420656d70747960901b60448201526064016108dc565b6000908152600660205260409020805460ff19169055565b61101c612191565b6000818152600a6020526040902080546001600160a01b03163314806110525750600c54816004015461104f919061292e565b42115b61108e5760405162461bcd60e51b815260206004820152600d60248201526c10d85b9b9bdd0818d85b98d95b609a1b60448201526064016108dc565b600581015460ff161580156110ad57506005810154610100900460ff16155b6110eb5760405162461bcd60e51b815260206004820152600f60248201526e105b1c9958591e481a185b991b1959608a1b60448201526064016108dc565b60058101805461ff0019166101001790558054600282015461113c917f00000000000000000000000000000000000000000000000000000000000000006001600160a01b03908116929116906120e0565b60405182907f8f468517950218b9c61ac630652209be7aeda4de4f6eda5e0d4b106d784fa4e990600090a25061088d6001600055565b61117a612050565b6001600160a01b03919091166000908152601060205260409020805460ff1916911515919091179055565b336000908152600d602052604081205460ff166111d45760405162461bcd60e51b81526004016108dc90612b01565b6111dc612191565b6001600160a01b038416158015906111fd57506001600160a01b0384163314155b61123c5760405162461bcd60e51b815260206004820152601060248201526f125b9d985b1a59081bdc1c1bdb995b9d60821b60448201526064016108dc565b6001600160a01b0384166000908152600d602052604090205460ff1661129c5760405162461bcd60e51b815260206004820152601560248201527413dc1c1bdb995b9d081b9bdd081d995c9a599a5959605a1b60448201526064016108dc565b670de0b6b3a764000083101580156112be575069021e19e0c9bab24000008311155b6112fd5760405162461bcd60e51b815260206004820152601060248201526f426574206f7574206f662072616e676560801b60448201526064016108dc565b60018260ff1611156113215760405162461bcd60e51b81526004016108dc90612b2f565b6113566001600160a01b037f0000000000000000000000000000000000000000000000000000000000000000163330866121bb565b600b805490600061136683612947565b919050559050604051806101000160405280336001600160a01b03168152602001856001600160a01b031681526020018481526020018360ff16815260200142815260200160001515815260200160001515815260200160006001600160a01b0316815250600a600083815260200190815260200160002060008201518160000160006101000a8154816001600160a01b0302191690836001600160a01b0316021790555060208201518160010160006101000a8154816001600160a01b0302191690836001600160a01b031602179055506040820151816002015560608201518160030160006101000a81548160ff021916908360ff1602179055506080820151816004015560a08201518160050160006101000a81548160ff02191690831515021790555060c08201518160050160016101000a81548160ff02191690831515021790555060e08201518160050160026101000a8154816001600160a01b0302191690836001600160a01b03160217905550905050836001600160a01b0316336001600160a01b0316827fd2f7931a802085b3d0234d4c320ce7ee0041da96678ce2bf5c93e8d3d7e65f528660405161152391815260200190565b60405180910390a46115356001600055565b9392505050565b600554606090819081908067ffffffffffffffff81111561155f5761155f6129ad565b604051908082528060200260200182016040528015611588578160200160208202803683370190505b5093508067ffffffffffffffff8111156115a4576115a46129ad565b6040519080825280602002602001820160405280156115cd578160200160208202803683370190505b5092508067ffffffffffffffff8111156115e9576115e96129ad565b604051908082528060200260200182016040528015611612578160200160208202803683370190505b50915060005b81811015611736576005818154811061163357611633612902565b906000526020600020015485828151811061165057611650612902565b602002602001018181525050600760006005838154811061167357611673612902565b9060005260206000200154815260200190815260200160002060009054906101000a90046001600160a01b03168382815181106116b2576116b2612902565b60200260200101906001600160a01b031690816001600160a01b03168152505060006001600160a01b03168382815181106116ef576116ef612902565b60200260200101516001600160a01b0316141584828151811061171457611714612902565b911515602092830291909101909101528061172e81612947565b915050611618565b5050909192565b600060026001600160a01b0383166000908152600f602052604090205460ff16600281111561176e5761176e612614565b1492915050565b6001600160a01b03811660009081526011602090815260408083205460128352818420546013845282852054600e90945291842080548594859460609493909281906117c090612973565b80601f01602080910402602001604051908101604052809291908181526020018280546117ec90612973565b80156118395780601f1061180e57610100808354040283529160200191611839565b820191906000526020600020905b81548152906001019060200180831161181c57829003601f168201915b5050505050905093509350935093509193509193565b336000908152600d60205260408120548190819060ff166118825760405162461bcd60e51b81526004016108dc90612b01565b61188a612191565b60008581526006602052604090205460ff166118e15760405162461bcd60e51b8152602060048201526016602482015275155b9cdd5c1c1bdc9d19590818995d08185b5bdd5b9d60521b60448201526064016108dc565b60018460ff1611156119055760405162461bcd60e51b81526004016108dc90612b2f565b600085815260076020526040902054336001600160a01b039091160361195f5760405162461bcd60e51b815260206004820152600f60248201526e105b1c9958591e481a5b881c1bdbdb608a1b60448201526064016108dc565b6119946001600160a01b037f0000000000000000000000000000000000000000000000000000000000000000163330886121bb565b6000858152600760205260409020546001600160a01b031680611a405760008681526007602090815260408083208054336001600160a01b0319909116811790915560088352818420805460ff191660ff8b16908117909155600984529382902042905581518a8152928301939093527f4af9253c060f8b592f8160f3873718ad63ce9582e72617d6742b49725727370e910160405180910390a2600080600093509350935050611a53565b611a4b8686836121fa565b935093509350505b611a5d6001600055565b9250925092565b611a6c612191565b6000818152600760205260409020546001600160a01b03163314611ac55760405162461bcd60e51b815260206004820152601060248201526f139bdd081a5b881d1a1a5cc81c1bdbdb60821b60448201526064016108dc565b600081815260076020908152604080832080546001600160a01b031916905560088252808320805460ff191690556009909152812055611b2f7f00000000000000000000000000000000000000000000000000000000000000006001600160a01b031633836120e0565b60405181815233907fbc865856a1e9f1dfe2abde98edc2eefe87b6c391a47032388ef36d8c2474aad39060200160405180910390a261088d6001600055565b336000908152600d602052604090205460ff16611b9d5760405162461bcd60e51b81526004016108dc90612b01565b611ba5612191565b6000828152600a6020526040902060018101546001600160a01b03163314611c045760405162461bcd60e51b81526020600482015260126024820152714e6f7420796f7572206368616c6c656e676560701b60448201526064016108dc565b600581015460ff16158015611c2357506005810154610100900460ff16155b611c615760405162461bcd60e51b815260206004820152600f60248201526e105b1c9958591e481a185b991b1959608a1b60448201526064016108dc565b600c548160040154611c73919061292e565b421115611cb65760405162461bcd60e51b815260206004820152601160248201527010da185b1b195b99d948195e1c1a5c9959607a1b60448201526064016108dc565b60018260ff161115611cda5760405162461bcd60e51b81526004016108dc90612b2f565b6002810154611d17906001600160a01b037f00000000000000000000000000000000000000000000000000000000000000001690339030906121bb565b60058101805460ff19166001179055604051339084907fd984ac8050a068db0ada14b33626b418e0cdfbad700867c1f3e0ab23cf123b3390600090a38054600182015460038301546040805144602082015242918101919091526bffffffffffffffffffffffff19606094851b8116858301529290931b90911660748301526001600160f81b031960f891821b811660888401529084901b166089820152608a810184905260009060aa0160408051601f19818403018152919052805160209091012090506000611de9600283612b74565b6003840154909150600090819060ff808516911603611e1d575050825460018401546001600160a01b039182169116611e34565b5050600183015483546001600160a01b0391821691165b6005850180546001600160a01b0384166201000002610100600160b01b031990911617610100179055600280860154600091611e709190612b88565b9050600061271060025483611e859190612b88565b611e8f9190612b9f565b90506000611e9d8284612960565b600380549192506000611eaf83612947565b91905055508260046000828254611ec6919061292e565b90915550506001600160a01b0385166000908152601160205260408120805491611eef83612947565b90915550506001600160a01b0384166000908152601260205260408120805491611f1883612947565b9091555050600288015488546001600160a01b031660009081526013602052604081208054909190611f4b90849061292e565b9091555050600288015460018901546001600160a01b031660009081526013602052604081208054909190611f8190849061292e565b90915550611fbb90506001600160a01b037f00000000000000000000000000000000000000000000000000000000000000001686836120e0565b846001600160a01b03168a7ffa7677f40b56154233bd68874ce9489a9cb84537d3ff486a37020e34fc9dc29283604051611ff791815260200190565b60405180910390a350505050505050506120116001600055565b5050565b61201d612050565b6001600160a01b03811661204757604051631e4fbdf760e01b8152600060048201526024016108dc565b61088d8161213f565b6001546001600160a01b03163314610de35760405163118cdaa760e01b81523360048201526024016108dc565b60008181526006602052604090205460ff1661088d576005805460018181019092557f036b6384b5eca791c62761152d0c79bb0604c104a5fb6f4eb0703f3154bb3db0018290556000828152600660205260409020805460ff1916909117905550565b6040516001600160a01b03838116602483015260448201839052610b5591859182169063a9059cbb906064015b604051602081830303815290604052915060e01b6020820180516001600160e01b0383818316178352505050506122eb565b600180546001600160a01b038381166001600160a01b0319831681179093556040519116919082907f8be0079c531659141344cd1fd0a4f28419497f9722a3daafe3b4186f6b6457e090600090a35050565b6002600054036121b457604051633ee5aeb560e01b815260040160405180910390fd5b6002600055565b6040516001600160a01b0384811660248301528381166044830152606482018390526121f49186918216906323b872dd9060840161210d565b50505050565b600083815260086020908152604080832080546007845282852080546001600160a01b0319169055815460ff1916909155600990925282208290558190819060ff16338261224a8783858b61235c565b90506000876001600160a01b0316826001600160a01b03161461226d578761226f565b825b905060006122808b84848c886123ec565b600354604080518e81526001600160a01b03878116602083015291810184905292935080871692908c1691907f60ce0c713d3715c6cd88e3f669efc1f89227db72d85b2f9dcb6f4251c5814ead9060600160405180910390a45060019a979950909750505050505050565b600080602060008451602086016000885af18061230e576040513d6000823e3d81fd5b50506000513d91508115612326578060011415612333565b6001600160a01b0384163b155b156121f457604051635274afe760e01b81526001600160a01b03851660048201526024016108dc565b6003546040805144602082015242918101919091526bffffffffffffffffffffffff19606087811b82168184015286901b1660748201526088810191909152600090819060a80160408051601f198184030181529190528051602090910120905060006123ca600283612b74565b90508060ff168560ff16146123df57856123e1565b865b979650505050505050565b6000806123fa876002612b88565b905060006127106002548361240f9190612b88565b6124199190612b9f565b90506124258183612960565b60038054919450600061243783612947565b9190505550816004600082825461244e919061292e565b90915550506001600160a01b038716600090815260116020526040812080549161247783612947565b90915550506001600160a01b03861660009081526012602052604081208054916124a083612947565b90915550506001600160a01b038516600090815260136020526040812080548a92906124cd90849061292e565b90915550506001600160a01b038416600090815260136020526040812080548a92906124fa90849061292e565b9091555061253490506001600160a01b037f00000000000000000000000000000000000000000000000000000000000000001688856120e0565b505095945050505050565b60006020828403121561255157600080fd5b5035919050565b80356001600160a01b038116811461256f57600080fd5b919050565b60006020828403121561258657600080fd5b61153582612558565b60006101008201905060018060a01b03808451168352806020850151166020840152506040830151604083015260ff60608401511660608301526080830151608083015260a0830151151560a083015260c08301516125f260c084018215159052565b5060e083015161260d60e08401826001600160a01b03169052565b5092915050565b634e487b7160e01b600052602160045260246000fd5b602081016003831061264c57634e487b7160e01b600052602160045260246000fd5b91905290565b6000815180845260005b818110156126785760208185018101518683018201520161265c565b506000602082860101526020601f19601f83011685010191505092915050565b6020815260006115356020830184612652565b600080602083850312156126be57600080fd5b823567ffffffffffffffff808211156126d657600080fd5b818501915085601f8301126126ea57600080fd5b8135818111156126f957600080fd5b86602082850101111561270b57600080fd5b60209290920196919550909350505050565b600081518084526020808501945080840160005b8381101561274d57815187529582019590820190600101612731565b509495945050505050565b602081526000611535602083018461271d565b6000806040838503121561277e57600080fd5b61278783612558565b91506020830135801515811461279c57600080fd5b809150509250929050565b803560ff8116811461256f57600080fd5b6000806000606084860312156127cd57600080fd5b6127d684612558565b9250602084013591506127eb604085016127a7565b90509250925092565b606081526000612807606083018661271d565b82810360208481019190915285518083528682019282019060005b81811015612840578451151583529383019391830191600101612822565b50508481036040860152855180825290820192508186019060005b818110156128805782516001600160a01b03168552938301939183019160010161285b565b509298975050505050505050565b8481528360208201528260408201526080606082015260006128b36080830184612652565b9695505050505050565b600080604083850312156128d057600080fd5b823591506128e0602084016127a7565b90509250929050565b6000602082840312156128fb57600080fd5b5051919050565b634e487b7160e01b600052603260045260246000fd5b634e487b7160e01b600052601160045260246000fd5b8082018082111561294157612941612918565b92915050565b60006001820161295957612959612918565b5060010190565b8181038181111561294157612941612918565b600181811c9082168061298757607f821691505b6020821081036129a757634e487b7160e01b600052602260045260246000fd5b50919050565b634e487b7160e01b600052604160045260246000fd5b601f821115610b5557600081815260208120601f850160051c810160208610156129ea5750805b601f850160051c820191505b81811015612a09578281556001016129f6565b505050505050565b67ffffffffffffffff831115612a2957612a296129ad565b612a3d83612a378354612973565b836129c3565b6000601f841160018114612a715760008515612a595750838201355b600019600387901b1c1916600186901b178355612acb565b600083815260209020601f19861690835b82811015612aa25786850135825560209485019460019092019101612a82565b5086821015612abf5760001960f88860031b161c19848701351681555b505060018560011b0183555b5050505050565b60208152816020820152818360408301376000818301604090810191909152601f909201601f19160101919050565b602080825260149082015273139bdd0818481d995c9a599a5959081859d95b9d60621b604082015260600190565b60208082526015908201527443686f696365206d7573742062652030206f72203160581b604082015260600190565b634e487b7160e01b600052601260045260246000fd5b600082612b8357612b83612b5e565b500690565b808202811582820484141761294157612941612918565b600082612bae57612bae612b5e565b50049056fea2646970667358221220d1badcf774880aaa03a57cffd17c6fc2fa7e50ec16b32ea43268f489375ffaca64736f6c63430008140033","opcodes":"PUSH1 0xA0 PUSH1 0x40 MSTORE PUSH1 0x64 PUSH1 0x2 SSTORE PUSH1 0x1 PUSH1 0xB SSTORE PUSH2 0x12C PUSH1 0xC SSTORE CALLVALUE DUP1 ISZERO PUSH3 0x21 JUMPI PUSH1 0x0 DUP1 REVERT JUMPDEST POP PUSH1 0x40 MLOAD PUSH3 0x2E8F CODESIZE SUB DUP1 PUSH3 0x2E8F DUP4 CODECOPY DUP2 ADD PUSH1 0x40 DUP2 SWAP1 MSTORE PUSH3 0x44 SWAP2 PUSH3 0x212 JUMP JUMPDEST PUSH1 0x1 PUSH1 0x0 SSTORE CALLER DUP1 PUSH3 0x70 JUMPI PUSH1 0x40 MLOAD PUSH4 0x1E4FBDF7 PUSH1 0xE0 SHL DUP2 MSTORE PUSH1 0x0 PUSH1 0x4 DUP3 ADD MSTORE PUSH1 0x24 ADD PUSH1 0x40 MLOAD DUP1 SWAP2 SUB SWAP1 REVERT JUMPDEST PUSH3 0x7B DUP2 PUSH3 0x15B JUMP JUMPDEST POP PUSH1 0x1 PUSH1 0x1 PUSH1 0xA0 SHL SUB DUP2 AND PUSH1 0x80 MSTORE CALLER PUSH1 0x0 SWAP1 DUP2 MSTORE PUSH1 0x10 PUSH1 0x20 MSTORE PUSH1 0x40 SWAP1 KECCAK256 DUP1 SLOAD PUSH1 0xFF NOT AND PUSH1 0x1 OR SWAP1 SSTORE PUSH3 0xB6 PUSH8 0xDE0B6B3A7640000 PUSH3 0x1AD JUMP JUMPDEST PUSH3 0xC9 PUSH8 0x4563918244F40000 PUSH3 0x1AD JUMP JUMPDEST PUSH3 0xDC PUSH8 0x8AC7230489E80000 PUSH3 0x1AD JUMP JUMPDEST PUSH3 0xF0 PUSH9 0x15AF1D78B58C40000 PUSH3 0x1AD JUMP JUMPDEST PUSH3 0x104 PUSH9 0x2B5E3AF16B1880000 PUSH3 0x1AD JUMP JUMPDEST PUSH3 0x118 PUSH9 0x56BC75E2D63100000 PUSH3 0x1AD JUMP JUMPDEST PUSH3 0x12C PUSH9 0xD8D726B7177A80000 PUSH3 0x1AD JUMP JUMPDEST PUSH3 0x140 PUSH9 0x1B1AE4D6E2EF500000 PUSH3 0x1AD JUMP JUMPDEST PUSH3 0x154 PUSH9 0x3635C9ADC5DEA00000 PUSH3 0x1AD JUMP JUMPDEST POP PUSH3 0x244 JUMP JUMPDEST PUSH1 0x1 DUP1 SLOAD PUSH1 0x1 PUSH1 0x1 PUSH1 0xA0 SHL SUB DUP4 DUP2 AND PUSH1 0x1 PUSH1 0x1 PUSH1 0xA0 SHL SUB NOT DUP4 AND DUP2 OR SWAP1 SWAP4 SSTORE PUSH1 0x40 MLOAD SWAP2 AND SWAP2 SWAP1 DUP3 SWAP1 PUSH32 0x8BE0079C531659141344CD1FD0A4F28419497F9722A3DAAFE3B4186F6B6457E0 SWAP1 PUSH1 0x0 SWAP1 LOG3 POP POP JUMP JUMPDEST PUSH1 0x0 DUP2 DUP2 MSTORE PUSH1 0x6 PUSH1 0x20 MSTORE PUSH1 0x40 SWAP1 KECCAK256 SLOAD PUSH1 0xFF AND PUSH3 0x20F JUMPI PUSH1 0x5 DUP1 SLOAD PUSH1 0x1 DUP2 DUP2 ADD SWAP1 SWAP3 SSTORE PUSH32 0x36B6384B5ECA791C62761152D0C79BB0604C104A5FB6F4EB0703F3154BB3DB0 ADD DUP3 SWAP1 SSTORE PUSH1 0x0 DUP3 DUP2 MSTORE PUSH1 0x6 PUSH1 0x20 MSTORE PUSH1 0x40 SWAP1 KECCAK256 DUP1 SLOAD PUSH1 0xFF NOT AND SWAP1 SWAP2 OR SWAP1 SSTORE JUMPDEST POP JUMP JUMPDEST PUSH1 0x0 PUSH1 0x20 DUP3 DUP5 SUB SLT ISZERO PUSH3 0x225 JUMPI PUSH1 0x0 DUP1 REVERT JUMPDEST DUP2 MLOAD PUSH1 0x1 PUSH1 0x1 PUSH1 0xA0 SHL SUB DUP2 AND DUP2 EQ PUSH3 0x23D JUMPI PUSH1 0x0 DUP1 REVERT JUMPDEST SWAP4 SWAP3 POP POP POP JUMP JUMPDEST PUSH1 0x80 MLOAD PUSH2 0x2BE9 PUSH3 0x2A6 PUSH1 0x0 CODECOPY PUSH1 0x0 DUP2 DUP2 PUSH2 0x4B3 ADD MSTORE DUP2 DUP2 PUSH2 0x9C3 ADD MSTORE DUP2 DUP2 PUSH2 0xB2E ADD MSTORE DUP2 DUP2 PUSH2 0xF21 ADD MSTORE DUP2 DUP2 PUSH2 0x1109 ADD MSTORE DUP2 DUP2 PUSH2 0x132E ADD MSTORE DUP2 DUP2 PUSH2 0x196C ADD MSTORE DUP2 DUP2 PUSH2 0x1B00 ADD MSTORE DUP2 DUP2 PUSH2 0x1CED ADD MSTORE DUP2 DUP2 PUSH2 0x1F94 ADD MSTORE PUSH2 0x250D ADD MSTORE PUSH2 0x2BE9 PUSH1 0x0 RETURN INVALID PUSH1 0x80 PUSH1 0x40 MSTORE CALLVALUE DUP1 ISZERO PUSH2 0x10 JUMPI PUSH1 0x0 DUP1 REVERT JUMPDEST POP PUSH1 0x4 CALLDATASIZE LT PUSH2 0x25E JUMPI PUSH1 0x0 CALLDATALOAD PUSH1 0xE0 SHR DUP1 PUSH4 0x87E6FFE7 GT PUSH2 0x146 JUMPI DUP1 PUSH4 0xB34A5F72 GT PUSH2 0xC3 JUMPI DUP1 PUSH4 0xC903C233 GT PUSH2 0x87 JUMPI DUP1 PUSH4 0xC903C233 EQ PUSH2 0x7D8 JUMPI DUP1 PUSH4 0xCA2AD0AA EQ PUSH2 0x7F8 JUMPI DUP1 PUSH4 0xE0E710B5 EQ PUSH2 0x80B JUMPI DUP1 PUSH4 0xEDC3CC25 EQ PUSH2 0x840 JUMPI DUP1 PUSH4 0xF2FDE38B EQ PUSH2 0x860 JUMPI DUP1 PUSH4 0xFC67AA50 EQ PUSH2 0x873 JUMPI PUSH1 0x0 DUP1 REVERT JUMPDEST DUP1 PUSH4 0xB34A5F72 EQ PUSH2 0x6C3 JUMPI DUP1 PUSH4 0xB5695B38 EQ PUSH2 0x73F JUMPI DUP1 PUSH4 0xB5827350 EQ PUSH2 0x762 JUMPI DUP1 PUSH4 0xBE1D24AD EQ PUSH2 0x79C JUMPI DUP1 PUSH4 0xC54A8E7C EQ PUSH2 0x7AF JUMPI PUSH1 0x0 DUP1 REVERT JUMPDEST DUP1 PUSH4 0xAC9B5671 GT PUSH2 0x10A JUMPI DUP1 PUSH4 0xAC9B5671 EQ PUSH2 0x650 JUMPI DUP1 PUSH4 0xAE82455F EQ PUSH2 0x663 JUMPI DUP1 PUSH4 0xAF3B5867 EQ PUSH2 0x686 JUMPI DUP1 PUSH4 0xB02A5E90 EQ PUSH2 0x699 JUMPI DUP1 PUSH4 0xB087AE4F EQ PUSH2 0x6B0 JUMPI PUSH1 0x0 DUP1 REVERT JUMPDEST DUP1 PUSH4 0x87E6FFE7 EQ PUSH2 0x54B JUMPI DUP1 PUSH4 0x8DA5CB5B EQ PUSH2 0x55E JUMPI DUP1 PUSH4 0x8F1D3776 EQ PUSH2 0x56F JUMPI DUP1 PUSH4 0x9EACDACB EQ PUSH2 0x62A JUMPI DUP1 PUSH4 0xA41483E3 EQ PUSH2 0x63D JUMPI PUSH1 0x0 DUP1 REVERT JUMPDEST DUP1 PUSH4 0x470762E9 GT PUSH2 0x1DF JUMPI DUP1 PUSH4 0x5F81A57C GT PUSH2 0x1A3 JUMPI DUP1 PUSH4 0x5F81A57C EQ PUSH2 0x4A5 JUMPI DUP1 PUSH4 0x6AAE314C EQ PUSH2 0x4AE JUMPI DUP1 PUSH4 0x6C824487 EQ PUSH2 0x4ED JUMPI DUP1 PUSH4 0x715018A6 EQ PUSH2 0x510 JUMPI DUP1 PUSH4 0x787DCE3D EQ PUSH2 0x518 JUMPI DUP1 PUSH4 0x8047A97A EQ PUSH2 0x52B JUMPI PUSH1 0x0 DUP1 REVERT JUMPDEST DUP1 PUSH4 0x470762E9 EQ PUSH2 0x44B JUMPI DUP1 PUSH4 0x4C6AE76F EQ PUSH2 0x46B JUMPI DUP1 PUSH4 0x51C54446 EQ PUSH2 0x480 JUMPI DUP1 PUSH4 0x58CAE0B0 EQ PUSH2 0x489 JUMPI DUP1 PUSH4 0x5C492129 EQ PUSH2 0x49C JUMPI PUSH1 0x0 DUP1 REVERT JUMPDEST DUP1 PUSH4 0x28F3FAC9 GT PUSH2 0x226 JUMPI DUP1 PUSH4 0x28F3FAC9 EQ PUSH2 0x3BE JUMPI DUP1 PUSH4 0x2CBC1660 EQ PUSH2 0x3EE JUMPI DUP1 PUSH4 0x2D2A9585 EQ PUSH2 0x40E JUMPI DUP1 PUSH4 0x343D9232 EQ PUSH2 0x421 JUMPI DUP1 PUSH4 0x35659FB8 EQ PUSH2 0x442 JUMPI PUSH1 0x0 DUP1 REVERT JUMPDEST DUP1 PUSH4 0x11B66B7 EQ PUSH2 0x263 JUMPI DUP1 PUSH4 0x8F3B429 EQ PUSH2 0x278 JUMPI DUP1 PUSH4 0xF394B61 EQ PUSH2 0x2B0 JUMPI DUP1 PUSH4 0x164E68DE EQ PUSH2 0x2C3 JUMPI DUP1 PUSH4 0x1BDD4B74 EQ PUSH2 0x2D6 JUMPI JUMPDEST PUSH1 0x0 DUP1 REVERT JUMPDEST PUSH2 0x276 PUSH2 0x271 CALLDATASIZE PUSH1 0x4 PUSH2 0x253F JUMP JUMPDEST PUSH2 0x87C JUMP JUMPDEST STOP JUMPDEST PUSH2 0x29B PUSH2 0x286 CALLDATASIZE PUSH1 0x4 PUSH2 0x253F JUMP JUMPDEST PUSH1 0x6 PUSH1 0x20 MSTORE PUSH1 0x0 SWAP1 DUP2 MSTORE PUSH1 0x40 SWAP1 KECCAK256 SLOAD PUSH1 0xFF AND DUP2 JUMP JUMPDEST PUSH1 0x40 MLOAD SWAP1 ISZERO ISZERO DUP2 MSTORE PUSH1 0x20 ADD JUMPDEST PUSH1 0x40 MLOAD DUP1 SWAP2 SUB SWAP1 RETURN JUMPDEST PUSH2 0x276 PUSH2 0x2BE CALLDATASIZE PUSH1 0x4 PUSH2 0x2574 JUMP JUMPDEST PUSH2 0x890 JUMP JUMPDEST PUSH2 0x276 PUSH2 0x2D1 CALLDATASIZE PUSH1 0x4 PUSH2 0x2574 JUMP JUMPDEST PUSH2 0x9A3 JUMP JUMPDEST PUSH2 0x3B1 PUSH2 0x2E4 CALLDATASIZE PUSH1 0x4 PUSH2 0x253F JUMP JUMPDEST PUSH1 0x40 DUP1 MLOAD PUSH2 0x100 DUP2 ADD DUP3 MSTORE PUSH1 0x0 DUP1 DUP3 MSTORE PUSH1 0x20 DUP3 ADD DUP2 SWAP1 MSTORE SWAP2 DUP2 ADD DUP3 SWAP1 MSTORE PUSH1 0x60 DUP2 ADD DUP3 SWAP1 MSTORE PUSH1 0x80 DUP2 ADD DUP3 SWAP1 MSTORE PUSH1 0xA0 DUP2 ADD DUP3 SWAP1 MSTORE PUSH1 0xC0 DUP2 ADD DUP3 SWAP1 MSTORE PUSH1 0xE0 DUP2 ADD SWAP2 SWAP1 SWAP2 MSTORE POP PUSH1 0x0 SWAP1 DUP2 MSTORE PUSH1 0xA PUSH1 0x20 SWAP1 DUP2 MSTORE PUSH1 0x40 SWAP2 DUP3 SWAP1 KECCAK256 DUP3 MLOAD PUSH2 0x100 DUP1 DUP3 ADD DUP6 MSTORE DUP3 SLOAD PUSH1 0x1 PUSH1 0x1 PUSH1 0xA0 SHL SUB SWAP1 DUP2 AND DUP4 MSTORE PUSH1 0x1 DUP5 ADD SLOAD DUP2 AND SWAP5 DUP4 ADD SWAP5 SWAP1 SWAP5 MSTORE PUSH1 0x2 DUP4 ADD SLOAD SWAP5 DUP3 ADD SWAP5 SWAP1 SWAP5 MSTORE PUSH1 0x3 DUP3 ADD SLOAD PUSH1 0xFF SWAP1 DUP2 AND PUSH1 0x60 DUP4 ADD MSTORE PUSH1 0x4 DUP4 ADD SLOAD PUSH1 0x80 DUP4 ADD MSTORE PUSH1 0x5 SWAP1 SWAP3 ADD SLOAD DUP1 DUP4 AND ISZERO ISZERO PUSH1 0xA0 DUP4 ADD MSTORE SWAP4 DUP5 DIV SWAP1 SWAP2 AND ISZERO ISZERO PUSH1 0xC0 DUP3 ADD MSTORE PUSH3 0x10000 SWAP1 SWAP3 DIV AND PUSH1 0xE0 DUP3 ADD MSTORE SWAP1 JUMP JUMPDEST PUSH1 0x40 MLOAD PUSH2 0x2A7 SWAP2 SWAP1 PUSH2 0x258F JUMP JUMPDEST PUSH2 0x3E1 PUSH2 0x3CC CALLDATASIZE PUSH1 0x4 PUSH2 0x2574 JUMP JUMPDEST PUSH1 0xF PUSH1 0x20 MSTORE PUSH1 0x0 SWAP1 DUP2 MSTORE PUSH1 0x40 SWAP1 KECCAK256 SLOAD PUSH1 0xFF AND DUP2 JUMP JUMPDEST PUSH1 0x40 MLOAD PUSH2 0x2A7 SWAP2 SWAP1 PUSH2 0x262A JUMP JUMPDEST PUSH2 0x401 PUSH2 0x3FC CALLDATASIZE PUSH1 0x4 PUSH2 0x2574 JUMP JUMPDEST PUSH2 0xB5A JUMP JUMPDEST PUSH1 0x40 MLOAD PUSH2 0x2A7 SWAP2 SWAP1 PUSH2 0x2698 JUMP JUMPDEST PUSH2 0x276 PUSH2 0x41C CALLDATASIZE PUSH1 0x4 PUSH2 0x26AB JUMP JUMPDEST PUSH2 0xBF4 JUMP JUMPDEST PUSH2 0x434 PUSH2 0x42F CALLDATASIZE PUSH1 0x4 PUSH2 0x253F JUMP JUMPDEST PUSH2 0xCFA JUMP JUMPDEST PUSH1 0x40 MLOAD SWAP1 DUP2 MSTORE PUSH1 0x20 ADD PUSH2 0x2A7 JUMP JUMPDEST PUSH2 0x434 PUSH1 0x2 SLOAD DUP2 JUMP JUMPDEST PUSH2 0x434 PUSH2 0x459 CALLDATASIZE PUSH1 0x4 PUSH2 0x2574 JUMP JUMPDEST PUSH1 0x13 PUSH1 0x20 MSTORE PUSH1 0x0 SWAP1 DUP2 MSTORE PUSH1 0x40 SWAP1 KECCAK256 SLOAD DUP2 JUMP JUMPDEST PUSH2 0x473 PUSH2 0xD1B JUMP JUMPDEST PUSH1 0x40 MLOAD PUSH2 0x2A7 SWAP2 SWAP1 PUSH2 0x2758 JUMP JUMPDEST PUSH2 0x434 PUSH1 0xC SLOAD DUP2 JUMP JUMPDEST PUSH2 0x276 PUSH2 0x497 CALLDATASIZE PUSH1 0x4 PUSH2 0x253F JUMP JUMPDEST PUSH2 0xD73 JUMP JUMPDEST PUSH2 0x434 PUSH1 0x3 SLOAD DUP2 JUMP JUMPDEST PUSH2 0x434 PUSH1 0x4 SLOAD DUP2 JUMP JUMPDEST PUSH2 0x4D5 PUSH32 0x0 DUP2 JUMP JUMPDEST PUSH1 0x40 MLOAD PUSH1 0x1 PUSH1 0x1 PUSH1 0xA0 SHL SUB SWAP1 SWAP2 AND DUP2 MSTORE PUSH1 0x20 ADD PUSH2 0x2A7 JUMP JUMPDEST PUSH2 0x29B PUSH2 0x4FB CALLDATASIZE PUSH1 0x4 PUSH2 0x2574 JUMP JUMPDEST PUSH1 0x10 PUSH1 0x20 MSTORE PUSH1 0x0 SWAP1 DUP2 MSTORE PUSH1 0x40 SWAP1 KECCAK256 SLOAD PUSH1 0xFF AND DUP2 JUMP JUMPDEST PUSH2 0x276 PUSH2 0xDD1 JUMP JUMPDEST PUSH2 0x276 PUSH2 0x526 CALLDATASIZE PUSH1 0x4 PUSH2 0x253F JUMP JUMPDEST PUSH2 0xDE5 JUMP JUMPDEST PUSH2 0x434 PUSH2 0x539 CALLDATASIZE PUSH1 0x4 PUSH2 0x2574 JUMP JUMPDEST PUSH1 0x11 PUSH1 0x20 MSTORE PUSH1 0x0 SWAP1 DUP2 MSTORE PUSH1 0x40 SWAP1 KECCAK256 SLOAD DUP2 JUMP JUMPDEST PUSH2 0x276 PUSH2 0x559 CALLDATASIZE PUSH1 0x4 PUSH2 0x253F JUMP JUMPDEST PUSH2 0xE33 JUMP JUMPDEST PUSH1 0x1 SLOAD PUSH1 0x1 PUSH1 0x1 PUSH1 0xA0 SHL SUB AND PUSH2 0x4D5 JUMP JUMPDEST PUSH2 0x5D9 PUSH2 0x57D CALLDATASIZE PUSH1 0x4 PUSH2 0x253F JUMP JUMPDEST PUSH1 0xA PUSH1 0x20 MSTORE PUSH1 0x0 SWAP1 DUP2 MSTORE PUSH1 0x40 SWAP1 KECCAK256 DUP1 SLOAD PUSH1 0x1 DUP3 ADD SLOAD PUSH1 0x2 DUP4 ADD SLOAD PUSH1 0x3 DUP5 ADD SLOAD PUSH1 0x4 DUP6 ADD SLOAD PUSH1 0x5 SWAP1 SWAP6 ADD SLOAD PUSH1 0x1 PUSH1 0x1 PUSH1 0xA0 SHL SUB SWAP5 DUP6 AND SWAP6 SWAP4 DUP6 AND SWAP5 SWAP3 SWAP4 PUSH1 0xFF SWAP3 DUP4 AND SWAP4 SWAP1 SWAP3 DUP3 DUP2 AND SWAP3 PUSH2 0x100 DUP2 DIV SWAP1 SWAP2 AND SWAP2 PUSH3 0x10000 SWAP1 SWAP2 DIV AND DUP9 JUMP JUMPDEST PUSH1 0x40 DUP1 MLOAD PUSH1 0x1 PUSH1 0x1 PUSH1 0xA0 SHL SUB SWAP10 DUP11 AND DUP2 MSTORE SWAP8 DUP10 AND PUSH1 0x20 DUP10 ADD MSTORE DUP8 ADD SWAP6 SWAP1 SWAP6 MSTORE PUSH1 0xFF SWAP1 SWAP4 AND PUSH1 0x60 DUP7 ADD MSTORE PUSH1 0x80 DUP6 ADD SWAP2 SWAP1 SWAP2 MSTORE ISZERO ISZERO PUSH1 0xA0 DUP5 ADD MSTORE ISZERO ISZERO PUSH1 0xC0 DUP4 ADD MSTORE SWAP2 SWAP1 SWAP2 AND PUSH1 0xE0 DUP3 ADD MSTORE PUSH2 0x100 ADD PUSH2 0x2A7 JUMP JUMPDEST PUSH2 0x276 PUSH2 0x638 CALLDATASIZE PUSH1 0x4 PUSH2 0x253F JUMP JUMPDEST PUSH2 0xF9E JUMP JUMPDEST PUSH2 0x276 PUSH2 0x64B CALLDATASIZE PUSH1 0x4 PUSH2 0x253F JUMP JUMPDEST PUSH2 0x1014 JUMP JUMPDEST PUSH2 0x276 PUSH2 0x65E CALLDATASIZE PUSH1 0x4 PUSH2 0x276B JUMP JUMPDEST PUSH2 0x1172 JUMP JUMPDEST PUSH2 0x29B PUSH2 0x671 CALLDATASIZE PUSH1 0x4 PUSH2 0x2574 JUMP JUMPDEST PUSH1 0xD PUSH1 0x20 MSTORE PUSH1 0x0 SWAP1 DUP2 MSTORE PUSH1 0x40 SWAP1 KECCAK256 SLOAD PUSH1 0xFF AND DUP2 JUMP JUMPDEST PUSH2 0x434 PUSH2 0x694 CALLDATASIZE PUSH1 0x4 PUSH2 0x27B8 JUMP JUMPDEST PUSH2 0x11A5 JUMP JUMPDEST PUSH2 0x6A1 PUSH2 0x153C JUMP JUMPDEST PUSH1 0x40 MLOAD PUSH2 0x2A7 SWAP4 SWAP3 SWAP2 SWAP1 PUSH2 0x27F4 JUMP JUMPDEST PUSH2 0x29B PUSH2 0x6BE CALLDATASIZE PUSH1 0x4 PUSH2 0x2574 JUMP JUMPDEST PUSH2 0x173D JUMP JUMPDEST PUSH2 0x70D PUSH2 0x6D1 CALLDATASIZE PUSH1 0x4 PUSH2 0x253F JUMP JUMPDEST PUSH1 0x0 SWAP1 DUP2 MSTORE PUSH1 0x7 PUSH1 0x20 SWAP1 DUP2 MSTORE PUSH1 0x40 DUP1 DUP4 KECCAK256 SLOAD PUSH1 0x8 DUP4 MSTORE DUP2 DUP5 KECCAK256 SLOAD PUSH1 0x9 SWAP1 SWAP4 MSTORE SWAP3 KECCAK256 SLOAD PUSH1 0x1 PUSH1 0x1 PUSH1 0xA0 SHL SUB SWAP1 SWAP3 AND DUP1 ISZERO ISZERO SWAP4 SWAP1 SWAP3 PUSH1 0xFF SWAP1 SWAP3 AND SWAP2 SWAP1 JUMP JUMPDEST PUSH1 0x40 DUP1 MLOAD SWAP5 ISZERO ISZERO DUP6 MSTORE PUSH1 0x1 PUSH1 0x1 PUSH1 0xA0 SHL SUB SWAP1 SWAP4 AND PUSH1 0x20 DUP6 ADD MSTORE PUSH1 0xFF SWAP1 SWAP2 AND SWAP2 DUP4 ADD SWAP2 SWAP1 SWAP2 MSTORE PUSH1 0x60 DUP3 ADD MSTORE PUSH1 0x80 ADD PUSH2 0x2A7 JUMP JUMPDEST PUSH2 0x752 PUSH2 0x74D CALLDATASIZE PUSH1 0x4 PUSH2 0x2574 JUMP JUMPDEST PUSH2 0x1775 JUMP JUMPDEST PUSH1 0x40 MLOAD PUSH2 0x2A7 SWAP5 SWAP4 SWAP3 SWAP2 SWAP1 PUSH2 0x288E JUMP JUMPDEST PUSH2 0x775 PUSH2 0x770 CALLDATASIZE PUSH1 0x4 PUSH2 0x28BD JUMP JUMPDEST PUSH2 0x184F JUMP JUMPDEST PUSH1 0x40 DUP1 MLOAD SWAP4 ISZERO ISZERO DUP5 MSTORE PUSH1 0x1 PUSH1 0x1 PUSH1 0xA0 SHL SUB SWAP3 DUP4 AND PUSH1 0x20 DUP6 ADD MSTORE SWAP2 AND SWAP1 DUP3 ADD MSTORE PUSH1 0x60 ADD PUSH2 0x2A7 JUMP JUMPDEST PUSH2 0x276 PUSH2 0x7AA CALLDATASIZE PUSH1 0x4 PUSH2 0x253F JUMP JUMPDEST PUSH2 0x1A64 JUMP JUMPDEST PUSH2 0x4D5 PUSH2 0x7BD CALLDATASIZE PUSH1 0x4 PUSH2 0x253F JUMP JUMPDEST PUSH1 0x7 PUSH1 0x20 MSTORE PUSH1 0x0 SWAP1 DUP2 MSTORE PUSH1 0x40 SWAP1 KECCAK256 SLOAD PUSH1 0x1 PUSH1 0x1 PUSH1 0xA0 SHL SUB AND DUP2 JUMP JUMPDEST PUSH2 0x434 PUSH2 0x7E6 CALLDATASIZE PUSH1 0x4 PUSH2 0x2574 JUMP JUMPDEST PUSH1 0x12 PUSH1 0x20 MSTORE PUSH1 0x0 SWAP1 DUP2 MSTORE PUSH1 0x40 SWAP1 KECCAK256 SLOAD DUP2 JUMP JUMPDEST PUSH2 0x276 PUSH2 0x806 CALLDATASIZE PUSH1 0x4 PUSH2 0x28BD JUMP JUMPDEST PUSH2 0x1B6E JUMP JUMPDEST PUSH2 0x82E PUSH2 0x819 CALLDATASIZE PUSH1 0x4 PUSH2 0x253F JUMP JUMPDEST PUSH1 0x8 PUSH1 0x20 MSTORE PUSH1 0x0 SWAP1 DUP2 MSTORE PUSH1 0x40 SWAP1 KECCAK256 SLOAD PUSH1 0xFF AND DUP2 JUMP JUMPDEST PUSH1 0x40 MLOAD PUSH1 0xFF SWAP1 SWAP2 AND DUP2 MSTORE PUSH1 0x20 ADD PUSH2 0x2A7 JUMP JUMPDEST PUSH2 0x434 PUSH2 0x84E CALLDATASIZE PUSH1 0x4 PUSH2 0x253F JUMP JUMPDEST PUSH1 0x9 PUSH1 0x20 MSTORE PUSH1 0x0 SWAP1 DUP2 MSTORE PUSH1 0x40 SWAP1 KECCAK256 SLOAD DUP2 JUMP JUMPDEST PUSH2 0x276 PUSH2 0x86E CALLDATASIZE PUSH1 0x4 PUSH2 0x2574 JUMP JUMPDEST PUSH2 0x2015 JUMP JUMPDEST PUSH2 0x434 PUSH1 0xB SLOAD DUP2 JUMP JUMPDEST PUSH2 0x884 PUSH2 0x2050 JUMP JUMPDEST PUSH2 0x88D DUP2 PUSH2 0x207D JUMP JUMPDEST POP JUMP JUMPDEST CALLER PUSH1 0x0 SWAP1 DUP2 MSTORE PUSH1 0x10 PUSH1 0x20 MSTORE PUSH1 0x40 SWAP1 KECCAK256 SLOAD PUSH1 0xFF AND PUSH2 0x8E5 JUMPI PUSH1 0x40 MLOAD PUSH3 0x461BCD PUSH1 0xE5 SHL DUP2 MSTORE PUSH1 0x20 PUSH1 0x4 DUP3 ADD MSTORE PUSH1 0xE PUSH1 0x24 DUP3 ADD MSTORE PUSH14 0x2737BA1030903B32B934B334B2B9 PUSH1 0x91 SHL PUSH1 0x44 DUP3 ADD MSTORE PUSH1 0x64 ADD JUMPDEST PUSH1 0x40 MLOAD DUP1 SWAP2 SUB SWAP1 REVERT JUMPDEST PUSH1 0x1 PUSH1 0x1 PUSH1 0x1 PUSH1 0xA0 SHL SUB DUP3 AND PUSH1 0x0 SWAP1 DUP2 MSTORE PUSH1 0xF PUSH1 0x20 MSTORE PUSH1 0x40 SWAP1 KECCAK256 SLOAD PUSH1 0xFF AND PUSH1 0x2 DUP2 GT ISZERO PUSH2 0x914 JUMPI PUSH2 0x914 PUSH2 0x2614 JUMP JUMPDEST EQ PUSH2 0x955 JUMPI PUSH1 0x40 MLOAD PUSH3 0x461BCD PUSH1 0xE5 SHL DUP2 MSTORE PUSH1 0x20 PUSH1 0x4 DUP3 ADD MSTORE PUSH1 0x11 PUSH1 0x24 DUP3 ADD MSTORE PUSH17 0x4167656E74206E6F742070656E64696E67 PUSH1 0x78 SHL PUSH1 0x44 DUP3 ADD MSTORE PUSH1 0x64 ADD PUSH2 0x8DC JUMP JUMPDEST PUSH1 0x1 PUSH1 0x1 PUSH1 0xA0 SHL SUB DUP2 AND PUSH1 0x0 DUP2 DUP2 MSTORE PUSH1 0xF PUSH1 0x20 MSTORE PUSH1 0x40 DUP1 DUP3 KECCAK256 DUP1 SLOAD PUSH1 0xFF NOT AND PUSH1 0x2 OR SWAP1 SSTORE MLOAD CALLER SWAP3 SWAP2 PUSH32 0x7F5835461DBF886F27DE41A9ADF55100F10E6974A3FC4A867DED38B50DAF358D SWAP2 LOG3 POP JUMP JUMPDEST PUSH2 0x9AB PUSH2 0x2050 JUMP JUMPDEST PUSH1 0x40 MLOAD PUSH4 0x70A08231 PUSH1 0xE0 SHL DUP2 MSTORE ADDRESS PUSH1 0x4 DUP3 ADD MSTORE PUSH1 0x0 SWAP1 PUSH32 0x0 PUSH1 0x1 PUSH1 0x1 PUSH1 0xA0 SHL SUB AND SWAP1 PUSH4 0x70A08231 SWAP1 PUSH1 0x24 ADD PUSH1 0x20 PUSH1 0x40 MLOAD DUP1 DUP4 SUB DUP2 DUP7 GAS STATICCALL ISZERO DUP1 ISZERO PUSH2 0xA12 JUMPI RETURNDATASIZE PUSH1 0x0 DUP1 RETURNDATACOPY RETURNDATASIZE PUSH1 0x0 REVERT JUMPDEST POP POP POP POP PUSH1 0x40 MLOAD RETURNDATASIZE PUSH1 0x1F NOT PUSH1 0x1F DUP3 ADD AND DUP3 ADD DUP1 PUSH1 0x40 MSTORE POP DUP2 ADD SWAP1 PUSH2 0xA36 SWAP2 SWAP1 PUSH2 0x28E9 JUMP JUMPDEST SWAP1 POP PUSH1 0x0 DUP1 JUMPDEST PUSH1 0x5 SLOAD DUP2 LT ISZERO PUSH2 0xAD0 JUMPI PUSH1 0x0 PUSH1 0x1 PUSH1 0x1 PUSH1 0xA0 SHL SUB AND PUSH1 0x7 PUSH1 0x0 PUSH1 0x5 DUP5 DUP2 SLOAD DUP2 LT PUSH2 0xA68 JUMPI PUSH2 0xA68 PUSH2 0x2902 JUMP JUMPDEST PUSH1 0x0 SWAP2 DUP3 MSTORE PUSH1 0x20 DUP1 DUP4 KECCAK256 SWAP1 SWAP2 ADD SLOAD DUP4 MSTORE DUP3 ADD SWAP3 SWAP1 SWAP3 MSTORE PUSH1 0x40 ADD SWAP1 KECCAK256 SLOAD PUSH1 0x1 PUSH1 0x1 PUSH1 0xA0 SHL SUB AND EQ PUSH2 0xABE JUMPI PUSH1 0x5 DUP2 DUP2 SLOAD DUP2 LT PUSH2 0xAA5 JUMPI PUSH2 0xAA5 PUSH2 0x2902 JUMP JUMPDEST SWAP1 PUSH1 0x0 MSTORE PUSH1 0x20 PUSH1 0x0 KECCAK256 ADD SLOAD DUP3 PUSH2 0xABB SWAP2 SWAP1 PUSH2 0x292E JUMP JUMPDEST SWAP2 POP JUMPDEST DUP1 PUSH2 0xAC8 DUP2 PUSH2 0x2947 JUMP JUMPDEST SWAP2 POP POP PUSH2 0xA3C JUMP JUMPDEST POP DUP1 DUP3 GT PUSH2 0xB16 JUMPI PUSH1 0x40 MLOAD PUSH3 0x461BCD PUSH1 0xE5 SHL DUP2 MSTORE PUSH1 0x20 PUSH1 0x4 DUP3 ADD MSTORE PUSH1 0x13 PUSH1 0x24 DUP3 ADD MSTORE PUSH19 0x4E6F206665657320746F207769746864726177 PUSH1 0x68 SHL PUSH1 0x44 DUP3 ADD MSTORE PUSH1 0x64 ADD PUSH2 0x8DC JUMP JUMPDEST PUSH2 0xB55 DUP4 PUSH2 0xB24 DUP4 DUP6 PUSH2 0x2960 JUMP JUMPDEST PUSH1 0x1 PUSH1 0x1 PUSH1 0xA0 SHL SUB PUSH32 0x0 AND SWAP2 SWAP1 PUSH2 0x20E0 JUMP JUMPDEST POP POP POP JUMP JUMPDEST PUSH1 0xE PUSH1 0x20 MSTORE PUSH1 0x0 SWAP1 DUP2 MSTORE PUSH1 0x40 SWAP1 KECCAK256 DUP1 SLOAD PUSH2 0xB73 SWAP1 PUSH2 0x2973 JUMP JUMPDEST DUP1 PUSH1 0x1F ADD PUSH1 0x20 DUP1 SWAP2 DIV MUL PUSH1 0x20 ADD PUSH1 0x40 MLOAD SWAP1 DUP2 ADD PUSH1 0x40 MSTORE DUP1 SWAP3 SWAP2 SWAP1 DUP2 DUP2 MSTORE PUSH1 0x20 ADD DUP3 DUP1 SLOAD PUSH2 0xB9F SWAP1 PUSH2 0x2973 JUMP JUMPDEST DUP1 ISZERO PUSH2 0xBEC JUMPI DUP1 PUSH1 0x1F LT PUSH2 0xBC1 JUMPI PUSH2 0x100 DUP1 DUP4 SLOAD DIV MUL DUP4 MSTORE SWAP2 PUSH1 0x20 ADD SWAP2 PUSH2 0xBEC JUMP JUMPDEST DUP3 ADD SWAP2 SWAP1 PUSH1 0x0 MSTORE PUSH1 0x20 PUSH1 0x0 KECCAK256 SWAP1 JUMPDEST DUP2 SLOAD DUP2 MSTORE SWAP1 PUSH1 0x1 ADD SWAP1 PUSH1 0x20 ADD DUP1 DUP4 GT PUSH2 0xBCF JUMPI DUP3 SWAP1 SUB PUSH1 0x1F AND DUP3 ADD SWAP2 JUMPDEST POP POP POP POP POP DUP2 JUMP JUMPDEST DUP1 ISZERO DUP1 ISZERO SWAP1 PUSH2 0xC04 JUMPI POP PUSH1 0x20 DUP2 GT ISZERO JUMPDEST PUSH2 0xC3F JUMPI PUSH1 0x40 MLOAD PUSH3 0x461BCD PUSH1 0xE5 SHL DUP2 MSTORE PUSH1 0x20 PUSH1 0x4 DUP3 ADD MSTORE PUSH1 0xC PUSH1 0x24 DUP3 ADD MSTORE PUSH12 0x496E76616C6964206E616D65 PUSH1 0xA0 SHL PUSH1 0x44 DUP3 ADD MSTORE PUSH1 0x64 ADD PUSH2 0x8DC JUMP JUMPDEST CALLER PUSH1 0x0 SWAP1 DUP2 MSTORE PUSH1 0xD PUSH1 0x20 SWAP1 DUP2 MSTORE PUSH1 0x40 DUP1 DUP4 KECCAK256 DUP1 SLOAD PUSH1 0xFF NOT AND PUSH1 0x1 OR SWAP1 SSTORE PUSH1 0xE SWAP1 SWAP2 MSTORE SWAP1 KECCAK256 PUSH2 0xC6E DUP3 DUP5 DUP4 PUSH2 0x2A11 JUMP JUMPDEST POP CALLER PUSH1 0x0 SWAP1 DUP2 MSTORE PUSH1 0xF PUSH1 0x20 MSTORE PUSH1 0x40 DUP2 KECCAK256 SLOAD PUSH1 0xFF AND PUSH1 0x2 DUP2 GT ISZERO PUSH2 0xC93 JUMPI PUSH2 0xC93 PUSH2 0x2614 JUMP JUMPDEST SUB PUSH2 0xCB3 JUMPI CALLER PUSH1 0x0 SWAP1 DUP2 MSTORE PUSH1 0xF PUSH1 0x20 MSTORE PUSH1 0x40 SWAP1 KECCAK256 DUP1 SLOAD PUSH1 0xFF NOT AND PUSH1 0x1 OR SWAP1 SSTORE JUMPDEST CALLER PUSH1 0x1 PUSH1 0x1 PUSH1 0xA0 SHL SUB AND PUSH32 0x45127B38457C2F5C381CAD14D94B51D80A7700DFB7A910A1D816FEE3D3E10591 DUP4 DUP4 PUSH1 0x40 MLOAD PUSH2 0xCEE SWAP3 SWAP2 SWAP1 PUSH2 0x2AD2 JUMP JUMPDEST PUSH1 0x40 MLOAD DUP1 SWAP2 SUB SWAP1 LOG2 POP POP JUMP JUMPDEST PUSH1 0x5 DUP2 DUP2 SLOAD DUP2 LT PUSH2 0xD0A JUMPI PUSH1 0x0 DUP1 REVERT JUMPDEST PUSH1 0x0 SWAP2 DUP3 MSTORE PUSH1 0x20 SWAP1 SWAP2 KECCAK256 ADD SLOAD SWAP1 POP DUP2 JUMP JUMPDEST PUSH1 0x60 PUSH1 0x5 DUP1 SLOAD DUP1 PUSH1 0x20 MUL PUSH1 0x20 ADD PUSH1 0x40 MLOAD SWAP1 DUP2 ADD PUSH1 0x40 MSTORE DUP1 SWAP3 SWAP2 SWAP1 DUP2 DUP2 MSTORE PUSH1 0x20 ADD DUP3 DUP1 SLOAD DUP1 ISZERO PUSH2 0xD69 JUMPI PUSH1 0x20 MUL DUP3 ADD SWAP2 SWAP1 PUSH1 0x0 MSTORE PUSH1 0x20 PUSH1 0x0 KECCAK256 SWAP1 JUMPDEST DUP2 SLOAD DUP2 MSTORE PUSH1 0x20 ADD SWAP1 PUSH1 0x1 ADD SWAP1 DUP1 DUP4 GT PUSH2 0xD55 JUMPI JUMPDEST POP POP POP POP POP SWAP1 POP SWAP1 JUMP JUMPDEST PUSH2 0xD7B PUSH2 0x2050 JUMP JUMPDEST PUSH1 0x3C DUP2 LT ISZERO DUP1 ISZERO PUSH2 0xD8E JUMPI POP PUSH2 0xE10 DUP2 GT ISZERO JUMPDEST PUSH2 0xDCC JUMPI PUSH1 0x40 MLOAD PUSH3 0x461BCD PUSH1 0xE5 SHL DUP2 MSTORE PUSH1 0x20 PUSH1 0x4 DUP3 ADD MSTORE PUSH1 0xF PUSH1 0x24 DUP3 ADD MSTORE PUSH15 0x125B9D985B1A59081D1A5B595BDD5D PUSH1 0x8A SHL PUSH1 0x44 DUP3 ADD MSTORE PUSH1 0x64 ADD PUSH2 0x8DC JUMP JUMPDEST PUSH1 0xC SSTORE JUMP JUMPDEST PUSH2 0xDD9 PUSH2 0x2050 JUMP JUMPDEST PUSH2 0xDE3 PUSH1 0x0 PUSH2 0x213F JUMP JUMPDEST JUMP JUMPDEST PUSH2 0xDED PUSH2 0x2050 JUMP JUMPDEST PUSH2 0x1F4 DUP2 GT ISZERO PUSH2 0xE2E JUMPI PUSH1 0x40 MLOAD PUSH3 0x461BCD PUSH1 0xE5 SHL DUP2 MSTORE PUSH1 0x20 PUSH1 0x4 DUP3 ADD MSTORE PUSH1 0xC PUSH1 0x24 DUP3 ADD MSTORE PUSH12 0x8CCACA40E8DEDE40D0D2CED PUSH1 0xA3 SHL PUSH1 0x44 DUP3 ADD MSTORE PUSH1 0x64 ADD PUSH2 0x8DC JUMP JUMPDEST PUSH1 0x2 SSTORE JUMP JUMPDEST PUSH2 0xE3B PUSH2 0x2191 JUMP JUMPDEST PUSH1 0x0 DUP2 DUP2 MSTORE PUSH1 0x7 PUSH1 0x20 MSTORE PUSH1 0x40 SWAP1 KECCAK256 SLOAD PUSH1 0x1 PUSH1 0x1 PUSH1 0xA0 SHL SUB AND DUP1 PUSH2 0xE8D JUMPI PUSH1 0x40 MLOAD PUSH3 0x461BCD PUSH1 0xE5 SHL DUP2 MSTORE PUSH1 0x20 PUSH1 0x4 DUP3 ADD MSTORE PUSH1 0xA PUSH1 0x24 DUP3 ADD MSTORE PUSH10 0x506F6F6C20656D707479 PUSH1 0xB0 SHL PUSH1 0x44 DUP3 ADD MSTORE PUSH1 0x64 ADD PUSH2 0x8DC JUMP JUMPDEST PUSH1 0x0 DUP3 DUP2 MSTORE PUSH1 0x9 PUSH1 0x20 MSTORE PUSH1 0x40 SWAP1 KECCAK256 SLOAD PUSH2 0xEA8 SWAP1 PUSH2 0xE10 PUSH2 0x292E JUMP JUMPDEST TIMESTAMP GT PUSH2 0xEE6 JUMPI PUSH1 0x40 MLOAD PUSH3 0x461BCD PUSH1 0xE5 SHL DUP2 MSTORE PUSH1 0x20 PUSH1 0x4 DUP3 ADD MSTORE PUSH1 0xD PUSH1 0x24 DUP3 ADD MSTORE PUSH13 0x139BDD081CDD185B19481E595D PUSH1 0x9A SHL PUSH1 0x44 DUP3 ADD MSTORE PUSH1 0x64 ADD PUSH2 0x8DC JUMP JUMPDEST PUSH1 0x0 DUP3 DUP2 MSTORE PUSH1 0x7 PUSH1 0x20 SWAP1 DUP2 MSTORE PUSH1 0x40 DUP1 DUP4 KECCAK256 DUP1 SLOAD PUSH1 0x1 PUSH1 0x1 PUSH1 0xA0 SHL SUB NOT AND SWAP1 SSTORE PUSH1 0x8 DUP3 MSTORE DUP1 DUP4 KECCAK256 DUP1 SLOAD PUSH1 0xFF NOT AND SWAP1 SSTORE PUSH1 0x9 SWAP1 SWAP2 MSTORE DUP2 KECCAK256 SSTORE PUSH2 0xF50 PUSH32 0x0 PUSH1 0x1 PUSH1 0x1 PUSH1 0xA0 SHL SUB AND DUP3 DUP5 PUSH2 0x20E0 JUMP JUMPDEST DUP1 PUSH1 0x1 PUSH1 0x1 PUSH1 0xA0 SHL SUB AND PUSH32 0xBC865856A1E9F1DFE2ABDE98EDC2EEFE87B6C391A47032388EF36D8C2474AAD3 DUP4 PUSH1 0x40 MLOAD PUSH2 0xF8B SWAP2 DUP2 MSTORE PUSH1 0x20 ADD SWAP1 JUMP JUMPDEST PUSH1 0x40 MLOAD DUP1 SWAP2 SUB SWAP1 LOG2 POP PUSH2 0x88D PUSH1 0x1 PUSH1 0x0 SSTORE JUMP JUMPDEST PUSH2 0xFA6 PUSH2 0x2050 JUMP JUMPDEST PUSH1 0x0 DUP2 DUP2 MSTORE PUSH1 0x7 PUSH1 0x20 MSTORE PUSH1 0x40 SWAP1 KECCAK256 SLOAD PUSH1 0x1 PUSH1 0x1 PUSH1 0xA0 SHL SUB AND ISZERO PUSH2 0xFFC JUMPI PUSH1 0x40 MLOAD PUSH3 0x461BCD PUSH1 0xE5 SHL DUP2 MSTORE PUSH1 0x20 PUSH1 0x4 DUP3 ADD MSTORE PUSH1 0xE PUSH1 0x24 DUP3 ADD MSTORE PUSH14 0x506F6F6C206E6F7420656D707479 PUSH1 0x90 SHL PUSH1 0x44 DUP3 ADD MSTORE PUSH1 0x64 ADD PUSH2 0x8DC JUMP JUMPDEST PUSH1 0x0 SWAP1 DUP2 MSTORE PUSH1 0x6 PUSH1 0x20 MSTORE PUSH1 0x40 SWAP1 KECCAK256 DUP1 SLOAD PUSH1 0xFF NOT AND SWAP1 SSTORE JUMP JUMPDEST PUSH2 0x101C PUSH2 0x2191 JUMP JUMPDEST PUSH1 0x0 DUP2 DUP2 MSTORE PUSH1 0xA PUSH1 0x20 MSTORE PUSH1 0x40 SWAP1 KECCAK256 DUP1 SLOAD PUSH1 0x1 PUSH1 0x1 PUSH1 0xA0 SHL SUB AND CALLER EQ DUP1 PUSH2 0x1052 JUMPI POP PUSH1 0xC SLOAD DUP2 PUSH1 0x4 ADD SLOAD PUSH2 0x104F SWAP2 SWAP1 PUSH2 0x292E JUMP JUMPDEST TIMESTAMP GT JUMPDEST PUSH2 0x108E JUMPI PUSH1 0x40 MLOAD PUSH3 0x461BCD PUSH1 0xE5 SHL DUP2 MSTORE PUSH1 0x20 PUSH1 0x4 DUP3 ADD MSTORE PUSH1 0xD PUSH1 0x24 DUP3 ADD MSTORE PUSH13 0x10D85B9B9BDD0818D85B98D95B PUSH1 0x9A SHL PUSH1 0x44 DUP3 ADD MSTORE PUSH1 0x64 ADD PUSH2 0x8DC JUMP JUMPDEST PUSH1 0x5 DUP2 ADD SLOAD PUSH1 0xFF AND ISZERO DUP1 ISZERO PUSH2 0x10AD JUMPI POP PUSH1 0x5 DUP2 ADD SLOAD PUSH2 0x100 SWAP1 DIV PUSH1 0xFF AND ISZERO JUMPDEST PUSH2 0x10EB JUMPI PUSH1 0x40 MLOAD PUSH3 0x461BCD PUSH1 0xE5 SHL DUP2 MSTORE PUSH1 0x20 PUSH1 0x4 DUP3 ADD MSTORE PUSH1 0xF PUSH1 0x24 DUP3 ADD MSTORE PUSH15 0x105B1C9958591E481A185B991B1959 PUSH1 0x8A SHL PUSH1 0x44 DUP3 ADD MSTORE PUSH1 0x64 ADD PUSH2 0x8DC JUMP JUMPDEST PUSH1 0x5 DUP2 ADD DUP1 SLOAD PUSH2 0xFF00 NOT AND PUSH2 0x100 OR SWAP1 SSTORE DUP1 SLOAD PUSH1 0x2 DUP3 ADD SLOAD PUSH2 0x113C SWAP2 PUSH32 0x0 PUSH1 0x1 PUSH1 0x1 PUSH1 0xA0 SHL SUB SWAP1 DUP2 AND SWAP3 SWAP2 AND SWAP1 PUSH2 0x20E0 JUMP JUMPDEST PUSH1 0x40 MLOAD DUP3 SWAP1 PUSH32 0x8F468517950218B9C61AC630652209BE7AEDA4DE4F6EDA5E0D4B106D784FA4E9 SWAP1 PUSH1 0x0 SWAP1 LOG2 POP PUSH2 0x88D PUSH1 0x1 PUSH1 0x0 SSTORE JUMP JUMPDEST PUSH2 0x117A PUSH2 0x2050 JUMP JUMPDEST PUSH1 0x1 PUSH1 0x1 PUSH1 0xA0 SHL SUB SWAP2 SWAP1 SWAP2 AND PUSH1 0x0 SWAP1 DUP2 MSTORE PUSH1 0x10 PUSH1 0x20 MSTORE PUSH1 0x40 SWAP1 KECCAK256 DUP1 SLOAD PUSH1 0xFF NOT AND SWAP2 ISZERO ISZERO SWAP2 SWAP1 SWAP2 OR SWAP1 SSTORE JUMP JUMPDEST CALLER PUSH1 0x0 SWAP1 DUP2 MSTORE PUSH1 0xD PUSH1 0x20 MSTORE PUSH1 0x40 DUP2 KECCAK256 SLOAD PUSH1 0xFF AND PUSH2 0x11D4 JUMPI PUSH1 0x40 MLOAD PUSH3 0x461BCD PUSH1 0xE5 SHL DUP2 MSTORE PUSH1 0x4 ADD PUSH2 0x8DC SWAP1 PUSH2 0x2B01 JUMP JUMPDEST PUSH2 0x11DC PUSH2 0x2191 JUMP JUMPDEST PUSH1 0x1 PUSH1 0x1 PUSH1 0xA0 SHL SUB DUP5 AND ISZERO DUP1 ISZERO SWAP1 PUSH2 0x11FD JUMPI POP PUSH1 0x1 PUSH1 0x1 PUSH1 0xA0 SHL SUB DUP5 AND CALLER EQ ISZERO JUMPDEST PUSH2 0x123C JUMPI PUSH1 0x40 MLOAD PUSH3 0x461BCD PUSH1 0xE5 SHL DUP2 MSTORE PUSH1 0x20 PUSH1 0x4 DUP3 ADD MSTORE PUSH1 0x10 PUSH1 0x24 DUP3 ADD MSTORE PUSH16 0x125B9D985B1A59081BDC1C1BDB995B9D PUSH1 0x82 SHL PUSH1 0x44 DUP3 ADD MSTORE PUSH1 0x64 ADD PUSH2 0x8DC JUMP JUMPDEST PUSH1 0x1 PUSH1 0x1 PUSH1 0xA0 SHL SUB DUP5 AND PUSH1 0x0 SWAP1 DUP2 MSTORE PUSH1 0xD PUSH1 0x20 MSTORE PUSH1 0x40 SWAP1 KECCAK256 SLOAD PUSH1 0xFF AND PUSH2 0x129C JUMPI PUSH1 0x40 MLOAD PUSH3 0x461BCD PUSH1 0xE5 SHL DUP2 MSTORE PUSH1 0x20 PUSH1 0x4 DUP3 ADD MSTORE PUSH1 0x15 PUSH1 0x24 DUP3 ADD MSTORE PUSH21 0x13DC1C1BDB995B9D081B9BDD081D995C9A599A5959 PUSH1 0x5A SHL PUSH1 0x44 DUP3 ADD MSTORE PUSH1 0x64 ADD PUSH2 0x8DC JUMP JUMPDEST PUSH8 0xDE0B6B3A7640000 DUP4 LT ISZERO DUP1 ISZERO PUSH2 0x12BE JUMPI POP PUSH10 0x21E19E0C9BAB2400000 DUP4 GT ISZERO JUMPDEST PUSH2 0x12FD JUMPI PUSH1 0x40 MLOAD PUSH3 0x461BCD PUSH1 0xE5 SHL DUP2 MSTORE PUSH1 0x20 PUSH1 0x4 DUP3 ADD MSTORE PUSH1 0x10 PUSH1 0x24 DUP3 ADD MSTORE PUSH16 0x426574206F7574206F662072616E6765 PUSH1 0x80 SHL PUSH1 0x44 DUP3 ADD MSTORE PUSH1 0x64 ADD PUSH2 0x8DC JUMP JUMPDEST PUSH1 0x1 DUP3 PUSH1 0xFF AND GT ISZERO PUSH2 0x1321 JUMPI PUSH1 0x40 MLOAD PUSH3 0x461BCD PUSH1 0xE5 SHL DUP2 MSTORE PUSH1 0x4 ADD PUSH2 0x8DC SWAP1 PUSH2 0x2B2F JUMP JUMPDEST PUSH2 0x1356 PUSH1 0x1 PUSH1 0x1 PUSH1 0xA0 SHL SUB PUSH32 0x0 AND CALLER ADDRESS DUP7 PUSH2 0x21BB JUMP JUMPDEST PUSH1 0xB DUP1 SLOAD SWAP1 PUSH1 0x0 PUSH2 0x1366 DUP4 PUSH2 0x2947 JUMP JUMPDEST SWAP2 SWAP1 POP SSTORE SWAP1 POP PUSH1 0x40 MLOAD DUP1 PUSH2 0x100 ADD PUSH1 0x40 MSTORE DUP1 CALLER PUSH1 0x1 PUSH1 0x1 PUSH1 0xA0 SHL SUB AND DUP2 MSTORE PUSH1 0x20 ADD DUP6 PUSH1 0x1 PUSH1 0x1 PUSH1 0xA0 SHL SUB AND DUP2 MSTORE PUSH1 0x20 ADD DUP5 DUP2 MSTORE PUSH1 0x20 ADD DUP4 PUSH1 0xFF AND DUP2 MSTORE PUSH1 0x20 ADD TIMESTAMP DUP2 MSTORE PUSH1 0x20 ADD PUSH1 0x0 ISZERO ISZERO DUP2 MSTORE PUSH1 0x20 ADD PUSH1 0x0 ISZERO ISZERO DUP2 MSTORE PUSH1 0x20 ADD PUSH1 0x0 PUSH1 0x1 PUSH1 0x1 PUSH1 0xA0 SHL SUB AND DUP2 MSTORE POP PUSH1 0xA PUSH1 0x0 DUP4 DUP2 MSTORE PUSH1 0x20 ADD SWAP1 DUP2 MSTORE PUSH1 0x20 ADD PUSH1 0x0 KECCAK256 PUSH1 0x0 DUP3 ADD MLOAD DUP2 PUSH1 0x0 ADD PUSH1 0x0 PUSH2 0x100 EXP DUP2 SLOAD DUP2 PUSH1 0x1 PUSH1 0x1 PUSH1 0xA0 SHL SUB MUL NOT AND SWAP1 DUP4 PUSH1 0x1 PUSH1 0x1 PUSH1 0xA0 SHL SUB AND MUL OR SWAP1 SSTORE POP PUSH1 0x20 DUP3 ADD MLOAD DUP2 PUSH1 0x1 ADD PUSH1 0x0 PUSH2 0x100 EXP DUP2 SLOAD DUP2 PUSH1 0x1 PUSH1 0x1 PUSH1 0xA0 SHL SUB MUL NOT AND SWAP1 DUP4 PUSH1 0x1 PUSH1 0x1 PUSH1 0xA0 SHL SUB AND MUL OR SWAP1 SSTORE POP PUSH1 0x40 DUP3 ADD MLOAD DUP2 PUSH1 0x2 ADD SSTORE PUSH1 0x60 DUP3 ADD MLOAD DUP2 PUSH1 0x3 ADD PUSH1 0x0 PUSH2 0x100 EXP DUP2 SLOAD DUP2 PUSH1 0xFF MUL NOT AND SWAP1 DUP4 PUSH1 0xFF AND MUL OR SWAP1 SSTORE POP PUSH1 0x80 DUP3 ADD MLOAD DUP2 PUSH1 0x4 ADD SSTORE PUSH1 0xA0 DUP3 ADD MLOAD DUP2 PUSH1 0x5 ADD PUSH1 0x0 PUSH2 0x100 EXP DUP2 SLOAD DUP2 PUSH1 0xFF MUL NOT AND SWAP1 DUP4 ISZERO ISZERO MUL OR SWAP1 SSTORE POP PUSH1 0xC0 DUP3 ADD MLOAD DUP2 PUSH1 0x5 ADD PUSH1 0x1 PUSH2 0x100 EXP DUP2 SLOAD DUP2 PUSH1 0xFF MUL NOT AND SWAP1 DUP4 ISZERO ISZERO MUL OR SWAP1 SSTORE POP PUSH1 0xE0 DUP3 ADD MLOAD DUP2 PUSH1 0x5 ADD PUSH1 0x2 PUSH2 0x100 EXP DUP2 SLOAD DUP2 PUSH1 0x1 PUSH1 0x1 PUSH1 0xA0 SHL SUB MUL NOT AND SWAP1 DUP4 PUSH1 0x1 PUSH1 0x1 PUSH1 0xA0 SHL SUB AND MUL OR SWAP1 SSTORE POP SWAP1 POP POP DUP4 PUSH1 0x1 PUSH1 0x1 PUSH1 0xA0 SHL SUB AND CALLER PUSH1 0x1 PUSH1 0x1 PUSH1 0xA0 SHL SUB AND DUP3 PUSH32 0xD2F7931A802085B3D0234D4C320CE7EE0041DA96678CE2BF5C93E8D3D7E65F52 DUP7 PUSH1 0x40 MLOAD PUSH2 0x1523 SWAP2 DUP2 MSTORE PUSH1 0x20 ADD SWAP1 JUMP JUMPDEST PUSH1 0x40 MLOAD DUP1 SWAP2 SUB SWAP1 LOG4 PUSH2 0x1535 PUSH1 0x1 PUSH1 0x0 SSTORE JUMP JUMPDEST SWAP4 SWAP3 POP POP POP JUMP JUMPDEST PUSH1 0x5 SLOAD PUSH1 0x60 SWAP1 DUP2 SWAP1 DUP2 SWAP1 DUP1 PUSH8 0xFFFFFFFFFFFFFFFF DUP2 GT ISZERO PUSH2 0x155F JUMPI PUSH2 0x155F PUSH2 0x29AD JUMP JUMPDEST PUSH1 0x40 MLOAD SWAP1 DUP1 DUP3 MSTORE DUP1 PUSH1 0x20 MUL PUSH1 0x20 ADD DUP3 ADD PUSH1 0x40 MSTORE DUP1 ISZERO PUSH2 0x1588 JUMPI DUP2 PUSH1 0x20 ADD PUSH1 0x20 DUP3 MUL DUP1 CALLDATASIZE DUP4 CALLDATACOPY ADD SWAP1 POP JUMPDEST POP SWAP4 POP DUP1 PUSH8 0xFFFFFFFFFFFFFFFF DUP2 GT ISZERO PUSH2 0x15A4 JUMPI PUSH2 0x15A4 PUSH2 0x29AD JUMP JUMPDEST PUSH1 0x40 MLOAD SWAP1 DUP1 DUP3 MSTORE DUP1 PUSH1 0x20 MUL PUSH1 0x20 ADD DUP3 ADD PUSH1 0x40 MSTORE DUP1 ISZERO PUSH2 0x15CD JUMPI DUP2 PUSH1 0x20 ADD PUSH1 0x20 DUP3 MUL DUP1 CALLDATASIZE DUP4 CALLDATACOPY ADD SWAP1 POP JUMPDEST POP SWAP3 POP DUP1 PUSH8 0xFFFFFFFFFFFFFFFF DUP2 GT ISZERO PUSH2 0x15E9 JUMPI PUSH2 0x15E9 PUSH2 0x29AD JUMP JUMPDEST PUSH1 0x40 MLOAD SWAP1 DUP1 DUP3 MSTORE DUP1 PUSH1 0x20 MUL PUSH1 0x20 ADD DUP3 ADD PUSH1 0x40 MSTORE DUP1 ISZERO PUSH2 0x1612 JUMPI DUP2 PUSH1 0x20 ADD PUSH1 0x20 DUP3 MUL DUP1 CALLDATASIZE DUP4 CALLDATACOPY ADD SWAP1 POP JUMPDEST POP SWAP2 POP PUSH1 0x0 JUMPDEST DUP2 DUP2 LT ISZERO PUSH2 0x1736 JUMPI PUSH1 0x5 DUP2 DUP2 SLOAD DUP2 LT PUSH2 0x1633 JUMPI PUSH2 0x1633 PUSH2 0x2902 JUMP JUMPDEST SWAP1 PUSH1 0x0 MSTORE PUSH1 0x20 PUSH1 0x0 KECCAK256 ADD SLOAD DUP6 DUP3 DUP2 MLOAD DUP2 LT PUSH2 0x1650 JUMPI PUSH2 0x1650 PUSH2 0x2902 JUMP JUMPDEST PUSH1 0x20 MUL PUSH1 0x20 ADD ADD DUP2 DUP2 MSTORE POP POP PUSH1 0x7 PUSH1 0x0 PUSH1 0x5 DUP4 DUP2 SLOAD DUP2 LT PUSH2 0x1673 JUMPI PUSH2 0x1673 PUSH2 0x2902 JUMP JUMPDEST SWAP1 PUSH1 0x0 MSTORE PUSH1 0x20 PUSH1 0x0 KECCAK256 ADD SLOAD DUP2 MSTORE PUSH1 0x20 ADD SWAP1 DUP2 MSTORE PUSH1 0x20 ADD PUSH1 0x0 KECCAK256 PUSH1 0x0 SWAP1 SLOAD SWAP1 PUSH2 0x100 EXP SWAP1 DIV PUSH1 0x1 PUSH1 0x1 PUSH1 0xA0 SHL SUB AND DUP4 DUP3 DUP2 MLOAD DUP2 LT PUSH2 0x16B2 JUMPI PUSH2 0x16B2 PUSH2 0x2902 JUMP JUMPDEST PUSH1 0x20 MUL PUSH1 0x20 ADD ADD SWAP1 PUSH1 0x1 PUSH1 0x1 PUSH1 0xA0 SHL SUB AND SWAP1 DUP2 PUSH1 0x1 PUSH1 0x1 PUSH1 0xA0 SHL SUB AND DUP2 MSTORE POP POP PUSH1 0x0 PUSH1 0x1 PUSH1 0x1 PUSH1 0xA0 SHL SUB AND DUP4 DUP3 DUP2 MLOAD DUP2 LT PUSH2 0x16EF JUMPI PUSH2 0x16EF PUSH2 0x2902 JUMP JUMPDEST PUSH1 0x20 MUL PUSH1 0x20 ADD ADD MLOAD PUSH1 0x1 PUSH1 0x1 PUSH1 0xA0 SHL SUB AND EQ ISZERO DUP5 DUP3 DUP2 MLOAD DUP2 LT PUSH2 0x1714 JUMPI PUSH2 0x1714 PUSH2 0x2902 JUMP JUMPDEST SWAP2 ISZERO ISZERO PUSH1 0x20 SWAP3 DUP4 MUL SWAP2 SWAP1 SWAP2 ADD SWAP1 SWAP2 ADD MSTORE DUP1 PUSH2 0x172E DUP2 PUSH2 0x2947 JUMP JUMPDEST SWAP2 POP POP PUSH2 0x1618 JUMP JUMPDEST POP POP SWAP1 SWAP2 SWAP3 JUMP JUMPDEST PUSH1 0x0 PUSH1 0x2 PUSH1 0x1 PUSH1 0x1 PUSH1 0xA0 SHL SUB DUP4 AND PUSH1 0x0 SWAP1 DUP2 MSTORE PUSH1 0xF PUSH1 0x20 MSTORE PUSH1 0x40 SWAP1 KECCAK256 SLOAD PUSH1 0xFF AND PUSH1 0x2 DUP2 GT ISZERO PUSH2 0x176E JUMPI PUSH2 0x176E PUSH2 0x2614 JUMP JUMPDEST EQ SWAP3 SWAP2 POP POP JUMP JUMPDEST PUSH1 0x1 PUSH1 0x1 PUSH1 0xA0 SHL SUB DUP2 AND PUSH1 0x0 SWAP1 DUP2 MSTORE PUSH1 0x11 PUSH1 0x20 SWAP1 DUP2 MSTORE PUSH1 0x40 DUP1 DUP4 KECCAK256 SLOAD PUSH1 0x12 DUP4 MSTORE DUP2 DUP5 KECCAK256 SLOAD PUSH1 0x13 DUP5 MSTORE DUP3 DUP6 KECCAK256 SLOAD PUSH1 0xE SWAP1 SWAP5 MSTORE SWAP2 DUP5 KECCAK256 DUP1 SLOAD DUP6 SWAP5 DUP6 SWAP5 PUSH1 0x60 SWAP5 SWAP4 SWAP1 SWAP3 DUP2 SWAP1 PUSH2 0x17C0 SWAP1 PUSH2 0x2973 JUMP JUMPDEST DUP1 PUSH1 0x1F ADD PUSH1 0x20 DUP1 SWAP2 DIV MUL PUSH1 0x20 ADD PUSH1 0x40 MLOAD SWAP1 DUP2 ADD PUSH1 0x40 MSTORE DUP1 SWAP3 SWAP2 SWAP1 DUP2 DUP2 MSTORE PUSH1 0x20 ADD DUP3 DUP1 SLOAD PUSH2 0x17EC SWAP1 PUSH2 0x2973 JUMP JUMPDEST DUP1 ISZERO PUSH2 0x1839 JUMPI DUP1 PUSH1 0x1F LT PUSH2 0x180E JUMPI PUSH2 0x100 DUP1 DUP4 SLOAD DIV MUL DUP4 MSTORE SWAP2 PUSH1 0x20 ADD SWAP2 PUSH2 0x1839 JUMP JUMPDEST DUP3 ADD SWAP2 SWAP1 PUSH1 0x0 MSTORE PUSH1 0x20 PUSH1 0x0 KECCAK256 SWAP1 JUMPDEST DUP2 SLOAD DUP2 MSTORE SWAP1 PUSH1 0x1 ADD SWAP1 PUSH1 0x20 ADD DUP1 DUP4 GT PUSH2 0x181C JUMPI DUP3 SWAP1 SUB PUSH1 0x1F AND DUP3 ADD SWAP2 JUMPDEST POP POP POP POP POP SWAP1 POP SWAP4 POP SWAP4 POP SWAP4 POP SWAP4 POP SWAP2 SWAP4 POP SWAP2 SWAP4 JUMP JUMPDEST CALLER PUSH1 0x0 SWAP1 DUP2 MSTORE PUSH1 0xD PUSH1 0x20 MSTORE PUSH1 0x40 DUP2 KECCAK256 SLOAD DUP2 SWAP1 DUP2 SWAP1 PUSH1 0xFF AND PUSH2 0x1882 JUMPI PUSH1 0x40 MLOAD PUSH3 0x461BCD PUSH1 0xE5 SHL DUP2 MSTORE PUSH1 0x4 ADD PUSH2 0x8DC SWAP1 PUSH2 0x2B01 JUMP JUMPDEST PUSH2 0x188A PUSH2 0x2191 JUMP JUMPDEST PUSH1 0x0 DUP6 DUP2 MSTORE PUSH1 0x6 PUSH1 0x20 MSTORE PUSH1 0x40 SWAP1 KECCAK256 SLOAD PUSH1 0xFF AND PUSH2 0x18E1 JUMPI PUSH1 0x40 MLOAD PUSH3 0x461BCD PUSH1 0xE5 SHL DUP2 MSTORE PUSH1 0x20 PUSH1 0x4 DUP3 ADD MSTORE PUSH1 0x16 PUSH1 0x24 DUP3 ADD MSTORE PUSH22 0x155B9CDD5C1C1BDC9D19590818995D08185B5BDD5B9D PUSH1 0x52 SHL PUSH1 0x44 DUP3 ADD MSTORE PUSH1 0x64 ADD PUSH2 0x8DC JUMP JUMPDEST PUSH1 0x1 DUP5 PUSH1 0xFF AND GT ISZERO PUSH2 0x1905 JUMPI PUSH1 0x40 MLOAD PUSH3 0x461BCD PUSH1 0xE5 SHL DUP2 MSTORE PUSH1 0x4 ADD PUSH2 0x8DC SWAP1 PUSH2 0x2B2F JUMP JUMPDEST PUSH1 0x0 DUP6 DUP2 MSTORE PUSH1 0x7 PUSH1 0x20 MSTORE PUSH1 0x40 SWAP1 KECCAK256 SLOAD CALLER PUSH1 0x1 PUSH1 0x1 PUSH1 0xA0 SHL SUB SWAP1 SWAP2 AND SUB PUSH2 0x195F JUMPI PUSH1 0x40 MLOAD PUSH3 0x461BCD PUSH1 0xE5 SHL DUP2 MSTORE PUSH1 0x20 PUSH1 0x4 DUP3 ADD MSTORE PUSH1 0xF PUSH1 0x24 DUP3 ADD MSTORE PUSH15 0x105B1C9958591E481A5B881C1BDBDB PUSH1 0x8A SHL PUSH1 0x44 DUP3 ADD MSTORE PUSH1 0x64 ADD PUSH2 0x8DC JUMP JUMPDEST PUSH2 0x1994 PUSH1 0x1 PUSH1 0x1 PUSH1 0xA0 SHL SUB PUSH32 0x0 AND CALLER ADDRESS DUP9 PUSH2 0x21BB JUMP JUMPDEST PUSH1 0x0 DUP6 DUP2 MSTORE PUSH1 0x7 PUSH1 0x20 MSTORE PUSH1 0x40 SWAP1 KECCAK256 SLOAD PUSH1 0x1 PUSH1 0x1 PUSH1 0xA0 SHL SUB AND DUP1 PUSH2 0x1A40 JUMPI PUSH1 0x0 DUP7 DUP2 MSTORE PUSH1 0x7 PUSH1 0x20 SWAP1 DUP2 MSTORE PUSH1 0x40 DUP1 DUP4 KECCAK256 DUP1 SLOAD CALLER PUSH1 0x1 PUSH1 0x1 PUSH1 0xA0 SHL SUB NOT SWAP1 SWAP2 AND DUP2 OR SWAP1 SWAP2 SSTORE PUSH1 0x8 DUP4 MSTORE DUP2 DUP5 KECCAK256 DUP1 SLOAD PUSH1 0xFF NOT AND PUSH1 0xFF DUP12 AND SWAP1 DUP2 OR SWAP1 SWAP2 SSTORE PUSH1 0x9 DUP5 MSTORE SWAP4 DUP3 SWAP1 KECCAK256 TIMESTAMP SWAP1 SSTORE DUP2 MLOAD DUP11 DUP2 MSTORE SWAP3 DUP4 ADD SWAP4 SWAP1 SWAP4 MSTORE PUSH32 0x4AF9253C060F8B592F8160F3873718AD63CE9582E72617D6742B49725727370E SWAP2 ADD PUSH1 0x40 MLOAD DUP1 SWAP2 SUB SWAP1 LOG2 PUSH1 0x0 DUP1 PUSH1 0x0 SWAP4 POP SWAP4 POP SWAP4 POP POP PUSH2 0x1A53 JUMP JUMPDEST PUSH2 0x1A4B DUP7 DUP7 DUP4 PUSH2 0x21FA JUMP JUMPDEST SWAP4 POP SWAP4 POP SWAP4 POP POP JUMPDEST PUSH2 0x1A5D PUSH1 0x1 PUSH1 0x0 SSTORE JUMP JUMPDEST SWAP3 POP SWAP3 POP SWAP3 JUMP JUMPDEST PUSH2 0x1A6C PUSH2 0x2191 JUMP JUMPDEST PUSH1 0x0 DUP2 DUP2 MSTORE PUSH1 0x7 PUSH1 0x20 MSTORE PUSH1 0x40 SWAP1 KECCAK256 SLOAD PUSH1 0x1 PUSH1 0x1 PUSH1 0xA0 SHL SUB AND CALLER EQ PUSH2 0x1AC5 JUMPI PUSH1 0x40 MLOAD PUSH3 0x461BCD PUSH1 0xE5 SHL DUP2 MSTORE PUSH1 0x20 PUSH1 0x4 DUP3 ADD MSTORE PUSH1 0x10 PUSH1 0x24 DUP3 ADD MSTORE PUSH16 0x139BDD081A5B881D1A1A5CC81C1BDBDB PUSH1 0x82 SHL PUSH1 0x44 DUP3 ADD MSTORE PUSH1 0x64 ADD PUSH2 0x8DC JUMP JUMPDEST PUSH1 0x0 DUP2 DUP2 MSTORE PUSH1 0x7 PUSH1 0x20 SWAP1 DUP2 MSTORE PUSH1 0x40 DUP1 DUP4 KECCAK256 DUP1 SLOAD PUSH1 0x1 PUSH1 0x1 PUSH1 0xA0 SHL SUB NOT AND SWAP1 SSTORE PUSH1 0x8 DUP3 MSTORE DUP1 DUP4 KECCAK256 DUP1 SLOAD PUSH1 0xFF NOT AND SWAP1 SSTORE PUSH1 0x9 SWAP1 SWAP2 MSTORE DUP2 KECCAK256 SSTORE PUSH2 0x1B2F PUSH32 0x0 PUSH1 0x1 PUSH1 0x1 PUSH1 0xA0 SHL SUB AND CALLER DUP4 PUSH2 0x20E0 JUMP JUMPDEST PUSH1 0x40 MLOAD DUP2 DUP2 MSTORE CALLER SWAP1 PUSH32 0xBC865856A1E9F1DFE2ABDE98EDC2EEFE87B6C391A47032388EF36D8C2474AAD3 SWAP1 PUSH1 0x20 ADD PUSH1 0x40 MLOAD DUP1 SWAP2 SUB SWAP1 LOG2 PUSH2 0x88D PUSH1 0x1 PUSH1 0x0 SSTORE JUMP JUMPDEST CALLER PUSH1 0x0 SWAP1 DUP2 MSTORE PUSH1 0xD PUSH1 0x20 MSTORE PUSH1 0x40 SWAP1 KECCAK256 SLOAD PUSH1 0xFF AND PUSH2 0x1B9D JUMPI PUSH1 0x40 MLOAD PUSH3 0x461BCD PUSH1 0xE5 SHL DUP2 MSTORE PUSH1 0x4 ADD PUSH2 0x8DC SWAP1 PUSH2 0x2B01 JUMP JUMPDEST PUSH2 0x1BA5 PUSH2 0x2191 JUMP JUMPDEST PUSH1 0x0 DUP3 DUP2 MSTORE PUSH1 0xA PUSH1 0x20 MSTORE PUSH1 0x40 SWAP1 KECCAK256 PUSH1 0x1 DUP2 ADD SLOAD PUSH1 0x1 PUSH1 0x1 PUSH1 0xA0 SHL SUB AND CALLER EQ PUSH2 0x1C04 JUMPI PUSH1 0x40 MLOAD PUSH3 0x461BCD PUSH1 0xE5 SHL DUP2 MSTORE PUSH1 0x20 PUSH1 0x4 DUP3 ADD MSTORE PUSH1 0x12 PUSH1 0x24 DUP3 ADD MSTORE PUSH18 0x4E6F7420796F7572206368616C6C656E6765 PUSH1 0x70 SHL PUSH1 0x44 DUP3 ADD MSTORE PUSH1 0x64 ADD PUSH2 0x8DC JUMP JUMPDEST PUSH1 0x5 DUP2 ADD SLOAD PUSH1 0xFF AND ISZERO DUP1 ISZERO PUSH2 0x1C23 JUMPI POP PUSH1 0x5 DUP2 ADD SLOAD PUSH2 0x100 SWAP1 DIV PUSH1 0xFF AND ISZERO JUMPDEST PUSH2 0x1C61 JUMPI PUSH1 0x40 MLOAD PUSH3 0x461BCD PUSH1 0xE5 SHL DUP2 MSTORE PUSH1 0x20 PUSH1 0x4 DUP3 ADD MSTORE PUSH1 0xF PUSH1 0x24 DUP3 ADD MSTORE PUSH15 0x105B1C9958591E481A185B991B1959 PUSH1 0x8A SHL PUSH1 0x44 DUP3 ADD MSTORE PUSH1 0x64 ADD PUSH2 0x8DC JUMP JUMPDEST PUSH1 0xC SLOAD DUP2 PUSH1 0x4 ADD SLOAD PUSH2 0x1C73 SWAP2 SWAP1 PUSH2 0x292E JUMP JUMPDEST TIMESTAMP GT ISZERO PUSH2 0x1CB6 JUMPI PUSH1 0x40 MLOAD PUSH3 0x461BCD PUSH1 0xE5 SHL DUP2 MSTORE PUSH1 0x20 PUSH1 0x4 DUP3 ADD MSTORE PUSH1 0x11 PUSH1 0x24 DUP3 ADD MSTORE PUSH17 0x10DA185B1B195B99D948195E1C1A5C9959 PUSH1 0x7A SHL PUSH1 0x44 DUP3 ADD MSTORE PUSH1 0x64 ADD PUSH2 0x8DC JUMP JUMPDEST PUSH1 0x1 DUP3 PUSH1 0xFF AND GT ISZERO PUSH2 0x1CDA JUMPI PUSH1 0x40 MLOAD PUSH3 0x461BCD PUSH1 0xE5 SHL DUP2 MSTORE PUSH1 0x4 ADD PUSH2 0x8DC SWAP1 PUSH2 0x2B2F JUMP JUMPDEST PUSH1 0x2 DUP2 ADD SLOAD PUSH2 0x1D17 SWAP1 PUSH1 0x1 PUSH1 0x1 PUSH1 0xA0 SHL SUB PUSH32 0x0 AND SWAP1 CALLER SWAP1 ADDRESS SWAP1 PUSH2 0x21BB JUMP JUMPDEST PUSH1 0x5 DUP2 ADD DUP1 SLOAD PUSH1 0xFF NOT AND PUSH1 0x1 OR SWAP1 SSTORE PUSH1 0x40 MLOAD CALLER SWAP1 DUP5 SWAP1 PUSH32 0xD984AC8050A068DB0ADA14B33626B418E0CDFBAD700867C1F3E0AB23CF123B33 SWAP1 PUSH1 0x0 SWAP1 LOG3 DUP1 SLOAD PUSH1 0x1 DUP3 ADD SLOAD PUSH1 0x3 DUP4 ADD SLOAD PUSH1 0x40 DUP1 MLOAD PREVRANDAO PUSH1 0x20 DUP3 ADD MSTORE TIMESTAMP SWAP2 DUP2 ADD SWAP2 SWAP1 SWAP2 MSTORE PUSH12 0xFFFFFFFFFFFFFFFFFFFFFFFF NOT PUSH1 0x60 SWAP5 DUP6 SHL DUP2 AND DUP6 DUP4 ADD MSTORE SWAP3 SWAP1 SWAP4 SHL SWAP1 SWAP2 AND PUSH1 0x74 DUP4 ADD MSTORE PUSH1 0x1 PUSH1 0x1 PUSH1 0xF8 SHL SUB NOT PUSH1 0xF8 SWAP2 DUP3 SHL DUP2 AND PUSH1 0x88 DUP5 ADD MSTORE SWAP1 DUP5 SWAP1 SHL AND PUSH1 0x89 DUP3 ADD MSTORE PUSH1 0x8A DUP2 ADD DUP5 SWAP1 MSTORE PUSH1 0x0 SWAP1 PUSH1 0xAA ADD PUSH1 0x40 DUP1 MLOAD PUSH1 0x1F NOT DUP2 DUP5 SUB ADD DUP2 MSTORE SWAP2 SWAP1 MSTORE DUP1 MLOAD PUSH1 0x20 SWAP1 SWAP2 ADD KECCAK256 SWAP1 POP PUSH1 0x0 PUSH2 0x1DE9 PUSH1 0x2 DUP4 PUSH2 0x2B74 JUMP JUMPDEST PUSH1 0x3 DUP5 ADD SLOAD SWAP1 SWAP2 POP PUSH1 0x0 SWAP1 DUP2 SWAP1 PUSH1 0xFF DUP1 DUP6 AND SWAP2 AND SUB PUSH2 0x1E1D JUMPI POP POP DUP3 SLOAD PUSH1 0x1 DUP5 ADD SLOAD PUSH1 0x1 PUSH1 0x1 PUSH1 0xA0 SHL SUB SWAP2 DUP3 AND SWAP2 AND PUSH2 0x1E34 JUMP JUMPDEST POP POP PUSH1 0x1 DUP4 ADD SLOAD DUP4 SLOAD PUSH1 0x1 PUSH1 0x1 PUSH1 0xA0 SHL SUB SWAP2 DUP3 AND SWAP2 AND JUMPDEST PUSH1 0x5 DUP6 ADD DUP1 SLOAD PUSH1 0x1 PUSH1 0x1 PUSH1 0xA0 SHL SUB DUP5 AND PUSH3 0x10000 MUL PUSH2 0x100 PUSH1 0x1 PUSH1 0xB0 SHL SUB NOT SWAP1 SWAP2 AND OR PUSH2 0x100 OR SWAP1 SSTORE PUSH1 0x2 DUP1 DUP7 ADD SLOAD PUSH1 0x0 SWAP2 PUSH2 0x1E70 SWAP2 SWAP1 PUSH2 0x2B88 JUMP JUMPDEST SWAP1 POP PUSH1 0x0 PUSH2 0x2710 PUSH1 0x2 SLOAD DUP4 PUSH2 0x1E85 SWAP2 SWAP1 PUSH2 0x2B88 JUMP JUMPDEST PUSH2 0x1E8F SWAP2 SWAP1 PUSH2 0x2B9F JUMP JUMPDEST SWAP1 POP PUSH1 0x0 PUSH2 0x1E9D DUP3 DUP5 PUSH2 0x2960 JUMP JUMPDEST PUSH1 0x3 DUP1 SLOAD SWAP2 SWAP3 POP PUSH1 0x0 PUSH2 0x1EAF DUP4 PUSH2 0x2947 JUMP JUMPDEST SWAP2 SWAP1 POP SSTORE POP DUP3 PUSH1 0x4 PUSH1 0x0 DUP3 DUP3 SLOAD PUSH2 0x1EC6 SWAP2 SWAP1 PUSH2 0x292E JUMP JUMPDEST SWAP1 SWAP2 SSTORE POP POP PUSH1 0x1 PUSH1 0x1 PUSH1 0xA0 SHL SUB DUP6 AND PUSH1 0x0 SWAP1 DUP2 MSTORE PUSH1 0x11 PUSH1 0x20 MSTORE PUSH1 0x40 DUP2 KECCAK256 DUP1 SLOAD SWAP2 PUSH2 0x1EEF DUP4 PUSH2 0x2947 JUMP JUMPDEST SWAP1 SWAP2 SSTORE POP POP PUSH1 0x1 PUSH1 0x1 PUSH1 0xA0 SHL SUB DUP5 AND PUSH1 0x0 SWAP1 DUP2 MSTORE PUSH1 0x12 PUSH1 0x20 MSTORE PUSH1 0x40 DUP2 KECCAK256 DUP1 SLOAD SWAP2 PUSH2 0x1F18 DUP4 PUSH2 0x2947 JUMP JUMPDEST SWAP1 SWAP2 SSTORE POP POP PUSH1 0x2 DUP9 ADD SLOAD DUP9 SLOAD PUSH1 0x1 PUSH1 0x1 PUSH1 0xA0 SHL SUB AND PUSH1 0x0 SWAP1 DUP2 MSTORE PUSH1 0x13 PUSH1 0x20 MSTORE PUSH1 0x40 DUP2 KECCAK256 DUP1 SLOAD SWAP1 SWAP2 SWAP1 PUSH2 0x1F4B SWAP1 DUP5 SWAP1 PUSH2 0x292E JUMP JUMPDEST SWAP1 SWAP2 SSTORE POP POP PUSH1 0x2 DUP9 ADD SLOAD PUSH1 0x1 DUP10 ADD SLOAD PUSH1 0x1 PUSH1 0x1 PUSH1 0xA0 SHL SUB AND PUSH1 0x0 SWAP1 DUP2 MSTORE PUSH1 0x13 PUSH1 0x20 MSTORE PUSH1 0x40 DUP2 KECCAK256 DUP1 SLOAD SWAP1 SWAP2 SWAP1 PUSH2 0x1F81 SWAP1 DUP5 SWAP1 PUSH2 0x292E JUMP JUMPDEST SWAP1 SWAP2 SSTORE POP PUSH2 0x1FBB SWAP1 POP PUSH1 0x1 PUSH1 0x1 PUSH1 0xA0 SHL SUB PUSH32 0x0 AND DUP7 DUP4 PUSH2 0x20E0 JUMP JUMPDEST DUP5 PUSH1 0x1 PUSH1 0x1 PUSH1 0xA0 SHL SUB AND DUP11 PUSH32 0xFA7677F40B56154233BD68874CE9489A9CB84537D3FF486A37020E34FC9DC292 DUP4 PUSH1 0x40 MLOAD PUSH2 0x1FF7 SWAP2 DUP2 MSTORE PUSH1 0x20 ADD SWAP1 JUMP JUMPDEST PUSH1 0x40 MLOAD DUP1 SWAP2 SUB SWAP1 LOG3 POP POP POP POP POP POP POP POP PUSH2 0x2011 PUSH1 0x1 PUSH1 0x0 SSTORE JUMP JUMPDEST POP POP JUMP JUMPDEST PUSH2 0x201D PUSH2 0x2050 JUMP JUMPDEST PUSH1 0x1 PUSH1 0x1 PUSH1 0xA0 SHL SUB DUP2 AND PUSH2 0x2047 JUMPI PUSH1 0x40 MLOAD PUSH4 0x1E4FBDF7 PUSH1 0xE0 SHL DUP2 MSTORE PUSH1 0x0 PUSH1 0x4 DUP3 ADD MSTORE PUSH1 0x24 ADD PUSH2 0x8DC JUMP JUMPDEST PUSH2 0x88D DUP2 PUSH2 0x213F JUMP JUMPDEST PUSH1 0x1 SLOAD PUSH1 0x1 PUSH1 0x1 PUSH1 0xA0 SHL SUB AND CALLER EQ PUSH2 0xDE3 JUMPI PUSH1 0x40 MLOAD PUSH4 0x118CDAA7 PUSH1 0xE0 SHL DUP2 MSTORE CALLER PUSH1 0x4 DUP3 ADD MSTORE PUSH1 0x24 ADD PUSH2 0x8DC JUMP JUMPDEST PUSH1 0x0 DUP2 DUP2 MSTORE PUSH1 0x6 PUSH1 0x20 MSTORE PUSH1 0x40 SWAP1 KECCAK256 SLOAD PUSH1 0xFF AND PUSH2 0x88D JUMPI PUSH1 0x5 DUP1 SLOAD PUSH1 0x1 DUP2 DUP2 ADD SWAP1 SWAP3 SSTORE PUSH32 0x36B6384B5ECA791C62761152D0C79BB0604C104A5FB6F4EB0703F3154BB3DB0 ADD DUP3 SWAP1 SSTORE PUSH1 0x0 DUP3 DUP2 MSTORE PUSH1 0x6 PUSH1 0x20 MSTORE PUSH1 0x40 SWAP1 KECCAK256 DUP1 SLOAD PUSH1 0xFF NOT AND SWAP1 SWAP2 OR SWAP1 SSTORE POP JUMP JUMPDEST PUSH1 0x40 MLOAD PUSH1 0x1 PUSH1 0x1 PUSH1 0xA0 SHL SUB DUP4 DUP2 AND PUSH1 0x24 DUP4 ADD MSTORE PUSH1 0x44 DUP3 ADD DUP4 SWAP1 MSTORE PUSH2 0xB55 SWAP2 DUP6 SWAP2 DUP3 AND SWAP1 PUSH4 0xA9059CBB SWAP1 PUSH1 0x64 ADD JUMPDEST PUSH1 0x40 MLOAD PUSH1 0x20 DUP2 DUP4 SUB SUB DUP2 MSTORE SWAP1 PUSH1 0x40 MSTORE SWAP2 POP PUSH1 0xE0 SHL PUSH1 0x20 DUP3 ADD DUP1 MLOAD PUSH1 0x1 PUSH1 0x1 PUSH1 0xE0 SHL SUB DUP4 DUP2 DUP4 AND OR DUP4 MSTORE POP POP POP POP PUSH2 0x22EB JUMP JUMPDEST PUSH1 0x1 DUP1 SLOAD PUSH1 0x1 PUSH1 0x1 PUSH1 0xA0 SHL SUB DUP4 DUP2 AND PUSH1 0x1 PUSH1 0x1 PUSH1 0xA0 SHL SUB NOT DUP4 AND DUP2 OR SWAP1 SWAP4 SSTORE PUSH1 0x40 MLOAD SWAP2 AND SWAP2 SWAP1 DUP3 SWAP1 PUSH32 0x8BE0079C531659141344CD1FD0A4F28419497F9722A3DAAFE3B4186F6B6457E0 SWAP1 PUSH1 0x0 SWAP1 LOG3 POP POP JUMP JUMPDEST PUSH1 0x2 PUSH1 0x0 SLOAD SUB PUSH2 0x21B4 JUMPI PUSH1 0x40 MLOAD PUSH4 0x3EE5AEB5 PUSH1 0xE0 SHL DUP2 MSTORE PUSH1 0x4 ADD PUSH1 0x40 MLOAD DUP1 SWAP2 SUB SWAP1 REVERT JUMPDEST PUSH1 0x2 PUSH1 0x0 SSTORE JUMP JUMPDEST PUSH1 0x40 MLOAD PUSH1 0x1 PUSH1 0x1 PUSH1 0xA0 SHL SUB DUP5 DUP2 AND PUSH1 0x24 DUP4 ADD MSTORE DUP4 DUP2 AND PUSH1 0x44 DUP4 ADD MSTORE PUSH1 0x64 DUP3 ADD DUP4 SWAP1 MSTORE PUSH2 0x21F4 SWAP2 DUP7 SWAP2 DUP3 AND SWAP1 PUSH4 0x23B872DD SWAP1 PUSH1 0x84 ADD PUSH2 0x210D JUMP JUMPDEST POP POP POP POP JUMP JUMPDEST PUSH1 0x0 DUP4 DUP2 MSTORE PUSH1 0x8 PUSH1 0x20 SWAP1 DUP2 MSTORE PUSH1 0x40 DUP1 DUP4 KECCAK256 DUP1 SLOAD PUSH1 0x7 DUP5 MSTORE DUP3 DUP6 KECCAK256 DUP1 SLOAD PUSH1 0x1 PUSH1 0x1 PUSH1 0xA0 SHL SUB NOT AND SWAP1 SSTORE DUP2 SLOAD PUSH1 0xFF NOT AND SWAP1 SWAP2 SSTORE PUSH1 0x9 SWAP1 SWAP3 MSTORE DUP3 KECCAK256 DUP3 SWAP1 SSTORE DUP2 SWAP1 DUP2 SWAP1 PUSH1 0xFF AND CALLER DUP3 PUSH2 0x224A DUP8 DUP4 DUP6 DUP12 PUSH2 0x235C JUMP JUMPDEST SWAP1 POP PUSH1 0x0 DUP8 PUSH1 0x1 PUSH1 0x1 PUSH1 0xA0 SHL SUB AND DUP3 PUSH1 0x1 PUSH1 0x1 PUSH1 0xA0 SHL SUB AND EQ PUSH2 0x226D JUMPI DUP8 PUSH2 0x226F JUMP JUMPDEST DUP3 JUMPDEST SWAP1 POP PUSH1 0x0 PUSH2 0x2280 DUP12 DUP5 DUP5 DUP13 DUP9 PUSH2 0x23EC JUMP JUMPDEST PUSH1 0x3 SLOAD PUSH1 0x40 DUP1 MLOAD DUP15 DUP2 MSTORE PUSH1 0x1 PUSH1 0x1 PUSH1 0xA0 SHL SUB DUP8 DUP2 AND PUSH1 0x20 DUP4 ADD MSTORE SWAP2 DUP2 ADD DUP5 SWAP1 MSTORE SWAP3 SWAP4 POP DUP1 DUP8 AND SWAP3 SWAP1 DUP13 AND SWAP2 SWAP1 PUSH32 0x60CE0C713D3715C6CD88E3F669EFC1F89227DB72D85B2F9DCB6F4251C5814EAD SWAP1 PUSH1 0x60 ADD PUSH1 0x40 MLOAD DUP1 SWAP2 SUB SWAP1 LOG4 POP PUSH1 0x1 SWAP11 SWAP8 SWAP10 POP SWAP1 SWAP8 POP POP POP POP POP POP POP JUMP JUMPDEST PUSH1 0x0 DUP1 PUSH1 0x20 PUSH1 0x0 DUP5 MLOAD PUSH1 0x20 DUP7 ADD PUSH1 0x0 DUP9 GAS CALL DUP1 PUSH2 0x230E JUMPI PUSH1 0x40 MLOAD RETURNDATASIZE PUSH1 0x0 DUP3 RETURNDATACOPY RETURNDATASIZE DUP2 REVERT JUMPDEST POP POP PUSH1 0x0 MLOAD RETURNDATASIZE SWAP2 POP DUP2 ISZERO PUSH2 0x2326 JUMPI DUP1 PUSH1 0x1 EQ ISZERO PUSH2 0x2333 JUMP JUMPDEST PUSH1 0x1 PUSH1 0x1 PUSH1 0xA0 SHL SUB DUP5 AND EXTCODESIZE ISZERO JUMPDEST ISZERO PUSH2 0x21F4 JUMPI PUSH1 0x40 MLOAD PUSH4 0x5274AFE7 PUSH1 0xE0 SHL DUP2 MSTORE PUSH1 0x1 PUSH1 0x1 PUSH1 0xA0 SHL SUB DUP6 AND PUSH1 0x4 DUP3 ADD MSTORE PUSH1 0x24 ADD PUSH2 0x8DC JUMP JUMPDEST PUSH1 0x3 SLOAD PUSH1 0x40 DUP1 MLOAD PREVRANDAO PUSH1 0x20 DUP3 ADD MSTORE TIMESTAMP SWAP2 DUP2 ADD SWAP2 SWAP1 SWAP2 MSTORE PUSH12 0xFFFFFFFFFFFFFFFFFFFFFFFF NOT PUSH1 0x60 DUP8 DUP2 SHL DUP3 AND DUP2 DUP5 ADD MSTORE DUP7 SWAP1 SHL AND PUSH1 0x74 DUP3 ADD MSTORE PUSH1 0x88 DUP2 ADD SWAP2 SWAP1 SWAP2 MSTORE PUSH1 0x0 SWAP1 DUP2 SWAP1 PUSH1 0xA8 ADD PUSH1 0x40 DUP1 MLOAD PUSH1 0x1F NOT DUP2 DUP5 SUB ADD DUP2 MSTORE SWAP2 SWAP1 MSTORE DUP1 MLOAD PUSH1 0x20 SWAP1 SWAP2 ADD KECCAK256 SWAP1 POP PUSH1 0x0 PUSH2 0x23CA PUSH1 0x2 DUP4 PUSH2 0x2B74 JUMP JUMPDEST SWAP1 POP DUP1 PUSH1 0xFF AND DUP6 PUSH1 0xFF AND EQ PUSH2 0x23DF JUMPI DUP6 PUSH2 0x23E1 JUMP JUMPDEST DUP7 JUMPDEST SWAP8 SWAP7 POP POP POP POP POP POP POP JUMP JUMPDEST PUSH1 0x0 DUP1 PUSH2 0x23FA DUP8 PUSH1 0x2 PUSH2 0x2B88 JUMP JUMPDEST SWAP1 POP PUSH1 0x0 PUSH2 0x2710 PUSH1 0x2 SLOAD DUP4 PUSH2 0x240F SWAP2 SWAP1 PUSH2 0x2B88 JUMP JUMPDEST PUSH2 0x2419 SWAP2 SWAP1 PUSH2 0x2B9F JUMP JUMPDEST SWAP1 POP PUSH2 0x2425 DUP2 DUP4 PUSH2 0x2960 JUMP JUMPDEST PUSH1 0x3 DUP1 SLOAD SWAP2 SWAP5 POP PUSH1 0x0 PUSH2 0x2437 DUP4 PUSH2 0x2947 JUMP JUMPDEST SWAP2 SWAP1 POP SSTORE POP DUP2 PUSH1 0x4 PUSH1 0x0 DUP3 DUP3 SLOAD PUSH2 0x244E SWAP2 SWAP1 PUSH2 0x292E JUMP JUMPDEST SWAP1 SWAP2 SSTORE POP POP PUSH1 0x1 PUSH1 0x1 PUSH1 0xA0 SHL SUB DUP8 AND PUSH1 0x0 SWAP1 DUP2 MSTORE PUSH1 0x11 PUSH1 0x20 MSTORE PUSH1 0x40 DUP2 KECCAK256 DUP1 SLOAD SWAP2 PUSH2 0x2477 DUP4 PUSH2 0x2947 JUMP JUMPDEST SWAP1 SWAP2 SSTORE POP POP PUSH1 0x1 PUSH1 0x1 PUSH1 0xA0 SHL SUB DUP7 AND PUSH1 0x0 SWAP1 DUP2 MSTORE PUSH1 0x12 PUSH1 0x20 MSTORE PUSH1 0x40 DUP2 KECCAK256 DUP1 SLOAD SWAP2 PUSH2 0x24A0 DUP4 PUSH2 0x2947 JUMP JUMPDEST SWAP1 SWAP2 SSTORE POP POP PUSH1 0x1 PUSH1 0x1 PUSH1 0xA0 SHL SUB DUP6 AND PUSH1 0x0 SWAP1 DUP2 MSTORE PUSH1 0x13 PUSH1 0x20 MSTORE PUSH1 0x40 DUP2 KECCAK256 DUP1 SLOAD DUP11 SWAP3 SWAP1 PUSH2 0x24CD SWAP1 DUP5 SWAP1 PUSH2 0x292E JUMP JUMPDEST SWAP1 SWAP2 SSTORE POP POP PUSH1 0x1 PUSH1 0x1 PUSH1 0xA0 SHL SUB DUP5 AND PUSH1 0x0 SWAP1 DUP2 MSTORE PUSH1 0x13 PUSH1 0x20 MSTORE PUSH1 0x40 DUP2 KECCAK256 DUP1 SLOAD DUP11 SWAP3 SWAP1 PUSH2 0x24FA SWAP1 DUP5 SWAP1 PUSH2 0x292E JUMP JUMPDEST SWAP1 SWAP2 SSTORE POP PUSH2 0x2534 SWAP1 POP PUSH1 0x1 PUSH1 0x1 PUSH1 0xA0 SHL SUB PUSH32 0x0 AND DUP9 DUP6 PUSH2 0x20E0 JUMP JUMPDEST POP POP SWAP6 SWAP5 POP POP POP POP POP JUMP JUMPDEST PUSH1 0x0 PUSH1 0x20 DUP3 DUP5 SUB SLT ISZERO PUSH2 0x2551 JUMPI PUSH1 0x0 DUP1 REVERT JUMPDEST POP CALLDATALOAD SWAP2 SWAP1 POP JUMP JUMPDEST DUP1 CALLDATALOAD PUSH1 0x1 PUSH1 0x1 PUSH1 0xA0 SHL SUB DUP2 AND DUP2 EQ PUSH2 0x256F JUMPI PUSH1 0x0 DUP1 REVERT JUMPDEST SWAP2 SWAP1 POP JUMP JUMPDEST PUSH1 0x0 PUSH1 0x20 DUP3 DUP5 SUB SLT ISZERO PUSH2 0x2586 JUMPI PUSH1 0x0 DUP1 REVERT JUMPDEST PUSH2 0x1535 DUP3 PUSH2 0x2558 JUMP JUMPDEST PUSH1 0x0 PUSH2 0x100 DUP3 ADD SWAP1 POP PUSH1 0x1 DUP1 PUSH1 0xA0 SHL SUB DUP1 DUP5 MLOAD AND DUP4 MSTORE DUP1 PUSH1 0x20 DUP6 ADD MLOAD AND PUSH1 0x20 DUP5 ADD MSTORE POP PUSH1 0x40 DUP4 ADD MLOAD PUSH1 0x40 DUP4 ADD MSTORE PUSH1 0xFF PUSH1 0x60 DUP5 ADD MLOAD AND PUSH1 0x60 DUP4 ADD MSTORE PUSH1 0x80 DUP4 ADD MLOAD PUSH1 0x80 DUP4 ADD MSTORE PUSH1 0xA0 DUP4 ADD MLOAD ISZERO ISZERO PUSH1 0xA0 DUP4 ADD MSTORE PUSH1 0xC0 DUP4 ADD MLOAD PUSH2 0x25F2 PUSH1 0xC0 DUP5 ADD DUP3 ISZERO ISZERO SWAP1 MSTORE JUMP JUMPDEST POP PUSH1 0xE0 DUP4 ADD MLOAD PUSH2 0x260D PUSH1 0xE0 DUP5 ADD DUP3 PUSH1 0x1 PUSH1 0x1 PUSH1 0xA0 SHL SUB AND SWAP1 MSTORE JUMP JUMPDEST POP SWAP3 SWAP2 POP POP JUMP JUMPDEST PUSH4 0x4E487B71 PUSH1 0xE0 SHL PUSH1 0x0 MSTORE PUSH1 0x21 PUSH1 0x4 MSTORE PUSH1 0x24 PUSH1 0x0 REVERT JUMPDEST PUSH1 0x20 DUP2 ADD PUSH1 0x3 DUP4 LT PUSH2 0x264C JUMPI PUSH4 0x4E487B71 PUSH1 0xE0 SHL PUSH1 0x0 MSTORE PUSH1 0x21 PUSH1 0x4 MSTORE PUSH1 0x24 PUSH1 0x0 REVERT JUMPDEST SWAP2 SWAP1 MSTORE SWAP1 JUMP JUMPDEST PUSH1 0x0 DUP2 MLOAD DUP1 DUP5 MSTORE PUSH1 0x0 JUMPDEST DUP2 DUP2 LT ISZERO PUSH2 0x2678 JUMPI PUSH1 0x20 DUP2 DUP6 ADD DUP2 ADD MLOAD DUP7 DUP4 ADD DUP3 ADD MSTORE ADD PUSH2 0x265C JUMP JUMPDEST POP PUSH1 0x0 PUSH1 0x20 DUP3 DUP7 ADD ADD MSTORE PUSH1 0x20 PUSH1 0x1F NOT PUSH1 0x1F DUP4 ADD AND DUP6 ADD ADD SWAP2 POP POP SWAP3 SWAP2 POP POP JUMP JUMPDEST PUSH1 0x20 DUP2 MSTORE PUSH1 0x0 PUSH2 0x1535 PUSH1 0x20 DUP4 ADD DUP5 PUSH2 0x2652 JUMP JUMPDEST PUSH1 0x0 DUP1 PUSH1 0x20 DUP4 DUP6 SUB SLT ISZERO PUSH2 0x26BE JUMPI PUSH1 0x0 DUP1 REVERT JUMPDEST DUP3 CALLDATALOAD PUSH8 0xFFFFFFFFFFFFFFFF DUP1 DUP3 GT ISZERO PUSH2 0x26D6 JUMPI PUSH1 0x0 DUP1 REVERT JUMPDEST DUP2 DUP6 ADD SWAP2 POP DUP6 PUSH1 0x1F DUP4 ADD SLT PUSH2 0x26EA JUMPI PUSH1 0x0 DUP1 REVERT JUMPDEST DUP2 CALLDATALOAD DUP2 DUP2 GT ISZERO PUSH2 0x26F9 JUMPI PUSH1 0x0 DUP1 REVERT JUMPDEST DUP7 PUSH1 0x20 DUP3 DUP6 ADD ADD GT ISZERO PUSH2 0x270B JUMPI PUSH1 0x0 DUP1 REVERT JUMPDEST PUSH1 0x20 SWAP3 SWAP1 SWAP3 ADD SWAP7 SWAP2 SWAP6 POP SWAP1 SWAP4 POP POP POP POP JUMP JUMPDEST PUSH1 0x0 DUP2 MLOAD DUP1 DUP5 MSTORE PUSH1 0x20 DUP1 DUP6 ADD SWAP5 POP DUP1 DUP5 ADD PUSH1 0x0 JUMPDEST DUP4 DUP2 LT ISZERO PUSH2 0x274D JUMPI DUP2 MLOAD DUP8 MSTORE SWAP6 DUP3 ADD SWAP6 SWAP1 DUP3 ADD SWAP1 PUSH1 0x1 ADD PUSH2 0x2731 JUMP JUMPDEST POP SWAP5 SWAP6 SWAP5 POP POP POP POP POP JUMP JUMPDEST PUSH1 0x20 DUP2 MSTORE PUSH1 0x0 PUSH2 0x1535 PUSH1 0x20 DUP4 ADD DUP5 PUSH2 0x271D JUMP JUMPDEST PUSH1 0x0 DUP1 PUSH1 0x40 DUP4 DUP6 SUB SLT ISZERO PUSH2 0x277E JUMPI PUSH1 0x0 DUP1 REVERT JUMPDEST PUSH2 0x2787 DUP4 PUSH2 0x2558 JUMP JUMPDEST SWAP2 POP PUSH1 0x20 DUP4 ADD CALLDATALOAD DUP1 ISZERO ISZERO DUP2 EQ PUSH2 0x279C JUMPI PUSH1 0x0 DUP1 REVERT JUMPDEST DUP1 SWAP2 POP POP SWAP3 POP SWAP3 SWAP1 POP JUMP JUMPDEST DUP1 CALLDATALOAD PUSH1 0xFF DUP2 AND DUP2 EQ PUSH2 0x256F JUMPI PUSH1 0x0 DUP1 REVERT JUMPDEST PUSH1 0x0 DUP1 PUSH1 0x0 PUSH1 0x60 DUP5 DUP7 SUB SLT ISZERO PUSH2 0x27CD JUMPI PUSH1 0x0 DUP1 REVERT JUMPDEST PUSH2 0x27D6 DUP5 PUSH2 0x2558 JUMP JUMPDEST SWAP3 POP PUSH1 0x20 DUP5 ADD CALLDATALOAD SWAP2 POP PUSH2 0x27EB PUSH1 0x40 DUP6 ADD PUSH2 0x27A7 JUMP JUMPDEST SWAP1 POP SWAP3 POP SWAP3 POP SWAP3 JUMP JUMPDEST PUSH1 0x60 DUP2 MSTORE PUSH1 0x0 PUSH2 0x2807 PUSH1 0x60 DUP4 ADD DUP7 PUSH2 0x271D JUMP JUMPDEST DUP3 DUP2 SUB PUSH1 0x20 DUP5 DUP2 ADD SWAP2 SWAP1 SWAP2 MSTORE DUP6 MLOAD DUP1 DUP4 MSTORE DUP7 DUP3 ADD SWAP3 DUP3 ADD SWAP1 PUSH1 0x0 JUMPDEST DUP2 DUP2 LT ISZERO PUSH2 0x2840 JUMPI DUP5 MLOAD ISZERO ISZERO DUP4 MSTORE SWAP4 DUP4 ADD SWAP4 SWAP2 DUP4 ADD SWAP2 PUSH1 0x1 ADD PUSH2 0x2822 JUMP JUMPDEST POP POP DUP5 DUP2 SUB PUSH1 0x40 DUP7 ADD MSTORE DUP6 MLOAD DUP1 DUP3 MSTORE SWAP1 DUP3 ADD SWAP3 POP DUP2 DUP7 ADD SWAP1 PUSH1 0x0 JUMPDEST DUP2 DUP2 LT ISZERO PUSH2 0x2880 JUMPI DUP3 MLOAD PUSH1 0x1 PUSH1 0x1 PUSH1 0xA0 SHL SUB AND DUP6 MSTORE SWAP4 DUP4 ADD SWAP4 SWAP2 DUP4 ADD SWAP2 PUSH1 0x1 ADD PUSH2 0x285B JUMP JUMPDEST POP SWAP3 SWAP9 SWAP8 POP POP POP POP POP POP POP POP JUMP JUMPDEST DUP5 DUP2 MSTORE DUP4 PUSH1 0x20 DUP3 ADD MSTORE DUP3 PUSH1 0x40 DUP3 ADD MSTORE PUSH1 0x80 PUSH1 0x60 DUP3 ADD MSTORE PUSH1 0x0 PUSH2 0x28B3 PUSH1 0x80 DUP4 ADD DUP5 PUSH2 0x2652 JUMP JUMPDEST SWAP7 SWAP6 POP POP POP POP POP POP JUMP JUMPDEST PUSH1 0x0 DUP1 PUSH1 0x40 DUP4 DUP6 SUB SLT ISZERO PUSH2 0x28D0 JUMPI PUSH1 0x0 DUP1 REVERT JUMPDEST DUP3 CALLDATALOAD SWAP2 POP PUSH2 0x28E0 PUSH1 0x20 DUP5 ADD PUSH2 0x27A7 JUMP JUMPDEST SWAP1 POP SWAP3 POP SWAP3 SWAP1 POP JUMP JUMPDEST PUSH1 0x0 PUSH1 0x20 DUP3 DUP5 SUB SLT ISZERO PUSH2 0x28FB JUMPI PUSH1 0x0 DUP1 REVERT JUMPDEST POP MLOAD SWAP2 SWAP1 POP JUMP JUMPDEST PUSH4 0x4E487B71 PUSH1 0xE0 SHL PUSH1 0x0 MSTORE PUSH1 0x32 PUSH1 0x4 MSTORE PUSH1 0x24 PUSH1 0x0 REVERT JUMPDEST PUSH4 0x4E487B71 PUSH1 0xE0 SHL PUSH1 0x0 MSTORE PUSH1 0x11 PUSH1 0x4 MSTORE PUSH1 0x24 PUSH1 0x0 REVERT JUMPDEST DUP1 DUP3 ADD DUP1 DUP3 GT ISZERO PUSH2 0x2941 JUMPI PUSH2 0x2941 PUSH2 0x2918 JUMP JUMPDEST SWAP3 SWAP2 POP POP JUMP JUMPDEST PUSH1 0x0 PUSH1 0x1 DUP3 ADD PUSH2 0x2959 JUMPI PUSH2 0x2959 PUSH2 0x2918 JUMP JUMPDEST POP PUSH1 0x1 ADD SWAP1 JUMP JUMPDEST DUP2 DUP2 SUB DUP2 DUP2 GT ISZERO PUSH2 0x2941 JUMPI PUSH2 0x2941 PUSH2 0x2918 JUMP JUMPDEST PUSH1 0x1 DUP2 DUP2 SHR SWAP1 DUP3 AND DUP1 PUSH2 0x2987 JUMPI PUSH1 0x7F DUP3 AND SWAP2 POP JUMPDEST PUSH1 0x20 DUP3 LT DUP2 SUB PUSH2 0x29A7 JUMPI PUSH4 0x4E487B71 PUSH1 0xE0 SHL PUSH1 0x0 MSTORE PUSH1 0x22 PUSH1 0x4 MSTORE PUSH1 0x24 PUSH1 0x0 REVERT JUMPDEST POP SWAP2 SWAP1 POP JUMP JUMPDEST PUSH4 0x4E487B71 PUSH1 0xE0 SHL PUSH1 0x0 MSTORE PUSH1 0x41 PUSH1 0x4 MSTORE PUSH1 0x24 PUSH1 0x0 REVERT JUMPDEST PUSH1 0x1F DUP3 GT ISZERO PUSH2 0xB55 JUMPI PUSH1 0x0 DUP2 DUP2 MSTORE PUSH1 0x20 DUP2 KECCAK256 PUSH1 0x1F DUP6 ADD PUSH1 0x5 SHR DUP2 ADD PUSH1 0x20 DUP7 LT ISZERO PUSH2 0x29EA JUMPI POP DUP1 JUMPDEST PUSH1 0x1F DUP6 ADD PUSH1 0x5 SHR DUP3 ADD SWAP2 POP JUMPDEST DUP2 DUP2 LT ISZERO PUSH2 0x2A09 JUMPI DUP3 DUP2 SSTORE PUSH1 0x1 ADD PUSH2 0x29F6 JUMP JUMPDEST POP POP POP POP POP POP JUMP JUMPDEST PUSH8 0xFFFFFFFFFFFFFFFF DUP4 GT ISZERO PUSH2 0x2A29 JUMPI PUSH2 0x2A29 PUSH2 0x29AD JUMP JUMPDEST PUSH2 0x2A3D DUP4 PUSH2 0x2A37 DUP4 SLOAD PUSH2 0x2973 JUMP JUMPDEST DUP4 PUSH2 0x29C3 JUMP JUMPDEST PUSH1 0x0 PUSH1 0x1F DUP5 GT PUSH1 0x1 DUP2 EQ PUSH2 0x2A71 JUMPI PUSH1 0x0 DUP6 ISZERO PUSH2 0x2A59 JUMPI POP DUP4 DUP3 ADD CALLDATALOAD JUMPDEST PUSH1 0x0 NOT PUSH1 0x3 DUP8 SWAP1 SHL SHR NOT AND PUSH1 0x1 DUP7 SWAP1 SHL OR DUP4 SSTORE PUSH2 0x2ACB JUMP JUMPDEST PUSH1 0x0 DUP4 DUP2 MSTORE PUSH1 0x20 SWAP1 KECCAK256 PUSH1 0x1F NOT DUP7 AND SWAP1 DUP4 JUMPDEST DUP3 DUP2 LT ISZERO PUSH2 0x2AA2 JUMPI DUP7 DUP6 ADD CALLDATALOAD DUP3 SSTORE PUSH1 0x20 SWAP5 DUP6 ADD SWAP5 PUSH1 0x1 SWAP1 SWAP3 ADD SWAP2 ADD PUSH2 0x2A82 JUMP JUMPDEST POP DUP7 DUP3 LT ISZERO PUSH2 0x2ABF JUMPI PUSH1 0x0 NOT PUSH1 0xF8 DUP9 PUSH1 0x3 SHL AND SHR NOT DUP5 DUP8 ADD CALLDATALOAD AND DUP2 SSTORE JUMPDEST POP POP PUSH1 0x1 DUP6 PUSH1 0x1 SHL ADD DUP4 SSTORE JUMPDEST POP POP POP POP POP JUMP JUMPDEST PUSH1 0x20 DUP2 MSTORE DUP2 PUSH1 0x20 DUP3 ADD MSTORE DUP2 DUP4 PUSH1 0x40 DUP4 ADD CALLDATACOPY PUSH1 0x0 DUP2 DUP4 ADD PUSH1 0x40 SWAP1 DUP2 ADD SWAP2 SWAP1 SWAP2 MSTORE PUSH1 0x1F SWAP1 SWAP3 ADD PUSH1 0x1F NOT AND ADD ADD SWAP2 SWAP1 POP JUMP JUMPDEST PUSH1 0x20 DUP1 DUP3 MSTORE PUSH1 0x14 SWAP1 DUP3 ADD MSTORE PUSH20 0x139BDD0818481D995C9A599A5959081859D95B9D PUSH1 0x62 SHL PUSH1 0x40 DUP3 ADD MSTORE PUSH1 0x60 ADD SWAP1 JUMP JUMPDEST PUSH1 0x20 DUP1 DUP3 MSTORE PUSH1 0x15 SWAP1 DUP3 ADD MSTORE PUSH21 0x43686F696365206D7573742062652030206F722031 PUSH1 0x58 SHL PUSH1 0x40 DUP3 ADD MSTORE PUSH1 0x60 ADD SWAP1 JUMP JUMPDEST PUSH4 0x4E487B71 PUSH1 0xE0 SHL PUSH1 0x0 MSTORE PUSH1 0x12 PUSH1 0x4 MSTORE PUSH1 0x24 PUSH1 0x0 REVERT JUMPDEST PUSH1 0x0 DUP3 PUSH2 0x2B83 JUMPI PUSH2 0x2B83 PUSH2 0x2B5E JUMP JUMPDEST POP MOD SWAP1 JUMP JUMPDEST DUP1 DUP3 MUL DUP2 ISZERO DUP3 DUP3 DIV DUP5 EQ OR PUSH2 0x2941 JUMPI PUSH2 0x2941 PUSH2 0x2918 JUMP JUMPDEST PUSH1 0x0 DUP3 PUSH2 0x2BAE JUMPI PUSH2 0x2BAE PUSH2 0x2B5E JUMP JUMPDEST POP DIV SWAP1 JUMP INVALID LOG2 PUSH5 0x6970667358 0x22 SLT KECCAK256 0xD1 0xBA 0xDC 0xF7 PUSH21 0x880AAA03A57CFFD17C6FC2FA7E50EC16B32EA43268 DELEGATECALL DUP10 CALLDATACOPY PUSH0 STATICCALL 0xCA PUSH5 0x736F6C6343 STOP ADDMOD EQ STOP CALLER "},"methodIdentifiers":{"acceptChallenge(uint256,uint8)":"ca2ad0aa","addSupportedBet(uint256)":"011b66b7","agentNames(address)":"2cbc1660","agentStatus(address)":"28f3fac9","cancelChallenge(uint256)":"a41483e3","challengeTimeout()":"51c54446","challenges(uint256)":"8f1d3776","createChallenge(address,uint256,uint8)":"af3b5867","enterPool(uint256,uint8)":"b5827350","exitPool(uint256)":"be1d24ad","forceExitStalePool(uint256)":"87e6ffe7","getAgentStats(address)":"b5695b38","getAllPoolStatus()":"b02a5e90","getChallenge(uint256)":"1bdd4b74","getPoolStatus(uint256)":"b34a5f72","getSupportedBets()":"4c6ae76f","isMoltbookVerified(address)":"b087ae4f","isSupportedBet(uint256)":"08f3b429","losses(address)":"c903c233","matchingPool(uint256)":"c54a8e7c","nextChallengeId()":"fc67aa50","owner()":"8da5cb5b","poolPlayerChoice(uint256)":"e0e710b5","poolTimestamp(uint256)":"edc3cc25","protocolFeeBps()":"35659fb8","registerAgent(string)":"2d2a9585","removeSupportedBet(uint256)":"9eacdacb","renounceOwnership()":"715018a6","setChallengeTimeout(uint256)":"58cae0b0","setProtocolFee(uint256)":"787dce3d","setVerifier(address,bool)":"ac9b5671","shellToken()":"6aae314c","supportedBets(uint256)":"343d9232","totalGamesPlayed()":"5c492129","totalVolume()":"5f81a57c","totalWagered(address)":"470762e9","transferOwnership(address)":"f2fde38b","verifiedAgents(address)":"ae82455f","verifiers(address)":"6c824487","verifyAgentIdentity(address)":"0f394b61","wins(address)":"8047a97a","withdrawFees(address)":"164e68de"}}}}}