{"contracts/games/InstantBlackjack.sol":{"InstantBlackjack":{"abi":[{"inputs":[{"internalType":"address","name":"_shellToken","type":"address"},{"internalType":"address","name":"_houseBankroll","type":"address"}],"stateMutability":"nonpayable","type":"constructor"},{"inputs":[{"internalType":"address","name":"owner","type":"address"}],"name":"OwnableInvalidOwner","type":"error"},{"inputs":[{"internalType":"address","name":"account","type":"address"}],"name":"OwnableUnauthorizedAccount","type":"error"},{"inputs":[],"name":"ReentrancyGuardReentrantCall","type":"error"},{"inputs":[{"internalType":"address","name":"token","type":"address"}],"name":"SafeERC20FailedOperation","type":"error"},{"anonymous":false,"inputs":[{"indexed":true,"internalType":"address","name":"agent","type":"address"},{"indexed":false,"internalType":"string","name":"name","type":"string"}],"name":"AgentVerified","type":"event"},{"anonymous":false,"inputs":[{"indexed":true,"internalType":"uint256","name":"gameId","type":"uint256"},{"indexed":true,"internalType":"address","name":"player","type":"address"},{"indexed":false,"internalType":"uint256","name":"betAmount","type":"uint256"},{"indexed":false,"internalType":"uint8","name":"playerTotal","type":"uint8"},{"indexed":false,"internalType":"uint8","name":"dealerTotal","type":"uint8"},{"indexed":false,"internalType":"uint256","name":"payout","type":"uint256"},{"indexed":false,"internalType":"string","name":"result","type":"string"}],"name":"InstantBlackjackPlayed","type":"event"},{"anonymous":false,"inputs":[{"indexed":true,"internalType":"address","name":"previousOwner","type":"address"},{"indexed":true,"internalType":"address","name":"newOwner","type":"address"}],"name":"OwnershipTransferred","type":"event"},{"inputs":[{"internalType":"address","name":"","type":"address"}],"name":"agentNames","outputs":[{"internalType":"string","name":"","type":"string"}],"stateMutability":"view","type":"function"},{"inputs":[{"internalType":"address","name":"","type":"address"}],"name":"blackjacks","outputs":[{"internalType":"uint256","name":"","type":"uint256"}],"stateMutability":"view","type":"function"},{"inputs":[{"internalType":"uint256","name":"","type":"uint256"}],"name":"gameHistory","outputs":[{"internalType":"uint256","name":"gameId","type":"uint256"},{"internalType":"address","name":"player","type":"address"},{"internalType":"uint256","name":"betAmount","type":"uint256"},{"internalType":"uint8","name":"playerTotal","type":"uint8"},{"internalType":"uint8","name":"dealerTotal","type":"uint8"},{"internalType":"bool","name":"playerBlackjack","type":"bool"},{"internalType":"bool","name":"dealerBlackjack","type":"bool"},{"internalType":"bool","name":"playerBusted","type":"bool"},{"internalType":"bool","name":"dealerBusted","type":"bool"},{"internalType":"uint256","name":"payout","type":"uint256"},{"internalType":"string","name":"result","type":"string"}],"stateMutability":"view","type":"function"},{"inputs":[{"internalType":"address","name":"agent","type":"address"}],"name":"getAgentStats","outputs":[{"internalType":"string","name":"name","type":"string"},{"internalType":"uint256","name":"_wins","type":"uint256"},{"internalType":"uint256","name":"_losses","type":"uint256"},{"internalType":"uint256","name":"_pushes","type":"uint256"},{"internalType":"uint256","name":"_blackjacks","type":"uint256"},{"internalType":"uint256","name":"wagered","type":"uint256"},{"internalType":"int256","name":"pnl","type":"int256"}],"stateMutability":"view","type":"function"},{"inputs":[{"internalType":"address","name":"player","type":"address"},{"internalType":"uint256","name":"count","type":"uint256"}],"name":"getPlayerGames","outputs":[{"internalType":"uint256[]","name":"","type":"uint256[]"}],"stateMutability":"view","type":"function"},{"inputs":[{"internalType":"uint256","name":"count","type":"uint256"}],"name":"getRecentGames","outputs":[{"components":[{"internalType":"uint256","name":"gameId","type":"uint256"},{"internalType":"address","name":"player","type":"address"},{"internalType":"uint256","name":"betAmount","type":"uint256"},{"internalType":"uint8[]","name":"playerCards","type":"uint8[]"},{"internalType":"uint8[]","name":"dealerCards","type":"uint8[]"},{"internalType":"uint8","name":"playerTotal","type":"uint8"},{"internalType":"uint8","name":"dealerTotal","type":"uint8"},{"internalType":"bool","name":"playerBlackjack","type":"bool"},{"internalType":"bool","name":"dealerBlackjack","type":"bool"},{"internalType":"bool","name":"playerBusted","type":"bool"},{"internalType":"bool","name":"dealerBusted","type":"bool"},{"internalType":"uint256","name":"payout","type":"uint256"},{"internalType":"string","name":"result","type":"string"}],"internalType":"struct InstantBlackjack.GameResult[]","name":"","type":"tuple[]"}],"stateMutability":"view","type":"function"},{"inputs":[],"name":"houseBankroll","outputs":[{"internalType":"address","name":"","type":"address"}],"stateMutability":"view","type":"function"},{"inputs":[{"internalType":"address","name":"","type":"address"}],"name":"losses","outputs":[{"internalType":"uint256","name":"","type":"uint256"}],"stateMutability":"view","type":"function"},{"inputs":[],"name":"maxBet","outputs":[{"internalType":"uint256","name":"","type":"uint256"}],"stateMutability":"view","type":"function"},{"inputs":[],"name":"minBet","outputs":[{"internalType":"uint256","name":"","type":"uint256"}],"stateMutability":"view","type":"function"},{"inputs":[],"name":"owner","outputs":[{"internalType":"address","name":"","type":"address"}],"stateMutability":"view","type":"function"},{"inputs":[{"internalType":"uint256","name":"betAmount","type":"uint256"}],"name":"playHand","outputs":[{"components":[{"internalType":"uint256","name":"gameId","type":"uint256"},{"internalType":"address","name":"player","type":"address"},{"internalType":"uint256","name":"betAmount","type":"uint256"},{"internalType":"uint8[]","name":"playerCards","type":"uint8[]"},{"internalType":"uint8[]","name":"dealerCards","type":"uint8[]"},{"internalType":"uint8","name":"playerTotal","type":"uint8"},{"internalType":"uint8","name":"dealerTotal","type":"uint8"},{"internalType":"bool","name":"playerBlackjack","type":"bool"},{"internalType":"bool","name":"dealerBlackjack","type":"bool"},{"internalType":"bool","name":"playerBusted","type":"bool"},{"internalType":"bool","name":"dealerBusted","type":"bool"},{"internalType":"uint256","name":"payout","type":"uint256"},{"internalType":"string","name":"result","type":"string"}],"internalType":"struct InstantBlackjack.GameResult","name":"result","type":"tuple"}],"stateMutability":"nonpayable","type":"function"},{"inputs":[{"internalType":"address","name":"","type":"address"},{"internalType":"uint256","name":"","type":"uint256"}],"name":"playerGameIds","outputs":[{"internalType":"uint256","name":"","type":"uint256"}],"stateMutability":"view","type":"function"},{"inputs":[{"internalType":"address","name":"","type":"address"}],"name":"profitLoss","outputs":[{"internalType":"int256","name":"","type":"int256"}],"stateMutability":"view","type":"function"},{"inputs":[],"name":"protocolFeeBps","outputs":[{"internalType":"uint256","name":"","type":"uint256"}],"stateMutability":"view","type":"function"},{"inputs":[{"internalType":"address","name":"","type":"address"}],"name":"pushes","outputs":[{"internalType":"uint256","name":"","type":"uint256"}],"stateMutability":"view","type":"function"},{"inputs":[{"internalType":"string","name":"name","type":"string"}],"name":"registerAgent","outputs":[],"stateMutability":"nonpayable","type":"function"},{"inputs":[],"name":"renounceOwnership","outputs":[],"stateMutability":"nonpayable","type":"function"},{"inputs":[{"internalType":"uint256","name":"_min","type":"uint256"},{"internalType":"uint256","name":"_max","type":"uint256"}],"name":"setBetLimits","outputs":[],"stateMutability":"nonpayable","type":"function"},{"inputs":[{"internalType":"address","name":"_houseBankroll","type":"address"}],"name":"setHouseBankroll","outputs":[],"stateMutability":"nonpayable","type":"function"},{"inputs":[{"internalType":"uint256","name":"_feeBps","type":"uint256"}],"name":"setProtocolFee","outputs":[],"stateMutability":"nonpayable","type":"function"},{"inputs":[],"name":"shellToken","outputs":[{"internalType":"contract IERC20","name":"","type":"address"}],"stateMutability":"view","type":"function"},{"inputs":[],"name":"totalGamesPlayed","outputs":[{"internalType":"uint256","name":"","type":"uint256"}],"stateMutability":"view","type":"function"},{"inputs":[],"name":"totalVolume","outputs":[{"internalType":"uint256","name":"","type":"uint256"}],"stateMutability":"view","type":"function"},{"inputs":[{"internalType":"address","name":"","type":"address"}],"name":"totalWagered","outputs":[{"internalType":"uint256","name":"","type":"uint256"}],"stateMutability":"view","type":"function"},{"inputs":[{"internalType":"address","name":"newOwner","type":"address"}],"name":"transferOwnership","outputs":[],"stateMutability":"nonpayable","type":"function"},{"inputs":[{"internalType":"address","name":"","type":"address"}],"name":"verifiedAgents","outputs":[{"internalType":"bool","name":"","type":"bool"}],"stateMutability":"view","type":"function"},{"inputs":[{"internalType":"address","name":"","type":"address"}],"name":"wins","outputs":[{"internalType":"uint256","name":"","type":"uint256"}],"stateMutability":"view","type":"function"}],"evm":{"bytecode":{"linkReferences":{},"object":"60a0604052670de0b6b3a7640000600355681b1ae4d6e2ef50000060045560646005553480156200002f57600080fd5b5060405162002e4a38038062002e4a833981016040819052620000529162000122565b600160005533806200007e57604051631e4fbdf760e01b81526000600482015260240160405180910390fd5b6200008981620000b3565b506001600160a01b03918216608052600280546001600160a01b031916919092161790556200015a565b600180546001600160a01b038381166001600160a01b0319831681179093556040519116919082907f8be0079c531659141344cd1fd0a4f28419497f9722a3daafe3b4186f6b6457e090600090a35050565b80516001600160a01b03811681146200011d57600080fd5b919050565b600080604083850312156200013657600080fd5b620001418362000105565b9150620001516020840162000105565b90509250929050565b608051612cb862000192600039600081816102da01528181610dac01528181611c9a01528181611de40152611eef0152612cb86000f3fe608060405234801561001057600080fd5b50600436106101c45760003560e01c8063787dce3d116100f9578063b111dfac11610097578063c6ba35ec11610071578063c6ba35ec1461042e578063c903c2331461044e578063d3438aa21461046e578063f2fde38b1461049857600080fd5b8063b111dfac146103d5578063b5695b38146103f5578063c13342cd1461041b57600080fd5b80639619367d116100d35780639619367d14610373578063aaf6e0d51461037c578063ab782b981461038f578063ae82455f146103a257600080fd5b8063787dce3d1461032f5780638047a97a146103425780638da5cb5b1461036257600080fd5b8063470762e9116101665780635f81a57c116101405780635f81a57c146102cc5780636aae314c146102d5578063715018a6146103145780637687dd491461031c57600080fd5b8063470762e9146102835780634e0e7157146102a35780635c492129146102c357600080fd5b80632cbc1660116101a25780632cbc16601461023c5780632d2a95851461025c5780632e5b21681461027157806335659fb81461027a57600080fd5b806308853efc146101c9578063122b477b146101fc578063288b45951461021c575b600080fd5b6101e96101d7366004612442565b600d6020526000908152604090205481565b6040519081526020015b60405180910390f35b61020f61020a36600461245d565b6104ab565b6040516101f391906125ee565b61022f61022a366004612650565b6107a5565b6040516101f3919061267a565b61024f61024a366004612442565b61088e565b6040516101f391906126be565b61026f61026a3660046126d1565b610928565b005b6101e960045481565b6101e960055481565b6101e9610291366004612442565b600e6020526000908152604090205481565b6101e96102b1366004612442565b600c6020526000908152604090205481565b6101e960065481565b6101e960075481565b6102fc7f000000000000000000000000000000000000000000000000000000000000000081565b6040516001600160a01b0390911681526020016101f3565b61026f6109ef565b61026f61032a366004612743565b610a03565b61026f61033d36600461245d565b610a56565b6101e9610350366004612442565b600a6020526000908152604090205481565b6001546001600160a01b03166102fc565b6101e960035481565b6002546102fc906001600160a01b031681565b61026f61039d366004612442565b610aa2565b6103c56103b0366004612442565b60086020526000908152604090205460ff1681565b60405190151581526020016101f3565b6101e96103e3366004612442565b600f6020526000908152604090205481565b610408610403366004612442565b610acc565b6040516101f39796959493929190612765565b6101e9610429366004612650565b610bd7565b61044161043c36600461245d565b610c08565b6040516101f391906127a9565b6101e961045c366004612442565b600b6020526000908152604090205481565b61048161047c36600461245d565b61110c565b6040516101f39b9a999897969594939291906127bc565b61026f6104a6366004612442565b611221565b601054606090808311156104bd578092505b60008367ffffffffffffffff8111156104d8576104d8612837565b60405190808252806020026020018201604052801561051157816020015b6104fe6122f1565b8152602001906001900390816104f65790505b50905060005b8481101561079d5760108161052d600186612863565b6105379190612863565b8154811061054757610547612876565b6000918252602091829020604080516101a08101825260089093029091018054835260018101546001600160a01b031683850152600281015483830152600381018054835181870281018701909452808452939491936060860193928301828280156105f057602002820191906000526020600020906000905b825461010083900a900460ff168152602060019283018181049485019490930390920291018084116105c15790505b505050505081526020016004820180548060200260200160405190810160405280929190818152602001828054801561066657602002820191906000526020600020906000905b825461010083900a900460ff168152602060019283018181049485019490930390920291018084116106375790505b5050509183525050600582015460ff8082166020840152610100808304821660408501526201000083048216151560608501526301000000830482161515608085015264010000000083048216151560a08501526501000000000090920416151560c0830152600683015460e08301526007830180549190920191906106eb9061288c565b80601f01602080910402602001604051908101604052809291908181526020018280546107179061288c565b80156107645780601f1061073957610100808354040283529160200191610764565b820191906000526020600020905b81548152906001019060200180831161074757829003601f168201915b50505050508152505082828151811061077f5761077f612876565b60200260200101819052508080610795906128c6565b915050610517565b509392505050565b6001600160a01b0382166000908152601160205260409020805460609190808411156107cf578093505b60008467ffffffffffffffff8111156107ea576107ea612837565b604051908082528060200260200182016040528015610813578160200160208202803683370190505b50905060005b8581101561088257838161082e600186612863565b6108389190612863565b8154811061084857610848612876565b906000526020600020015482828151811061086557610865612876565b60209081029190910101528061087a816128c6565b915050610819565b50925050505b92915050565b600960205260009081526040902080546108a79061288c565b80601f01602080910402602001604051908101604052809291908181526020018280546108d39061288c565b80156109205780601f106108f557610100808354040283529160200191610920565b820191906000526020600020905b81548152906001019060200180831161090357829003601f168201915b505050505081565b8015801590610938575060208111155b6109785760405162461bcd60e51b815260206004820152600c60248201526b496e76616c6964206e616d6560a01b60448201526064015b60405180910390fd5b336000908152600860209081526040808320805460ff19166001179055600990915290206109a782848361292d565b50336001600160a01b03167f45127b38457c2f5c381cad14d94b51d80a7700dfb7a910a1d816fee3d3e1059183836040516109e39291906129ee565b60405180910390a25050565b6109f761125f565b610a01600061128c565b565b610a0b61125f565b808210610a4b5760405162461bcd60e51b815260206004820152600e60248201526d496e76616c6964206c696d69747360901b604482015260640161096f565b600391909155600455565b610a5e61125f565b6101f4811115610a9d5760405162461bcd60e51b815260206004820152600a6024820152694d61782035252066656560b01b604482015260640161096f565b600555565b610aaa61125f565b600280546001600160a01b0319166001600160a01b0392909216919091179055565b6001600160a01b0381166000908152600960209081526040808320600a835281842054600b845282852054600c855283862054600d865284872054600e875285882054600f909752948720548454606098978897889788978897889792969195909492939291908790610b3e9061288c565b80601f0160208091040260200160405190810160405280929190818152602001828054610b6a9061288c565b8015610bb75780601f10610b8c57610100808354040283529160200191610bb7565b820191906000526020600020905b815481529060010190602001808311610b9a57829003601f168201915b505050505096509650965096509650965096509650919395979092949650565b60116020528160005260406000208181548110610bf357600080fd5b90600052602060002001600091509150505481565b610c106122f1565b3360009081526008602052604090205460ff16610c665760405162461bcd60e51b8152602060048201526014602482015273139bdd0818481d995c9a599a5959081859d95b9d60621b604482015260640161096f565b610c6e6112de565b6003548210158015610c8257506004548211155b610cc15760405162461bcd60e51b815260206004820152601060248201526f426574206f7574206f662072616e676560801b604482015260640161096f565b60006002610cd0846005612a1d565b610cda9190612a4a565b6002549091506001600160a01b031615610d9f576002546040516372b3630d60e11b8152600481018390526001600160a01b039091169063e566c61a90602401602060405180830381865afa158015610d37573d6000803e3d6000fd5b505050506040513d601f19601f82011682018060405250810190610d5b9190612a5e565b610d9f5760405162461bcd60e51b8152602060048201526015602482015274125b9cdd59999a58da595b9d0818985b9adc9bdb1b605a1b604482015260640161096f565b610dd46001600160a01b037f000000000000000000000000000000000000000000000000000000000000000016333086611308565b60068054906000610de4836128c6565b91905055508260076000828254610dfb9190612a80565b9091555050336000908152600e602052604081208054859290610e1f908490612a80565b9091555050600654604051600091610e689144914291339190602001938452602084019290925260601b6bffffffffffffffffffffffff19166040830152605482015260740190565b6040516020818303038152906040528051906020012060001c9050610e8e338583611375565b6006548152336020808301918252604083018781526010805460018101825560009190915284517f1b6847dc741a1b0cd08d278845f9d819d87b734759afb55fe2de5cb82a9ae672600890920291820190815593517f1b6847dc741a1b0cd08d278845f9d819d87b734759afb55fe2de5cb82a9ae673820180546001600160a01b0319166001600160a01b0390921691909117905590517f1b6847dc741a1b0cd08d278845f9d819d87b734759afb55fe2de5cb82a9ae674820155606084015180519497508794610f88937f1b6847dc741a1b0cd08d278845f9d819d87b734759afb55fe2de5cb82a9ae675909301929190910190612370565b5060808201518051610fa4916004840191602090910190612370565b5060a082015160058201805460c085015160e0860151610100808801516101208901516101408a01511515650100000000000265ff000000000019911515640100000000029190911665ffff000000001992151563010000000263ff0000001995151562010000029590951663ffff00001960ff97881690950261ffff199098169690991695909517959095179190911695909517179390931692909217919091179055610160820151600682015561018082015160078201906110689082612a93565b50503360009081526011602090815260408220600654815460018101835591845291909220909101555061109b83611c4d565b336001600160a01b031683600001517fdfbd7e324c7affbae354f011d5d3f2a9420edd71c7d837ad099577c737d55861868660a001518760c001518861016001518961018001516040516110f3959493929190612b53565b60405180910390a350506111076001600055565b919050565b6010818154811061111c57600080fd5b60009182526020909120600890910201805460018201546002830154600584015460068501546007860180549597506001600160a01b0390941695929460ff8084169561010085048216956201000086048316956301000000810484169564010000000082048516956501000000000090920490941693929061119e9061288c565b80601f01602080910402602001604051908101604052809291908181526020018280546111ca9061288c565b80156112175780601f106111ec57610100808354040283529160200191611217565b820191906000526020600020905b8154815290600101906020018083116111fa57829003601f168201915b505050505090508b565b61122961125f565b6001600160a01b03811661125357604051631e4fbdf760e01b81526000600482015260240161096f565b61125c8161128c565b50565b6001546001600160a01b03163314610a015760405163118cdaa760e01b815233600482015260240161096f565b600180546001600160a01b038381166001600160a01b0319831681179093556040519116919082907f8be0079c531659141344cd1fd0a4f28419497f9722a3daafe3b4186f6b6457e090600090a35050565b60026000540361130157604051633ee5aeb560e01b815260040160405180910390fd5b6002600055565b6040516001600160a01b03848116602483015283811660448301526064820183905261136f9186918216906323b872dd906084015b604051602081830303815290604052915060e01b6020820180516001600160e01b038381831617835250505050611f5d565b50505050565b61137d6122f1565b6040805160348082526106a0820190925260009160208201610680803683370190505090506000805b60348160ff1610156113ec5780838260ff16815181106113c8576113c8612876565b60ff90921660209283029190910190910152806113e481612b8f565b9150506113a6565b5060335b60ff8116156114e9576000611406826001612bae565b60ff16868360405160200161143292919091825260f81b6001600160f81b031916602082015260210190565b6040516020818303038152906040528051906020012060001c6114559190612bc7565b9050838160ff168151811061146c5761146c612876565b6020026020010151848360ff168151811061148957611489612876565b6020026020010151858460ff16815181106114a6576114a6612876565b60200260200101868460ff16815181106114c2576114c2612876565b60ff93841660209182029290920101529116905250806114e181612bdb565b9150506113f0565b5060408051600a8082526101608201909252906020820161014080368337505050606084015260408051600a80825261016082019092529060208201610140803683375050506080840152600080838361154281612b8f565b945060ff168151811061155757611557612876565b60200260200101518560600151838061156f90612b8f565b945060ff168151811061158457611584612876565b60ff9092166020928302919091019091015283836115a181612b8f565b945060ff16815181106115b6576115b6612876565b6020026020010151856080015182806115ce90612b8f565b935060ff16815181106115e3576115e3612876565b60ff90921660209283029190910190910152838361160081612b8f565b945060ff168151811061161557611615612876565b60200260200101518560600151838061162d90612b8f565b945060ff168151811061164257611642612876565b60ff90921660209283029190910190910152838361165f81612b8f565b945060ff168151811061167457611674612876565b60200260200101518560800151828061168c90612b8f565b935060ff16815181106116a1576116a1612876565b602002602001019060ff16908160ff16815250506116c3856060015183611fce565b60ff1660a086015260808501516116da9082611fce565b60ff90811660c087015260a0860151166015036116f957600160e08601525b8460c0015160ff166015036117115760016101008601525b8460e001518061172357508461010001515b156118c8578460e00151801561173b57508461010001515b1561179c5760408051808201825260048152630e0eae6d60e31b60208083019190915261018088019190915261016087018990526001600160a01b038a166000908152600c909152908120805491611792836128c6565b9190505550611897565b8460e001511561184057604080518082019091526009815268626c61636b6a61636b60b81b602082015261018086015260026117d9886003612a1d565b6117e39190612a4a565b6117ed9088612a80565b6101608601526001600160a01b0388166000908152600d60205260408120805491611817836128c6565b90915550506001600160a01b0388166000908152600a60205260408120805491611792836128c6565b60408051808201825260048152636c6f737360e01b602080830191909152610180880191909152600061016088018190526001600160a01b038b168152600b909152908120805491611891836128c6565b91905055505b6118a5856060015183612085565b606086015260808501516118b99082612085565b608086015250611c4692505050565b60158560a0015160ff1610156119ae57600061190186608001516000815181106118f4576118f4612876565b6020026020010151612138565b905060006119218760a001518361191c8a606001518861217b565b61220a565b90508061192f5750506119ae565b858561193a81612b8f565b965060ff168151811061194f5761194f612876565b60200260200101518760600151858061196790612b8f565b965060ff168151811061197c5761197c612876565b602002602001019060ff16908160ff168152505061199e876060015185611fce565b60ff1660a0880152506118c89050565b60158560a0015160ff161115611a1757600161012086015260408051808201825260048152636c6f737360e01b602080830191909152610180880191909152600061016088018190526001600160a01b038b168152600b909152908120805491611891836128c6565b60118560c0015160ff161015611aa3578383611a3281612b8f565b945060ff1681518110611a4757611a47612876565b602002602001015185608001518280611a5f90612b8f565b935060ff1681518110611a7457611a74612876565b602002602001019060ff16908160ff1681525050611a96856080015182611fce565b60ff1660c0860152611a17565b60158560c0015160ff161115611b1a5760016101408601526040805180820190915260038152623bb4b760e91b6020820152610180860152611ae6876002612a1d565b6101608601526001600160a01b0388166000908152600a60205260408120805491611b10836128c6565b9190505550611c1a565b8460c0015160ff168560a0015160ff161115611b5b576040805180820190915260038152623bb4b760e91b6020820152610180860152611ae6876002612a1d565b8460c0015160ff168560a0015160ff161015611bc25760408051808201825260048152636c6f737360e01b602080830191909152610180880191909152600061016088018190526001600160a01b038b168152600b909152908120805491611b10836128c6565b60408051808201825260048152630e0eae6d60e31b60208083019190915261018088019190915261016087018990526001600160a01b038a166000908152600c909152908120805491611c14836128c6565b91905055505b611c28856060015183612085565b60608601526080850151611c3c9082612085565b6080860152505050505b9392505050565b806101600151600003611dbc576002546001600160a01b031615611d7457600254604082810151905163095ea7b360e01b81526001600160a01b03928316600482015260248101919091527f00000000000000000000000000000000000000000000000000000000000000009091169063095ea7b3906044016020604051808303816000875af1158015611ce5573d6000803e3d6000fd5b505050506040513d601f19601f82011682018060405250810190611d099190612a5e565b50600254604080830151905163033c19ab60e41b81526001600160a01b03909216916333c19ab091611d419160040190815260200190565b600060405180830381600087803b158015611d5b57600080fd5b505af1158015611d6f573d6000803e3d6000fd5b505050505b8060400151600f600083602001516001600160a01b03166001600160a01b031681526020019081526020016000206000828254611db19190612bf8565b9091555061125c9050565b806040015181610160015103611e0a576020810151604082015161125c916001600160a01b037f000000000000000000000000000000000000000000000000000000000000000016916122bb565b60008160400151826101600151611e219190612863565b9050600061271060055483611e369190612a1d565b611e409190612a4a565b9050600081846101600151611e559190612863565b6002549091506001600160a01b031615801590611e725750600083115b15611edc5760025460405163093cc7db60e41b8152306004820152602481018590526001600160a01b03909116906393cc7db090604401600060405180830381600087803b158015611ec357600080fd5b505af1158015611ed7573d6000803e3d6000fd5b505050505b6020840151611f16906001600160a01b037f00000000000000000000000000000000000000000000000000000000000000001690836122bb565b6040840151611f259082612bf8565b6020808601516001600160a01b03166000908152600f909152604081208054909190611f52908490612c1f565b909155505050505050565b600080602060008451602086016000885af180611f80576040513d6000823e3d81fd5b50506000513d91508115611f98578060011415611fa5565b6001600160a01b0384163b155b1561136f57604051635274afe760e01b81526001600160a01b038516600482015260240161096f565b60008080805b8460ff168160ff161015612049576000611ffc878360ff16815181106118f4576118f4612876565b90508060ff16600103612029578261201381612b8f565b93506120229050600b85612bae565b9350612036565b6120338185612bae565b93505b508061204181612b8f565b915050611fd4565b505b60158260ff16118015612061575060008160ff16115b1561079d57612071600a83612c47565b91508061207d81612bdb565b91505061204b565b606060008260ff1667ffffffffffffffff8111156120a5576120a5612837565b6040519080825280602002602001820160405280156120ce578160200160208202803683370190505b50905060005b8360ff168160ff16101561079d57848160ff16815181106120f7576120f7612876565b6020026020010151828260ff168151811061211457612114612876565b60ff909216602092830291909101909101528061213081612b8f565b9150506120d4565b600080612146600d84612c60565b90508060ff1660000361215c5750600192915050565b600a8160ff16106121705750600a92915050565b611c46816001612bae565b60008080805b8460ff168160ff1610156121ef5760006121a9878360ff16815181106118f4576118f4612876565b90508060ff166001036121bb57600192505b8060ff166001146121cc57806121cf565b600b5b6121d99085612bae565b93505080806121e790612b8f565b915050612181565b50808015612201575060158260ff1611155b95945050505050565b600081156122515760118460ff161161222557506001611c46565b8360ff16601214801561223c575060098360ff1610155b1561224957506001611c46565b506000611c46565b600b8460ff161161226457506001611c46565b60118460ff161061227757506000611c46565b600c8460ff161015801561228f575060108460ff1611155b156122b15760078360ff161015806122aa57508260ff166001145b9050611c46565b5060009392505050565b6040516001600160a01b038381166024830152604482018390526122ec91859182169063a9059cbb9060640161133d565b505050565b604051806101a001604052806000815260200160006001600160a01b03168152602001600081526020016060815260200160608152602001600060ff168152602001600060ff16815260200160001515815260200160001515815260200160001515815260200160001515815260200160008152602001606081525090565b82805482825590600052602060002090601f016020900481019282156124065791602002820160005b838211156123d757835183826101000a81548160ff021916908360ff1602179055509260200192600101602081600001049283019260010302612399565b80156124045782816101000a81549060ff02191690556001016020816000010492830192600103026123d7565b505b50612412929150612416565b5090565b5b808211156124125760008155600101612417565b80356001600160a01b038116811461110757600080fd5b60006020828403121561245457600080fd5b611c468261242b565b60006020828403121561246f57600080fd5b5035919050565b600081518084526020808501945080840160005b838110156124a957815160ff168752958201959082019060010161248a565b509495945050505050565b6000815180845260005b818110156124da576020818501810151868301820152016124be565b506000602082860101526020601f19601f83011685010191505092915050565b60006101a082518452602083015161251d60208601826001600160a01b03169052565b5060408301516040850152606083015181606086015261253f82860182612476565b915050608083015184820360808601526125598282612476565b91505060a083015161257060a086018260ff169052565b5060c083015161258560c086018260ff169052565b5060e083015161259960e086018215159052565b50610100838101511515908501526101208084015115159085015261014080840151151590850152610160808401519085015261018080840151858303828701526125e483826124b4565b9695505050505050565b6000602080830181845280855180835260408601915060408160051b870101925083870160005b8281101561264357603f198886030184526126318583516124fa565b94509285019290850190600101612615565b5092979650505050505050565b6000806040838503121561266357600080fd5b61266c8361242b565b946020939093013593505050565b6020808252825182820181905260009190848201906040850190845b818110156126b257835183529284019291840191600101612696565b50909695505050505050565b602081526000611c4660208301846124b4565b600080602083850312156126e457600080fd5b823567ffffffffffffffff808211156126fc57600080fd5b818501915085601f83011261271057600080fd5b81358181111561271f57600080fd5b86602082850101111561273157600080fd5b60209290920196919550909350505050565b6000806040838503121561275657600080fd5b50508035926020909101359150565b60e08152600061277860e083018a6124b4565b60208301989098525060408101959095526060850193909352608084019190915260a083015260c090910152919050565b602081526000611c4660208301846124fa565b60006101608d835260018060a01b038d1660208401528b604084015260ff8b16606084015260ff8a16608084015288151560a084015287151560c084015286151560e08401528515156101008401528461012084015280610140840152612825818401856124b4565b9e9d5050505050505050505050505050565b634e487b7160e01b600052604160045260246000fd5b634e487b7160e01b600052601160045260246000fd5b818103818111156108885761088861284d565b634e487b7160e01b600052603260045260246000fd5b600181811c908216806128a057607f821691505b6020821081036128c057634e487b7160e01b600052602260045260246000fd5b50919050565b6000600182016128d8576128d861284d565b5060010190565b601f8211156122ec57600081815260208120601f850160051c810160208610156129065750805b601f850160051c820191505b8181101561292557828155600101612912565b505050505050565b67ffffffffffffffff83111561294557612945612837565b61295983612953835461288c565b836128df565b6000601f84116001811461298d57600085156129755750838201355b600019600387901b1c1916600186901b1783556129e7565b600083815260209020601f19861690835b828110156129be578685013582556020948501946001909201910161299e565b50868210156129db5760001960f88860031b161c19848701351681555b505060018560011b0183555b5050505050565b60208152816020820152818360408301376000818301604090810191909152601f909201601f19160101919050565b80820281158282048414176108885761088861284d565b634e487b7160e01b600052601260045260246000fd5b600082612a5957612a59612a34565b500490565b600060208284031215612a7057600080fd5b81518015158114611c4657600080fd5b808201808211156108885761088861284d565b815167ffffffffffffffff811115612aad57612aad612837565b612ac181612abb845461288c565b846128df565b602080601f831160018114612af65760008415612ade5750858301515b600019600386901b1c1916600185901b178555612925565b600085815260208120601f198616915b82811015612b2557888601518255948401946001909101908401612b06565b5085821015612b435787850151600019600388901b60f8161c191681555b5050505050600190811b01905550565b85815260ff8516602082015260ff8416604082015282606082015260a060808201526000612b8460a08301846124b4565b979650505050505050565b600060ff821660ff8103612ba557612ba561284d565b60010192915050565b60ff81811683821601908111156108885761088861284d565b600082612bd657612bd6612a34565b500690565b600060ff821680612bee57612bee61284d565b6000190192915050565b8181036000831280158383131683831282161715612c1857612c1861284d565b5092915050565b8082018281126000831280158216821582161715612c3f57612c3f61284d565b505092915050565b60ff82811682821603908111156108885761088861284d565b600060ff831680612c7357612c73612a34565b8060ff8416069150509291505056fea264697066735822122033e9402ee24e074d38b84533116f5e5f36aea3ceb5666104df01b5b829cbcfcf64736f6c63430008140033","opcodes":"PUSH1 0xA0 PUSH1 0x40 MSTORE PUSH8 0xDE0B6B3A7640000 PUSH1 0x3 SSTORE PUSH9 0x1B1AE4D6E2EF500000 PUSH1 0x4 SSTORE PUSH1 0x64 PUSH1 0x5 SSTORE CALLVALUE DUP1 ISZERO PUSH3 0x2F JUMPI PUSH1 0x0 DUP1 REVERT JUMPDEST POP PUSH1 0x40 MLOAD PUSH3 0x2E4A CODESIZE SUB DUP1 PUSH3 0x2E4A DUP4 CODECOPY DUP2 ADD PUSH1 0x40 DUP2 SWAP1 MSTORE PUSH3 0x52 SWAP2 PUSH3 0x122 JUMP JUMPDEST PUSH1 0x1 PUSH1 0x0 SSTORE CALLER DUP1 PUSH3 0x7E JUMPI PUSH1 0x40 MLOAD PUSH4 0x1E4FBDF7 PUSH1 0xE0 SHL DUP2 MSTORE PUSH1 0x0 PUSH1 0x4 DUP3 ADD MSTORE PUSH1 0x24 ADD PUSH1 0x40 MLOAD DUP1 SWAP2 SUB SWAP1 REVERT JUMPDEST PUSH3 0x89 DUP2 PUSH3 0xB3 JUMP JUMPDEST POP PUSH1 0x1 PUSH1 0x1 PUSH1 0xA0 SHL SUB SWAP2 DUP3 AND PUSH1 0x80 MSTORE PUSH1 0x2 DUP1 SLOAD PUSH1 0x1 PUSH1 0x1 PUSH1 0xA0 SHL SUB NOT AND SWAP2 SWAP1 SWAP3 AND OR SWAP1 SSTORE PUSH3 0x15A JUMP JUMPDEST PUSH1 0x1 DUP1 SLOAD PUSH1 0x1 PUSH1 0x1 PUSH1 0xA0 SHL SUB DUP4 DUP2 AND PUSH1 0x1 PUSH1 0x1 PUSH1 0xA0 SHL SUB NOT DUP4 AND DUP2 OR SWAP1 SWAP4 SSTORE PUSH1 0x40 MLOAD SWAP2 AND SWAP2 SWAP1 DUP3 SWAP1 PUSH32 0x8BE0079C531659141344CD1FD0A4F28419497F9722A3DAAFE3B4186F6B6457E0 SWAP1 PUSH1 0x0 SWAP1 LOG3 POP POP JUMP JUMPDEST DUP1 MLOAD PUSH1 0x1 PUSH1 0x1 PUSH1 0xA0 SHL SUB DUP2 AND DUP2 EQ PUSH3 0x11D JUMPI PUSH1 0x0 DUP1 REVERT JUMPDEST SWAP2 SWAP1 POP JUMP JUMPDEST PUSH1 0x0 DUP1 PUSH1 0x40 DUP4 DUP6 SUB SLT ISZERO PUSH3 0x136 JUMPI PUSH1 0x0 DUP1 REVERT JUMPDEST PUSH3 0x141 DUP4 PUSH3 0x105 JUMP JUMPDEST SWAP2 POP PUSH3 0x151 PUSH1 0x20 DUP5 ADD PUSH3 0x105 JUMP JUMPDEST SWAP1 POP SWAP3 POP SWAP3 SWAP1 POP JUMP JUMPDEST PUSH1 0x80 MLOAD PUSH2 0x2CB8 PUSH3 0x192 PUSH1 0x0 CODECOPY PUSH1 0x0 DUP2 DUP2 PUSH2 0x2DA ADD MSTORE DUP2 DUP2 PUSH2 0xDAC ADD MSTORE DUP2 DUP2 PUSH2 0x1C9A ADD MSTORE DUP2 DUP2 PUSH2 0x1DE4 ADD MSTORE PUSH2 0x1EEF ADD MSTORE PUSH2 0x2CB8 PUSH1 0x0 RETURN INVALID PUSH1 0x80 PUSH1 0x40 MSTORE CALLVALUE DUP1 ISZERO PUSH2 0x10 JUMPI PUSH1 0x0 DUP1 REVERT JUMPDEST POP PUSH1 0x4 CALLDATASIZE LT PUSH2 0x1C4 JUMPI PUSH1 0x0 CALLDATALOAD PUSH1 0xE0 SHR DUP1 PUSH4 0x787DCE3D GT PUSH2 0xF9 JUMPI DUP1 PUSH4 0xB111DFAC GT PUSH2 0x97 JUMPI DUP1 PUSH4 0xC6BA35EC GT PUSH2 0x71 JUMPI DUP1 PUSH4 0xC6BA35EC EQ PUSH2 0x42E JUMPI DUP1 PUSH4 0xC903C233 EQ PUSH2 0x44E JUMPI DUP1 PUSH4 0xD3438AA2 EQ PUSH2 0x46E JUMPI DUP1 PUSH4 0xF2FDE38B EQ PUSH2 0x498 JUMPI PUSH1 0x0 DUP1 REVERT JUMPDEST DUP1 PUSH4 0xB111DFAC EQ PUSH2 0x3D5 JUMPI DUP1 PUSH4 0xB5695B38 EQ PUSH2 0x3F5 JUMPI DUP1 PUSH4 0xC13342CD EQ PUSH2 0x41B JUMPI PUSH1 0x0 DUP1 REVERT JUMPDEST DUP1 PUSH4 0x9619367D GT PUSH2 0xD3 JUMPI DUP1 PUSH4 0x9619367D EQ PUSH2 0x373 JUMPI DUP1 PUSH4 0xAAF6E0D5 EQ PUSH2 0x37C JUMPI DUP1 PUSH4 0xAB782B98 EQ PUSH2 0x38F JUMPI DUP1 PUSH4 0xAE82455F EQ PUSH2 0x3A2 JUMPI PUSH1 0x0 DUP1 REVERT JUMPDEST DUP1 PUSH4 0x787DCE3D EQ PUSH2 0x32F JUMPI DUP1 PUSH4 0x8047A97A EQ PUSH2 0x342 JUMPI DUP1 PUSH4 0x8DA5CB5B EQ PUSH2 0x362 JUMPI PUSH1 0x0 DUP1 REVERT JUMPDEST DUP1 PUSH4 0x470762E9 GT PUSH2 0x166 JUMPI DUP1 PUSH4 0x5F81A57C GT PUSH2 0x140 JUMPI DUP1 PUSH4 0x5F81A57C EQ PUSH2 0x2CC JUMPI DUP1 PUSH4 0x6AAE314C EQ PUSH2 0x2D5 JUMPI DUP1 PUSH4 0x715018A6 EQ PUSH2 0x314 JUMPI DUP1 PUSH4 0x7687DD49 EQ PUSH2 0x31C JUMPI PUSH1 0x0 DUP1 REVERT JUMPDEST DUP1 PUSH4 0x470762E9 EQ PUSH2 0x283 JUMPI DUP1 PUSH4 0x4E0E7157 EQ PUSH2 0x2A3 JUMPI DUP1 PUSH4 0x5C492129 EQ PUSH2 0x2C3 JUMPI PUSH1 0x0 DUP1 REVERT JUMPDEST DUP1 PUSH4 0x2CBC1660 GT PUSH2 0x1A2 JUMPI DUP1 PUSH4 0x2CBC1660 EQ PUSH2 0x23C JUMPI DUP1 PUSH4 0x2D2A9585 EQ PUSH2 0x25C JUMPI DUP1 PUSH4 0x2E5B2168 EQ PUSH2 0x271 JUMPI DUP1 PUSH4 0x35659FB8 EQ PUSH2 0x27A JUMPI PUSH1 0x0 DUP1 REVERT JUMPDEST DUP1 PUSH4 0x8853EFC EQ PUSH2 0x1C9 JUMPI DUP1 PUSH4 0x122B477B EQ PUSH2 0x1FC JUMPI DUP1 PUSH4 0x288B4595 EQ PUSH2 0x21C JUMPI JUMPDEST PUSH1 0x0 DUP1 REVERT JUMPDEST PUSH2 0x1E9 PUSH2 0x1D7 CALLDATASIZE PUSH1 0x4 PUSH2 0x2442 JUMP JUMPDEST PUSH1 0xD PUSH1 0x20 MSTORE PUSH1 0x0 SWAP1 DUP2 MSTORE PUSH1 0x40 SWAP1 KECCAK256 SLOAD DUP2 JUMP JUMPDEST PUSH1 0x40 MLOAD SWAP1 DUP2 MSTORE PUSH1 0x20 ADD JUMPDEST PUSH1 0x40 MLOAD DUP1 SWAP2 SUB SWAP1 RETURN JUMPDEST PUSH2 0x20F PUSH2 0x20A CALLDATASIZE PUSH1 0x4 PUSH2 0x245D JUMP JUMPDEST PUSH2 0x4AB JUMP JUMPDEST PUSH1 0x40 MLOAD PUSH2 0x1F3 SWAP2 SWAP1 PUSH2 0x25EE JUMP JUMPDEST PUSH2 0x22F PUSH2 0x22A CALLDATASIZE PUSH1 0x4 PUSH2 0x2650 JUMP JUMPDEST PUSH2 0x7A5 JUMP JUMPDEST PUSH1 0x40 MLOAD PUSH2 0x1F3 SWAP2 SWAP1 PUSH2 0x267A JUMP JUMPDEST PUSH2 0x24F PUSH2 0x24A CALLDATASIZE PUSH1 0x4 PUSH2 0x2442 JUMP JUMPDEST PUSH2 0x88E JUMP JUMPDEST PUSH1 0x40 MLOAD PUSH2 0x1F3 SWAP2 SWAP1 PUSH2 0x26BE JUMP JUMPDEST PUSH2 0x26F PUSH2 0x26A CALLDATASIZE PUSH1 0x4 PUSH2 0x26D1 JUMP JUMPDEST PUSH2 0x928 JUMP JUMPDEST STOP JUMPDEST PUSH2 0x1E9 PUSH1 0x4 SLOAD DUP2 JUMP JUMPDEST PUSH2 0x1E9 PUSH1 0x5 SLOAD DUP2 JUMP JUMPDEST PUSH2 0x1E9 PUSH2 0x291 CALLDATASIZE PUSH1 0x4 PUSH2 0x2442 JUMP JUMPDEST PUSH1 0xE PUSH1 0x20 MSTORE PUSH1 0x0 SWAP1 DUP2 MSTORE PUSH1 0x40 SWAP1 KECCAK256 SLOAD DUP2 JUMP JUMPDEST PUSH2 0x1E9 PUSH2 0x2B1 CALLDATASIZE PUSH1 0x4 PUSH2 0x2442 JUMP JUMPDEST PUSH1 0xC PUSH1 0x20 MSTORE PUSH1 0x0 SWAP1 DUP2 MSTORE PUSH1 0x40 SWAP1 KECCAK256 SLOAD DUP2 JUMP JUMPDEST PUSH2 0x1E9 PUSH1 0x6 SLOAD DUP2 JUMP JUMPDEST PUSH2 0x1E9 PUSH1 0x7 SLOAD DUP2 JUMP JUMPDEST PUSH2 0x2FC PUSH32 0x0 DUP2 JUMP JUMPDEST PUSH1 0x40 MLOAD PUSH1 0x1 PUSH1 0x1 PUSH1 0xA0 SHL SUB SWAP1 SWAP2 AND DUP2 MSTORE PUSH1 0x20 ADD PUSH2 0x1F3 JUMP JUMPDEST PUSH2 0x26F PUSH2 0x9EF JUMP JUMPDEST PUSH2 0x26F PUSH2 0x32A CALLDATASIZE PUSH1 0x4 PUSH2 0x2743 JUMP JUMPDEST PUSH2 0xA03 JUMP JUMPDEST PUSH2 0x26F PUSH2 0x33D CALLDATASIZE PUSH1 0x4 PUSH2 0x245D JUMP JUMPDEST PUSH2 0xA56 JUMP JUMPDEST PUSH2 0x1E9 PUSH2 0x350 CALLDATASIZE PUSH1 0x4 PUSH2 0x2442 JUMP JUMPDEST PUSH1 0xA PUSH1 0x20 MSTORE PUSH1 0x0 SWAP1 DUP2 MSTORE PUSH1 0x40 SWAP1 KECCAK256 SLOAD DUP2 JUMP JUMPDEST PUSH1 0x1 SLOAD PUSH1 0x1 PUSH1 0x1 PUSH1 0xA0 SHL SUB AND PUSH2 0x2FC JUMP JUMPDEST PUSH2 0x1E9 PUSH1 0x3 SLOAD DUP2 JUMP JUMPDEST PUSH1 0x2 SLOAD PUSH2 0x2FC SWAP1 PUSH1 0x1 PUSH1 0x1 PUSH1 0xA0 SHL SUB AND DUP2 JUMP JUMPDEST PUSH2 0x26F PUSH2 0x39D CALLDATASIZE PUSH1 0x4 PUSH2 0x2442 JUMP JUMPDEST PUSH2 0xAA2 JUMP JUMPDEST PUSH2 0x3C5 PUSH2 0x3B0 CALLDATASIZE PUSH1 0x4 PUSH2 0x2442 JUMP JUMPDEST PUSH1 0x8 PUSH1 0x20 MSTORE PUSH1 0x0 SWAP1 DUP2 MSTORE PUSH1 0x40 SWAP1 KECCAK256 SLOAD PUSH1 0xFF AND DUP2 JUMP JUMPDEST PUSH1 0x40 MLOAD SWAP1 ISZERO ISZERO DUP2 MSTORE PUSH1 0x20 ADD PUSH2 0x1F3 JUMP JUMPDEST PUSH2 0x1E9 PUSH2 0x3E3 CALLDATASIZE PUSH1 0x4 PUSH2 0x2442 JUMP JUMPDEST PUSH1 0xF PUSH1 0x20 MSTORE PUSH1 0x0 SWAP1 DUP2 MSTORE PUSH1 0x40 SWAP1 KECCAK256 SLOAD DUP2 JUMP JUMPDEST PUSH2 0x408 PUSH2 0x403 CALLDATASIZE PUSH1 0x4 PUSH2 0x2442 JUMP JUMPDEST PUSH2 0xACC JUMP JUMPDEST PUSH1 0x40 MLOAD PUSH2 0x1F3 SWAP8 SWAP7 SWAP6 SWAP5 SWAP4 SWAP3 SWAP2 SWAP1 PUSH2 0x2765 JUMP JUMPDEST PUSH2 0x1E9 PUSH2 0x429 CALLDATASIZE PUSH1 0x4 PUSH2 0x2650 JUMP JUMPDEST PUSH2 0xBD7 JUMP JUMPDEST PUSH2 0x441 PUSH2 0x43C CALLDATASIZE PUSH1 0x4 PUSH2 0x245D JUMP JUMPDEST PUSH2 0xC08 JUMP JUMPDEST PUSH1 0x40 MLOAD PUSH2 0x1F3 SWAP2 SWAP1 PUSH2 0x27A9 JUMP JUMPDEST PUSH2 0x1E9 PUSH2 0x45C CALLDATASIZE PUSH1 0x4 PUSH2 0x2442 JUMP JUMPDEST PUSH1 0xB PUSH1 0x20 MSTORE PUSH1 0x0 SWAP1 DUP2 MSTORE PUSH1 0x40 SWAP1 KECCAK256 SLOAD DUP2 JUMP JUMPDEST PUSH2 0x481 PUSH2 0x47C CALLDATASIZE PUSH1 0x4 PUSH2 0x245D JUMP JUMPDEST PUSH2 0x110C JUMP JUMPDEST PUSH1 0x40 MLOAD PUSH2 0x1F3 SWAP12 SWAP11 SWAP10 SWAP9 SWAP8 SWAP7 SWAP6 SWAP5 SWAP4 SWAP3 SWAP2 SWAP1 PUSH2 0x27BC JUMP JUMPDEST PUSH2 0x26F PUSH2 0x4A6 CALLDATASIZE PUSH1 0x4 PUSH2 0x2442 JUMP JUMPDEST PUSH2 0x1221 JUMP JUMPDEST PUSH1 0x10 SLOAD PUSH1 0x60 SWAP1 DUP1 DUP4 GT ISZERO PUSH2 0x4BD JUMPI DUP1 SWAP3 POP JUMPDEST PUSH1 0x0 DUP4 PUSH8 0xFFFFFFFFFFFFFFFF DUP2 GT ISZERO PUSH2 0x4D8 JUMPI PUSH2 0x4D8 PUSH2 0x2837 JUMP JUMPDEST PUSH1 0x40 MLOAD SWAP1 DUP1 DUP3 MSTORE DUP1 PUSH1 0x20 MUL PUSH1 0x20 ADD DUP3 ADD PUSH1 0x40 MSTORE DUP1 ISZERO PUSH2 0x511 JUMPI DUP2 PUSH1 0x20 ADD JUMPDEST PUSH2 0x4FE PUSH2 0x22F1 JUMP JUMPDEST DUP2 MSTORE PUSH1 0x20 ADD SWAP1 PUSH1 0x1 SWAP1 SUB SWAP1 DUP2 PUSH2 0x4F6 JUMPI SWAP1 POP JUMPDEST POP SWAP1 POP PUSH1 0x0 JUMPDEST DUP5 DUP2 LT ISZERO PUSH2 0x79D JUMPI PUSH1 0x10 DUP2 PUSH2 0x52D PUSH1 0x1 DUP7 PUSH2 0x2863 JUMP JUMPDEST PUSH2 0x537 SWAP2 SWAP1 PUSH2 0x2863 JUMP JUMPDEST DUP2 SLOAD DUP2 LT PUSH2 0x547 JUMPI PUSH2 0x547 PUSH2 0x2876 JUMP JUMPDEST PUSH1 0x0 SWAP2 DUP3 MSTORE PUSH1 0x20 SWAP2 DUP3 SWAP1 KECCAK256 PUSH1 0x40 DUP1 MLOAD PUSH2 0x1A0 DUP2 ADD DUP3 MSTORE PUSH1 0x8 SWAP1 SWAP4 MUL SWAP1 SWAP2 ADD DUP1 SLOAD DUP4 MSTORE PUSH1 0x1 DUP2 ADD SLOAD PUSH1 0x1 PUSH1 0x1 PUSH1 0xA0 SHL SUB AND DUP4 DUP6 ADD MSTORE PUSH1 0x2 DUP2 ADD SLOAD DUP4 DUP4 ADD MSTORE PUSH1 0x3 DUP2 ADD DUP1 SLOAD DUP4 MLOAD DUP2 DUP8 MUL DUP2 ADD DUP8 ADD SWAP1 SWAP5 MSTORE DUP1 DUP5 MSTORE SWAP4 SWAP5 SWAP2 SWAP4 PUSH1 0x60 DUP7 ADD SWAP4 SWAP3 DUP4 ADD DUP3 DUP3 DUP1 ISZERO PUSH2 0x5F0 JUMPI PUSH1 0x20 MUL DUP3 ADD SWAP2 SWAP1 PUSH1 0x0 MSTORE PUSH1 0x20 PUSH1 0x0 KECCAK256 SWAP1 PUSH1 0x0 SWAP1 JUMPDEST DUP3 SLOAD PUSH2 0x100 DUP4 SWAP1 EXP SWAP1 DIV PUSH1 0xFF AND DUP2 MSTORE PUSH1 0x20 PUSH1 0x1 SWAP3 DUP4 ADD DUP2 DUP2 DIV SWAP5 DUP6 ADD SWAP5 SWAP1 SWAP4 SUB SWAP1 SWAP3 MUL SWAP2 ADD DUP1 DUP5 GT PUSH2 0x5C1 JUMPI SWAP1 POP JUMPDEST POP POP POP POP POP DUP2 MSTORE PUSH1 0x20 ADD PUSH1 0x4 DUP3 ADD DUP1 SLOAD DUP1 PUSH1 0x20 MUL PUSH1 0x20 ADD PUSH1 0x40 MLOAD SWAP1 DUP2 ADD PUSH1 0x40 MSTORE DUP1 SWAP3 SWAP2 SWAP1 DUP2 DUP2 MSTORE PUSH1 0x20 ADD DUP3 DUP1 SLOAD DUP1 ISZERO PUSH2 0x666 JUMPI PUSH1 0x20 MUL DUP3 ADD SWAP2 SWAP1 PUSH1 0x0 MSTORE PUSH1 0x20 PUSH1 0x0 KECCAK256 SWAP1 PUSH1 0x0 SWAP1 JUMPDEST DUP3 SLOAD PUSH2 0x100 DUP4 SWAP1 EXP SWAP1 DIV PUSH1 0xFF AND DUP2 MSTORE PUSH1 0x20 PUSH1 0x1 SWAP3 DUP4 ADD DUP2 DUP2 DIV SWAP5 DUP6 ADD SWAP5 SWAP1 SWAP4 SUB SWAP1 SWAP3 MUL SWAP2 ADD DUP1 DUP5 GT PUSH2 0x637 JUMPI SWAP1 POP JUMPDEST POP POP POP SWAP2 DUP4 MSTORE POP POP PUSH1 0x5 DUP3 ADD SLOAD PUSH1 0xFF DUP1 DUP3 AND PUSH1 0x20 DUP5 ADD MSTORE PUSH2 0x100 DUP1 DUP4 DIV DUP3 AND PUSH1 0x40 DUP6 ADD MSTORE PUSH3 0x10000 DUP4 DIV DUP3 AND ISZERO ISZERO PUSH1 0x60 DUP6 ADD MSTORE PUSH4 0x1000000 DUP4 DIV DUP3 AND ISZERO ISZERO PUSH1 0x80 DUP6 ADD MSTORE PUSH5 0x100000000 DUP4 DIV DUP3 AND ISZERO ISZERO PUSH1 0xA0 DUP6 ADD MSTORE PUSH6 0x10000000000 SWAP1 SWAP3 DIV AND ISZERO ISZERO PUSH1 0xC0 DUP4 ADD MSTORE PUSH1 0x6 DUP4 ADD SLOAD PUSH1 0xE0 DUP4 ADD MSTORE PUSH1 0x7 DUP4 ADD DUP1 SLOAD SWAP2 SWAP1 SWAP3 ADD SWAP2 SWAP1 PUSH2 0x6EB SWAP1 PUSH2 0x288C JUMP JUMPDEST DUP1 PUSH1 0x1F ADD PUSH1 0x20 DUP1 SWAP2 DIV MUL PUSH1 0x20 ADD PUSH1 0x40 MLOAD SWAP1 DUP2 ADD PUSH1 0x40 MSTORE DUP1 SWAP3 SWAP2 SWAP1 DUP2 DUP2 MSTORE PUSH1 0x20 ADD DUP3 DUP1 SLOAD PUSH2 0x717 SWAP1 PUSH2 0x288C JUMP JUMPDEST DUP1 ISZERO PUSH2 0x764 JUMPI DUP1 PUSH1 0x1F LT PUSH2 0x739 JUMPI PUSH2 0x100 DUP1 DUP4 SLOAD DIV MUL DUP4 MSTORE SWAP2 PUSH1 0x20 ADD SWAP2 PUSH2 0x764 JUMP JUMPDEST DUP3 ADD SWAP2 SWAP1 PUSH1 0x0 MSTORE PUSH1 0x20 PUSH1 0x0 KECCAK256 SWAP1 JUMPDEST DUP2 SLOAD DUP2 MSTORE SWAP1 PUSH1 0x1 ADD SWAP1 PUSH1 0x20 ADD DUP1 DUP4 GT PUSH2 0x747 JUMPI DUP3 SWAP1 SUB PUSH1 0x1F AND DUP3 ADD SWAP2 JUMPDEST POP POP POP POP POP DUP2 MSTORE POP POP DUP3 DUP3 DUP2 MLOAD DUP2 LT PUSH2 0x77F JUMPI PUSH2 0x77F PUSH2 0x2876 JUMP JUMPDEST PUSH1 0x20 MUL PUSH1 0x20 ADD ADD DUP2 SWAP1 MSTORE POP DUP1 DUP1 PUSH2 0x795 SWAP1 PUSH2 0x28C6 JUMP JUMPDEST SWAP2 POP POP PUSH2 0x517 JUMP JUMPDEST POP SWAP4 SWAP3 POP POP POP JUMP JUMPDEST PUSH1 0x1 PUSH1 0x1 PUSH1 0xA0 SHL SUB DUP3 AND PUSH1 0x0 SWAP1 DUP2 MSTORE PUSH1 0x11 PUSH1 0x20 MSTORE PUSH1 0x40 SWAP1 KECCAK256 DUP1 SLOAD PUSH1 0x60 SWAP2 SWAP1 DUP1 DUP5 GT ISZERO PUSH2 0x7CF JUMPI DUP1 SWAP4 POP JUMPDEST PUSH1 0x0 DUP5 PUSH8 0xFFFFFFFFFFFFFFFF DUP2 GT ISZERO PUSH2 0x7EA JUMPI PUSH2 0x7EA PUSH2 0x2837 JUMP JUMPDEST PUSH1 0x40 MLOAD SWAP1 DUP1 DUP3 MSTORE DUP1 PUSH1 0x20 MUL PUSH1 0x20 ADD DUP3 ADD PUSH1 0x40 MSTORE DUP1 ISZERO PUSH2 0x813 JUMPI DUP2 PUSH1 0x20 ADD PUSH1 0x20 DUP3 MUL DUP1 CALLDATASIZE DUP4 CALLDATACOPY ADD SWAP1 POP JUMPDEST POP SWAP1 POP PUSH1 0x0 JUMPDEST DUP6 DUP2 LT ISZERO PUSH2 0x882 JUMPI DUP4 DUP2 PUSH2 0x82E PUSH1 0x1 DUP7 PUSH2 0x2863 JUMP JUMPDEST PUSH2 0x838 SWAP2 SWAP1 PUSH2 0x2863 JUMP JUMPDEST DUP2 SLOAD DUP2 LT PUSH2 0x848 JUMPI PUSH2 0x848 PUSH2 0x2876 JUMP JUMPDEST SWAP1 PUSH1 0x0 MSTORE PUSH1 0x20 PUSH1 0x0 KECCAK256 ADD SLOAD DUP3 DUP3 DUP2 MLOAD DUP2 LT PUSH2 0x865 JUMPI PUSH2 0x865 PUSH2 0x2876 JUMP JUMPDEST PUSH1 0x20 SWAP1 DUP2 MUL SWAP2 SWAP1 SWAP2 ADD ADD MSTORE DUP1 PUSH2 0x87A DUP2 PUSH2 0x28C6 JUMP JUMPDEST SWAP2 POP POP PUSH2 0x819 JUMP JUMPDEST POP SWAP3 POP POP POP JUMPDEST SWAP3 SWAP2 POP POP JUMP JUMPDEST PUSH1 0x9 PUSH1 0x20 MSTORE PUSH1 0x0 SWAP1 DUP2 MSTORE PUSH1 0x40 SWAP1 KECCAK256 DUP1 SLOAD PUSH2 0x8A7 SWAP1 PUSH2 0x288C JUMP JUMPDEST DUP1 PUSH1 0x1F ADD PUSH1 0x20 DUP1 SWAP2 DIV MUL PUSH1 0x20 ADD PUSH1 0x40 MLOAD SWAP1 DUP2 ADD PUSH1 0x40 MSTORE DUP1 SWAP3 SWAP2 SWAP1 DUP2 DUP2 MSTORE PUSH1 0x20 ADD DUP3 DUP1 SLOAD PUSH2 0x8D3 SWAP1 PUSH2 0x288C JUMP JUMPDEST DUP1 ISZERO PUSH2 0x920 JUMPI DUP1 PUSH1 0x1F LT PUSH2 0x8F5 JUMPI PUSH2 0x100 DUP1 DUP4 SLOAD DIV MUL DUP4 MSTORE SWAP2 PUSH1 0x20 ADD SWAP2 PUSH2 0x920 JUMP JUMPDEST DUP3 ADD SWAP2 SWAP1 PUSH1 0x0 MSTORE PUSH1 0x20 PUSH1 0x0 KECCAK256 SWAP1 JUMPDEST DUP2 SLOAD DUP2 MSTORE SWAP1 PUSH1 0x1 ADD SWAP1 PUSH1 0x20 ADD DUP1 DUP4 GT PUSH2 0x903 JUMPI DUP3 SWAP1 SUB PUSH1 0x1F AND DUP3 ADD SWAP2 JUMPDEST POP POP POP POP POP DUP2 JUMP JUMPDEST DUP1 ISZERO DUP1 ISZERO SWAP1 PUSH2 0x938 JUMPI POP PUSH1 0x20 DUP2 GT ISZERO JUMPDEST PUSH2 0x978 JUMPI PUSH1 0x40 MLOAD PUSH3 0x461BCD PUSH1 0xE5 SHL DUP2 MSTORE PUSH1 0x20 PUSH1 0x4 DUP3 ADD MSTORE PUSH1 0xC PUSH1 0x24 DUP3 ADD MSTORE PUSH12 0x496E76616C6964206E616D65 PUSH1 0xA0 SHL PUSH1 0x44 DUP3 ADD MSTORE PUSH1 0x64 ADD JUMPDEST PUSH1 0x40 MLOAD DUP1 SWAP2 SUB SWAP1 REVERT JUMPDEST CALLER PUSH1 0x0 SWAP1 DUP2 MSTORE PUSH1 0x8 PUSH1 0x20 SWAP1 DUP2 MSTORE PUSH1 0x40 DUP1 DUP4 KECCAK256 DUP1 SLOAD PUSH1 0xFF NOT AND PUSH1 0x1 OR SWAP1 SSTORE PUSH1 0x9 SWAP1 SWAP2 MSTORE SWAP1 KECCAK256 PUSH2 0x9A7 DUP3 DUP5 DUP4 PUSH2 0x292D JUMP JUMPDEST POP CALLER PUSH1 0x1 PUSH1 0x1 PUSH1 0xA0 SHL SUB AND PUSH32 0x45127B38457C2F5C381CAD14D94B51D80A7700DFB7A910A1D816FEE3D3E10591 DUP4 DUP4 PUSH1 0x40 MLOAD PUSH2 0x9E3 SWAP3 SWAP2 SWAP1 PUSH2 0x29EE JUMP JUMPDEST PUSH1 0x40 MLOAD DUP1 SWAP2 SUB SWAP1 LOG2 POP POP JUMP JUMPDEST PUSH2 0x9F7 PUSH2 0x125F JUMP JUMPDEST PUSH2 0xA01 PUSH1 0x0 PUSH2 0x128C JUMP JUMPDEST JUMP JUMPDEST PUSH2 0xA0B PUSH2 0x125F JUMP JUMPDEST DUP1 DUP3 LT PUSH2 0xA4B JUMPI PUSH1 0x40 MLOAD PUSH3 0x461BCD PUSH1 0xE5 SHL DUP2 MSTORE PUSH1 0x20 PUSH1 0x4 DUP3 ADD MSTORE PUSH1 0xE PUSH1 0x24 DUP3 ADD MSTORE PUSH14 0x496E76616C6964206C696D697473 PUSH1 0x90 SHL PUSH1 0x44 DUP3 ADD MSTORE PUSH1 0x64 ADD PUSH2 0x96F JUMP JUMPDEST PUSH1 0x3 SWAP2 SWAP1 SWAP2 SSTORE PUSH1 0x4 SSTORE JUMP JUMPDEST PUSH2 0xA5E PUSH2 0x125F JUMP JUMPDEST PUSH2 0x1F4 DUP2 GT ISZERO PUSH2 0xA9D JUMPI PUSH1 0x40 MLOAD PUSH3 0x461BCD PUSH1 0xE5 SHL DUP2 MSTORE PUSH1 0x20 PUSH1 0x4 DUP3 ADD MSTORE PUSH1 0xA PUSH1 0x24 DUP3 ADD MSTORE PUSH10 0x4D617820352520666565 PUSH1 0xB0 SHL PUSH1 0x44 DUP3 ADD MSTORE PUSH1 0x64 ADD PUSH2 0x96F JUMP JUMPDEST PUSH1 0x5 SSTORE JUMP JUMPDEST PUSH2 0xAAA PUSH2 0x125F JUMP JUMPDEST PUSH1 0x2 DUP1 SLOAD PUSH1 0x1 PUSH1 0x1 PUSH1 0xA0 SHL SUB NOT AND PUSH1 0x1 PUSH1 0x1 PUSH1 0xA0 SHL SUB SWAP3 SWAP1 SWAP3 AND SWAP2 SWAP1 SWAP2 OR SWAP1 SSTORE JUMP JUMPDEST PUSH1 0x1 PUSH1 0x1 PUSH1 0xA0 SHL SUB DUP2 AND PUSH1 0x0 SWAP1 DUP2 MSTORE PUSH1 0x9 PUSH1 0x20 SWAP1 DUP2 MSTORE PUSH1 0x40 DUP1 DUP4 KECCAK256 PUSH1 0xA DUP4 MSTORE DUP2 DUP5 KECCAK256 SLOAD PUSH1 0xB DUP5 MSTORE DUP3 DUP6 KECCAK256 SLOAD PUSH1 0xC DUP6 MSTORE DUP4 DUP7 KECCAK256 SLOAD PUSH1 0xD DUP7 MSTORE DUP5 DUP8 KECCAK256 SLOAD PUSH1 0xE DUP8 MSTORE DUP6 DUP9 KECCAK256 SLOAD PUSH1 0xF SWAP1 SWAP8 MSTORE SWAP5 DUP8 KECCAK256 SLOAD DUP5 SLOAD PUSH1 0x60 SWAP9 SWAP8 DUP9 SWAP8 DUP9 SWAP8 DUP9 SWAP8 DUP9 SWAP8 DUP9 SWAP8 SWAP3 SWAP7 SWAP2 SWAP6 SWAP1 SWAP5 SWAP3 SWAP4 SWAP3 SWAP2 SWAP1 DUP8 SWAP1 PUSH2 0xB3E SWAP1 PUSH2 0x288C JUMP JUMPDEST DUP1 PUSH1 0x1F ADD PUSH1 0x20 DUP1 SWAP2 DIV MUL PUSH1 0x20 ADD PUSH1 0x40 MLOAD SWAP1 DUP2 ADD PUSH1 0x40 MSTORE DUP1 SWAP3 SWAP2 SWAP1 DUP2 DUP2 MSTORE PUSH1 0x20 ADD DUP3 DUP1 SLOAD PUSH2 0xB6A SWAP1 PUSH2 0x288C JUMP JUMPDEST DUP1 ISZERO PUSH2 0xBB7 JUMPI DUP1 PUSH1 0x1F LT PUSH2 0xB8C JUMPI PUSH2 0x100 DUP1 DUP4 SLOAD DIV MUL DUP4 MSTORE SWAP2 PUSH1 0x20 ADD SWAP2 PUSH2 0xBB7 JUMP JUMPDEST DUP3 ADD SWAP2 SWAP1 PUSH1 0x0 MSTORE PUSH1 0x20 PUSH1 0x0 KECCAK256 SWAP1 JUMPDEST DUP2 SLOAD DUP2 MSTORE SWAP1 PUSH1 0x1 ADD SWAP1 PUSH1 0x20 ADD DUP1 DUP4 GT PUSH2 0xB9A JUMPI DUP3 SWAP1 SUB PUSH1 0x1F AND DUP3 ADD SWAP2 JUMPDEST POP POP POP POP POP SWAP7 POP SWAP7 POP SWAP7 POP SWAP7 POP SWAP7 POP SWAP7 POP SWAP7 POP SWAP7 POP SWAP2 SWAP4 SWAP6 SWAP8 SWAP1 SWAP3 SWAP5 SWAP7 POP JUMP JUMPDEST PUSH1 0x11 PUSH1 0x20 MSTORE DUP2 PUSH1 0x0 MSTORE PUSH1 0x40 PUSH1 0x0 KECCAK256 DUP2 DUP2 SLOAD DUP2 LT PUSH2 0xBF3 JUMPI PUSH1 0x0 DUP1 REVERT JUMPDEST SWAP1 PUSH1 0x0 MSTORE PUSH1 0x20 PUSH1 0x0 KECCAK256 ADD PUSH1 0x0 SWAP2 POP SWAP2 POP POP SLOAD DUP2 JUMP JUMPDEST PUSH2 0xC10 PUSH2 0x22F1 JUMP JUMPDEST CALLER PUSH1 0x0 SWAP1 DUP2 MSTORE PUSH1 0x8 PUSH1 0x20 MSTORE PUSH1 0x40 SWAP1 KECCAK256 SLOAD PUSH1 0xFF AND PUSH2 0xC66 JUMPI PUSH1 0x40 MLOAD PUSH3 0x461BCD PUSH1 0xE5 SHL DUP2 MSTORE PUSH1 0x20 PUSH1 0x4 DUP3 ADD MSTORE PUSH1 0x14 PUSH1 0x24 DUP3 ADD MSTORE PUSH20 0x139BDD0818481D995C9A599A5959081859D95B9D PUSH1 0x62 SHL PUSH1 0x44 DUP3 ADD MSTORE PUSH1 0x64 ADD PUSH2 0x96F JUMP JUMPDEST PUSH2 0xC6E PUSH2 0x12DE JUMP JUMPDEST PUSH1 0x3 SLOAD DUP3 LT ISZERO DUP1 ISZERO PUSH2 0xC82 JUMPI POP PUSH1 0x4 SLOAD DUP3 GT ISZERO JUMPDEST PUSH2 0xCC1 JUMPI PUSH1 0x40 MLOAD PUSH3 0x461BCD PUSH1 0xE5 SHL DUP2 MSTORE PUSH1 0x20 PUSH1 0x4 DUP3 ADD MSTORE PUSH1 0x10 PUSH1 0x24 DUP3 ADD MSTORE PUSH16 0x426574206F7574206F662072616E6765 PUSH1 0x80 SHL PUSH1 0x44 DUP3 ADD MSTORE PUSH1 0x64 ADD PUSH2 0x96F JUMP JUMPDEST PUSH1 0x0 PUSH1 0x2 PUSH2 0xCD0 DUP5 PUSH1 0x5 PUSH2 0x2A1D JUMP JUMPDEST PUSH2 0xCDA SWAP2 SWAP1 PUSH2 0x2A4A JUMP JUMPDEST PUSH1 0x2 SLOAD SWAP1 SWAP2 POP PUSH1 0x1 PUSH1 0x1 PUSH1 0xA0 SHL SUB AND ISZERO PUSH2 0xD9F JUMPI PUSH1 0x2 SLOAD PUSH1 0x40 MLOAD PUSH4 0x72B3630D PUSH1 0xE1 SHL DUP2 MSTORE PUSH1 0x4 DUP2 ADD DUP4 SWAP1 MSTORE PUSH1 0x1 PUSH1 0x1 PUSH1 0xA0 SHL SUB SWAP1 SWAP2 AND SWAP1 PUSH4 0xE566C61A SWAP1 PUSH1 0x24 ADD PUSH1 0x20 PUSH1 0x40 MLOAD DUP1 DUP4 SUB DUP2 DUP7 GAS STATICCALL ISZERO DUP1 ISZERO PUSH2 0xD37 JUMPI RETURNDATASIZE PUSH1 0x0 DUP1 RETURNDATACOPY RETURNDATASIZE PUSH1 0x0 REVERT JUMPDEST POP POP POP POP PUSH1 0x40 MLOAD RETURNDATASIZE PUSH1 0x1F NOT PUSH1 0x1F DUP3 ADD AND DUP3 ADD DUP1 PUSH1 0x40 MSTORE POP DUP2 ADD SWAP1 PUSH2 0xD5B SWAP2 SWAP1 PUSH2 0x2A5E JUMP JUMPDEST PUSH2 0xD9F JUMPI PUSH1 0x40 MLOAD PUSH3 0x461BCD PUSH1 0xE5 SHL DUP2 MSTORE PUSH1 0x20 PUSH1 0x4 DUP3 ADD MSTORE PUSH1 0x15 PUSH1 0x24 DUP3 ADD MSTORE PUSH21 0x125B9CDD59999A58DA595B9D0818985B9ADC9BDB1B PUSH1 0x5A SHL PUSH1 0x44 DUP3 ADD MSTORE PUSH1 0x64 ADD PUSH2 0x96F JUMP JUMPDEST PUSH2 0xDD4 PUSH1 0x1 PUSH1 0x1 PUSH1 0xA0 SHL SUB PUSH32 0x0 AND CALLER ADDRESS DUP7 PUSH2 0x1308 JUMP JUMPDEST PUSH1 0x6 DUP1 SLOAD SWAP1 PUSH1 0x0 PUSH2 0xDE4 DUP4 PUSH2 0x28C6 JUMP JUMPDEST SWAP2 SWAP1 POP SSTORE POP DUP3 PUSH1 0x7 PUSH1 0x0 DUP3 DUP3 SLOAD PUSH2 0xDFB SWAP2 SWAP1 PUSH2 0x2A80 JUMP JUMPDEST SWAP1 SWAP2 SSTORE POP POP CALLER PUSH1 0x0 SWAP1 DUP2 MSTORE PUSH1 0xE PUSH1 0x20 MSTORE PUSH1 0x40 DUP2 KECCAK256 DUP1 SLOAD DUP6 SWAP3 SWAP1 PUSH2 0xE1F SWAP1 DUP5 SWAP1 PUSH2 0x2A80 JUMP JUMPDEST SWAP1 SWAP2 SSTORE POP POP PUSH1 0x6 SLOAD PUSH1 0x40 MLOAD PUSH1 0x0 SWAP2 PUSH2 0xE68 SWAP2 PREVRANDAO SWAP2 TIMESTAMP SWAP2 CALLER SWAP2 SWAP1 PUSH1 0x20 ADD SWAP4 DUP5 MSTORE PUSH1 0x20 DUP5 ADD SWAP3 SWAP1 SWAP3 MSTORE PUSH1 0x60 SHL PUSH12 0xFFFFFFFFFFFFFFFFFFFFFFFF NOT AND PUSH1 0x40 DUP4 ADD MSTORE PUSH1 0x54 DUP3 ADD MSTORE PUSH1 0x74 ADD SWAP1 JUMP JUMPDEST PUSH1 0x40 MLOAD PUSH1 0x20 DUP2 DUP4 SUB SUB DUP2 MSTORE SWAP1 PUSH1 0x40 MSTORE DUP1 MLOAD SWAP1 PUSH1 0x20 ADD KECCAK256 PUSH1 0x0 SHR SWAP1 POP PUSH2 0xE8E CALLER DUP6 DUP4 PUSH2 0x1375 JUMP JUMPDEST PUSH1 0x6 SLOAD DUP2 MSTORE CALLER PUSH1 0x20 DUP1 DUP4 ADD SWAP2 DUP3 MSTORE PUSH1 0x40 DUP4 ADD DUP8 DUP2 MSTORE PUSH1 0x10 DUP1 SLOAD PUSH1 0x1 DUP2 ADD DUP3 SSTORE PUSH1 0x0 SWAP2 SWAP1 SWAP2 MSTORE DUP5 MLOAD PUSH32 0x1B6847DC741A1B0CD08D278845F9D819D87B734759AFB55FE2DE5CB82A9AE672 PUSH1 0x8 SWAP1 SWAP3 MUL SWAP2 DUP3 ADD SWAP1 DUP2 SSTORE SWAP4 MLOAD PUSH32 0x1B6847DC741A1B0CD08D278845F9D819D87B734759AFB55FE2DE5CB82A9AE673 DUP3 ADD DUP1 SLOAD PUSH1 0x1 PUSH1 0x1 PUSH1 0xA0 SHL SUB NOT AND PUSH1 0x1 PUSH1 0x1 PUSH1 0xA0 SHL SUB SWAP1 SWAP3 AND SWAP2 SWAP1 SWAP2 OR SWAP1 SSTORE SWAP1 MLOAD PUSH32 0x1B6847DC741A1B0CD08D278845F9D819D87B734759AFB55FE2DE5CB82A9AE674 DUP3 ADD SSTORE PUSH1 0x60 DUP5 ADD MLOAD DUP1 MLOAD SWAP5 SWAP8 POP DUP8 SWAP5 PUSH2 0xF88 SWAP4 PUSH32 0x1B6847DC741A1B0CD08D278845F9D819D87B734759AFB55FE2DE5CB82A9AE675 SWAP1 SWAP4 ADD SWAP3 SWAP2 SWAP1 SWAP2 ADD SWAP1 PUSH2 0x2370 JUMP JUMPDEST POP PUSH1 0x80 DUP3 ADD MLOAD DUP1 MLOAD PUSH2 0xFA4 SWAP2 PUSH1 0x4 DUP5 ADD SWAP2 PUSH1 0x20 SWAP1 SWAP2 ADD SWAP1 PUSH2 0x2370 JUMP JUMPDEST POP PUSH1 0xA0 DUP3 ADD MLOAD PUSH1 0x5 DUP3 ADD DUP1 SLOAD PUSH1 0xC0 DUP6 ADD MLOAD PUSH1 0xE0 DUP7 ADD MLOAD PUSH2 0x100 DUP1 DUP9 ADD MLOAD PUSH2 0x120 DUP10 ADD MLOAD PUSH2 0x140 DUP11 ADD MLOAD ISZERO ISZERO PUSH6 0x10000000000 MUL PUSH6 0xFF0000000000 NOT SWAP2 ISZERO ISZERO PUSH5 0x100000000 MUL SWAP2 SWAP1 SWAP2 AND PUSH6 0xFFFF00000000 NOT SWAP3 ISZERO ISZERO PUSH4 0x1000000 MUL PUSH4 0xFF000000 NOT SWAP6 ISZERO ISZERO PUSH3 0x10000 MUL SWAP6 SWAP1 SWAP6 AND PUSH4 0xFFFF0000 NOT PUSH1 0xFF SWAP8 DUP9 AND SWAP1 SWAP6 MUL PUSH2 0xFFFF NOT SWAP1 SWAP9 AND SWAP7 SWAP1 SWAP10 AND SWAP6 SWAP1 SWAP6 OR SWAP6 SWAP1 SWAP6 OR SWAP2 SWAP1 SWAP2 AND SWAP6 SWAP1 SWAP6 OR OR SWAP4 SWAP1 SWAP4 AND SWAP3 SWAP1 SWAP3 OR SWAP2 SWAP1 SWAP2 OR SWAP1 SSTORE PUSH2 0x160 DUP3 ADD MLOAD PUSH1 0x6 DUP3 ADD SSTORE PUSH2 0x180 DUP3 ADD MLOAD PUSH1 0x7 DUP3 ADD SWAP1 PUSH2 0x1068 SWAP1 DUP3 PUSH2 0x2A93 JUMP JUMPDEST POP POP CALLER PUSH1 0x0 SWAP1 DUP2 MSTORE PUSH1 0x11 PUSH1 0x20 SWAP1 DUP2 MSTORE PUSH1 0x40 DUP3 KECCAK256 PUSH1 0x6 SLOAD DUP2 SLOAD PUSH1 0x1 DUP2 ADD DUP4 SSTORE SWAP2 DUP5 MSTORE SWAP2 SWAP1 SWAP3 KECCAK256 SWAP1 SWAP2 ADD SSTORE POP PUSH2 0x109B DUP4 PUSH2 0x1C4D JUMP JUMPDEST CALLER PUSH1 0x1 PUSH1 0x1 PUSH1 0xA0 SHL SUB AND DUP4 PUSH1 0x0 ADD MLOAD PUSH32 0xDFBD7E324C7AFFBAE354F011D5D3F2A9420EDD71C7D837AD099577C737D55861 DUP7 DUP7 PUSH1 0xA0 ADD MLOAD DUP8 PUSH1 0xC0 ADD MLOAD DUP9 PUSH2 0x160 ADD MLOAD DUP10 PUSH2 0x180 ADD MLOAD PUSH1 0x40 MLOAD PUSH2 0x10F3 SWAP6 SWAP5 SWAP4 SWAP3 SWAP2 SWAP1 PUSH2 0x2B53 JUMP JUMPDEST PUSH1 0x40 MLOAD DUP1 SWAP2 SUB SWAP1 LOG3 POP POP PUSH2 0x1107 PUSH1 0x1 PUSH1 0x0 SSTORE JUMP JUMPDEST SWAP2 SWAP1 POP JUMP JUMPDEST PUSH1 0x10 DUP2 DUP2 SLOAD DUP2 LT PUSH2 0x111C JUMPI PUSH1 0x0 DUP1 REVERT JUMPDEST PUSH1 0x0 SWAP2 DUP3 MSTORE PUSH1 0x20 SWAP1 SWAP2 KECCAK256 PUSH1 0x8 SWAP1 SWAP2 MUL ADD DUP1 SLOAD PUSH1 0x1 DUP3 ADD SLOAD PUSH1 0x2 DUP4 ADD SLOAD PUSH1 0x5 DUP5 ADD SLOAD PUSH1 0x6 DUP6 ADD SLOAD PUSH1 0x7 DUP7 ADD DUP1 SLOAD SWAP6 SWAP8 POP PUSH1 0x1 PUSH1 0x1 PUSH1 0xA0 SHL SUB SWAP1 SWAP5 AND SWAP6 SWAP3 SWAP5 PUSH1 0xFF DUP1 DUP5 AND SWAP6 PUSH2 0x100 DUP6 DIV DUP3 AND SWAP6 PUSH3 0x10000 DUP7 DIV DUP4 AND SWAP6 PUSH4 0x1000000 DUP2 DIV DUP5 AND SWAP6 PUSH5 0x100000000 DUP3 DIV DUP6 AND SWAP6 PUSH6 0x10000000000 SWAP1 SWAP3 DIV SWAP1 SWAP5 AND SWAP4 SWAP3 SWAP1 PUSH2 0x119E SWAP1 PUSH2 0x288C JUMP JUMPDEST DUP1 PUSH1 0x1F ADD PUSH1 0x20 DUP1 SWAP2 DIV MUL PUSH1 0x20 ADD PUSH1 0x40 MLOAD SWAP1 DUP2 ADD PUSH1 0x40 MSTORE DUP1 SWAP3 SWAP2 SWAP1 DUP2 DUP2 MSTORE PUSH1 0x20 ADD DUP3 DUP1 SLOAD PUSH2 0x11CA SWAP1 PUSH2 0x288C JUMP JUMPDEST DUP1 ISZERO PUSH2 0x1217 JUMPI DUP1 PUSH1 0x1F LT PUSH2 0x11EC JUMPI PUSH2 0x100 DUP1 DUP4 SLOAD DIV MUL DUP4 MSTORE SWAP2 PUSH1 0x20 ADD SWAP2 PUSH2 0x1217 JUMP JUMPDEST DUP3 ADD SWAP2 SWAP1 PUSH1 0x0 MSTORE PUSH1 0x20 PUSH1 0x0 KECCAK256 SWAP1 JUMPDEST DUP2 SLOAD DUP2 MSTORE SWAP1 PUSH1 0x1 ADD SWAP1 PUSH1 0x20 ADD DUP1 DUP4 GT PUSH2 0x11FA JUMPI DUP3 SWAP1 SUB PUSH1 0x1F AND DUP3 ADD SWAP2 JUMPDEST POP POP POP POP POP SWAP1 POP DUP12 JUMP JUMPDEST PUSH2 0x1229 PUSH2 0x125F JUMP JUMPDEST PUSH1 0x1 PUSH1 0x1 PUSH1 0xA0 SHL SUB DUP2 AND PUSH2 0x1253 JUMPI PUSH1 0x40 MLOAD PUSH4 0x1E4FBDF7 PUSH1 0xE0 SHL DUP2 MSTORE PUSH1 0x0 PUSH1 0x4 DUP3 ADD MSTORE PUSH1 0x24 ADD PUSH2 0x96F JUMP JUMPDEST PUSH2 0x125C DUP2 PUSH2 0x128C JUMP JUMPDEST POP JUMP JUMPDEST PUSH1 0x1 SLOAD PUSH1 0x1 PUSH1 0x1 PUSH1 0xA0 SHL SUB AND CALLER EQ PUSH2 0xA01 JUMPI PUSH1 0x40 MLOAD PUSH4 0x118CDAA7 PUSH1 0xE0 SHL DUP2 MSTORE CALLER PUSH1 0x4 DUP3 ADD MSTORE PUSH1 0x24 ADD PUSH2 0x96F JUMP JUMPDEST PUSH1 0x1 DUP1 SLOAD PUSH1 0x1 PUSH1 0x1 PUSH1 0xA0 SHL SUB DUP4 DUP2 AND PUSH1 0x1 PUSH1 0x1 PUSH1 0xA0 SHL SUB NOT DUP4 AND DUP2 OR SWAP1 SWAP4 SSTORE PUSH1 0x40 MLOAD SWAP2 AND SWAP2 SWAP1 DUP3 SWAP1 PUSH32 0x8BE0079C531659141344CD1FD0A4F28419497F9722A3DAAFE3B4186F6B6457E0 SWAP1 PUSH1 0x0 SWAP1 LOG3 POP POP JUMP JUMPDEST PUSH1 0x2 PUSH1 0x0 SLOAD SUB PUSH2 0x1301 JUMPI PUSH1 0x40 MLOAD PUSH4 0x3EE5AEB5 PUSH1 0xE0 SHL DUP2 MSTORE PUSH1 0x4 ADD PUSH1 0x40 MLOAD DUP1 SWAP2 SUB SWAP1 REVERT JUMPDEST PUSH1 0x2 PUSH1 0x0 SSTORE JUMP JUMPDEST PUSH1 0x40 MLOAD PUSH1 0x1 PUSH1 0x1 PUSH1 0xA0 SHL SUB DUP5 DUP2 AND PUSH1 0x24 DUP4 ADD MSTORE DUP4 DUP2 AND PUSH1 0x44 DUP4 ADD MSTORE PUSH1 0x64 DUP3 ADD DUP4 SWAP1 MSTORE PUSH2 0x136F SWAP2 DUP7 SWAP2 DUP3 AND SWAP1 PUSH4 0x23B872DD SWAP1 PUSH1 0x84 ADD JUMPDEST PUSH1 0x40 MLOAD PUSH1 0x20 DUP2 DUP4 SUB SUB DUP2 MSTORE SWAP1 PUSH1 0x40 MSTORE SWAP2 POP PUSH1 0xE0 SHL PUSH1 0x20 DUP3 ADD DUP1 MLOAD PUSH1 0x1 PUSH1 0x1 PUSH1 0xE0 SHL SUB DUP4 DUP2 DUP4 AND OR DUP4 MSTORE POP POP POP POP PUSH2 0x1F5D JUMP JUMPDEST POP POP POP POP JUMP JUMPDEST PUSH2 0x137D PUSH2 0x22F1 JUMP JUMPDEST PUSH1 0x40 DUP1 MLOAD PUSH1 0x34 DUP1 DUP3 MSTORE PUSH2 0x6A0 DUP3 ADD SWAP1 SWAP3 MSTORE PUSH1 0x0 SWAP2 PUSH1 0x20 DUP3 ADD PUSH2 0x680 DUP1 CALLDATASIZE DUP4 CALLDATACOPY ADD SWAP1 POP POP SWAP1 POP PUSH1 0x0 DUP1 JUMPDEST PUSH1 0x34 DUP2 PUSH1 0xFF AND LT ISZERO PUSH2 0x13EC JUMPI DUP1 DUP4 DUP3 PUSH1 0xFF AND DUP2 MLOAD DUP2 LT PUSH2 0x13C8 JUMPI PUSH2 0x13C8 PUSH2 0x2876 JUMP JUMPDEST PUSH1 0xFF SWAP1 SWAP3 AND PUSH1 0x20 SWAP3 DUP4 MUL SWAP2 SWAP1 SWAP2 ADD SWAP1 SWAP2 ADD MSTORE DUP1 PUSH2 0x13E4 DUP2 PUSH2 0x2B8F JUMP JUMPDEST SWAP2 POP POP PUSH2 0x13A6 JUMP JUMPDEST POP PUSH1 0x33 JUMPDEST PUSH1 0xFF DUP2 AND ISZERO PUSH2 0x14E9 JUMPI PUSH1 0x0 PUSH2 0x1406 DUP3 PUSH1 0x1 PUSH2 0x2BAE JUMP JUMPDEST PUSH1 0xFF AND DUP7 DUP4 PUSH1 0x40 MLOAD PUSH1 0x20 ADD PUSH2 0x1432 SWAP3 SWAP2 SWAP1 SWAP2 DUP3 MSTORE PUSH1 0xF8 SHL PUSH1 0x1 PUSH1 0x1 PUSH1 0xF8 SHL SUB NOT AND PUSH1 0x20 DUP3 ADD MSTORE PUSH1 0x21 ADD SWAP1 JUMP JUMPDEST PUSH1 0x40 MLOAD PUSH1 0x20 DUP2 DUP4 SUB SUB DUP2 MSTORE SWAP1 PUSH1 0x40 MSTORE DUP1 MLOAD SWAP1 PUSH1 0x20 ADD KECCAK256 PUSH1 0x0 SHR PUSH2 0x1455 SWAP2 SWAP1 PUSH2 0x2BC7 JUMP JUMPDEST SWAP1 POP DUP4 DUP2 PUSH1 0xFF AND DUP2 MLOAD DUP2 LT PUSH2 0x146C JUMPI PUSH2 0x146C PUSH2 0x2876 JUMP JUMPDEST PUSH1 0x20 MUL PUSH1 0x20 ADD ADD MLOAD DUP5 DUP4 PUSH1 0xFF AND DUP2 MLOAD DUP2 LT PUSH2 0x1489 JUMPI PUSH2 0x1489 PUSH2 0x2876 JUMP JUMPDEST PUSH1 0x20 MUL PUSH1 0x20 ADD ADD MLOAD DUP6 DUP5 PUSH1 0xFF AND DUP2 MLOAD DUP2 LT PUSH2 0x14A6 JUMPI PUSH2 0x14A6 PUSH2 0x2876 JUMP JUMPDEST PUSH1 0x20 MUL PUSH1 0x20 ADD ADD DUP7 DUP5 PUSH1 0xFF AND DUP2 MLOAD DUP2 LT PUSH2 0x14C2 JUMPI PUSH2 0x14C2 PUSH2 0x2876 JUMP JUMPDEST PUSH1 0xFF SWAP4 DUP5 AND PUSH1 0x20 SWAP2 DUP3 MUL SWAP3 SWAP1 SWAP3 ADD ADD MSTORE SWAP2 AND SWAP1 MSTORE POP DUP1 PUSH2 0x14E1 DUP2 PUSH2 0x2BDB JUMP JUMPDEST SWAP2 POP POP PUSH2 0x13F0 JUMP JUMPDEST POP PUSH1 0x40 DUP1 MLOAD PUSH1 0xA DUP1 DUP3 MSTORE PUSH2 0x160 DUP3 ADD SWAP1 SWAP3 MSTORE SWAP1 PUSH1 0x20 DUP3 ADD PUSH2 0x140 DUP1 CALLDATASIZE DUP4 CALLDATACOPY POP POP POP PUSH1 0x60 DUP5 ADD MSTORE PUSH1 0x40 DUP1 MLOAD PUSH1 0xA DUP1 DUP3 MSTORE PUSH2 0x160 DUP3 ADD SWAP1 SWAP3 MSTORE SWAP1 PUSH1 0x20 DUP3 ADD PUSH2 0x140 DUP1 CALLDATASIZE DUP4 CALLDATACOPY POP POP POP PUSH1 0x80 DUP5 ADD MSTORE PUSH1 0x0 DUP1 DUP4 DUP4 PUSH2 0x1542 DUP2 PUSH2 0x2B8F JUMP JUMPDEST SWAP5 POP PUSH1 0xFF AND DUP2 MLOAD DUP2 LT PUSH2 0x1557 JUMPI PUSH2 0x1557 PUSH2 0x2876 JUMP JUMPDEST PUSH1 0x20 MUL PUSH1 0x20 ADD ADD MLOAD DUP6 PUSH1 0x60 ADD MLOAD DUP4 DUP1 PUSH2 0x156F SWAP1 PUSH2 0x2B8F JUMP JUMPDEST SWAP5 POP PUSH1 0xFF AND DUP2 MLOAD DUP2 LT PUSH2 0x1584 JUMPI PUSH2 0x1584 PUSH2 0x2876 JUMP JUMPDEST PUSH1 0xFF SWAP1 SWAP3 AND PUSH1 0x20 SWAP3 DUP4 MUL SWAP2 SWAP1 SWAP2 ADD SWAP1 SWAP2 ADD MSTORE DUP4 DUP4 PUSH2 0x15A1 DUP2 PUSH2 0x2B8F JUMP JUMPDEST SWAP5 POP PUSH1 0xFF AND DUP2 MLOAD DUP2 LT PUSH2 0x15B6 JUMPI PUSH2 0x15B6 PUSH2 0x2876 JUMP JUMPDEST PUSH1 0x20 MUL PUSH1 0x20 ADD ADD MLOAD DUP6 PUSH1 0x80 ADD MLOAD DUP3 DUP1 PUSH2 0x15CE SWAP1 PUSH2 0x2B8F JUMP JUMPDEST SWAP4 POP PUSH1 0xFF AND DUP2 MLOAD DUP2 LT PUSH2 0x15E3 JUMPI PUSH2 0x15E3 PUSH2 0x2876 JUMP JUMPDEST PUSH1 0xFF SWAP1 SWAP3 AND PUSH1 0x20 SWAP3 DUP4 MUL SWAP2 SWAP1 SWAP2 ADD SWAP1 SWAP2 ADD MSTORE DUP4 DUP4 PUSH2 0x1600 DUP2 PUSH2 0x2B8F JUMP JUMPDEST SWAP5 POP PUSH1 0xFF AND DUP2 MLOAD DUP2 LT PUSH2 0x1615 JUMPI PUSH2 0x1615 PUSH2 0x2876 JUMP JUMPDEST PUSH1 0x20 MUL PUSH1 0x20 ADD ADD MLOAD DUP6 PUSH1 0x60 ADD MLOAD DUP4 DUP1 PUSH2 0x162D SWAP1 PUSH2 0x2B8F JUMP JUMPDEST SWAP5 POP PUSH1 0xFF AND DUP2 MLOAD DUP2 LT PUSH2 0x1642 JUMPI PUSH2 0x1642 PUSH2 0x2876 JUMP JUMPDEST PUSH1 0xFF SWAP1 SWAP3 AND PUSH1 0x20 SWAP3 DUP4 MUL SWAP2 SWAP1 SWAP2 ADD SWAP1 SWAP2 ADD MSTORE DUP4 DUP4 PUSH2 0x165F DUP2 PUSH2 0x2B8F JUMP JUMPDEST SWAP5 POP PUSH1 0xFF AND DUP2 MLOAD DUP2 LT PUSH2 0x1674 JUMPI PUSH2 0x1674 PUSH2 0x2876 JUMP JUMPDEST PUSH1 0x20 MUL PUSH1 0x20 ADD ADD MLOAD DUP6 PUSH1 0x80 ADD MLOAD DUP3 DUP1 PUSH2 0x168C SWAP1 PUSH2 0x2B8F JUMP JUMPDEST SWAP4 POP PUSH1 0xFF AND DUP2 MLOAD DUP2 LT PUSH2 0x16A1 JUMPI PUSH2 0x16A1 PUSH2 0x2876 JUMP JUMPDEST PUSH1 0x20 MUL PUSH1 0x20 ADD ADD SWAP1 PUSH1 0xFF AND SWAP1 DUP2 PUSH1 0xFF AND DUP2 MSTORE POP POP PUSH2 0x16C3 DUP6 PUSH1 0x60 ADD MLOAD DUP4 PUSH2 0x1FCE JUMP JUMPDEST PUSH1 0xFF AND PUSH1 0xA0 DUP7 ADD MSTORE PUSH1 0x80 DUP6 ADD MLOAD PUSH2 0x16DA SWAP1 DUP3 PUSH2 0x1FCE JUMP JUMPDEST PUSH1 0xFF SWAP1 DUP2 AND PUSH1 0xC0 DUP8 ADD MSTORE PUSH1 0xA0 DUP7 ADD MLOAD AND PUSH1 0x15 SUB PUSH2 0x16F9 JUMPI PUSH1 0x1 PUSH1 0xE0 DUP7 ADD MSTORE JUMPDEST DUP5 PUSH1 0xC0 ADD MLOAD PUSH1 0xFF AND PUSH1 0x15 SUB PUSH2 0x1711 JUMPI PUSH1 0x1 PUSH2 0x100 DUP7 ADD MSTORE JUMPDEST DUP5 PUSH1 0xE0 ADD MLOAD DUP1 PUSH2 0x1723 JUMPI POP DUP5 PUSH2 0x100 ADD MLOAD JUMPDEST ISZERO PUSH2 0x18C8 JUMPI DUP5 PUSH1 0xE0 ADD MLOAD DUP1 ISZERO PUSH2 0x173B JUMPI POP DUP5 PUSH2 0x100 ADD MLOAD JUMPDEST ISZERO PUSH2 0x179C JUMPI PUSH1 0x40 DUP1 MLOAD DUP1 DUP3 ADD DUP3 MSTORE PUSH1 0x4 DUP2 MSTORE PUSH4 0xE0EAE6D PUSH1 0xE3 SHL PUSH1 0x20 DUP1 DUP4 ADD SWAP2 SWAP1 SWAP2 MSTORE PUSH2 0x180 DUP9 ADD SWAP2 SWAP1 SWAP2 MSTORE PUSH2 0x160 DUP8 ADD DUP10 SWAP1 MSTORE PUSH1 0x1 PUSH1 0x1 PUSH1 0xA0 SHL SUB DUP11 AND PUSH1 0x0 SWAP1 DUP2 MSTORE PUSH1 0xC SWAP1 SWAP2 MSTORE SWAP1 DUP2 KECCAK256 DUP1 SLOAD SWAP2 PUSH2 0x1792 DUP4 PUSH2 0x28C6 JUMP JUMPDEST SWAP2 SWAP1 POP SSTORE POP PUSH2 0x1897 JUMP JUMPDEST DUP5 PUSH1 0xE0 ADD MLOAD ISZERO PUSH2 0x1840 JUMPI PUSH1 0x40 DUP1 MLOAD DUP1 DUP3 ADD SWAP1 SWAP2 MSTORE PUSH1 0x9 DUP2 MSTORE PUSH9 0x626C61636B6A61636B PUSH1 0xB8 SHL PUSH1 0x20 DUP3 ADD MSTORE PUSH2 0x180 DUP7 ADD MSTORE PUSH1 0x2 PUSH2 0x17D9 DUP9 PUSH1 0x3 PUSH2 0x2A1D JUMP JUMPDEST PUSH2 0x17E3 SWAP2 SWAP1 PUSH2 0x2A4A JUMP JUMPDEST PUSH2 0x17ED SWAP1 DUP9 PUSH2 0x2A80 JUMP JUMPDEST PUSH2 0x160 DUP7 ADD MSTORE PUSH1 0x1 PUSH1 0x1 PUSH1 0xA0 SHL SUB DUP9 AND PUSH1 0x0 SWAP1 DUP2 MSTORE PUSH1 0xD PUSH1 0x20 MSTORE PUSH1 0x40 DUP2 KECCAK256 DUP1 SLOAD SWAP2 PUSH2 0x1817 DUP4 PUSH2 0x28C6 JUMP JUMPDEST SWAP1 SWAP2 SSTORE POP POP PUSH1 0x1 PUSH1 0x1 PUSH1 0xA0 SHL SUB DUP9 AND PUSH1 0x0 SWAP1 DUP2 MSTORE PUSH1 0xA PUSH1 0x20 MSTORE PUSH1 0x40 DUP2 KECCAK256 DUP1 SLOAD SWAP2 PUSH2 0x1792 DUP4 PUSH2 0x28C6 JUMP JUMPDEST PUSH1 0x40 DUP1 MLOAD DUP1 DUP3 ADD DUP3 MSTORE PUSH1 0x4 DUP2 MSTORE PUSH4 0x6C6F7373 PUSH1 0xE0 SHL PUSH1 0x20 DUP1 DUP4 ADD SWAP2 SWAP1 SWAP2 MSTORE PUSH2 0x180 DUP9 ADD SWAP2 SWAP1 SWAP2 MSTORE PUSH1 0x0 PUSH2 0x160 DUP9 ADD DUP2 SWAP1 MSTORE PUSH1 0x1 PUSH1 0x1 PUSH1 0xA0 SHL SUB DUP12 AND DUP2 MSTORE PUSH1 0xB SWAP1 SWAP2 MSTORE SWAP1 DUP2 KECCAK256 DUP1 SLOAD SWAP2 PUSH2 0x1891 DUP4 PUSH2 0x28C6 JUMP JUMPDEST SWAP2 SWAP1 POP SSTORE POP JUMPDEST PUSH2 0x18A5 DUP6 PUSH1 0x60 ADD MLOAD DUP4 PUSH2 0x2085 JUMP JUMPDEST PUSH1 0x60 DUP7 ADD MSTORE PUSH1 0x80 DUP6 ADD MLOAD PUSH2 0x18B9 SWAP1 DUP3 PUSH2 0x2085 JUMP JUMPDEST PUSH1 0x80 DUP7 ADD MSTORE POP PUSH2 0x1C46 SWAP3 POP POP POP JUMP JUMPDEST PUSH1 0x15 DUP6 PUSH1 0xA0 ADD MLOAD PUSH1 0xFF AND LT ISZERO PUSH2 0x19AE JUMPI PUSH1 0x0 PUSH2 0x1901 DUP7 PUSH1 0x80 ADD MLOAD PUSH1 0x0 DUP2 MLOAD DUP2 LT PUSH2 0x18F4 JUMPI PUSH2 0x18F4 PUSH2 0x2876 JUMP JUMPDEST PUSH1 0x20 MUL PUSH1 0x20 ADD ADD MLOAD PUSH2 0x2138 JUMP JUMPDEST SWAP1 POP PUSH1 0x0 PUSH2 0x1921 DUP8 PUSH1 0xA0 ADD MLOAD DUP4 PUSH2 0x191C DUP11 PUSH1 0x60 ADD MLOAD DUP9 PUSH2 0x217B JUMP JUMPDEST PUSH2 0x220A JUMP JUMPDEST SWAP1 POP DUP1 PUSH2 0x192F JUMPI POP POP PUSH2 0x19AE JUMP JUMPDEST DUP6 DUP6 PUSH2 0x193A DUP2 PUSH2 0x2B8F JUMP JUMPDEST SWAP7 POP PUSH1 0xFF AND DUP2 MLOAD DUP2 LT PUSH2 0x194F JUMPI PUSH2 0x194F PUSH2 0x2876 JUMP JUMPDEST PUSH1 0x20 MUL PUSH1 0x20 ADD ADD MLOAD DUP8 PUSH1 0x60 ADD MLOAD DUP6 DUP1 PUSH2 0x1967 SWAP1 PUSH2 0x2B8F JUMP JUMPDEST SWAP7 POP PUSH1 0xFF AND DUP2 MLOAD DUP2 LT PUSH2 0x197C JUMPI PUSH2 0x197C PUSH2 0x2876 JUMP JUMPDEST PUSH1 0x20 MUL PUSH1 0x20 ADD ADD SWAP1 PUSH1 0xFF AND SWAP1 DUP2 PUSH1 0xFF AND DUP2 MSTORE POP POP PUSH2 0x199E DUP8 PUSH1 0x60 ADD MLOAD DUP6 PUSH2 0x1FCE JUMP JUMPDEST PUSH1 0xFF AND PUSH1 0xA0 DUP9 ADD MSTORE POP PUSH2 0x18C8 SWAP1 POP JUMP JUMPDEST PUSH1 0x15 DUP6 PUSH1 0xA0 ADD MLOAD PUSH1 0xFF AND GT ISZERO PUSH2 0x1A17 JUMPI PUSH1 0x1 PUSH2 0x120 DUP7 ADD MSTORE PUSH1 0x40 DUP1 MLOAD DUP1 DUP3 ADD DUP3 MSTORE PUSH1 0x4 DUP2 MSTORE PUSH4 0x6C6F7373 PUSH1 0xE0 SHL PUSH1 0x20 DUP1 DUP4 ADD SWAP2 SWAP1 SWAP2 MSTORE PUSH2 0x180 DUP9 ADD SWAP2 SWAP1 SWAP2 MSTORE PUSH1 0x0 PUSH2 0x160 DUP9 ADD DUP2 SWAP1 MSTORE PUSH1 0x1 PUSH1 0x1 PUSH1 0xA0 SHL SUB DUP12 AND DUP2 MSTORE PUSH1 0xB SWAP1 SWAP2 MSTORE SWAP1 DUP2 KECCAK256 DUP1 SLOAD SWAP2 PUSH2 0x1891 DUP4 PUSH2 0x28C6 JUMP JUMPDEST PUSH1 0x11 DUP6 PUSH1 0xC0 ADD MLOAD PUSH1 0xFF AND LT ISZERO PUSH2 0x1AA3 JUMPI DUP4 DUP4 PUSH2 0x1A32 DUP2 PUSH2 0x2B8F JUMP JUMPDEST SWAP5 POP PUSH1 0xFF AND DUP2 MLOAD DUP2 LT PUSH2 0x1A47 JUMPI PUSH2 0x1A47 PUSH2 0x2876 JUMP JUMPDEST PUSH1 0x20 MUL PUSH1 0x20 ADD ADD MLOAD DUP6 PUSH1 0x80 ADD MLOAD DUP3 DUP1 PUSH2 0x1A5F SWAP1 PUSH2 0x2B8F JUMP JUMPDEST SWAP4 POP PUSH1 0xFF AND DUP2 MLOAD DUP2 LT PUSH2 0x1A74 JUMPI PUSH2 0x1A74 PUSH2 0x2876 JUMP JUMPDEST PUSH1 0x20 MUL PUSH1 0x20 ADD ADD SWAP1 PUSH1 0xFF AND SWAP1 DUP2 PUSH1 0xFF AND DUP2 MSTORE POP POP PUSH2 0x1A96 DUP6 PUSH1 0x80 ADD MLOAD DUP3 PUSH2 0x1FCE JUMP JUMPDEST PUSH1 0xFF AND PUSH1 0xC0 DUP7 ADD MSTORE PUSH2 0x1A17 JUMP JUMPDEST PUSH1 0x15 DUP6 PUSH1 0xC0 ADD MLOAD PUSH1 0xFF AND GT ISZERO PUSH2 0x1B1A JUMPI PUSH1 0x1 PUSH2 0x140 DUP7 ADD MSTORE PUSH1 0x40 DUP1 MLOAD DUP1 DUP3 ADD SWAP1 SWAP2 MSTORE PUSH1 0x3 DUP2 MSTORE PUSH3 0x3BB4B7 PUSH1 0xE9 SHL PUSH1 0x20 DUP3 ADD MSTORE PUSH2 0x180 DUP7 ADD MSTORE PUSH2 0x1AE6 DUP8 PUSH1 0x2 PUSH2 0x2A1D JUMP JUMPDEST PUSH2 0x160 DUP7 ADD MSTORE PUSH1 0x1 PUSH1 0x1 PUSH1 0xA0 SHL SUB DUP9 AND PUSH1 0x0 SWAP1 DUP2 MSTORE PUSH1 0xA PUSH1 0x20 MSTORE PUSH1 0x40 DUP2 KECCAK256 DUP1 SLOAD SWAP2 PUSH2 0x1B10 DUP4 PUSH2 0x28C6 JUMP JUMPDEST SWAP2 SWAP1 POP SSTORE POP PUSH2 0x1C1A JUMP JUMPDEST DUP5 PUSH1 0xC0 ADD MLOAD PUSH1 0xFF AND DUP6 PUSH1 0xA0 ADD MLOAD PUSH1 0xFF AND GT ISZERO PUSH2 0x1B5B JUMPI PUSH1 0x40 DUP1 MLOAD DUP1 DUP3 ADD SWAP1 SWAP2 MSTORE PUSH1 0x3 DUP2 MSTORE PUSH3 0x3BB4B7 PUSH1 0xE9 SHL PUSH1 0x20 DUP3 ADD MSTORE PUSH2 0x180 DUP7 ADD MSTORE PUSH2 0x1AE6 DUP8 PUSH1 0x2 PUSH2 0x2A1D JUMP JUMPDEST DUP5 PUSH1 0xC0 ADD MLOAD PUSH1 0xFF AND DUP6 PUSH1 0xA0 ADD MLOAD PUSH1 0xFF AND LT ISZERO PUSH2 0x1BC2 JUMPI PUSH1 0x40 DUP1 MLOAD DUP1 DUP3 ADD DUP3 MSTORE PUSH1 0x4 DUP2 MSTORE PUSH4 0x6C6F7373 PUSH1 0xE0 SHL PUSH1 0x20 DUP1 DUP4 ADD SWAP2 SWAP1 SWAP2 MSTORE PUSH2 0x180 DUP9 ADD SWAP2 SWAP1 SWAP2 MSTORE PUSH1 0x0 PUSH2 0x160 DUP9 ADD DUP2 SWAP1 MSTORE PUSH1 0x1 PUSH1 0x1 PUSH1 0xA0 SHL SUB DUP12 AND DUP2 MSTORE PUSH1 0xB SWAP1 SWAP2 MSTORE SWAP1 DUP2 KECCAK256 DUP1 SLOAD SWAP2 PUSH2 0x1B10 DUP4 PUSH2 0x28C6 JUMP JUMPDEST PUSH1 0x40 DUP1 MLOAD DUP1 DUP3 ADD DUP3 MSTORE PUSH1 0x4 DUP2 MSTORE PUSH4 0xE0EAE6D PUSH1 0xE3 SHL PUSH1 0x20 DUP1 DUP4 ADD SWAP2 SWAP1 SWAP2 MSTORE PUSH2 0x180 DUP9 ADD SWAP2 SWAP1 SWAP2 MSTORE PUSH2 0x160 DUP8 ADD DUP10 SWAP1 MSTORE PUSH1 0x1 PUSH1 0x1 PUSH1 0xA0 SHL SUB DUP11 AND PUSH1 0x0 SWAP1 DUP2 MSTORE PUSH1 0xC SWAP1 SWAP2 MSTORE SWAP1 DUP2 KECCAK256 DUP1 SLOAD SWAP2 PUSH2 0x1C14 DUP4 PUSH2 0x28C6 JUMP JUMPDEST SWAP2 SWAP1 POP SSTORE POP JUMPDEST PUSH2 0x1C28 DUP6 PUSH1 0x60 ADD MLOAD DUP4 PUSH2 0x2085 JUMP JUMPDEST PUSH1 0x60 DUP7 ADD MSTORE PUSH1 0x80 DUP6 ADD MLOAD PUSH2 0x1C3C SWAP1 DUP3 PUSH2 0x2085 JUMP JUMPDEST PUSH1 0x80 DUP7 ADD MSTORE POP POP POP POP JUMPDEST SWAP4 SWAP3 POP POP POP JUMP JUMPDEST DUP1 PUSH2 0x160 ADD MLOAD PUSH1 0x0 SUB PUSH2 0x1DBC JUMPI PUSH1 0x2 SLOAD PUSH1 0x1 PUSH1 0x1 PUSH1 0xA0 SHL SUB AND ISZERO PUSH2 0x1D74 JUMPI PUSH1 0x2 SLOAD PUSH1 0x40 DUP3 DUP2 ADD MLOAD SWAP1 MLOAD PUSH4 0x95EA7B3 PUSH1 0xE0 SHL DUP2 MSTORE PUSH1 0x1 PUSH1 0x1 PUSH1 0xA0 SHL SUB SWAP3 DUP4 AND PUSH1 0x4 DUP3 ADD MSTORE PUSH1 0x24 DUP2 ADD SWAP2 SWAP1 SWAP2 MSTORE PUSH32 0x0 SWAP1 SWAP2 AND SWAP1 PUSH4 0x95EA7B3 SWAP1 PUSH1 0x44 ADD PUSH1 0x20 PUSH1 0x40 MLOAD DUP1 DUP4 SUB DUP2 PUSH1 0x0 DUP8 GAS CALL ISZERO DUP1 ISZERO PUSH2 0x1CE5 JUMPI RETURNDATASIZE PUSH1 0x0 DUP1 RETURNDATACOPY RETURNDATASIZE PUSH1 0x0 REVERT JUMPDEST POP POP POP POP PUSH1 0x40 MLOAD RETURNDATASIZE PUSH1 0x1F NOT PUSH1 0x1F DUP3 ADD AND DUP3 ADD DUP1 PUSH1 0x40 MSTORE POP DUP2 ADD SWAP1 PUSH2 0x1D09 SWAP2 SWAP1 PUSH2 0x2A5E JUMP JUMPDEST POP PUSH1 0x2 SLOAD PUSH1 0x40 DUP1 DUP4 ADD MLOAD SWAP1 MLOAD PUSH4 0x33C19AB PUSH1 0xE4 SHL DUP2 MSTORE PUSH1 0x1 PUSH1 0x1 PUSH1 0xA0 SHL SUB SWAP1 SWAP3 AND SWAP2 PUSH4 0x33C19AB0 SWAP2 PUSH2 0x1D41 SWAP2 PUSH1 0x4 ADD SWAP1 DUP2 MSTORE PUSH1 0x20 ADD SWAP1 JUMP JUMPDEST PUSH1 0x0 PUSH1 0x40 MLOAD DUP1 DUP4 SUB DUP2 PUSH1 0x0 DUP8 DUP1 EXTCODESIZE ISZERO DUP1 ISZERO PUSH2 0x1D5B JUMPI PUSH1 0x0 DUP1 REVERT JUMPDEST POP GAS CALL ISZERO DUP1 ISZERO PUSH2 0x1D6F JUMPI RETURNDATASIZE PUSH1 0x0 DUP1 RETURNDATACOPY RETURNDATASIZE PUSH1 0x0 REVERT JUMPDEST POP POP POP POP JUMPDEST DUP1 PUSH1 0x40 ADD MLOAD PUSH1 0xF PUSH1 0x0 DUP4 PUSH1 0x20 ADD MLOAD PUSH1 0x1 PUSH1 0x1 PUSH1 0xA0 SHL SUB AND PUSH1 0x1 PUSH1 0x1 PUSH1 0xA0 SHL SUB AND DUP2 MSTORE PUSH1 0x20 ADD SWAP1 DUP2 MSTORE PUSH1 0x20 ADD PUSH1 0x0 KECCAK256 PUSH1 0x0 DUP3 DUP3 SLOAD PUSH2 0x1DB1 SWAP2 SWAP1 PUSH2 0x2BF8 JUMP JUMPDEST SWAP1 SWAP2 SSTORE POP PUSH2 0x125C SWAP1 POP JUMP JUMPDEST DUP1 PUSH1 0x40 ADD MLOAD DUP2 PUSH2 0x160 ADD MLOAD SUB PUSH2 0x1E0A JUMPI PUSH1 0x20 DUP2 ADD MLOAD PUSH1 0x40 DUP3 ADD MLOAD PUSH2 0x125C SWAP2 PUSH1 0x1 PUSH1 0x1 PUSH1 0xA0 SHL SUB PUSH32 0x0 AND SWAP2 PUSH2 0x22BB JUMP JUMPDEST PUSH1 0x0 DUP2 PUSH1 0x40 ADD MLOAD DUP3 PUSH2 0x160 ADD MLOAD PUSH2 0x1E21 SWAP2 SWAP1 PUSH2 0x2863 JUMP JUMPDEST SWAP1 POP PUSH1 0x0 PUSH2 0x2710 PUSH1 0x5 SLOAD DUP4 PUSH2 0x1E36 SWAP2 SWAP1 PUSH2 0x2A1D JUMP JUMPDEST PUSH2 0x1E40 SWAP2 SWAP1 PUSH2 0x2A4A JUMP JUMPDEST SWAP1 POP PUSH1 0x0 DUP2 DUP5 PUSH2 0x160 ADD MLOAD PUSH2 0x1E55 SWAP2 SWAP1 PUSH2 0x2863 JUMP JUMPDEST PUSH1 0x2 SLOAD SWAP1 SWAP2 POP PUSH1 0x1 PUSH1 0x1 PUSH1 0xA0 SHL SUB AND ISZERO DUP1 ISZERO SWAP1 PUSH2 0x1E72 JUMPI POP PUSH1 0x0 DUP4 GT JUMPDEST ISZERO PUSH2 0x1EDC JUMPI PUSH1 0x2 SLOAD PUSH1 0x40 MLOAD PUSH4 0x93CC7DB PUSH1 0xE4 SHL DUP2 MSTORE ADDRESS PUSH1 0x4 DUP3 ADD MSTORE PUSH1 0x24 DUP2 ADD DUP6 SWAP1 MSTORE PUSH1 0x1 PUSH1 0x1 PUSH1 0xA0 SHL SUB SWAP1 SWAP2 AND SWAP1 PUSH4 0x93CC7DB0 SWAP1 PUSH1 0x44 ADD PUSH1 0x0 PUSH1 0x40 MLOAD DUP1 DUP4 SUB DUP2 PUSH1 0x0 DUP8 DUP1 EXTCODESIZE ISZERO DUP1 ISZERO PUSH2 0x1EC3 JUMPI PUSH1 0x0 DUP1 REVERT JUMPDEST POP GAS CALL ISZERO DUP1 ISZERO PUSH2 0x1ED7 JUMPI RETURNDATASIZE PUSH1 0x0 DUP1 RETURNDATACOPY RETURNDATASIZE PUSH1 0x0 REVERT JUMPDEST POP POP POP POP JUMPDEST PUSH1 0x20 DUP5 ADD MLOAD PUSH2 0x1F16 SWAP1 PUSH1 0x1 PUSH1 0x1 PUSH1 0xA0 SHL SUB PUSH32 0x0 AND SWAP1 DUP4 PUSH2 0x22BB JUMP JUMPDEST PUSH1 0x40 DUP5 ADD MLOAD PUSH2 0x1F25 SWAP1 DUP3 PUSH2 0x2BF8 JUMP JUMPDEST PUSH1 0x20 DUP1 DUP7 ADD MLOAD PUSH1 0x1 PUSH1 0x1 PUSH1 0xA0 SHL SUB AND PUSH1 0x0 SWAP1 DUP2 MSTORE PUSH1 0xF SWAP1 SWAP2 MSTORE PUSH1 0x40 DUP2 KECCAK256 DUP1 SLOAD SWAP1 SWAP2 SWAP1 PUSH2 0x1F52 SWAP1 DUP5 SWAP1 PUSH2 0x2C1F JUMP JUMPDEST SWAP1 SWAP2 SSTORE POP POP POP POP POP POP JUMP JUMPDEST PUSH1 0x0 DUP1 PUSH1 0x20 PUSH1 0x0 DUP5 MLOAD PUSH1 0x20 DUP7 ADD PUSH1 0x0 DUP9 GAS CALL DUP1 PUSH2 0x1F80 JUMPI PUSH1 0x40 MLOAD RETURNDATASIZE PUSH1 0x0 DUP3 RETURNDATACOPY RETURNDATASIZE DUP2 REVERT JUMPDEST POP POP PUSH1 0x0 MLOAD RETURNDATASIZE SWAP2 POP DUP2 ISZERO PUSH2 0x1F98 JUMPI DUP1 PUSH1 0x1 EQ ISZERO PUSH2 0x1FA5 JUMP JUMPDEST PUSH1 0x1 PUSH1 0x1 PUSH1 0xA0 SHL SUB DUP5 AND EXTCODESIZE ISZERO JUMPDEST ISZERO PUSH2 0x136F JUMPI PUSH1 0x40 MLOAD PUSH4 0x5274AFE7 PUSH1 0xE0 SHL DUP2 MSTORE PUSH1 0x1 PUSH1 0x1 PUSH1 0xA0 SHL SUB DUP6 AND PUSH1 0x4 DUP3 ADD MSTORE PUSH1 0x24 ADD PUSH2 0x96F JUMP JUMPDEST PUSH1 0x0 DUP1 DUP1 DUP1 JUMPDEST DUP5 PUSH1 0xFF AND DUP2 PUSH1 0xFF AND LT ISZERO PUSH2 0x2049 JUMPI PUSH1 0x0 PUSH2 0x1FFC DUP8 DUP4 PUSH1 0xFF AND DUP2 MLOAD DUP2 LT PUSH2 0x18F4 JUMPI PUSH2 0x18F4 PUSH2 0x2876 JUMP JUMPDEST SWAP1 POP DUP1 PUSH1 0xFF AND PUSH1 0x1 SUB PUSH2 0x2029 JUMPI DUP3 PUSH2 0x2013 DUP2 PUSH2 0x2B8F JUMP JUMPDEST SWAP4 POP PUSH2 0x2022 SWAP1 POP PUSH1 0xB DUP6 PUSH2 0x2BAE JUMP JUMPDEST SWAP4 POP PUSH2 0x2036 JUMP JUMPDEST PUSH2 0x2033 DUP2 DUP6 PUSH2 0x2BAE JUMP JUMPDEST SWAP4 POP JUMPDEST POP DUP1 PUSH2 0x2041 DUP2 PUSH2 0x2B8F JUMP JUMPDEST SWAP2 POP POP PUSH2 0x1FD4 JUMP JUMPDEST POP JUMPDEST PUSH1 0x15 DUP3 PUSH1 0xFF AND GT DUP1 ISZERO PUSH2 0x2061 JUMPI POP PUSH1 0x0 DUP2 PUSH1 0xFF AND GT JUMPDEST ISZERO PUSH2 0x79D JUMPI PUSH2 0x2071 PUSH1 0xA DUP4 PUSH2 0x2C47 JUMP JUMPDEST SWAP2 POP DUP1 PUSH2 0x207D DUP2 PUSH2 0x2BDB JUMP JUMPDEST SWAP2 POP POP PUSH2 0x204B JUMP JUMPDEST PUSH1 0x60 PUSH1 0x0 DUP3 PUSH1 0xFF AND PUSH8 0xFFFFFFFFFFFFFFFF DUP2 GT ISZERO PUSH2 0x20A5 JUMPI PUSH2 0x20A5 PUSH2 0x2837 JUMP JUMPDEST PUSH1 0x40 MLOAD SWAP1 DUP1 DUP3 MSTORE DUP1 PUSH1 0x20 MUL PUSH1 0x20 ADD DUP3 ADD PUSH1 0x40 MSTORE DUP1 ISZERO PUSH2 0x20CE JUMPI DUP2 PUSH1 0x20 ADD PUSH1 0x20 DUP3 MUL DUP1 CALLDATASIZE DUP4 CALLDATACOPY ADD SWAP1 POP JUMPDEST POP SWAP1 POP PUSH1 0x0 JUMPDEST DUP4 PUSH1 0xFF AND DUP2 PUSH1 0xFF AND LT ISZERO PUSH2 0x79D JUMPI DUP5 DUP2 PUSH1 0xFF AND DUP2 MLOAD DUP2 LT PUSH2 0x20F7 JUMPI PUSH2 0x20F7 PUSH2 0x2876 JUMP JUMPDEST PUSH1 0x20 MUL PUSH1 0x20 ADD ADD MLOAD DUP3 DUP3 PUSH1 0xFF AND DUP2 MLOAD DUP2 LT PUSH2 0x2114 JUMPI PUSH2 0x2114 PUSH2 0x2876 JUMP JUMPDEST PUSH1 0xFF SWAP1 SWAP3 AND PUSH1 0x20 SWAP3 DUP4 MUL SWAP2 SWAP1 SWAP2 ADD SWAP1 SWAP2 ADD MSTORE DUP1 PUSH2 0x2130 DUP2 PUSH2 0x2B8F JUMP JUMPDEST SWAP2 POP POP PUSH2 0x20D4 JUMP JUMPDEST PUSH1 0x0 DUP1 PUSH2 0x2146 PUSH1 0xD DUP5 PUSH2 0x2C60 JUMP JUMPDEST SWAP1 POP DUP1 PUSH1 0xFF AND PUSH1 0x0 SUB PUSH2 0x215C JUMPI POP PUSH1 0x1 SWAP3 SWAP2 POP POP JUMP JUMPDEST PUSH1 0xA DUP2 PUSH1 0xFF AND LT PUSH2 0x2170 JUMPI POP PUSH1 0xA SWAP3 SWAP2 POP POP JUMP JUMPDEST PUSH2 0x1C46 DUP2 PUSH1 0x1 PUSH2 0x2BAE JUMP JUMPDEST PUSH1 0x0 DUP1 DUP1 DUP1 JUMPDEST DUP5 PUSH1 0xFF AND DUP2 PUSH1 0xFF AND LT ISZERO PUSH2 0x21EF JUMPI PUSH1 0x0 PUSH2 0x21A9 DUP8 DUP4 PUSH1 0xFF AND DUP2 MLOAD DUP2 LT PUSH2 0x18F4 JUMPI PUSH2 0x18F4 PUSH2 0x2876 JUMP JUMPDEST SWAP1 POP DUP1 PUSH1 0xFF AND PUSH1 0x1 SUB PUSH2 0x21BB JUMPI PUSH1 0x1 SWAP3 POP JUMPDEST DUP1 PUSH1 0xFF AND PUSH1 0x1 EQ PUSH2 0x21CC JUMPI DUP1 PUSH2 0x21CF JUMP JUMPDEST PUSH1 0xB JUMPDEST PUSH2 0x21D9 SWAP1 DUP6 PUSH2 0x2BAE JUMP JUMPDEST SWAP4 POP POP DUP1 DUP1 PUSH2 0x21E7 SWAP1 PUSH2 0x2B8F JUMP JUMPDEST SWAP2 POP POP PUSH2 0x2181 JUMP JUMPDEST POP DUP1 DUP1 ISZERO PUSH2 0x2201 JUMPI POP PUSH1 0x15 DUP3 PUSH1 0xFF AND GT ISZERO JUMPDEST SWAP6 SWAP5 POP POP POP POP POP JUMP JUMPDEST PUSH1 0x0 DUP2 ISZERO PUSH2 0x2251 JUMPI PUSH1 0x11 DUP5 PUSH1 0xFF AND GT PUSH2 0x2225 JUMPI POP PUSH1 0x1 PUSH2 0x1C46 JUMP JUMPDEST DUP4 PUSH1 0xFF AND PUSH1 0x12 EQ DUP1 ISZERO PUSH2 0x223C JUMPI POP PUSH1 0x9 DUP4 PUSH1 0xFF AND LT ISZERO JUMPDEST ISZERO PUSH2 0x2249 JUMPI POP PUSH1 0x1 PUSH2 0x1C46 JUMP JUMPDEST POP PUSH1 0x0 PUSH2 0x1C46 JUMP JUMPDEST PUSH1 0xB DUP5 PUSH1 0xFF AND GT PUSH2 0x2264 JUMPI POP PUSH1 0x1 PUSH2 0x1C46 JUMP JUMPDEST PUSH1 0x11 DUP5 PUSH1 0xFF AND LT PUSH2 0x2277 JUMPI POP PUSH1 0x0 PUSH2 0x1C46 JUMP JUMPDEST PUSH1 0xC DUP5 PUSH1 0xFF AND LT ISZERO DUP1 ISZERO PUSH2 0x228F JUMPI POP PUSH1 0x10 DUP5 PUSH1 0xFF AND GT ISZERO JUMPDEST ISZERO PUSH2 0x22B1 JUMPI PUSH1 0x7 DUP4 PUSH1 0xFF AND LT ISZERO DUP1 PUSH2 0x22AA JUMPI POP DUP3 PUSH1 0xFF AND PUSH1 0x1 EQ JUMPDEST SWAP1 POP PUSH2 0x1C46 JUMP JUMPDEST POP PUSH1 0x0 SWAP4 SWAP3 POP POP POP JUMP JUMPDEST PUSH1 0x40 MLOAD PUSH1 0x1 PUSH1 0x1 PUSH1 0xA0 SHL SUB DUP4 DUP2 AND PUSH1 0x24 DUP4 ADD MSTORE PUSH1 0x44 DUP3 ADD DUP4 SWAP1 MSTORE PUSH2 0x22EC SWAP2 DUP6 SWAP2 DUP3 AND SWAP1 PUSH4 0xA9059CBB SWAP1 PUSH1 0x64 ADD PUSH2 0x133D JUMP JUMPDEST POP POP POP JUMP JUMPDEST PUSH1 0x40 MLOAD DUP1 PUSH2 0x1A0 ADD PUSH1 0x40 MSTORE DUP1 PUSH1 0x0 DUP2 MSTORE PUSH1 0x20 ADD PUSH1 0x0 PUSH1 0x1 PUSH1 0x1 PUSH1 0xA0 SHL SUB AND DUP2 MSTORE PUSH1 0x20 ADD PUSH1 0x0 DUP2 MSTORE PUSH1 0x20 ADD PUSH1 0x60 DUP2 MSTORE PUSH1 0x20 ADD PUSH1 0x60 DUP2 MSTORE PUSH1 0x20 ADD PUSH1 0x0 PUSH1 0xFF AND DUP2 MSTORE PUSH1 0x20 ADD PUSH1 0x0 PUSH1 0xFF AND DUP2 MSTORE PUSH1 0x20 ADD PUSH1 0x0 ISZERO ISZERO DUP2 MSTORE PUSH1 0x20 ADD PUSH1 0x0 ISZERO ISZERO DUP2 MSTORE PUSH1 0x20 ADD PUSH1 0x0 ISZERO ISZERO DUP2 MSTORE PUSH1 0x20 ADD PUSH1 0x0 ISZERO ISZERO DUP2 MSTORE PUSH1 0x20 ADD PUSH1 0x0 DUP2 MSTORE PUSH1 0x20 ADD PUSH1 0x60 DUP2 MSTORE POP SWAP1 JUMP JUMPDEST DUP3 DUP1 SLOAD DUP3 DUP3 SSTORE SWAP1 PUSH1 0x0 MSTORE PUSH1 0x20 PUSH1 0x0 KECCAK256 SWAP1 PUSH1 0x1F ADD PUSH1 0x20 SWAP1 DIV DUP2 ADD SWAP3 DUP3 ISZERO PUSH2 0x2406 JUMPI SWAP2 PUSH1 0x20 MUL DUP3 ADD PUSH1 0x0 JUMPDEST DUP4 DUP3 GT ISZERO PUSH2 0x23D7 JUMPI DUP4 MLOAD DUP4 DUP3 PUSH2 0x100 EXP DUP2 SLOAD DUP2 PUSH1 0xFF MUL NOT AND SWAP1 DUP4 PUSH1 0xFF AND MUL OR SWAP1 SSTORE POP SWAP3 PUSH1 0x20 ADD SWAP3 PUSH1 0x1 ADD PUSH1 0x20 DUP2 PUSH1 0x0 ADD DIV SWAP3 DUP4 ADD SWAP3 PUSH1 0x1 SUB MUL PUSH2 0x2399 JUMP JUMPDEST DUP1 ISZERO PUSH2 0x2404 JUMPI DUP3 DUP2 PUSH2 0x100 EXP DUP2 SLOAD SWAP1 PUSH1 0xFF MUL NOT AND SWAP1 SSTORE PUSH1 0x1 ADD PUSH1 0x20 DUP2 PUSH1 0x0 ADD DIV SWAP3 DUP4 ADD SWAP3 PUSH1 0x1 SUB MUL PUSH2 0x23D7 JUMP JUMPDEST POP JUMPDEST POP PUSH2 0x2412 SWAP3 SWAP2 POP PUSH2 0x2416 JUMP JUMPDEST POP SWAP1 JUMP JUMPDEST JUMPDEST DUP1 DUP3 GT ISZERO PUSH2 0x2412 JUMPI PUSH1 0x0 DUP2 SSTORE PUSH1 0x1 ADD PUSH2 0x2417 JUMP JUMPDEST DUP1 CALLDATALOAD PUSH1 0x1 PUSH1 0x1 PUSH1 0xA0 SHL SUB DUP2 AND DUP2 EQ PUSH2 0x1107 JUMPI PUSH1 0x0 DUP1 REVERT JUMPDEST PUSH1 0x0 PUSH1 0x20 DUP3 DUP5 SUB SLT ISZERO PUSH2 0x2454 JUMPI PUSH1 0x0 DUP1 REVERT JUMPDEST PUSH2 0x1C46 DUP3 PUSH2 0x242B JUMP JUMPDEST PUSH1 0x0 PUSH1 0x20 DUP3 DUP5 SUB SLT ISZERO PUSH2 0x246F JUMPI PUSH1 0x0 DUP1 REVERT JUMPDEST POP CALLDATALOAD SWAP2 SWAP1 POP JUMP JUMPDEST PUSH1 0x0 DUP2 MLOAD DUP1 DUP5 MSTORE PUSH1 0x20 DUP1 DUP6 ADD SWAP5 POP DUP1 DUP5 ADD PUSH1 0x0 JUMPDEST DUP4 DUP2 LT ISZERO PUSH2 0x24A9 JUMPI DUP2 MLOAD PUSH1 0xFF AND DUP8 MSTORE SWAP6 DUP3 ADD SWAP6 SWAP1 DUP3 ADD SWAP1 PUSH1 0x1 ADD PUSH2 0x248A JUMP JUMPDEST POP SWAP5 SWAP6 SWAP5 POP POP POP POP POP JUMP JUMPDEST PUSH1 0x0 DUP2 MLOAD DUP1 DUP5 MSTORE PUSH1 0x0 JUMPDEST DUP2 DUP2 LT ISZERO PUSH2 0x24DA JUMPI PUSH1 0x20 DUP2 DUP6 ADD DUP2 ADD MLOAD DUP7 DUP4 ADD DUP3 ADD MSTORE ADD PUSH2 0x24BE JUMP JUMPDEST POP PUSH1 0x0 PUSH1 0x20 DUP3 DUP7 ADD ADD MSTORE PUSH1 0x20 PUSH1 0x1F NOT PUSH1 0x1F DUP4 ADD AND DUP6 ADD ADD SWAP2 POP POP SWAP3 SWAP2 POP POP JUMP JUMPDEST PUSH1 0x0 PUSH2 0x1A0 DUP3 MLOAD DUP5 MSTORE PUSH1 0x20 DUP4 ADD MLOAD PUSH2 0x251D PUSH1 0x20 DUP7 ADD DUP3 PUSH1 0x1 PUSH1 0x1 PUSH1 0xA0 SHL SUB AND SWAP1 MSTORE JUMP JUMPDEST POP PUSH1 0x40 DUP4 ADD MLOAD PUSH1 0x40 DUP6 ADD MSTORE PUSH1 0x60 DUP4 ADD MLOAD DUP2 PUSH1 0x60 DUP7 ADD MSTORE PUSH2 0x253F DUP3 DUP7 ADD DUP3 PUSH2 0x2476 JUMP JUMPDEST SWAP2 POP POP PUSH1 0x80 DUP4 ADD MLOAD DUP5 DUP3 SUB PUSH1 0x80 DUP7 ADD MSTORE PUSH2 0x2559 DUP3 DUP3 PUSH2 0x2476 JUMP JUMPDEST SWAP2 POP POP PUSH1 0xA0 DUP4 ADD MLOAD PUSH2 0x2570 PUSH1 0xA0 DUP7 ADD DUP3 PUSH1 0xFF AND SWAP1 MSTORE JUMP JUMPDEST POP PUSH1 0xC0 DUP4 ADD MLOAD PUSH2 0x2585 PUSH1 0xC0 DUP7 ADD DUP3 PUSH1 0xFF AND SWAP1 MSTORE JUMP JUMPDEST POP PUSH1 0xE0 DUP4 ADD MLOAD PUSH2 0x2599 PUSH1 0xE0 DUP7 ADD DUP3 ISZERO ISZERO SWAP1 MSTORE JUMP JUMPDEST POP PUSH2 0x100 DUP4 DUP2 ADD MLOAD ISZERO ISZERO SWAP1 DUP6 ADD MSTORE PUSH2 0x120 DUP1 DUP5 ADD MLOAD ISZERO ISZERO SWAP1 DUP6 ADD MSTORE PUSH2 0x140 DUP1 DUP5 ADD MLOAD ISZERO ISZERO SWAP1 DUP6 ADD MSTORE PUSH2 0x160 DUP1 DUP5 ADD MLOAD SWAP1 DUP6 ADD MSTORE PUSH2 0x180 DUP1 DUP5 ADD MLOAD DUP6 DUP4 SUB DUP3 DUP8 ADD MSTORE PUSH2 0x25E4 DUP4 DUP3 PUSH2 0x24B4 JUMP JUMPDEST SWAP7 SWAP6 POP POP POP POP POP POP JUMP JUMPDEST PUSH1 0x0 PUSH1 0x20 DUP1 DUP4 ADD DUP2 DUP5 MSTORE DUP1 DUP6 MLOAD DUP1 DUP4 MSTORE PUSH1 0x40 DUP7 ADD SWAP2 POP PUSH1 0x40 DUP2 PUSH1 0x5 SHL DUP8 ADD ADD SWAP3 POP DUP4 DUP8 ADD PUSH1 0x0 JUMPDEST DUP3 DUP2 LT ISZERO PUSH2 0x2643 JUMPI PUSH1 0x3F NOT DUP9 DUP7 SUB ADD DUP5 MSTORE PUSH2 0x2631 DUP6 DUP4 MLOAD PUSH2 0x24FA JUMP JUMPDEST SWAP5 POP SWAP3 DUP6 ADD SWAP3 SWAP1 DUP6 ADD SWAP1 PUSH1 0x1 ADD PUSH2 0x2615 JUMP JUMPDEST POP SWAP3 SWAP8 SWAP7 POP POP POP POP POP POP POP JUMP JUMPDEST PUSH1 0x0 DUP1 PUSH1 0x40 DUP4 DUP6 SUB SLT ISZERO PUSH2 0x2663 JUMPI PUSH1 0x0 DUP1 REVERT JUMPDEST PUSH2 0x266C DUP4 PUSH2 0x242B JUMP JUMPDEST SWAP5 PUSH1 0x20 SWAP4 SWAP1 SWAP4 ADD CALLDATALOAD SWAP4 POP POP POP JUMP JUMPDEST PUSH1 0x20 DUP1 DUP3 MSTORE DUP3 MLOAD DUP3 DUP3 ADD DUP2 SWAP1 MSTORE PUSH1 0x0 SWAP2 SWAP1 DUP5 DUP3 ADD SWAP1 PUSH1 0x40 DUP6 ADD SWAP1 DUP5 JUMPDEST DUP2 DUP2 LT ISZERO PUSH2 0x26B2 JUMPI DUP4 MLOAD DUP4 MSTORE SWAP3 DUP5 ADD SWAP3 SWAP2 DUP5 ADD SWAP2 PUSH1 0x1 ADD PUSH2 0x2696 JUMP JUMPDEST POP SWAP1 SWAP7 SWAP6 POP POP POP POP POP POP JUMP JUMPDEST PUSH1 0x20 DUP2 MSTORE PUSH1 0x0 PUSH2 0x1C46 PUSH1 0x20 DUP4 ADD DUP5 PUSH2 0x24B4 JUMP JUMPDEST PUSH1 0x0 DUP1 PUSH1 0x20 DUP4 DUP6 SUB SLT ISZERO PUSH2 0x26E4 JUMPI PUSH1 0x0 DUP1 REVERT JUMPDEST DUP3 CALLDATALOAD PUSH8 0xFFFFFFFFFFFFFFFF DUP1 DUP3 GT ISZERO PUSH2 0x26FC JUMPI PUSH1 0x0 DUP1 REVERT JUMPDEST DUP2 DUP6 ADD SWAP2 POP DUP6 PUSH1 0x1F DUP4 ADD SLT PUSH2 0x2710 JUMPI PUSH1 0x0 DUP1 REVERT JUMPDEST DUP2 CALLDATALOAD DUP2 DUP2 GT ISZERO PUSH2 0x271F JUMPI PUSH1 0x0 DUP1 REVERT JUMPDEST DUP7 PUSH1 0x20 DUP3 DUP6 ADD ADD GT ISZERO PUSH2 0x2731 JUMPI PUSH1 0x0 DUP1 REVERT JUMPDEST PUSH1 0x20 SWAP3 SWAP1 SWAP3 ADD SWAP7 SWAP2 SWAP6 POP SWAP1 SWAP4 POP POP POP POP JUMP JUMPDEST PUSH1 0x0 DUP1 PUSH1 0x40 DUP4 DUP6 SUB SLT ISZERO PUSH2 0x2756 JUMPI PUSH1 0x0 DUP1 REVERT JUMPDEST POP POP DUP1 CALLDATALOAD SWAP3 PUSH1 0x20 SWAP1 SWAP2 ADD CALLDATALOAD SWAP2 POP JUMP JUMPDEST PUSH1 0xE0 DUP2 MSTORE PUSH1 0x0 PUSH2 0x2778 PUSH1 0xE0 DUP4 ADD DUP11 PUSH2 0x24B4 JUMP JUMPDEST PUSH1 0x20 DUP4 ADD SWAP9 SWAP1 SWAP9 MSTORE POP PUSH1 0x40 DUP2 ADD SWAP6 SWAP1 SWAP6 MSTORE PUSH1 0x60 DUP6 ADD SWAP4 SWAP1 SWAP4 MSTORE PUSH1 0x80 DUP5 ADD SWAP2 SWAP1 SWAP2 MSTORE PUSH1 0xA0 DUP4 ADD MSTORE PUSH1 0xC0 SWAP1 SWAP2 ADD MSTORE SWAP2 SWAP1 POP JUMP JUMPDEST PUSH1 0x20 DUP2 MSTORE PUSH1 0x0 PUSH2 0x1C46 PUSH1 0x20 DUP4 ADD DUP5 PUSH2 0x24FA JUMP JUMPDEST PUSH1 0x0 PUSH2 0x160 DUP14 DUP4 MSTORE PUSH1 0x1 DUP1 PUSH1 0xA0 SHL SUB DUP14 AND PUSH1 0x20 DUP5 ADD MSTORE DUP12 PUSH1 0x40 DUP5 ADD MSTORE PUSH1 0xFF DUP12 AND PUSH1 0x60 DUP5 ADD MSTORE PUSH1 0xFF DUP11 AND PUSH1 0x80 DUP5 ADD MSTORE DUP9 ISZERO ISZERO PUSH1 0xA0 DUP5 ADD MSTORE DUP8 ISZERO ISZERO PUSH1 0xC0 DUP5 ADD MSTORE DUP7 ISZERO ISZERO PUSH1 0xE0 DUP5 ADD MSTORE DUP6 ISZERO ISZERO PUSH2 0x100 DUP5 ADD MSTORE DUP5 PUSH2 0x120 DUP5 ADD MSTORE DUP1 PUSH2 0x140 DUP5 ADD MSTORE PUSH2 0x2825 DUP2 DUP5 ADD DUP6 PUSH2 0x24B4 JUMP JUMPDEST SWAP15 SWAP14 POP POP POP POP POP POP POP POP POP POP POP POP POP POP JUMP JUMPDEST PUSH4 0x4E487B71 PUSH1 0xE0 SHL PUSH1 0x0 MSTORE PUSH1 0x41 PUSH1 0x4 MSTORE PUSH1 0x24 PUSH1 0x0 REVERT JUMPDEST PUSH4 0x4E487B71 PUSH1 0xE0 SHL PUSH1 0x0 MSTORE PUSH1 0x11 PUSH1 0x4 MSTORE PUSH1 0x24 PUSH1 0x0 REVERT JUMPDEST DUP2 DUP2 SUB DUP2 DUP2 GT ISZERO PUSH2 0x888 JUMPI PUSH2 0x888 PUSH2 0x284D JUMP JUMPDEST PUSH4 0x4E487B71 PUSH1 0xE0 SHL PUSH1 0x0 MSTORE PUSH1 0x32 PUSH1 0x4 MSTORE PUSH1 0x24 PUSH1 0x0 REVERT JUMPDEST PUSH1 0x1 DUP2 DUP2 SHR SWAP1 DUP3 AND DUP1 PUSH2 0x28A0 JUMPI PUSH1 0x7F DUP3 AND SWAP2 POP JUMPDEST PUSH1 0x20 DUP3 LT DUP2 SUB PUSH2 0x28C0 JUMPI PUSH4 0x4E487B71 PUSH1 0xE0 SHL PUSH1 0x0 MSTORE PUSH1 0x22 PUSH1 0x4 MSTORE PUSH1 0x24 PUSH1 0x0 REVERT JUMPDEST POP SWAP2 SWAP1 POP JUMP JUMPDEST PUSH1 0x0 PUSH1 0x1 DUP3 ADD PUSH2 0x28D8 JUMPI PUSH2 0x28D8 PUSH2 0x284D JUMP JUMPDEST POP PUSH1 0x1 ADD SWAP1 JUMP JUMPDEST PUSH1 0x1F DUP3 GT ISZERO PUSH2 0x22EC JUMPI PUSH1 0x0 DUP2 DUP2 MSTORE PUSH1 0x20 DUP2 KECCAK256 PUSH1 0x1F DUP6 ADD PUSH1 0x5 SHR DUP2 ADD PUSH1 0x20 DUP7 LT ISZERO PUSH2 0x2906 JUMPI POP DUP1 JUMPDEST PUSH1 0x1F DUP6 ADD PUSH1 0x5 SHR DUP3 ADD SWAP2 POP JUMPDEST DUP2 DUP2 LT ISZERO PUSH2 0x2925 JUMPI DUP3 DUP2 SSTORE PUSH1 0x1 ADD PUSH2 0x2912 JUMP JUMPDEST POP POP POP POP POP POP JUMP JUMPDEST PUSH8 0xFFFFFFFFFFFFFFFF DUP4 GT ISZERO PUSH2 0x2945 JUMPI PUSH2 0x2945 PUSH2 0x2837 JUMP JUMPDEST PUSH2 0x2959 DUP4 PUSH2 0x2953 DUP4 SLOAD PUSH2 0x288C JUMP JUMPDEST DUP4 PUSH2 0x28DF JUMP JUMPDEST PUSH1 0x0 PUSH1 0x1F DUP5 GT PUSH1 0x1 DUP2 EQ PUSH2 0x298D JUMPI PUSH1 0x0 DUP6 ISZERO PUSH2 0x2975 JUMPI POP DUP4 DUP3 ADD CALLDATALOAD JUMPDEST PUSH1 0x0 NOT PUSH1 0x3 DUP8 SWAP1 SHL SHR NOT AND PUSH1 0x1 DUP7 SWAP1 SHL OR DUP4 SSTORE PUSH2 0x29E7 JUMP JUMPDEST PUSH1 0x0 DUP4 DUP2 MSTORE PUSH1 0x20 SWAP1 KECCAK256 PUSH1 0x1F NOT DUP7 AND SWAP1 DUP4 JUMPDEST DUP3 DUP2 LT ISZERO PUSH2 0x29BE JUMPI DUP7 DUP6 ADD CALLDATALOAD DUP3 SSTORE PUSH1 0x20 SWAP5 DUP6 ADD SWAP5 PUSH1 0x1 SWAP1 SWAP3 ADD SWAP2 ADD PUSH2 0x299E JUMP JUMPDEST POP DUP7 DUP3 LT ISZERO PUSH2 0x29DB JUMPI PUSH1 0x0 NOT PUSH1 0xF8 DUP9 PUSH1 0x3 SHL AND SHR NOT DUP5 DUP8 ADD CALLDATALOAD AND DUP2 SSTORE JUMPDEST POP POP PUSH1 0x1 DUP6 PUSH1 0x1 SHL ADD DUP4 SSTORE JUMPDEST POP POP POP POP POP JUMP JUMPDEST PUSH1 0x20 DUP2 MSTORE DUP2 PUSH1 0x20 DUP3 ADD MSTORE DUP2 DUP4 PUSH1 0x40 DUP4 ADD CALLDATACOPY PUSH1 0x0 DUP2 DUP4 ADD PUSH1 0x40 SWAP1 DUP2 ADD SWAP2 SWAP1 SWAP2 MSTORE PUSH1 0x1F SWAP1 SWAP3 ADD PUSH1 0x1F NOT AND ADD ADD SWAP2 SWAP1 POP JUMP JUMPDEST DUP1 DUP3 MUL DUP2 ISZERO DUP3 DUP3 DIV DUP5 EQ OR PUSH2 0x888 JUMPI PUSH2 0x888 PUSH2 0x284D JUMP JUMPDEST PUSH4 0x4E487B71 PUSH1 0xE0 SHL PUSH1 0x0 MSTORE PUSH1 0x12 PUSH1 0x4 MSTORE PUSH1 0x24 PUSH1 0x0 REVERT JUMPDEST PUSH1 0x0 DUP3 PUSH2 0x2A59 JUMPI PUSH2 0x2A59 PUSH2 0x2A34 JUMP JUMPDEST POP DIV SWAP1 JUMP JUMPDEST PUSH1 0x0 PUSH1 0x20 DUP3 DUP5 SUB SLT ISZERO PUSH2 0x2A70 JUMPI PUSH1 0x0 DUP1 REVERT JUMPDEST DUP2 MLOAD DUP1 ISZERO ISZERO DUP2 EQ PUSH2 0x1C46 JUMPI PUSH1 0x0 DUP1 REVERT JUMPDEST DUP1 DUP3 ADD DUP1 DUP3 GT ISZERO PUSH2 0x888 JUMPI PUSH2 0x888 PUSH2 0x284D JUMP JUMPDEST DUP2 MLOAD PUSH8 0xFFFFFFFFFFFFFFFF DUP2 GT ISZERO PUSH2 0x2AAD JUMPI PUSH2 0x2AAD PUSH2 0x2837 JUMP JUMPDEST PUSH2 0x2AC1 DUP2 PUSH2 0x2ABB DUP5 SLOAD PUSH2 0x288C JUMP JUMPDEST DUP5 PUSH2 0x28DF JUMP JUMPDEST PUSH1 0x20 DUP1 PUSH1 0x1F DUP4 GT PUSH1 0x1 DUP2 EQ PUSH2 0x2AF6 JUMPI PUSH1 0x0 DUP5 ISZERO PUSH2 0x2ADE JUMPI POP DUP6 DUP4 ADD MLOAD JUMPDEST PUSH1 0x0 NOT PUSH1 0x3 DUP7 SWAP1 SHL SHR NOT AND PUSH1 0x1 DUP6 SWAP1 SHL OR DUP6 SSTORE PUSH2 0x2925 JUMP JUMPDEST PUSH1 0x0 DUP6 DUP2 MSTORE PUSH1 0x20 DUP2 KECCAK256 PUSH1 0x1F NOT DUP7 AND SWAP2 JUMPDEST DUP3 DUP2 LT ISZERO PUSH2 0x2B25 JUMPI DUP9 DUP7 ADD MLOAD DUP3 SSTORE SWAP5 DUP5 ADD SWAP5 PUSH1 0x1 SWAP1 SWAP2 ADD SWAP1 DUP5 ADD PUSH2 0x2B06 JUMP JUMPDEST POP DUP6 DUP3 LT ISZERO PUSH2 0x2B43 JUMPI DUP8 DUP6 ADD MLOAD PUSH1 0x0 NOT PUSH1 0x3 DUP9 SWAP1 SHL PUSH1 0xF8 AND SHR NOT AND DUP2 SSTORE JUMPDEST POP POP POP POP POP PUSH1 0x1 SWAP1 DUP2 SHL ADD SWAP1 SSTORE POP JUMP JUMPDEST DUP6 DUP2 MSTORE PUSH1 0xFF DUP6 AND PUSH1 0x20 DUP3 ADD MSTORE PUSH1 0xFF DUP5 AND PUSH1 0x40 DUP3 ADD MSTORE DUP3 PUSH1 0x60 DUP3 ADD MSTORE PUSH1 0xA0 PUSH1 0x80 DUP3 ADD MSTORE PUSH1 0x0 PUSH2 0x2B84 PUSH1 0xA0 DUP4 ADD DUP5 PUSH2 0x24B4 JUMP JUMPDEST SWAP8 SWAP7 POP POP POP POP POP POP POP JUMP JUMPDEST PUSH1 0x0 PUSH1 0xFF DUP3 AND PUSH1 0xFF DUP2 SUB PUSH2 0x2BA5 JUMPI PUSH2 0x2BA5 PUSH2 0x284D JUMP JUMPDEST PUSH1 0x1 ADD SWAP3 SWAP2 POP POP JUMP JUMPDEST PUSH1 0xFF DUP2 DUP2 AND DUP4 DUP3 AND ADD SWAP1 DUP2 GT ISZERO PUSH2 0x888 JUMPI PUSH2 0x888 PUSH2 0x284D JUMP JUMPDEST PUSH1 0x0 DUP3 PUSH2 0x2BD6 JUMPI PUSH2 0x2BD6 PUSH2 0x2A34 JUMP JUMPDEST POP MOD SWAP1 JUMP JUMPDEST PUSH1 0x0 PUSH1 0xFF DUP3 AND DUP1 PUSH2 0x2BEE JUMPI PUSH2 0x2BEE PUSH2 0x284D JUMP JUMPDEST PUSH1 0x0 NOT ADD SWAP3 SWAP2 POP POP JUMP JUMPDEST DUP2 DUP2 SUB PUSH1 0x0 DUP4 SLT DUP1 ISZERO DUP4 DUP4 SGT AND DUP4 DUP4 SLT DUP3 AND OR ISZERO PUSH2 0x2C18 JUMPI PUSH2 0x2C18 PUSH2 0x284D JUMP JUMPDEST POP SWAP3 SWAP2 POP POP JUMP JUMPDEST DUP1 DUP3 ADD DUP3 DUP2 SLT PUSH1 0x0 DUP4 SLT DUP1 ISZERO DUP3 AND DUP3 ISZERO DUP3 AND OR ISZERO PUSH2 0x2C3F JUMPI PUSH2 0x2C3F PUSH2 0x284D JUMP JUMPDEST POP POP SWAP3 SWAP2 POP POP JUMP JUMPDEST PUSH1 0xFF DUP3 DUP2 AND DUP3 DUP3 AND SUB SWAP1 DUP2 GT ISZERO PUSH2 0x888 JUMPI PUSH2 0x888 PUSH2 0x284D JUMP JUMPDEST PUSH1 0x0 PUSH1 0xFF DUP4 AND DUP1 PUSH2 0x2C73 JUMPI PUSH2 0x2C73 PUSH2 0x2A34 JUMP JUMPDEST DUP1 PUSH1 0xFF DUP5 AND MOD SWAP2 POP POP SWAP3 SWAP2 POP POP JUMP INVALID LOG2 PUSH5 0x6970667358 0x22 SLT KECCAK256 CALLER 0xE9 BLOCKHASH 0x2E 0xE2 0x4E SMOD 0x4D CODESIZE 0xB8 GASLIMIT CALLER GT PUSH16 0x5E5F36AEA3CEB5666104DF01B5B829CB 0xCF 0xCF PUSH5 0x736F6C6343 STOP ADDMOD EQ STOP CALLER "},"methodIdentifiers":{"agentNames(address)":"2cbc1660","blackjacks(address)":"08853efc","gameHistory(uint256)":"d3438aa2","getAgentStats(address)":"b5695b38","getPlayerGames(address,uint256)":"288b4595","getRecentGames(uint256)":"122b477b","houseBankroll()":"aaf6e0d5","losses(address)":"c903c233","maxBet()":"2e5b2168","minBet()":"9619367d","owner()":"8da5cb5b","playHand(uint256)":"c6ba35ec","playerGameIds(address,uint256)":"c13342cd","profitLoss(address)":"b111dfac","protocolFeeBps()":"35659fb8","pushes(address)":"4e0e7157","registerAgent(string)":"2d2a9585","renounceOwnership()":"715018a6","setBetLimits(uint256,uint256)":"7687dd49","setHouseBankroll(address)":"ab782b98","setProtocolFee(uint256)":"787dce3d","shellToken()":"6aae314c","totalGamesPlayed()":"5c492129","totalVolume()":"5f81a57c","totalWagered(address)":"470762e9","transferOwnership(address)":"f2fde38b","verifiedAgents(address)":"ae82455f","wins(address)":"8047a97a"}}}}}