{
  "_format": "hh-sol-artifact-1",
  "contractName": "ShellRoulette",
  "sourceName": "contracts/ShellRoulette.sol",
  "abi": [
    {
      "inputs": [
        {
          "internalType": "address",
          "name": "_shellToken",
          "type": "address"
        }
      ],
      "stateMutability": "nonpayable",
      "type": "constructor"
    },
    {
      "inputs": [
        {
          "internalType": "address",
          "name": "owner",
          "type": "address"
        }
      ],
      "name": "OwnableInvalidOwner",
      "type": "error"
    },
    {
      "inputs": [
        {
          "internalType": "address",
          "name": "account",
          "type": "address"
        }
      ],
      "name": "OwnableUnauthorizedAccount",
      "type": "error"
    },
    {
      "inputs": [],
      "name": "ReentrancyGuardReentrantCall",
      "type": "error"
    },
    {
      "inputs": [
        {
          "internalType": "address",
          "name": "token",
          "type": "address"
        }
      ],
      "name": "SafeERC20FailedOperation",
      "type": "error"
    },
    {
      "anonymous": false,
      "inputs": [
        {
          "indexed": true,
          "internalType": "uint256",
          "name": "roundId",
          "type": "uint256"
        },
        {
          "indexed": true,
          "internalType": "address",
          "name": "eliminated",
          "type": "address"
        },
        {
          "indexed": false,
          "internalType": "uint256",
          "name": "lostAmount",
          "type": "uint256"
        }
      ],
      "name": "AgentEliminated",
      "type": "event"
    },
    {
      "anonymous": false,
      "inputs": [
        {
          "indexed": true,
          "internalType": "address",
          "name": "agent",
          "type": "address"
        },
        {
          "indexed": false,
          "internalType": "string",
          "name": "name",
          "type": "string"
        }
      ],
      "name": "AgentRegistered",
      "type": "event"
    },
    {
      "anonymous": false,
      "inputs": [
        {
          "indexed": true,
          "internalType": "uint256",
          "name": "roundId",
          "type": "uint256"
        },
        {
          "indexed": true,
          "internalType": "address",
          "name": "survivor",
          "type": "address"
        },
        {
          "indexed": false,
          "internalType": "uint256",
          "name": "wonAmount",
          "type": "uint256"
        }
      ],
      "name": "AgentSurvived",
      "type": "event"
    },
    {
      "anonymous": false,
      "inputs": [
        {
          "indexed": true,
          "internalType": "address",
          "name": "agent",
          "type": "address"
        },
        {
          "indexed": false,
          "internalType": "string",
          "name": "name",
          "type": "string"
        }
      ],
      "name": "AgentVerified",
      "type": "event"
    },
    {
      "anonymous": false,
      "inputs": [
        {
          "indexed": true,
          "internalType": "address",
          "name": "agent",
          "type": "address"
        },
        {
          "indexed": true,
          "internalType": "address",
          "name": "verifier",
          "type": "address"
        }
      ],
      "name": "AgentVerifiedByMoltbook",
      "type": "event"
    },
    {
      "anonymous": false,
      "inputs": [
        {
          "indexed": true,
          "internalType": "uint256",
          "name": "roundId",
          "type": "uint256"
        },
        {
          "indexed": false,
          "internalType": "uint8",
          "name": "eliminatedPosition",
          "type": "uint8"
        }
      ],
      "name": "ChamberSpun",
      "type": "event"
    },
    {
      "anonymous": false,
      "inputs": [
        {
          "indexed": true,
          "internalType": "address",
          "name": "previousOwner",
          "type": "address"
        },
        {
          "indexed": true,
          "internalType": "address",
          "name": "newOwner",
          "type": "address"
        }
      ],
      "name": "OwnershipTransferred",
      "type": "event"
    },
    {
      "anonymous": false,
      "inputs": [
        {
          "indexed": true,
          "internalType": "uint256",
          "name": "roundId",
          "type": "uint256"
        },
        {
          "indexed": true,
          "internalType": "address",
          "name": "inviter",
          "type": "address"
        },
        {
          "indexed": true,
          "internalType": "address",
          "name": "invitee",
          "type": "address"
        }
      ],
      "name": "PlayerInvited",
      "type": "event"
    },
    {
      "anonymous": false,
      "inputs": [
        {
          "indexed": true,
          "internalType": "uint256",
          "name": "roundId",
          "type": "uint256"
        },
        {
          "indexed": true,
          "internalType": "address",
          "name": "player",
          "type": "address"
        },
        {
          "indexed": false,
          "internalType": "uint8",
          "name": "position",
          "type": "uint8"
        }
      ],
      "name": "PlayerJoined",
      "type": "event"
    },
    {
      "anonymous": false,
      "inputs": [
        {
          "indexed": true,
          "internalType": "uint256",
          "name": "roundId",
          "type": "uint256"
        },
        {
          "indexed": false,
          "internalType": "string",
          "name": "reason",
          "type": "string"
        }
      ],
      "name": "RoundCancelled",
      "type": "event"
    },
    {
      "anonymous": false,
      "inputs": [
        {
          "indexed": true,
          "internalType": "uint256",
          "name": "roundId",
          "type": "uint256"
        },
        {
          "indexed": true,
          "internalType": "address",
          "name": "creator",
          "type": "address"
        },
        {
          "indexed": false,
          "internalType": "uint256",
          "name": "betAmount",
          "type": "uint256"
        },
        {
          "indexed": false,
          "internalType": "bool",
          "name": "isPrivate",
          "type": "bool"
        }
      ],
      "name": "RoundCreated",
      "type": "event"
    },
    {
      "anonymous": false,
      "inputs": [
        {
          "indexed": true,
          "internalType": "address",
          "name": "verifier",
          "type": "address"
        },
        {
          "indexed": false,
          "internalType": "bool",
          "name": "status",
          "type": "bool"
        }
      ],
      "name": "VerifierUpdated",
      "type": "event"
    },
    {
      "inputs": [],
      "name": "CHAMBERS",
      "outputs": [
        {
          "internalType": "uint256",
          "name": "",
          "type": "uint256"
        }
      ],
      "stateMutability": "view",
      "type": "function"
    },
    {
      "inputs": [],
      "name": "PLAYERS_PER_ROUND",
      "outputs": [
        {
          "internalType": "uint256",
          "name": "",
          "type": "uint256"
        }
      ],
      "stateMutability": "view",
      "type": "function"
    },
    {
      "inputs": [
        {
          "internalType": "address",
          "name": "",
          "type": "address"
        }
      ],
      "name": "agentNames",
      "outputs": [
        {
          "internalType": "string",
          "name": "",
          "type": "string"
        }
      ],
      "stateMutability": "view",
      "type": "function"
    },
    {
      "inputs": [
        {
          "internalType": "address",
          "name": "",
          "type": "address"
        }
      ],
      "name": "agentStatus",
      "outputs": [
        {
          "internalType": "enum ShellRoulette.VerificationStatus",
          "name": "",
          "type": "uint8"
        }
      ],
      "stateMutability": "view",
      "type": "function"
    },
    {
      "inputs": [
        {
          "internalType": "address[]",
          "name": "agents",
          "type": "address[]"
        }
      ],
      "name": "batchVerifyAgents",
      "outputs": [],
      "stateMutability": "nonpayable",
      "type": "function"
    },
    {
      "inputs": [
        {
          "internalType": "uint256",
          "name": "roundId",
          "type": "uint256"
        }
      ],
      "name": "cancelExpiredRound",
      "outputs": [],
      "stateMutability": "nonpayable",
      "type": "function"
    },
    {
      "inputs": [
        {
          "internalType": "uint256",
          "name": "roundId",
          "type": "uint256"
        }
      ],
      "name": "cancelPrivateRound",
      "outputs": [],
      "stateMutability": "nonpayable",
      "type": "function"
    },
    {
      "inputs": [
        {
          "internalType": "uint256",
          "name": "betAmount",
          "type": "uint256"
        },
        {
          "internalType": "address[]",
          "name": "invitees",
          "type": "address[]"
        }
      ],
      "name": "createPrivateRound",
      "outputs": [
        {
          "internalType": "uint256",
          "name": "",
          "type": "uint256"
        }
      ],
      "stateMutability": "nonpayable",
      "type": "function"
    },
    {
      "inputs": [
        {
          "internalType": "address",
          "name": "",
          "type": "address"
        }
      ],
      "name": "eliminationCount",
      "outputs": [
        {
          "internalType": "uint256",
          "name": "",
          "type": "uint256"
        }
      ],
      "stateMutability": "view",
      "type": "function"
    },
    {
      "inputs": [
        {
          "internalType": "uint256",
          "name": "betAmount",
          "type": "uint256"
        }
      ],
      "name": "enterChamber",
      "outputs": [
        {
          "internalType": "uint256",
          "name": "",
          "type": "uint256"
        }
      ],
      "stateMutability": "nonpayable",
      "type": "function"
    },
    {
      "inputs": [
        {
          "internalType": "address",
          "name": "agent",
          "type": "address"
        }
      ],
      "name": "getAgentStats",
      "outputs": [
        {
          "internalType": "string",
          "name": "name",
          "type": "string"
        },
        {
          "internalType": "uint256",
          "name": "survived",
          "type": "uint256"
        },
        {
          "internalType": "uint256",
          "name": "eliminated",
          "type": "uint256"
        },
        {
          "internalType": "uint256",
          "name": "wagered",
          "type": "uint256"
        },
        {
          "internalType": "int256",
          "name": "pnl",
          "type": "int256"
        }
      ],
      "stateMutability": "view",
      "type": "function"
    },
    {
      "inputs": [
        {
          "internalType": "address",
          "name": "agent",
          "type": "address"
        }
      ],
      "name": "getAgentVerification",
      "outputs": [
        {
          "internalType": "bool",
          "name": "canPlay",
          "type": "bool"
        },
        {
          "internalType": "bool",
          "name": "moltbookVerified",
          "type": "bool"
        }
      ],
      "stateMutability": "view",
      "type": "function"
    },
    {
      "inputs": [
        {
          "internalType": "address",
          "name": "agent",
          "type": "address"
        }
      ],
      "name": "getMyPrivateInvites",
      "outputs": [
        {
          "internalType": "uint256[]",
          "name": "roundIds",
          "type": "uint256[]"
        }
      ],
      "stateMutability": "view",
      "type": "function"
    },
    {
      "inputs": [
        {
          "internalType": "uint256",
          "name": "betAmount",
          "type": "uint256"
        },
        {
          "internalType": "uint256",
          "name": "limit",
          "type": "uint256"
        }
      ],
      "name": "getOpenRounds",
      "outputs": [
        {
          "internalType": "uint256[]",
          "name": "",
          "type": "uint256[]"
        }
      ],
      "stateMutability": "view",
      "type": "function"
    },
    {
      "inputs": [
        {
          "internalType": "uint256",
          "name": "roundId",
          "type": "uint256"
        }
      ],
      "name": "getRound",
      "outputs": [
        {
          "internalType": "uint256",
          "name": "betAmount",
          "type": "uint256"
        },
        {
          "internalType": "address[6]",
          "name": "players",
          "type": "address[6]"
        },
        {
          "internalType": "uint8",
          "name": "playerCount",
          "type": "uint8"
        },
        {
          "internalType": "enum ShellRoulette.RoundState",
          "name": "state",
          "type": "uint8"
        },
        {
          "internalType": "address",
          "name": "eliminated",
          "type": "address"
        },
        {
          "internalType": "uint256",
          "name": "prizePerWinner",
          "type": "uint256"
        },
        {
          "internalType": "bool",
          "name": "isPrivate",
          "type": "bool"
        },
        {
          "internalType": "address",
          "name": "creator",
          "type": "address"
        }
      ],
      "stateMutability": "view",
      "type": "function"
    },
    {
      "inputs": [
        {
          "internalType": "address",
          "name": "agent",
          "type": "address"
        }
      ],
      "name": "getSurvivalRate",
      "outputs": [
        {
          "internalType": "uint256",
          "name": "",
          "type": "uint256"
        }
      ],
      "stateMutability": "view",
      "type": "function"
    },
    {
      "inputs": [
        {
          "internalType": "uint256",
          "name": "roundId",
          "type": "uint256"
        },
        {
          "internalType": "address[]",
          "name": "newInvitees",
          "type": "address[]"
        }
      ],
      "name": "inviteToRound",
      "outputs": [],
      "stateMutability": "nonpayable",
      "type": "function"
    },
    {
      "inputs": [
        {
          "internalType": "uint256",
          "name": "roundId",
          "type": "uint256"
        },
        {
          "internalType": "address",
          "name": "agent",
          "type": "address"
        }
      ],
      "name": "isInvited",
      "outputs": [
        {
          "internalType": "bool",
          "name": "",
          "type": "bool"
        }
      ],
      "stateMutability": "view",
      "type": "function"
    },
    {
      "inputs": [
        {
          "internalType": "address",
          "name": "agent",
          "type": "address"
        }
      ],
      "name": "isMoltbookVerified",
      "outputs": [
        {
          "internalType": "bool",
          "name": "",
          "type": "bool"
        }
      ],
      "stateMutability": "view",
      "type": "function"
    },
    {
      "inputs": [
        {
          "internalType": "uint256",
          "name": "roundId",
          "type": "uint256"
        }
      ],
      "name": "isRoundExpired",
      "outputs": [
        {
          "internalType": "bool",
          "name": "",
          "type": "bool"
        }
      ],
      "stateMutability": "view",
      "type": "function"
    },
    {
      "inputs": [
        {
          "internalType": "uint256",
          "name": "roundId",
          "type": "uint256"
        }
      ],
      "name": "joinPrivateRound",
      "outputs": [],
      "stateMutability": "nonpayable",
      "type": "function"
    },
    {
      "inputs": [],
      "name": "maxBet",
      "outputs": [
        {
          "internalType": "uint256",
          "name": "",
          "type": "uint256"
        }
      ],
      "stateMutability": "view",
      "type": "function"
    },
    {
      "inputs": [],
      "name": "minBet",
      "outputs": [
        {
          "internalType": "uint256",
          "name": "",
          "type": "uint256"
        }
      ],
      "stateMutability": "view",
      "type": "function"
    },
    {
      "inputs": [],
      "name": "nextRoundId",
      "outputs": [
        {
          "internalType": "uint256",
          "name": "",
          "type": "uint256"
        }
      ],
      "stateMutability": "view",
      "type": "function"
    },
    {
      "inputs": [
        {
          "internalType": "uint256",
          "name": "",
          "type": "uint256"
        },
        {
          "internalType": "uint256",
          "name": "",
          "type": "uint256"
        }
      ],
      "name": "openRoundsByBet",
      "outputs": [
        {
          "internalType": "uint256",
          "name": "",
          "type": "uint256"
        }
      ],
      "stateMutability": "view",
      "type": "function"
    },
    {
      "inputs": [],
      "name": "owner",
      "outputs": [
        {
          "internalType": "address",
          "name": "",
          "type": "address"
        }
      ],
      "stateMutability": "view",
      "type": "function"
    },
    {
      "inputs": [
        {
          "internalType": "address",
          "name": "",
          "type": "address"
        },
        {
          "internalType": "uint256",
          "name": "",
          "type": "uint256"
        }
      ],
      "name": "privateInvites",
      "outputs": [
        {
          "internalType": "uint256",
          "name": "",
          "type": "uint256"
        }
      ],
      "stateMutability": "view",
      "type": "function"
    },
    {
      "inputs": [
        {
          "internalType": "address",
          "name": "",
          "type": "address"
        }
      ],
      "name": "profitLoss",
      "outputs": [
        {
          "internalType": "int256",
          "name": "",
          "type": "int256"
        }
      ],
      "stateMutability": "view",
      "type": "function"
    },
    {
      "inputs": [],
      "name": "protocolFeeBps",
      "outputs": [
        {
          "internalType": "uint256",
          "name": "",
          "type": "uint256"
        }
      ],
      "stateMutability": "view",
      "type": "function"
    },
    {
      "inputs": [
        {
          "internalType": "string",
          "name": "name",
          "type": "string"
        }
      ],
      "name": "registerAgent",
      "outputs": [],
      "stateMutability": "nonpayable",
      "type": "function"
    },
    {
      "inputs": [],
      "name": "renounceOwnership",
      "outputs": [],
      "stateMutability": "nonpayable",
      "type": "function"
    },
    {
      "inputs": [],
      "name": "roundTimeout",
      "outputs": [
        {
          "internalType": "uint256",
          "name": "",
          "type": "uint256"
        }
      ],
      "stateMutability": "view",
      "type": "function"
    },
    {
      "inputs": [
        {
          "internalType": "uint256",
          "name": "",
          "type": "uint256"
        }
      ],
      "name": "rounds",
      "outputs": [
        {
          "internalType": "uint256",
          "name": "betAmount",
          "type": "uint256"
        },
        {
          "internalType": "uint8",
          "name": "playerCount",
          "type": "uint8"
        },
        {
          "internalType": "enum ShellRoulette.RoundState",
          "name": "state",
          "type": "uint8"
        },
        {
          "internalType": "uint256",
          "name": "createdAt",
          "type": "uint256"
        },
        {
          "internalType": "address",
          "name": "eliminated",
          "type": "address"
        },
        {
          "internalType": "uint256",
          "name": "prizePerWinner",
          "type": "uint256"
        },
        {
          "internalType": "bool",
          "name": "isPrivate",
          "type": "bool"
        },
        {
          "internalType": "address",
          "name": "creator",
          "type": "address"
        }
      ],
      "stateMutability": "view",
      "type": "function"
    },
    {
      "inputs": [
        {
          "internalType": "uint256",
          "name": "_maxBet",
          "type": "uint256"
        }
      ],
      "name": "setMaxBet",
      "outputs": [],
      "stateMutability": "nonpayable",
      "type": "function"
    },
    {
      "inputs": [
        {
          "internalType": "uint256",
          "name": "_minBet",
          "type": "uint256"
        }
      ],
      "name": "setMinBet",
      "outputs": [],
      "stateMutability": "nonpayable",
      "type": "function"
    },
    {
      "inputs": [
        {
          "internalType": "uint256",
          "name": "_feeBps",
          "type": "uint256"
        }
      ],
      "name": "setProtocolFee",
      "outputs": [],
      "stateMutability": "nonpayable",
      "type": "function"
    },
    {
      "inputs": [
        {
          "internalType": "uint256",
          "name": "_timeout",
          "type": "uint256"
        }
      ],
      "name": "setRoundTimeout",
      "outputs": [],
      "stateMutability": "nonpayable",
      "type": "function"
    },
    {
      "inputs": [
        {
          "internalType": "address",
          "name": "verifier",
          "type": "address"
        },
        {
          "internalType": "bool",
          "name": "status",
          "type": "bool"
        }
      ],
      "name": "setVerifier",
      "outputs": [],
      "stateMutability": "nonpayable",
      "type": "function"
    },
    {
      "inputs": [],
      "name": "shellToken",
      "outputs": [
        {
          "internalType": "contract IERC20",
          "name": "",
          "type": "address"
        }
      ],
      "stateMutability": "view",
      "type": "function"
    },
    {
      "inputs": [
        {
          "internalType": "address",
          "name": "",
          "type": "address"
        }
      ],
      "name": "survivalCount",
      "outputs": [
        {
          "internalType": "uint256",
          "name": "",
          "type": "uint256"
        }
      ],
      "stateMutability": "view",
      "type": "function"
    },
    {
      "inputs": [],
      "name": "totalEliminated",
      "outputs": [
        {
          "internalType": "uint256",
          "name": "",
          "type": "uint256"
        }
      ],
      "stateMutability": "view",
      "type": "function"
    },
    {
      "inputs": [],
      "name": "totalRoundsPlayed",
      "outputs": [
        {
          "internalType": "uint256",
          "name": "",
          "type": "uint256"
        }
      ],
      "stateMutability": "view",
      "type": "function"
    },
    {
      "inputs": [],
      "name": "totalVolume",
      "outputs": [
        {
          "internalType": "uint256",
          "name": "",
          "type": "uint256"
        }
      ],
      "stateMutability": "view",
      "type": "function"
    },
    {
      "inputs": [
        {
          "internalType": "address",
          "name": "",
          "type": "address"
        }
      ],
      "name": "totalWagered",
      "outputs": [
        {
          "internalType": "uint256",
          "name": "",
          "type": "uint256"
        }
      ],
      "stateMutability": "view",
      "type": "function"
    },
    {
      "inputs": [
        {
          "internalType": "address",
          "name": "newOwner",
          "type": "address"
        }
      ],
      "name": "transferOwnership",
      "outputs": [],
      "stateMutability": "nonpayable",
      "type": "function"
    },
    {
      "inputs": [
        {
          "internalType": "address",
          "name": "",
          "type": "address"
        }
      ],
      "name": "verifiedAgents",
      "outputs": [
        {
          "internalType": "bool",
          "name": "",
          "type": "bool"
        }
      ],
      "stateMutability": "view",
      "type": "function"
    },
    {
      "inputs": [
        {
          "internalType": "address",
          "name": "",
          "type": "address"
        }
      ],
      "name": "verifiers",
      "outputs": [
        {
          "internalType": "bool",
          "name": "",
          "type": "bool"
        }
      ],
      "stateMutability": "view",
      "type": "function"
    },
    {
      "inputs": [
        {
          "internalType": "address",
          "name": "agent",
          "type": "address"
        }
      ],
      "name": "verifyAgentIdentity",
      "outputs": [],
      "stateMutability": "nonpayable",
      "type": "function"
    }
  ],
  "bytecode": "0x60a0604052678ac7230489e80000600255683635c9adc5dea0000060035560c8600455611c206005556001600a553480156200003a57600080fd5b50604051620034e5380380620034e58339810160408190526200005d9162000113565b600160005533806200008957604051631e4fbdf760e01b81526000600482015260240160405180910390fd5b6200009481620000c1565b506001600160a01b0316608052336000908152601060205260409020805460ff1916600117905562000145565b600180546001600160a01b038381166001600160a01b0319831681179093556040519116919082907f8be0079c531659141344cd1fd0a4f28419497f9722a3daafe3b4186f6b6457e090600090a35050565b6000602082840312156200012657600080fd5b81516001600160a01b03811681146200013e57600080fd5b9392505050565b60805161336162000184600039600081816103dc01528181611208015281816120df015281816122d4015281816129b50152612a5901526133616000f3fe608060405234801561001057600080fd5b50600436106102a05760003560e01c80638c65c81f11610167578063bda92acf116100ce578063d7da98d111610087578063d7da98d1146106d6578063e2905d4f146106f6578063e2a35f5c146102ba578063ed7ab465146106ff578063f2fde38b14610712578063fb5ddb4f1461072557600080fd5b8063bda92acf14610640578063c614830914610653578063c6fd73e714610673578063d1a18f7714610686578063d38af61a146106b0578063d75ba87b146106c357600080fd5b8063a964cab511610120578063a964cab5146105a0578063ac9b5671146105b3578063ae82455f146105c6578063b087ae4f146105e9578063b111dfac146105fc578063b5695b381461061c57600080fd5b80638c65c81f146104b35780638da5cb5b1461052c5780638f1327c01461053d578063902dc58e146105645780639619367d14610584578063a4db91b91461058d57600080fd5b80634f73a26c1161020b578063715018a6116101c4578063715018a61461044c57806371a8ea1b14610454578063787dce3d1461046757806384d91e191461047a578063881eff1e1461048d57806388ea41b9146104a057600080fd5b80634f73a26c146103b257806353c298d8146103c55780635f81a57c146103ce5780636aae314c146103d75780636bbe733a146104165780636c8244871461042957600080fd5b80632cbc16601161025d5780632cbc1660146103445780632d2a9585146103645780632e5b21681461037757806335659fb8146103805780634002eda614610389578063470762e91461039257600080fd5b806302559eeb146102a557806308763f62146102ba5780630f394b61146102d557806312e81b80146102e8578063191ae8ad1461030b57806328f3fac914610314575b600080fd5b6102b86102b3366004612b66565b610738565b005b6102c2600681565b6040519081526020015b60405180910390f35b6102b86102e3366004612bbf565b6108d2565b6102fb6102f6366004612bda565b6109e0565b60405190151581526020016102cc565b6102c260065481565b610337610322366004612bbf565b600d6020526000908152604090205460ff1681565b6040516102cc9190612c1c565b610357610352366004612bbf565b610a10565b6040516102cc9190612c7c565b6102b8610372366004612c8f565b610aaa565b6102c260035481565b6102c260045481565b6102c2600a5481565b6102c26103a0366004612bbf565b60136020526000908152604090205481565b6102c26103c0366004612d01565b610bea565b6102c260055481565b6102c260075481565b6103fe7f000000000000000000000000000000000000000000000000000000000000000081565b6040516001600160a01b0390911681526020016102cc565b6102b8610424366004612d4d565b610fd3565b6102fb610437366004612bbf565b60106020526000908152604090205460ff1681565b6102b86110f6565b6102b8610462366004612d4d565b61110a565b6102b8610475366004612d4d565b6112c2565b6102c2610488366004612bbf565b61130e565b6102b861049b366004612d4d565b611381565b6102b86104ae366004612d4d565b61138e565b6105186104c1366004612d4d565b600960208190526000918252604090912080546007820154600883015493830154600a840154600b90940154929460ff808416956101009485900482169592946001600160a01b0394851694919392831692041688565b6040516102cc989796959493929190612d7a565b6001546001600160a01b03166103fe565b61055061054b366004612d4d565b61139b565b6040516102cc989796959493929190612dd0565b610577610572366004612e60565b611459565b6040516102cc9190612e82565b6102c260025481565b61057761059b366004612bbf565b611685565b6102c26105ae366004612d4d565b611861565b6102b86105c1366004612ec6565b611913565b6102fb6105d4366004612bbf565b600e6020526000908152604090205460ff1681565b6102fb6105f7366004612bbf565b611973565b6102c261060a366004612bbf565b60146020526000908152604090205481565b61062f61062a366004612bbf565b6119ab565b6040516102cc959493929190612f02565b6102c261064e366004612e60565b611a98565b6102c2610661366004612bbf565b60126020526000908152604090205481565b6102c2610681366004612f39565b611ac9565b610699610694366004612bbf565b611ae5565b6040805192151583529015156020830152016102cc565b6102b86106be366004612d01565b611b2f565b6102fb6106d1366004612d4d565b611ebf565b6102c26106e4366004612bbf565b60116020526000908152604090205481565b6102c260085481565b6102b861070d366004612d4d565b611f15565b6102b8610720366004612bbf565b611f75565b6102b8610733366004612d4d565b611fb0565b3360009081526010602052604090205460ff1661078d5760405162461bcd60e51b815260206004820152600e60248201526d2737ba1030903b32b934b334b2b960911b60448201526064015b60405180910390fd5b60005b818110156108cd576001600d60008585858181106107b0576107b0612f63565b90506020020160208101906107c59190612bbf565b6001600160a01b0316815260208101919091526040016000205460ff1660028111156107f3576107f3612c06565b036108bb576002600d600085858581811061081057610810612f63565b90506020020160208101906108259190612bbf565b6001600160a01b031681526020810191909152604001600020805460ff1916600183600281111561085857610858612c06565b02179055503383838381811061087057610870612f63565b90506020020160208101906108859190612bbf565b6001600160a01b03167f7f5835461dbf886f27de41a9adf55100f10e6974a3fc4a867ded38b50daf358d60405160405180910390a35b806108c581612f8f565b915050610790565b505050565b3360009081526010602052604090205460ff166109225760405162461bcd60e51b815260206004820152600e60248201526d2737ba1030903b32b934b334b2b960911b6044820152606401610784565b60016001600160a01b0382166000908152600d602052604090205460ff16600281111561095157610951612c06565b146109925760405162461bcd60e51b81526020600482015260116024820152704167656e74206e6f742070656e64696e6760781b6044820152606401610784565b6001600160a01b0381166000818152600d6020526040808220805460ff19166002179055513392917f7f5835461dbf886f27de41a9adf55100f10e6974a3fc4a867ded38b50daf358d91a350565b60008281526009602090815260408083206001600160a01b0385168452600c0190915290205460ff165b92915050565b600f6020526000908152604090208054610a2990612fa8565b80601f0160208091040260200160405190810160405280929190818152602001828054610a5590612fa8565b8015610aa25780601f10610a7757610100808354040283529160200191610aa2565b820191906000526020600020905b815481529060010190602001808311610a8557829003601f168201915b505050505081565b8015801590610aba575060208111155b610af55760405162461bcd60e51b815260206004820152600c60248201526b496e76616c6964206e616d6560a01b6044820152606401610784565b336000908152600e60209081526040808320805460ff19166001179055600f9091529020610b24828483613046565b50336000908152600d602052604081205460ff166002811115610b4957610b49612c06565b03610ba357336000818152600d602052604090819020805460ff19166001179055517fda816ca2fc37b9eecec62ae8263008ec6be1afb38dc28bc9c7c51d7e348da9c290610b9a9085908590613106565b60405180910390a25b336001600160a01b03167f45127b38457c2f5c381cad14d94b51d80a7700dfb7a910a1d816fee3d3e105918383604051610bde929190613106565b60405180910390a25050565b336000908152600e602052604081205460ff16610c195760405162461bcd60e51b815260040161078490613135565b610c2161217b565b6002548410158015610c3557506003548411155b610c745760405162461bcd60e51b815260206004820152601060248201526f426574206f7574206f662072616e676560801b6044820152606401610784565b8115801590610c84575060058211155b610cc45760405162461bcd60e51b81526020600482015260116024820152704e65656420312d3520696e76697465657360781b6044820152606401610784565b600a805460009182610cd583612f8f565b90915550600081815260096020908152604080832089815560078101805461ffff19169055426008820155600b810180546001600160a81b031916610100339081029190911760019081179092558552600c8201909352908320805460ff19169092179091559192505b84811015610f77576000868683818110610d5b57610d5b612f63565b9050602002016020810190610d709190612bbf565b6001600160a01b031603610db85760405162461bcd60e51b815260206004820152600f60248201526e496e76616c696420696e766974656560881b6044820152606401610784565b600e6000878784818110610dce57610dce612f63565b9050602002016020810190610de39190612bbf565b6001600160a01b0316815260208101919091526040016000205460ff16610e4c5760405162461bcd60e51b815260206004820152601a60248201527f496e7669746565206e6f74207665726966696564206167656e740000000000006044820152606401610784565b600182600c016000888885818110610e6657610e66612f63565b9050602002016020810190610e7b9190612bbf565b6001600160a01b0316815260208101919091526040016000908120805460ff191692151592909217909155600c90878784818110610ebb57610ebb612f63565b9050602002016020810190610ed09190612bbf565b6001600160a01b031681526020808201929092526040016000908120805460018101825590825291902001839055858582818110610f1057610f10612f63565b9050602002016020810190610f259190612bbf565b6001600160a01b0316336001600160a01b0316847fd11b0ace2ad61b7ac755df509be3b6886cd270e7590dcf444a5403f46bb5bde860405160405180910390a480610f6f81612f8f565b915050610d3f565b506040805187815260016020820152339184917f41d1abbbff53228d6c25b8e025e000e344bf18aaaeb3f99fe626ea2c5a8ccc06910160405180910390a3610fbf82876121a5565b509050610fcc6001600055565b9392505050565b336000908152600e602052604090205460ff166110025760405162461bcd60e51b815260040161078490613135565b61100a61217b565b6000818152600960205260409020600b81015460ff1661103c5760405162461bcd60e51b81526004016107849061317a565b60006007820154610100900460ff16600381111561105c5761105c612c06565b146110795760405162461bcd60e51b8152600401610784906131a7565b336000908152600c8201602052604090205460ff166110da5760405162461bcd60e51b815260206004820152601960248201527f4e6f7420696e766974656420746f207468697320726f756e64000000000000006044820152606401610784565b6110e88282600001546121a5565b506110f36001600055565b50565b6110fe6123e8565b6111086000612415565b565b61111261217b565b6000818152600960205260408120906007820154610100900460ff16600381111561113f5761113f612c06565b1461115c5760405162461bcd60e51b8152600401610784906131a7565b600554816008015461116e91906131cf565b42116111b05760405162461bcd60e51b8152602060048201526011602482015270149bdd5b99081b9bdd08195e1c1a5c9959607a1b6044820152606401610784565b60078101805461ff00191661030017905560005b600782015460ff9081169082161015611243576000826001018260ff16600681106111f1576111f1612f63565b015483546001600160a01b039182169250611230917f000000000000000000000000000000000000000000000000000000000000000016908390612467565b508061123b816131e2565b9150506111c4565b50817f9220622428c3161d3444b6fa6e4c2991f48dd359515f98b6ef7fac06f0a18ea86040516112af9060208082526022908201527f526f756e642074696d656f7574202d206e6f7420656e6f75676820706c617965604082015261727360f01b606082015260800190565b60405180910390a2506110f36001600055565b6112ca6123e8565b6101f48111156113095760405162461bcd60e51b815260206004820152600a6024820152694d61782035252066656560b01b6044820152606401610784565b600455565b6001600160a01b0381166000908152601260209081526040808320546011909252822054829161133d916131cf565b9050806000036113505750600092915050565b6001600160a01b038316600090815260116020526040902054819061137790612710613201565b610fcc919061322e565b6113896123e8565b600355565b6113966123e8565b600255565b60006113a5612afc565b60008381526009602081905260408083208054600782015493820154600a830154600b840154855160c08101968790528897889788978897889791969095600188019560ff80871696610100908190048216966001600160a01b039687169692851694919091049091169190889060069082845b81546001600160a01b0316815260019091019060200180831161141957505050505096509850985098509850985098509850985050919395975091939597565b6000828152600b60205260409020606090603283111561147857603292505b805460009060c81061148b57815461148e565b60c85b90506000805b82811080156114a257508582105b15611543576000600960008684815481106114bf576114bf612f63565b906000526020600020015481526020019081526020016000209050600060038111156114ed576114ed612c06565b6007820154610100900460ff16600381111561150b5761150b612c06565b14801561151d5750600b81015460ff16155b15611530578261152c81612f8f565b9350505b508061153b81612f8f565b915050611494565b5060008167ffffffffffffffff81111561155f5761155f612fe2565b604051908082528060200260200182016040528015611588578160200160208202803683370190505b5090506000805b848110801561159d57508382105b15611678576000600960008884815481106115ba576115ba612f63565b906000526020600020015481526020019081526020016000209050600060038111156115e8576115e8612c06565b6007820154610100900460ff16600381111561160657611606612c06565b1480156116185750600b81015460ff16155b156116655786828154811061162f5761162f612f63565b906000526020600020015484848061164690612f8f565b95508151811061165857611658612f63565b6020026020010181815250505b508061167081612f8f565b91505061158f565b5090979650505050505050565b6001600160a01b0381166000908152600c602052604081208054606092906064106116b15781546116b4565b60645b905060326000805b83811080156116ca57508282105b15611747576000600960008784815481106116e7576116e7612f63565b9060005260206000200154815260200190815260200160002060070160019054906101000a900460ff16600381111561172257611722612c06565b03611735578161173181612f8f565b9250505b8061173f81612f8f565b9150506116bc565b508067ffffffffffffffff81111561176157611761612fe2565b60405190808252806020026020018201604052801561178a578160200160208202803683370190505b5094506000805b848110801561179f57508282105b15611856576000600960008884815481106117bc576117bc612f63565b9060005260206000200154815260200190815260200160002060070160019054906101000a900460ff1660038111156117f7576117f7612c06565b036118445785818154811061180e5761180e612f63565b906000526020600020015487838061182590612f8f565b94508151811061183757611837612f63565b6020026020010181815250505b8061184e81612f8f565b915050611791565b505050505050919050565b336000908152600e602052604081205460ff166118905760405162461bcd60e51b815260040161078490613135565b61189861217b565b60025482101580156118ac57506003548211155b6118eb5760405162461bcd60e51b815260206004820152601060248201526f426574206f7574206f662072616e676560801b6044820152606401610784565b60006118f6836124c6565b905061190281846121a5565b905061190e6001600055565b919050565b61191b6123e8565b6001600160a01b038216600081815260106020908152604091829020805460ff191685151590811790915591519182527fba5f7031ad83095931ee4b5138591db2dc3cfc56178367622fa4b05c2efad2319101610bde565b600060026001600160a01b0383166000908152600d602052604090205460ff1660028111156119a4576119a4612c06565b1492915050565b6001600160a01b0381166000908152600f60209081526040808320601183528184205460128452828520546013855283862054601490955292852054825460609695869586958695909490939192918590611a0590612fa8565b80601f0160208091040260200160405190810160405280929190818152602001828054611a3190612fa8565b8015611a7e5780601f10611a5357610100808354040283529160200191611a7e565b820191906000526020600020905b815481529060010190602001808311611a6157829003601f168201915b505050505094509450945094509450945091939590929450565b600b6020528160005260406000208181548110611ab457600080fd5b90600052602060002001600091509150505481565b600c6020528160005260406000208181548110611ab457600080fd5b6001600160a01b0381166000908152600e6020908152604080832054600d909252822054829160ff908116916002911681811115611b2557611b25612c06565b1491509150915091565b336000908152600e602052604090205460ff16611b5e5760405162461bcd60e51b815260040161078490613135565b6000838152600960205260409020600b81015460ff16611b905760405162461bcd60e51b81526004016107849061317a565b600b81015461010090046001600160a01b03163314611bf15760405162461bcd60e51b815260206004820152601760248201527f4f6e6c792063726561746f722063616e20696e766974650000000000000000006044820152606401610784565b60006007820154610100900460ff166003811115611c1157611c11612c06565b14611c2e5760405162461bcd60e51b8152600401610784906131a7565b60005b82811015611eb8576000848483818110611c4d57611c4d612f63565b9050602002016020810190611c629190612bbf565b6001600160a01b031603611caa5760405162461bcd60e51b815260206004820152600f60248201526e496e76616c696420696e766974656560881b6044820152606401610784565b600e6000858584818110611cc057611cc0612f63565b9050602002016020810190611cd59190612bbf565b6001600160a01b0316815260208101919091526040016000205460ff16611d3e5760405162461bcd60e51b815260206004820152601a60248201527f496e7669746565206e6f74207665726966696564206167656e740000000000006044820152606401610784565b81600c016000858584818110611d5657611d56612f63565b9050602002016020810190611d6b9190612bbf565b6001600160a01b0316815260208101919091526040016000205460ff16611ea657600182600c016000868685818110611da657611da6612f63565b9050602002016020810190611dbb9190612bbf565b6001600160a01b0316815260208101919091526040016000908120805460ff191692151592909217909155600c90858584818110611dfb57611dfb612f63565b9050602002016020810190611e109190612bbf565b6001600160a01b031681526020808201929092526040016000908120805460018101825590825291902001859055838382818110611e5057611e50612f63565b9050602002016020810190611e659190612bbf565b6001600160a01b0316336001600160a01b0316867fd11b0ace2ad61b7ac755df509be3b6886cd270e7590dcf444a5403f46bb5bde860405160405180910390a45b80611eb081612f8f565b915050611c31565b5050505050565b6000818152600960205260408120816007820154610100900460ff166003811115611eec57611eec612c06565b14611efa5750600092915050565b6005548160080154611f0c91906131cf565b42119392505050565b611f1d6123e8565b6107088110158015611f325750620151808111155b611f705760405162461bcd60e51b815260206004820152600f60248201526e125b9d985b1a59081d1a5b595bdd5d608a1b6044820152606401610784565b600555565b611f7d6123e8565b6001600160a01b038116611fa757604051631e4fbdf760e01b815260006004820152602401610784565b6110f381612415565b611fb861217b565b6000818152600960205260408120906007820154610100900460ff166003811115611fe557611fe5612c06565b146120025760405162461bcd60e51b8152600401610784906131a7565b600b81015460ff166120265760405162461bcd60e51b81526004016107849061317a565b600b81015461010090046001600160a01b031633146120875760405162461bcd60e51b815260206004820152601760248201527f4f6e6c792063726561746f722063616e2063616e63656c0000000000000000006044820152606401610784565b60078101805461ff00191661030017905560005b600782015460ff908116908216101561211a576000826001018260ff16600681106120c8576120c8612f63565b015483546001600160a01b039182169250612107917f000000000000000000000000000000000000000000000000000000000000000016908390612467565b5080612112816131e2565b91505061209b565b50817f9220622428c3161d3444b6fa6e4c2991f48dd359515f98b6ef7fac06f0a18ea86040516112af906020808252601f908201527f43726561746f722063616e63656c6c6564207072697661746520726f756e6400604082015260600190565b60026000540361219e57604051633ee5aeb560e01b815260040160405180910390fd5b6002600055565b6000828152600960205260408120906007820154610100900460ff1660038111156121d2576121d2612c06565b146121ef5760405162461bcd60e51b8152600401610784906131a7565b6007810154600660ff909116106122355760405162461bcd60e51b815260206004820152600a602482015269149bdd5b9908199d5b1b60b21b6044820152606401610784565b60005b600782015460ff90811690821610156122c657336001830160ff83166006811061226457612264612f63565b01546001600160a01b0316036122b45760405162461bcd60e51b8152602060048201526015602482015274105b1c9958591e481a5b881d1a1a5cc81c9bdd5b99605a1b6044820152606401610784565b806122be816131e2565b915050612238565b506122fc6001600160a01b037f00000000000000000000000000000000000000000000000000000000000000001633308561269a565b600781015460ff163360018301826006811061231a5761231a612f63565b0180546001600160a01b0319166001600160a01b039290921691909117905560078201805460ff1690600061234e836131e2565b825460ff9182166101009390930a928302919092021990911617905550336000908152601360205260408120805485929061238a9084906131cf565b909155505060405160ff82168152339085907f267de9464a1783407eb0e8ba56bcd59ef059648e576c0703bfd6a3b84355e8319060200160405180910390a3600782015460ff16600519016123e2576123e2846126d3565b50505050565b6001546001600160a01b031633146111085760405163118cdaa760e01b8152336004820152602401610784565b600180546001600160a01b038381166001600160a01b0319831681179093556040519116919082907f8be0079c531659141344cd1fd0a4f28419497f9722a3daafe3b4186f6b6457e090600090a35050565b6040516001600160a01b038381166024830152604482018390526108cd91859182169063a9059cbb906064015b604051602081830303815290604052915060e01b6020820180516001600160e01b038381831617835250505050612a8b565b6000818152600b60205260408120815b81548110156125de5760008282815481106124f3576124f3612f63565b6000918252602080832090910154808352600990915260408220909250906007820154610100900460ff16600381111561252f5761252f612c06565b1480156125415750600b81015460ff16155b801561255657506007810154600660ff909116105b156125c9576000805b600783015460ff90811690821610156125b657336001840160ff83166006811061258b5761258b612f63565b01546001600160a01b0316036125a457600191506125b6565b806125ae816131e2565b91505061255f565b50806125c757509095945050505050565b505b505080806125d690612f8f565b9150506124d6565b50600a8054600091826125f083612f8f565b90915550600081815260096020908152604080832088815560078101805461ff0019169055426008820155600b80820180543361010081026001600160a81b0319909216919091179091558a865290845282852080546001810182559086528486200186905582518a81529384019490945293945084917f41d1abbbff53228d6c25b8e025e000e344bf18aaaeb3f99fe626ea2c5a8ccc06910160405180910390a3509392505050565b6040516001600160a01b0384811660248301528381166044830152606482018390526123e29186918216906323b872dd90608401612494565b600081815260096020526040812060078101805461ff001916610100179055906126fe600143613242565b40448442856001013360405160200161271c96959493929190613255565b60408051601f198184030181529190528051602090910120905060006127436006836132c8565b90506000836001018260ff166006811061275f5761275f612f63565b015460405160ff841681526001600160a01b03909116915085907f573db2fdd70fd753fa817450828a0d99158dd00847399bbf146a0d6eb0d3c83b9060200160405180910390a283546000906127b790600690613201565b90506000612710600454836127cc9190613201565b6127d6919061322e565b905060006127e48284613242565b905060006127f360058361322e565b6009890180546001600160a01b0319166001600160a01b038816179055600a890181905560078901805461ff00191661020017905560068054919250600061283a83612f8f565b9190505550836007600082825461285191906131cf565b90915550506008805490600061286683612f8f565b90915550506001600160a01b038516600090815260126020526040812080549161288f83612f8f565b909155505087546001600160a01b038616600090815260146020526040812080549091906128be9084906132dc565b909155505087546040519081526001600160a01b038616908a907f15e561cf41bfd658b449bd1226bfd3fc4d49e9f9fca87c2f1415bcc6a54268469060200160405180910390a360005b60068160ff161015612a33576000896001018260ff166006811061292e5761292e612f63565b01546001600160a01b03908116915087168114612a20576001600160a01b038116600090815260116020526040812080549161296983612f8f565b9091555050895461297a90846132dc565b6001600160a01b038216600090815260146020526040812080549091906129a2908490613303565b909155506129dc90506001600160a01b037f0000000000000000000000000000000000000000000000000000000000000000168285612467565b806001600160a01b03168b7e9ddf14db70ffdc46d4e79eb284f4c8ccb5325723c468a1e824a41a9ff6682f85604051612a1791815260200190565b60405180910390a35b5080612a2b816131e2565b915050612908565b508215612a8057612a80612a4f6001546001600160a01b031690565b6001600160a01b037f0000000000000000000000000000000000000000000000000000000000000000169085612467565b505050505050505050565b600080602060008451602086016000885af180612aae576040513d6000823e3d81fd5b50506000513d91508115612ac6578060011415612ad3565b6001600160a01b0384163b155b156123e257604051635274afe760e01b81526001600160a01b0385166004820152602401610784565b6040518060c001604052806006906020820280368337509192915050565b60008083601f840112612b2c57600080fd5b50813567ffffffffffffffff811115612b4457600080fd5b6020830191508360208260051b8501011115612b5f57600080fd5b9250929050565b60008060208385031215612b7957600080fd5b823567ffffffffffffffff811115612b9057600080fd5b612b9c85828601612b1a565b90969095509350505050565b80356001600160a01b038116811461190e57600080fd5b600060208284031215612bd157600080fd5b610fcc82612ba8565b60008060408385031215612bed57600080fd5b82359150612bfd60208401612ba8565b90509250929050565b634e487b7160e01b600052602160045260246000fd5b6020810160038310612c3057612c30612c06565b91905290565b6000815180845260005b81811015612c5c57602081850181015186830182015201612c40565b506000602082860101526020601f19601f83011685010191505092915050565b602081526000610fcc6020830184612c36565b60008060208385031215612ca257600080fd5b823567ffffffffffffffff80821115612cba57600080fd5b818501915085601f830112612cce57600080fd5b813581811115612cdd57600080fd5b866020828501011115612cef57600080fd5b60209290920196919550909350505050565b600080600060408486031215612d1657600080fd5b83359250602084013567ffffffffffffffff811115612d3457600080fd5b612d4086828701612b1a565b9497909650939450505050565b600060208284031215612d5f57600080fd5b5035919050565b60048110612d7657612d76612c06565b9052565b88815260ff881660208201526101008101612d986040830189612d66565b60608201969096526001600160a01b03948516608082015260a081019390935290151560c083015290911660e0909101529392505050565b8881526101a0810160208083018a60005b6006811015612e075781516001600160a01b031683529183019190830190600101612de1565b5050505060ff881660e0830152612e22610100830188612d66565b6001600160a01b03861661012083015261014082018590528315156101608301526001600160a01b0383166101808301529998505050505050505050565b60008060408385031215612e7357600080fd5b50508035926020909101359150565b6020808252825182820181905260009190848201906040850190845b81811015612eba57835183529284019291840191600101612e9e565b50909695505050505050565b60008060408385031215612ed957600080fd5b612ee283612ba8565b915060208301358015158114612ef757600080fd5b809150509250929050565b60a081526000612f1560a0830188612c36565b90508560208301528460408301528360608301528260808301529695505050505050565b60008060408385031215612f4c57600080fd5b612f5583612ba8565b946020939093013593505050565b634e487b7160e01b600052603260045260246000fd5b634e487b7160e01b600052601160045260246000fd5b600060018201612fa157612fa1612f79565b5060010190565b600181811c90821680612fbc57607f821691505b602082108103612fdc57634e487b7160e01b600052602260045260246000fd5b50919050565b634e487b7160e01b600052604160045260246000fd5b601f8211156108cd57600081815260208120601f850160051c8101602086101561301f5750805b601f850160051c820191505b8181101561303e5782815560010161302b565b505050505050565b67ffffffffffffffff83111561305e5761305e612fe2565b6130728361306c8354612fa8565b83612ff8565b6000601f8411600181146130a6576000851561308e5750838201355b600019600387901b1c1916600186901b178355611eb8565b600083815260209020601f19861690835b828110156130d757868501358255602094850194600190920191016130b7565b50868210156130f45760001960f88860031b161c19848701351681555b505060018560011b0183555050505050565b60208152816020820152818360408301376000818301604090810191909152601f909201601f19160101919050565b60208082526025908201527f4e6f742061207665726966696564206167656e74202d20726567697374657220604082015264199a5c9cdd60da1b606082015260800190565b602080825260139082015272139bdd0818481c1c9a5d985d19481c9bdd5b99606a1b604082015260600190565b6020808252600e908201526d2937bab732103737ba1037b832b760911b604082015260600190565b80820180821115610a0a57610a0a612f79565b600060ff821660ff81036131f8576131f8612f79565b60010192915050565b8082028115828204841417610a0a57610a0a612f79565b634e487b7160e01b600052601260045260246000fd5b60008261323d5761323d613218565b500490565b81810381811115610a0a57610a0a612f79565b868152600060208781840152866040840152856060840152608083018560005b600681101561329b5781546001600160a01b031683529183019160019182019101613275565b505050505060609190911b6bffffffffffffffffffffffff19166101408201526101540195945050505050565b6000826132d7576132d7613218565b500690565b81810360008312801583831316838312821617156132fc576132fc612f79565b5092915050565b808201828112600083128015821682158216171561332357613323612f79565b50509291505056fea2646970667358221220faf1e8d9193bcdf70c57f5d51c47fcc41e606881fe85e372faf05d5f7dc1d26364736f6c63430008140033",
  "linkReferences": {},
  "deployedLinkReferences": {}
}