{
  "_format": "hh-sol-artifact-1",
  "contractName": "HouseBankroll",
  "sourceName": "contracts/HouseBankroll.sol",
  "abi": [
    {
      "inputs": [
        {
          "internalType": "address",
          "name": "_houseToken",
          "type": "address"
        },
        {
          "internalType": "address",
          "name": "_shellToken",
          "type": "address"
        }
      ],
      "stateMutability": "nonpayable",
      "type": "constructor"
    },
    {
      "inputs": [],
      "name": "BankrollNotSeeded",
      "type": "error"
    },
    {
      "inputs": [],
      "name": "ExceedsMaxExposure",
      "type": "error"
    },
    {
      "inputs": [],
      "name": "InsufficientBalance",
      "type": "error"
    },
    {
      "inputs": [],
      "name": "InsufficientStake",
      "type": "error"
    },
    {
      "inputs": [],
      "name": "NotAuthorizedGame",
      "type": "error"
    },
    {
      "inputs": [],
      "name": "NothingToClaim",
      "type": "error"
    },
    {
      "inputs": [
        {
          "internalType": "address",
          "name": "owner",
          "type": "address"
        }
      ],
      "name": "OwnableInvalidOwner",
      "type": "error"
    },
    {
      "inputs": [
        {
          "internalType": "address",
          "name": "account",
          "type": "address"
        }
      ],
      "name": "OwnableUnauthorizedAccount",
      "type": "error"
    },
    {
      "inputs": [],
      "name": "ReentrancyGuardReentrantCall",
      "type": "error"
    },
    {
      "inputs": [
        {
          "internalType": "address",
          "name": "token",
          "type": "address"
        }
      ],
      "name": "SafeERC20FailedOperation",
      "type": "error"
    },
    {
      "inputs": [],
      "name": "ZeroAmount",
      "type": "error"
    },
    {
      "anonymous": false,
      "inputs": [
        {
          "indexed": true,
          "internalType": "address",
          "name": "depositor",
          "type": "address"
        },
        {
          "indexed": false,
          "internalType": "uint256",
          "name": "amount",
          "type": "uint256"
        }
      ],
      "name": "BankrollDeposited",
      "type": "event"
    },
    {
      "anonymous": false,
      "inputs": [],
      "name": "EmergencyCancelled",
      "type": "event"
    },
    {
      "anonymous": false,
      "inputs": [
        {
          "indexed": false,
          "internalType": "address",
          "name": "token",
          "type": "address"
        },
        {
          "indexed": false,
          "internalType": "uint256",
          "name": "amount",
          "type": "uint256"
        }
      ],
      "name": "EmergencyExecuted",
      "type": "event"
    },
    {
      "anonymous": false,
      "inputs": [
        {
          "indexed": false,
          "internalType": "address",
          "name": "token",
          "type": "address"
        },
        {
          "indexed": false,
          "internalType": "uint256",
          "name": "amount",
          "type": "uint256"
        },
        {
          "indexed": false,
          "internalType": "uint256",
          "name": "executeAfter",
          "type": "uint256"
        }
      ],
      "name": "EmergencyRequested",
      "type": "event"
    },
    {
      "anonymous": false,
      "inputs": [
        {
          "indexed": true,
          "internalType": "address",
          "name": "game",
          "type": "address"
        },
        {
          "indexed": false,
          "internalType": "bool",
          "name": "authorized",
          "type": "bool"
        }
      ],
      "name": "GameAuthorized",
      "type": "event"
    },
    {
      "anonymous": false,
      "inputs": [
        {
          "indexed": true,
          "internalType": "address",
          "name": "game",
          "type": "address"
        },
        {
          "indexed": true,
          "internalType": "address",
          "name": "winner",
          "type": "address"
        },
        {
          "indexed": false,
          "internalType": "uint256",
          "name": "amount",
          "type": "uint256"
        }
      ],
      "name": "LossPaid",
      "type": "event"
    },
    {
      "anonymous": false,
      "inputs": [
        {
          "indexed": true,
          "internalType": "address",
          "name": "previousOwner",
          "type": "address"
        },
        {
          "indexed": true,
          "internalType": "address",
          "name": "newOwner",
          "type": "address"
        }
      ],
      "name": "OwnershipTransferred",
      "type": "event"
    },
    {
      "anonymous": false,
      "inputs": [
        {
          "indexed": true,
          "internalType": "address",
          "name": "game",
          "type": "address"
        },
        {
          "indexed": false,
          "internalType": "uint256",
          "name": "amount",
          "type": "uint256"
        }
      ],
      "name": "ProfitDeposited",
      "type": "event"
    },
    {
      "anonymous": false,
      "inputs": [
        {
          "indexed": true,
          "internalType": "address",
          "name": "user",
          "type": "address"
        },
        {
          "indexed": false,
          "internalType": "uint256",
          "name": "amount",
          "type": "uint256"
        }
      ],
      "name": "RewardsClaimed",
      "type": "event"
    },
    {
      "anonymous": false,
      "inputs": [
        {
          "indexed": true,
          "internalType": "address",
          "name": "user",
          "type": "address"
        },
        {
          "indexed": false,
          "internalType": "uint256",
          "name": "amount",
          "type": "uint256"
        }
      ],
      "name": "Staked",
      "type": "event"
    },
    {
      "anonymous": false,
      "inputs": [
        {
          "indexed": true,
          "internalType": "address",
          "name": "user",
          "type": "address"
        },
        {
          "indexed": false,
          "internalType": "uint256",
          "name": "amount",
          "type": "uint256"
        }
      ],
      "name": "Unstaked",
      "type": "event"
    },
    {
      "inputs": [],
      "name": "EMERGENCY_TIMELOCK",
      "outputs": [
        {
          "internalType": "uint256",
          "name": "",
          "type": "uint256"
        }
      ],
      "stateMutability": "view",
      "type": "function"
    },
    {
      "inputs": [],
      "name": "accRewardPerShare",
      "outputs": [
        {
          "internalType": "uint256",
          "name": "",
          "type": "uint256"
        }
      ],
      "stateMutability": "view",
      "type": "function"
    },
    {
      "inputs": [
        {
          "internalType": "address",
          "name": "",
          "type": "address"
        }
      ],
      "name": "authorizedGames",
      "outputs": [
        {
          "internalType": "bool",
          "name": "",
          "type": "bool"
        }
      ],
      "stateMutability": "view",
      "type": "function"
    },
    {
      "inputs": [
        {
          "internalType": "uint256",
          "name": "amount",
          "type": "uint256"
        }
      ],
      "name": "canCover",
      "outputs": [
        {
          "internalType": "bool",
          "name": "",
          "type": "bool"
        }
      ],
      "stateMutability": "view",
      "type": "function"
    },
    {
      "inputs": [],
      "name": "cancelEmergencyWithdraw",
      "outputs": [],
      "stateMutability": "nonpayable",
      "type": "function"
    },
    {
      "inputs": [],
      "name": "claimRewards",
      "outputs": [],
      "stateMutability": "nonpayable",
      "type": "function"
    },
    {
      "inputs": [
        {
          "internalType": "uint256",
          "name": "amount",
          "type": "uint256"
        }
      ],
      "name": "depositBankroll",
      "outputs": [],
      "stateMutability": "nonpayable",
      "type": "function"
    },
    {
      "inputs": [
        {
          "internalType": "uint256",
          "name": "amount",
          "type": "uint256"
        }
      ],
      "name": "depositProfit",
      "outputs": [],
      "stateMutability": "nonpayable",
      "type": "function"
    },
    {
      "inputs": [],
      "name": "executeEmergencyWithdraw",
      "outputs": [],
      "stateMutability": "nonpayable",
      "type": "function"
    },
    {
      "inputs": [],
      "name": "getBankrollBalance",
      "outputs": [
        {
          "internalType": "uint256",
          "name": "",
          "type": "uint256"
        }
      ],
      "stateMutability": "view",
      "type": "function"
    },
    {
      "inputs": [],
      "name": "getEstimatedAPY",
      "outputs": [
        {
          "internalType": "uint256",
          "name": "",
          "type": "uint256"
        }
      ],
      "stateMutability": "view",
      "type": "function"
    },
    {
      "inputs": [],
      "name": "getHouseStats",
      "outputs": [
        {
          "internalType": "uint256",
          "name": "bankroll",
          "type": "uint256"
        },
        {
          "internalType": "uint256",
          "name": "staked",
          "type": "uint256"
        },
        {
          "internalType": "uint256",
          "name": "profits",
          "type": "uint256"
        },
        {
          "internalType": "uint256",
          "name": "losses",
          "type": "uint256"
        },
        {
          "internalType": "uint256",
          "name": "netProfit",
          "type": "uint256"
        }
      ],
      "stateMutability": "view",
      "type": "function"
    },
    {
      "inputs": [
        {
          "internalType": "uint256",
          "name": "multiplier",
          "type": "uint256"
        }
      ],
      "name": "getMaxBet",
      "outputs": [
        {
          "internalType": "uint256",
          "name": "",
          "type": "uint256"
        }
      ],
      "stateMutability": "view",
      "type": "function"
    },
    {
      "inputs": [
        {
          "internalType": "address",
          "name": "user",
          "type": "address"
        }
      ],
      "name": "getUserShare",
      "outputs": [
        {
          "internalType": "uint256",
          "name": "",
          "type": "uint256"
        }
      ],
      "stateMutability": "view",
      "type": "function"
    },
    {
      "inputs": [],
      "name": "houseToken",
      "outputs": [
        {
          "internalType": "contract IERC20",
          "name": "",
          "type": "address"
        }
      ],
      "stateMutability": "view",
      "type": "function"
    },
    {
      "inputs": [],
      "name": "isOperational",
      "outputs": [
        {
          "internalType": "bool",
          "name": "",
          "type": "bool"
        }
      ],
      "stateMutability": "view",
      "type": "function"
    },
    {
      "inputs": [],
      "name": "maxExposurePercent",
      "outputs": [
        {
          "internalType": "uint256",
          "name": "",
          "type": "uint256"
        }
      ],
      "stateMutability": "view",
      "type": "function"
    },
    {
      "inputs": [],
      "name": "minBankrollToOperate",
      "outputs": [
        {
          "internalType": "uint256",
          "name": "",
          "type": "uint256"
        }
      ],
      "stateMutability": "view",
      "type": "function"
    },
    {
      "inputs": [],
      "name": "minStake",
      "outputs": [
        {
          "internalType": "uint256",
          "name": "",
          "type": "uint256"
        }
      ],
      "stateMutability": "view",
      "type": "function"
    },
    {
      "inputs": [],
      "name": "owner",
      "outputs": [
        {
          "internalType": "address",
          "name": "",
          "type": "address"
        }
      ],
      "stateMutability": "view",
      "type": "function"
    },
    {
      "inputs": [
        {
          "internalType": "address",
          "name": "winner",
          "type": "address"
        },
        {
          "internalType": "uint256",
          "name": "amount",
          "type": "uint256"
        }
      ],
      "name": "payLoss",
      "outputs": [],
      "stateMutability": "nonpayable",
      "type": "function"
    },
    {
      "inputs": [],
      "name": "pendingEmergency",
      "outputs": [
        {
          "internalType": "address",
          "name": "token",
          "type": "address"
        },
        {
          "internalType": "uint256",
          "name": "amount",
          "type": "uint256"
        },
        {
          "internalType": "uint256",
          "name": "requestTime",
          "type": "uint256"
        },
        {
          "internalType": "bool",
          "name": "executed",
          "type": "bool"
        }
      ],
      "stateMutability": "view",
      "type": "function"
    },
    {
      "inputs": [
        {
          "internalType": "address",
          "name": "user",
          "type": "address"
        }
      ],
      "name": "pendingRewards",
      "outputs": [
        {
          "internalType": "uint256",
          "name": "",
          "type": "uint256"
        }
      ],
      "stateMutability": "view",
      "type": "function"
    },
    {
      "inputs": [],
      "name": "renounceOwnership",
      "outputs": [],
      "stateMutability": "nonpayable",
      "type": "function"
    },
    {
      "inputs": [
        {
          "internalType": "address",
          "name": "token",
          "type": "address"
        },
        {
          "internalType": "uint256",
          "name": "amount",
          "type": "uint256"
        }
      ],
      "name": "requestEmergencyWithdraw",
      "outputs": [],
      "stateMutability": "nonpayable",
      "type": "function"
    },
    {
      "inputs": [
        {
          "internalType": "address",
          "name": "",
          "type": "address"
        }
      ],
      "name": "rewardDebt",
      "outputs": [
        {
          "internalType": "uint256",
          "name": "",
          "type": "uint256"
        }
      ],
      "stateMutability": "view",
      "type": "function"
    },
    {
      "inputs": [
        {
          "internalType": "address",
          "name": "game",
          "type": "address"
        },
        {
          "internalType": "bool",
          "name": "authorized",
          "type": "bool"
        }
      ],
      "name": "setGameAuthorization",
      "outputs": [],
      "stateMutability": "nonpayable",
      "type": "function"
    },
    {
      "inputs": [
        {
          "internalType": "uint256",
          "name": "percent",
          "type": "uint256"
        }
      ],
      "name": "setMaxExposure",
      "outputs": [],
      "stateMutability": "nonpayable",
      "type": "function"
    },
    {
      "inputs": [
        {
          "internalType": "uint256",
          "name": "amount",
          "type": "uint256"
        }
      ],
      "name": "setMinBankrollToOperate",
      "outputs": [],
      "stateMutability": "nonpayable",
      "type": "function"
    },
    {
      "inputs": [
        {
          "internalType": "uint256",
          "name": "amount",
          "type": "uint256"
        }
      ],
      "name": "setMinStake",
      "outputs": [],
      "stateMutability": "nonpayable",
      "type": "function"
    },
    {
      "inputs": [],
      "name": "shellToken",
      "outputs": [
        {
          "internalType": "contract IERC20",
          "name": "",
          "type": "address"
        }
      ],
      "stateMutability": "view",
      "type": "function"
    },
    {
      "inputs": [
        {
          "internalType": "uint256",
          "name": "amount",
          "type": "uint256"
        }
      ],
      "name": "stake",
      "outputs": [],
      "stateMutability": "nonpayable",
      "type": "function"
    },
    {
      "inputs": [
        {
          "internalType": "address",
          "name": "",
          "type": "address"
        }
      ],
      "name": "stakedBalance",
      "outputs": [
        {
          "internalType": "uint256",
          "name": "",
          "type": "uint256"
        }
      ],
      "stateMutability": "view",
      "type": "function"
    },
    {
      "inputs": [],
      "name": "totalLosses",
      "outputs": [
        {
          "internalType": "uint256",
          "name": "",
          "type": "uint256"
        }
      ],
      "stateMutability": "view",
      "type": "function"
    },
    {
      "inputs": [],
      "name": "totalProfits",
      "outputs": [
        {
          "internalType": "uint256",
          "name": "",
          "type": "uint256"
        }
      ],
      "stateMutability": "view",
      "type": "function"
    },
    {
      "inputs": [],
      "name": "totalStaked",
      "outputs": [
        {
          "internalType": "uint256",
          "name": "",
          "type": "uint256"
        }
      ],
      "stateMutability": "view",
      "type": "function"
    },
    {
      "inputs": [
        {
          "internalType": "address",
          "name": "newOwner",
          "type": "address"
        }
      ],
      "name": "transferOwnership",
      "outputs": [],
      "stateMutability": "nonpayable",
      "type": "function"
    },
    {
      "inputs": [
        {
          "internalType": "uint256",
          "name": "amount",
          "type": "uint256"
        }
      ],
      "name": "unstake",
      "outputs": [],
      "stateMutability": "nonpayable",
      "type": "function"
    }
  ],
  "bytecode": "0x60c0604052600a600955670de0b6b3a7640000600a556000600b553480156200002757600080fd5b5060405162001b4738038062001b478339810160408190526200004a9162000109565b600160005533806200007657604051631e4fbdf760e01b81526000600482015260240160405180910390fd5b62000081816200009a565b506001600160a01b039182166080521660a05262000141565b600180546001600160a01b038381166001600160a01b0319831681179093556040519116919082907f8be0079c531659141344cd1fd0a4f28419497f9722a3daafe3b4186f6b6457e090600090a35050565b80516001600160a01b03811681146200010457600080fd5b919050565b600080604083850312156200011d57600080fd5b6200012883620000ec565b91506200013860208401620000ec565b90509250929050565b60805160a05161197e620001c9600039600081816103aa0152818161056a0152818161060401528181610a7101528181610ba201528181610cbd01528181610e3901528181610f1b0152818161112d0152818161128b01528181611333015281816115fc015261168a015260008181610444015281816108fc0152611026015261197e6000f3fe608060405234801561001057600080fd5b50600436106102325760003560e01c80637c7f4ce511610130578063bbbaee4c116100b8578063cd905dff1161007c578063cd905dff14610508578063ced9908714610510578063e566c61a14610519578063f161770c1461052c578063f2fde38b1461053f57600080fd5b8063bbbaee4c146104c8578063bd998cb3146104db578063bf04820b146104e4578063c9303738146104ed578063ccaad55d1461050057600080fd5b8063907a37c6116100ff578063907a37c61461043f578063939d62371461046657806393cc7db01461046f5780639e492b9914610482578063a694fc3a146104b557600080fd5b80637c7f4ce5146103ff578063817b1cd2146104125780638c80fd901461041b5780638da5cb5b1461042e57600080fd5b806341b49df7116101be57806360d7442b1161018257806360d7442b14610393578063683131c91461039d5780636aae314c146103a5578063715018a6146103e4578063771dec1e146103ec57600080fd5b806341b49df714610307578063496621d71461031a5780634b56ad181461034a5780635873eb9b14610353578063602172671461037357600080fd5b80632e17de78116102055780632e17de78146102bd57806331d7a262146102d057806333c19ab0146102e3578063372500ab146102f6578063375b3c0a146102fe57600080fd5b806308bfcdba146102375780631545880f14610252578063295d8635146102a05780632a8821cc146102b3575b600080fd5b61023f610552565b6040519081526020015b60405180910390f35b600c54600d54600e54600f54610274936001600160a01b031692919060ff1684565b604080516001600160a01b03909516855260208501939093529183015215156060820152608001610249565b61023f6102ae3660046117fe565b6105e2565b6102bb6106a1565b005b6102bb6102cb3660046117fe565b610813565b61023f6102de366004611833565b61096e565b6102bb6102f13660046117fe565b610a26565b6102bb610b2a565b61023f600a5481565b6102bb6103153660046117fe565b610b6d565b610322610b7a565b604080519586526020860194909452928401919091526060830152608082015260a001610249565b61023f60095481565b61023f610361366004611833565b60046020526000908152604090205481565b61023f610381366004611833565b60036020526000908152604090205481565b61023f6201518081565b6102bb610c3f565b6103cc7f000000000000000000000000000000000000000000000000000000000000000081565b6040516001600160a01b039091168152602001610249565b6102bb610c96565b6102bb6103fa3660046117fe565b610ca8565b6102bb61040d36600461184e565b610d17565b61023f60025481565b6102bb6104293660046117fe565b610dd6565b6001546001600160a01b03166103cc565b6103cc7f000000000000000000000000000000000000000000000000000000000000000081565b61023f60055481565b6102bb61047d36600461184e565b610de3565b6104a5610490366004611833565b60086020526000908152604090205460ff1681565b6040519015158152602001610249565b6102bb6104c33660046117fe565b610faa565b61023f6104d6366004611833565b611101565b61023f60065481565b61023f60075481565b6102bb6104fb366004611878565b6111d4565b61023f61123b565b6104a5611269565b61023f600b5481565b6104a56105273660046117fe565b611311565b6102bb61053a3660046117fe565b6113f4565b6102bb61054d366004611833565b611451565b6040516370a0823160e01b81523060048201526000907f00000000000000000000000000000000000000000000000000000000000000006001600160a01b0316906370a0823190602401602060405180830381865afa1580156105b9573d6000803e3d6000fd5b505050506040513d601f19601f820116820180604052508101906105dd91906118b4565b905090565b6040516370a0823160e01b815230600482015260009081906001600160a01b037f000000000000000000000000000000000000000000000000000000000000000016906370a0823190602401602060405180830381865afa15801561064b573d6000803e3d6000fd5b505050506040513d601f19601f8201168201806040525081019061066f91906118b4565b9050600060646009548361068391906118e3565b61068d9190611900565b90506106998482611900565b949350505050565b6106a961148c565b600e546106f25760405162461bcd60e51b8152602060048201526012602482015271139bc81c195b991a5b99c81c995c5d595cdd60721b60448201526064015b60405180910390fd5b600f5460ff16156107385760405162461bcd60e51b815260206004820152601060248201526f105b1c9958591e48195e1958dd5d195960821b60448201526064016106e9565b600e54610749906201518090611922565b42101561078f5760405162461bcd60e51b8152602060048201526014602482015273151a5b595b1bd8dac81b9bdd08195e1c1a5c995960621b60448201526064016106e9565b600f805460ff191660011790556107c76107b16001546001600160a01b031690565b600d54600c546001600160a01b031691906114b9565b600c54600d54604080516001600160a01b03909316835260208301919091527f3797810efc603ad734bf240100f81a69d8ce62fd0877103ba6166555a7577414910160405180910390a1565b61081b61151d565b8060000361083c57604051631f2a200560e01b815260040160405180910390fd5b3360009081526003602052604090205481111561086c57604051631e9acf1760e31b815260040160405180910390fd5b61087533611547565b503360009081526003602052604081208054839290610895908490611935565b9250508190555080600260008282546108ae9190611935565b909155505060055433600090815260036020526040902054670de0b6b3a7640000916108d9916118e3565b6108e39190611900565b3360008181526004602052604090209190915561092b907f00000000000000000000000000000000000000000000000000000000000000006001600160a01b031690836114b9565b60405181815233907f0f5bb82176feb1b5e747e28471aa92156a04d9f3ab9f45f28e2d704232b93f75906020015b60405180910390a261096b6001600055565b50565b6001600160a01b038116600090815260036020526040812054810361099557506000919050565b6005546001600160a01b0383166000908152600360205260408120549091670de0b6b3a7640000916109c791906118e3565b6109d19190611900565b6001600160a01b03841660009081526004602052604090205490915081116109fc5750600092915050565b6001600160a01b038316600090815260046020526040902054610a1f9082611935565b9392505050565b610a2e61151d565b3360009081526008602052604090205460ff16610a5e5760405163032d9f6960e01b815260040160405180910390fd5b8015610b2057610a996001600160a01b037f0000000000000000000000000000000000000000000000000000000000000000163330846116fc565b8060066000828254610aab9190611922565b909155505060025415610aee57600254610acd82670de0b6b3a76400006118e3565b610ad79190611900565b60056000828254610ae89190611922565b90915550505b60405181815233907f49d15e37df794a2b83a435ad74d7851370e97e87db42725f3cbe61356aedfb5390602001610959565b61096b6001600055565b610b3261151d565b6000610b3d33611547565b905080600003610b60576040516312d37ee560e31b815260040160405180910390fd5b50610b6b6001600055565b565b610b7561148c565b600b55565b6040516370a0823160e01b815230600482015260009081908190819081906001600160a01b037f000000000000000000000000000000000000000000000000000000000000000016906370a0823190602401602060405180830381865afa158015610be9573d6000803e3d6000fd5b505050506040513d601f19601f82011682018060405250810190610c0d91906118b4565b9450600254935060065492506007549150818311610c2c576000610c36565b610c368284611935565b90509091929394565b610c4761148c565b600c80546001600160a01b03191690556000600d819055600e819055600f805460ff191690556040517f8f535403f1d4cd544dcd54729c46f4ffa86a2efa2bf1dbe843e2c6a6e1d435c29190a1565b610c9e61148c565b610b6b600061173b565b610cb061151d565b610ce56001600160a01b037f0000000000000000000000000000000000000000000000000000000000000000163330846116fc565b60405181815233907f66250ab67bdde5237a4f3f6ae11b39da8cd2e3c2e2073dcacb568f309cd68fc690602001610959565b610d1f61148c565b604080516080810182526001600160a01b03841680825260208201849052429282018390526000606090920191909152600c80546001600160a01b0319169091179055600d829055600e819055600f805460ff191690557f3de9deb21168f80ce59e0eda24e9d5d8a7172596d57134b2d23a3773598f1a7f9083908390610daa906201518090611922565b604080516001600160a01b03909416845260208401929092529082015260600160405180910390a15050565b610dde61148c565b600a55565b610deb61151d565b3360009081526008602052604090205460ff16610e1b5760405163032d9f6960e01b815260040160405180910390fd5b8015610f9c576040516370a0823160e01b81523060048201526000907f00000000000000000000000000000000000000000000000000000000000000006001600160a01b0316906370a0823190602401602060405180830381865afa158015610e88573d6000803e3d6000fd5b505050506040513d601f19601f82011682018060405250810190610eac91906118b4565b905080821115610ecf57604051631e9acf1760e31b815260040160405180910390fd5b6000606460095483610ee191906118e3565b610eeb9190611900565b905080831115610f0e57604051630e4a745160e31b815260040160405180910390fd5b610f426001600160a01b037f00000000000000000000000000000000000000000000000000000000000000001685856114b9565b8260076000828254610f549190611922565b90915550506040518381526001600160a01b0385169033907f8c995810997dbb741c898ded522ca6c43d42d1db98dcb0ff84cda4400b0a28509060200160405180910390a350505b610fa66001600055565b5050565b610fb261151d565b80600003610fd357604051631f2a200560e01b815260040160405180910390fd5b600a5481108015610ff1575033600090815260036020526040902054155b1561100f576040516378de4a6960e11b815260040160405180910390fd5b61101833611547565b5061104e6001600160a01b037f0000000000000000000000000000000000000000000000000000000000000000163330846116fc565b336000908152600360205260408120805483929061106d908490611922565b9250508190555080600260008282546110869190611922565b909155505060055433600090815260036020526040902054670de0b6b3a7640000916110b1916118e3565b6110bb9190611900565b33600081815260046020526040908190209290925590517f9e71bc8eea02a63969f509818f2dafb9254532904319f9dbda79b67bd34a5f3d906109599084815260200190565b600060025460000361111557506000919050565b6040516370a0823160e01b81523060048201526000907f00000000000000000000000000000000000000000000000000000000000000006001600160a01b0316906370a0823190602401602060405180830381865afa15801561117c573d6000803e3d6000fd5b505050506040513d601f19601f820116820180604052508101906111a091906118b4565b6002546001600160a01b038516600090815260036020526040902054919250906111ca90836118e3565b610a1f9190611900565b6111dc61148c565b6001600160a01b038216600081815260086020908152604091829020805460ff191685151590811790915591519182527fd516aed749348a7021e9cab766a9aac5bfd476b12501d5f21bb5435ee50ede7b910160405180910390a25050565b600060025460000361124d5750600090565b60025460065461125f906127106118e3565b6105dd9190611900565b6040516370a0823160e01b815230600482015260009081906001600160a01b037f000000000000000000000000000000000000000000000000000000000000000016906370a0823190602401602060405180830381865afa1580156112d2573d6000803e3d6000fd5b505050506040513d601f19601f820116820180604052508101906112f691906118b4565b9050600b546000148061130b5750600b548110155b91505090565b6040516370a0823160e01b815230600482015260009081906001600160a01b037f000000000000000000000000000000000000000000000000000000000000000016906370a0823190602401602060405180830381865afa15801561137a573d6000803e3d6000fd5b505050506040513d601f19601f8201168201806040525081019061139e91906118b4565b90506000600b541180156113b35750600b5481105b156113c15750600092915050565b60006064600954836113d391906118e3565b6113dd9190611900565b905080841115801561069957505090911115919050565b6113fc61148c565b60008111801561140d575060328111155b61144c5760405162461bcd60e51b815260206004820152601060248201526f496e76616c6964206578706f7375726560801b60448201526064016106e9565b600955565b61145961148c565b6001600160a01b03811661148357604051631e4fbdf760e01b8152600060048201526024016106e9565b61096b8161173b565b6001546001600160a01b03163314610b6b5760405163118cdaa760e01b81523360048201526024016106e9565b6040516001600160a01b0383811660248301526044820183905261151891859182169063a9059cbb906064015b604051602081830303815290604052915060e01b6020820180516001600160e01b03838183161783525050505061178d565b505050565b60026000540361154057604051633ee5aeb560e01b815260040160405180910390fd5b6002600055565b6001600160a01b038116600090815260036020526040812054810361156e57506000919050565b60006115798361096e565b90508060000361158c5750600092915050565b6005546001600160a01b038416600090815260036020526040902054670de0b6b3a7640000916115bb916118e3565b6115c59190611900565b6001600160a01b0384811660009081526004602081905260408083209490945592516370a0823160e01b81523093810193909352917f0000000000000000000000000000000000000000000000000000000000000000909116906370a0823190602401602060405180830381865afa158015611645573d6000803e3d6000fd5b505050506040513d601f19601f8201168201806040525081019061166991906118b4565b905080821115611677578091505b81156116f5576116b16001600160a01b037f00000000000000000000000000000000000000000000000000000000000000001685846114b9565b836001600160a01b03167ffc30cddea38e2bf4d6ea7d3f9ed3b6ad7f176419f4963bd81318067a4aee73fe836040516116ec91815260200190565b60405180910390a25b5092915050565b6040516001600160a01b0384811660248301528381166044830152606482018390526117359186918216906323b872dd906084016114e6565b50505050565b600180546001600160a01b038381166001600160a01b0319831681179093556040519116919082907f8be0079c531659141344cd1fd0a4f28419497f9722a3daafe3b4186f6b6457e090600090a35050565b600080602060008451602086016000885af1806117b0576040513d6000823e3d81fd5b50506000513d915081156117c85780600114156117d5565b6001600160a01b0384163b155b1561173557604051635274afe760e01b81526001600160a01b03851660048201526024016106e9565b60006020828403121561181057600080fd5b5035919050565b80356001600160a01b038116811461182e57600080fd5b919050565b60006020828403121561184557600080fd5b610a1f82611817565b6000806040838503121561186157600080fd5b61186a83611817565b946020939093013593505050565b6000806040838503121561188b57600080fd5b61189483611817565b9150602083013580151581146118a957600080fd5b809150509250929050565b6000602082840312156118c657600080fd5b5051919050565b634e487b7160e01b600052601160045260246000fd5b80820281158282048414176118fa576118fa6118cd565b92915050565b60008261191d57634e487b7160e01b600052601260045260246000fd5b500490565b808201808211156118fa576118fa6118cd565b818103818111156118fa576118fa6118cd56fea264697066735822122042c31343fd3e3b7473eee4e2a87bc5aec1c9d67ca556a950f763ba855d7b189b64736f6c63430008140033",
  "linkReferences": {},
  "deployedLinkReferences": {}
}