{
  "_format": "hh-sol-artifact-1",
  "contractName": "Blackjack",
  "sourceName": "contracts/games/Blackjack.sol",
  "abi": [
    {
      "inputs": [
        {
          "internalType": "address",
          "name": "_shellToken",
          "type": "address"
        },
        {
          "internalType": "address",
          "name": "_houseBankroll",
          "type": "address"
        },
        {
          "internalType": "address",
          "name": "_feeRecipient",
          "type": "address"
        }
      ],
      "stateMutability": "nonpayable",
      "type": "constructor"
    },
    {
      "inputs": [],
      "name": "CannotDouble",
      "type": "error"
    },
    {
      "inputs": [],
      "name": "CannotSplit",
      "type": "error"
    },
    {
      "inputs": [],
      "name": "GameAlreadySettled",
      "type": "error"
    },
    {
      "inputs": [],
      "name": "GameInProgress",
      "type": "error"
    },
    {
      "inputs": [],
      "name": "GameNotExpired",
      "type": "error"
    },
    {
      "inputs": [],
      "name": "HandAlreadyStood",
      "type": "error"
    },
    {
      "inputs": [],
      "name": "HandBusted",
      "type": "error"
    },
    {
      "inputs": [],
      "name": "InsufficientBankroll",
      "type": "error"
    },
    {
      "inputs": [],
      "name": "InvalidBet",
      "type": "error"
    },
    {
      "inputs": [],
      "name": "InvalidReveal",
      "type": "error"
    },
    {
      "inputs": [],
      "name": "InvalidState",
      "type": "error"
    },
    {
      "inputs": [],
      "name": "NoActiveGame",
      "type": "error"
    },
    {
      "inputs": [],
      "name": "NotYourGame",
      "type": "error"
    },
    {
      "inputs": [
        {
          "internalType": "address",
          "name": "owner",
          "type": "address"
        }
      ],
      "name": "OwnableInvalidOwner",
      "type": "error"
    },
    {
      "inputs": [
        {
          "internalType": "address",
          "name": "account",
          "type": "address"
        }
      ],
      "name": "OwnableUnauthorizedAccount",
      "type": "error"
    },
    {
      "inputs": [],
      "name": "ReentrancyGuardReentrantCall",
      "type": "error"
    },
    {
      "inputs": [],
      "name": "RevealTooEarly",
      "type": "error"
    },
    {
      "inputs": [
        {
          "internalType": "address",
          "name": "token",
          "type": "address"
        }
      ],
      "name": "SafeERC20FailedOperation",
      "type": "error"
    },
    {
      "anonymous": false,
      "inputs": [
        {
          "indexed": true,
          "internalType": "uint256",
          "name": "gameId",
          "type": "uint256"
        },
        {
          "indexed": false,
          "internalType": "uint8",
          "name": "card",
          "type": "uint8"
        },
        {
          "indexed": false,
          "internalType": "bool",
          "name": "isPlayer",
          "type": "bool"
        },
        {
          "indexed": false,
          "internalType": "uint8",
          "name": "handIndex",
          "type": "uint8"
        }
      ],
      "name": "CardDealt",
      "type": "event"
    },
    {
      "anonymous": false,
      "inputs": [
        {
          "indexed": true,
          "internalType": "uint256",
          "name": "gameId",
          "type": "uint256"
        },
        {
          "indexed": false,
          "internalType": "uint8",
          "name": "playerCard1",
          "type": "uint8"
        },
        {
          "indexed": false,
          "internalType": "uint8",
          "name": "playerCard2",
          "type": "uint8"
        },
        {
          "indexed": false,
          "internalType": "uint8",
          "name": "dealerUpCard",
          "type": "uint8"
        }
      ],
      "name": "CardsDealt",
      "type": "event"
    },
    {
      "anonymous": false,
      "inputs": [
        {
          "indexed": true,
          "internalType": "uint256",
          "name": "gameId",
          "type": "uint256"
        },
        {
          "indexed": false,
          "internalType": "uint256",
          "name": "totalPayout",
          "type": "uint256"
        }
      ],
      "name": "GameSettled",
      "type": "event"
    },
    {
      "anonymous": false,
      "inputs": [
        {
          "indexed": true,
          "internalType": "uint256",
          "name": "gameId",
          "type": "uint256"
        },
        {
          "indexed": true,
          "internalType": "address",
          "name": "player",
          "type": "address"
        },
        {
          "indexed": false,
          "internalType": "uint256",
          "name": "betAmount",
          "type": "uint256"
        },
        {
          "indexed": false,
          "internalType": "bytes32",
          "name": "commitment",
          "type": "bytes32"
        }
      ],
      "name": "GameStarted",
      "type": "event"
    },
    {
      "anonymous": false,
      "inputs": [
        {
          "indexed": true,
          "internalType": "uint256",
          "name": "gameId",
          "type": "uint256"
        },
        {
          "indexed": false,
          "internalType": "uint8",
          "name": "handIndex",
          "type": "uint8"
        },
        {
          "indexed": false,
          "internalType": "uint256",
          "name": "payout",
          "type": "uint256"
        },
        {
          "indexed": false,
          "internalType": "bool",
          "name": "won",
          "type": "bool"
        }
      ],
      "name": "HandResult",
      "type": "event"
    },
    {
      "anonymous": false,
      "inputs": [
        {
          "indexed": true,
          "internalType": "address",
          "name": "previousOwner",
          "type": "address"
        },
        {
          "indexed": true,
          "internalType": "address",
          "name": "newOwner",
          "type": "address"
        }
      ],
      "name": "OwnershipTransferred",
      "type": "event"
    },
    {
      "anonymous": false,
      "inputs": [
        {
          "indexed": true,
          "internalType": "uint256",
          "name": "gameId",
          "type": "uint256"
        },
        {
          "indexed": false,
          "internalType": "enum Blackjack.Action",
          "name": "action",
          "type": "uint8"
        },
        {
          "indexed": false,
          "internalType": "uint8",
          "name": "handIndex",
          "type": "uint8"
        }
      ],
      "name": "PlayerAction",
      "type": "event"
    },
    {
      "inputs": [],
      "name": "BLACKJACK_PAYOUT_DENOMINATOR",
      "outputs": [
        {
          "internalType": "uint256",
          "name": "",
          "type": "uint256"
        }
      ],
      "stateMutability": "view",
      "type": "function"
    },
    {
      "inputs": [],
      "name": "BLACKJACK_PAYOUT_NUMERATOR",
      "outputs": [
        {
          "internalType": "uint256",
          "name": "",
          "type": "uint256"
        }
      ],
      "stateMutability": "view",
      "type": "function"
    },
    {
      "inputs": [],
      "name": "GAME_TIMEOUT_BLOCKS",
      "outputs": [
        {
          "internalType": "uint256",
          "name": "",
          "type": "uint256"
        }
      ],
      "stateMutability": "view",
      "type": "function"
    },
    {
      "inputs": [],
      "name": "PROTOCOL_FEE_BPS",
      "outputs": [
        {
          "internalType": "uint256",
          "name": "",
          "type": "uint256"
        }
      ],
      "stateMutability": "view",
      "type": "function"
    },
    {
      "inputs": [
        {
          "internalType": "address",
          "name": "",
          "type": "address"
        }
      ],
      "name": "activeGame",
      "outputs": [
        {
          "internalType": "uint256",
          "name": "",
          "type": "uint256"
        }
      ],
      "stateMutability": "view",
      "type": "function"
    },
    {
      "inputs": [
        {
          "internalType": "uint256",
          "name": "gameId",
          "type": "uint256"
        }
      ],
      "name": "doubleDown",
      "outputs": [],
      "stateMutability": "nonpayable",
      "type": "function"
    },
    {
      "inputs": [],
      "name": "feeRecipient",
      "outputs": [
        {
          "internalType": "address",
          "name": "",
          "type": "address"
        }
      ],
      "stateMutability": "view",
      "type": "function"
    },
    {
      "inputs": [
        {
          "internalType": "uint256",
          "name": "gameId",
          "type": "uint256"
        }
      ],
      "name": "forceExpire",
      "outputs": [],
      "stateMutability": "nonpayable",
      "type": "function"
    },
    {
      "inputs": [],
      "name": "gameCounter",
      "outputs": [
        {
          "internalType": "uint256",
          "name": "",
          "type": "uint256"
        }
      ],
      "stateMutability": "view",
      "type": "function"
    },
    {
      "inputs": [
        {
          "internalType": "uint256",
          "name": "",
          "type": "uint256"
        }
      ],
      "name": "games",
      "outputs": [
        {
          "internalType": "address",
          "name": "player",
          "type": "address"
        },
        {
          "internalType": "enum Blackjack.GameState",
          "name": "state",
          "type": "uint8"
        },
        {
          "internalType": "uint256",
          "name": "betAmount",
          "type": "uint256"
        },
        {
          "internalType": "bytes32",
          "name": "commitment",
          "type": "bytes32"
        },
        {
          "internalType": "uint256",
          "name": "commitBlock",
          "type": "uint256"
        },
        {
          "internalType": "uint8",
          "name": "currentHandIndex",
          "type": "uint8"
        },
        {
          "internalType": "uint256",
          "name": "deckSeed",
          "type": "uint256"
        },
        {
          "internalType": "uint8",
          "name": "deckPosition",
          "type": "uint8"
        },
        {
          "internalType": "uint256",
          "name": "usedCardsBitmap",
          "type": "uint256"
        }
      ],
      "stateMutability": "view",
      "type": "function"
    },
    {
      "inputs": [
        {
          "internalType": "uint256",
          "name": "gameId",
          "type": "uint256"
        }
      ],
      "name": "getDealerCards",
      "outputs": [
        {
          "internalType": "uint8[]",
          "name": "",
          "type": "uint8[]"
        }
      ],
      "stateMutability": "view",
      "type": "function"
    },
    {
      "inputs": [
        {
          "internalType": "uint256",
          "name": "gameId",
          "type": "uint256"
        }
      ],
      "name": "getGame",
      "outputs": [
        {
          "internalType": "address",
          "name": "player",
          "type": "address"
        },
        {
          "internalType": "enum Blackjack.GameState",
          "name": "state",
          "type": "uint8"
        },
        {
          "internalType": "uint256",
          "name": "betAmount",
          "type": "uint256"
        },
        {
          "internalType": "uint8",
          "name": "currentHandIndex",
          "type": "uint8"
        },
        {
          "internalType": "uint8",
          "name": "dealerUpCard",
          "type": "uint8"
        },
        {
          "internalType": "uint8",
          "name": "dealerValue",
          "type": "uint8"
        }
      ],
      "stateMutability": "view",
      "type": "function"
    },
    {
      "inputs": [
        {
          "internalType": "uint256",
          "name": "gameId",
          "type": "uint256"
        }
      ],
      "name": "getHandCount",
      "outputs": [
        {
          "internalType": "uint256",
          "name": "",
          "type": "uint256"
        }
      ],
      "stateMutability": "view",
      "type": "function"
    },
    {
      "inputs": [
        {
          "internalType": "uint256",
          "name": "gameId",
          "type": "uint256"
        },
        {
          "internalType": "uint8",
          "name": "handIndex",
          "type": "uint8"
        }
      ],
      "name": "getPlayerHand",
      "outputs": [
        {
          "internalType": "uint8[]",
          "name": "cards",
          "type": "uint8[]"
        },
        {
          "internalType": "uint256",
          "name": "bet",
          "type": "uint256"
        },
        {
          "internalType": "uint8",
          "name": "value",
          "type": "uint8"
        },
        {
          "internalType": "bool",
          "name": "doubled",
          "type": "bool"
        },
        {
          "internalType": "bool",
          "name": "stood",
          "type": "bool"
        },
        {
          "internalType": "bool",
          "name": "busted",
          "type": "bool"
        },
        {
          "internalType": "bool",
          "name": "isBlackjack",
          "type": "bool"
        }
      ],
      "stateMutability": "view",
      "type": "function"
    },
    {
      "inputs": [
        {
          "internalType": "uint256",
          "name": "gameId",
          "type": "uint256"
        }
      ],
      "name": "hit",
      "outputs": [],
      "stateMutability": "nonpayable",
      "type": "function"
    },
    {
      "inputs": [],
      "name": "houseBankroll",
      "outputs": [
        {
          "internalType": "address",
          "name": "",
          "type": "address"
        }
      ],
      "stateMutability": "view",
      "type": "function"
    },
    {
      "inputs": [
        {
          "internalType": "uint256",
          "name": "gameId",
          "type": "uint256"
        }
      ],
      "name": "isGameExpired",
      "outputs": [
        {
          "internalType": "bool",
          "name": "",
          "type": "bool"
        }
      ],
      "stateMutability": "view",
      "type": "function"
    },
    {
      "inputs": [],
      "name": "maxBet",
      "outputs": [
        {
          "internalType": "uint256",
          "name": "",
          "type": "uint256"
        }
      ],
      "stateMutability": "view",
      "type": "function"
    },
    {
      "inputs": [],
      "name": "maxPayoutMultiple",
      "outputs": [
        {
          "internalType": "uint256",
          "name": "",
          "type": "uint256"
        }
      ],
      "stateMutability": "view",
      "type": "function"
    },
    {
      "inputs": [],
      "name": "minBet",
      "outputs": [
        {
          "internalType": "uint256",
          "name": "",
          "type": "uint256"
        }
      ],
      "stateMutability": "view",
      "type": "function"
    },
    {
      "inputs": [],
      "name": "owner",
      "outputs": [
        {
          "internalType": "address",
          "name": "",
          "type": "address"
        }
      ],
      "stateMutability": "view",
      "type": "function"
    },
    {
      "inputs": [],
      "name": "renounceOwnership",
      "outputs": [],
      "stateMutability": "nonpayable",
      "type": "function"
    },
    {
      "inputs": [
        {
          "internalType": "uint256",
          "name": "gameId",
          "type": "uint256"
        },
        {
          "internalType": "uint256",
          "name": "secret",
          "type": "uint256"
        }
      ],
      "name": "revealAndDeal",
      "outputs": [],
      "stateMutability": "nonpayable",
      "type": "function"
    },
    {
      "inputs": [
        {
          "internalType": "uint256",
          "name": "_minBet",
          "type": "uint256"
        },
        {
          "internalType": "uint256",
          "name": "_maxBet",
          "type": "uint256"
        }
      ],
      "name": "setBetLimits",
      "outputs": [],
      "stateMutability": "nonpayable",
      "type": "function"
    },
    {
      "inputs": [
        {
          "internalType": "address",
          "name": "_feeRecipient",
          "type": "address"
        }
      ],
      "name": "setFeeRecipient",
      "outputs": [],
      "stateMutability": "nonpayable",
      "type": "function"
    },
    {
      "inputs": [
        {
          "internalType": "address",
          "name": "_houseBankroll",
          "type": "address"
        }
      ],
      "name": "setHouseBankroll",
      "outputs": [],
      "stateMutability": "nonpayable",
      "type": "function"
    },
    {
      "inputs": [],
      "name": "shellToken",
      "outputs": [
        {
          "internalType": "contract IERC20",
          "name": "",
          "type": "address"
        }
      ],
      "stateMutability": "view",
      "type": "function"
    },
    {
      "inputs": [
        {
          "internalType": "uint256",
          "name": "gameId",
          "type": "uint256"
        }
      ],
      "name": "split",
      "outputs": [],
      "stateMutability": "nonpayable",
      "type": "function"
    },
    {
      "inputs": [
        {
          "internalType": "uint256",
          "name": "gameId",
          "type": "uint256"
        }
      ],
      "name": "stand",
      "outputs": [],
      "stateMutability": "nonpayable",
      "type": "function"
    },
    {
      "inputs": [
        {
          "internalType": "uint256",
          "name": "betAmount",
          "type": "uint256"
        },
        {
          "internalType": "bytes32",
          "name": "commitment",
          "type": "bytes32"
        }
      ],
      "name": "startGame",
      "outputs": [
        {
          "internalType": "uint256",
          "name": "gameId",
          "type": "uint256"
        }
      ],
      "stateMutability": "nonpayable",
      "type": "function"
    },
    {
      "inputs": [
        {
          "internalType": "address",
          "name": "newOwner",
          "type": "address"
        }
      ],
      "name": "transferOwnership",
      "outputs": [],
      "stateMutability": "nonpayable",
      "type": "function"
    }
  ],
  "bytecode": "0x60a0604052670de0b6b3a7640000600455683635c9adc5dea00000600555600a6006553480156200002f57600080fd5b5060405162002d1f38038062002d1f83398101604081905262000052916200021c565b600160005533806200007f57604051631e4fbdf760e01b8152600060048201526024015b60405180910390fd5b6200008a81620001ad565b506001600160a01b038316620000d35760405162461bcd60e51b815260206004820152600d60248201526c24b73b30b634b2103a37b5b2b760991b604482015260640162000076565b6001600160a01b0382166200011e5760405162461bcd60e51b815260206004820152601060248201526f125b9d985b1a590818985b9adc9bdb1b60821b604482015260640162000076565b6001600160a01b038116620001765760405162461bcd60e51b815260206004820152601560248201527f496e76616c69642066656520726563697069656e740000000000000000000000604482015260640162000076565b6001600160a01b03928316608052600280549284166001600160a01b03199384161790556003805491909316911617905562000266565b600180546001600160a01b038381166001600160a01b0319831681179093556040519116919082907f8be0079c531659141344cd1fd0a4f28419497f9722a3daafe3b4186f6b6457e090600090a35050565b80516001600160a01b03811681146200021757600080fd5b919050565b6000806000606084860312156200023257600080fd5b6200023d84620001ff565b92506200024d60208501620001ff565b91506200025d60408501620001ff565b90509250925092565b608051612a5e620002c160003960008181610375015281816105b0015281816108c8015281816111850152818161138b01528181612376015281816123b6015281816124130152818161244d01526124ea0152612a5e6000f3fe608060405234801561001057600080fd5b50600436106101e55760003560e01c80638da5cb5b1161010f578063ab782b98116100a2578063e74b981b11610071578063e74b981b1461048a578063ebf6e91d1461049d578063f2fde38b146104b0578063f363a72b146104c357600080fd5b8063ab782b9814610449578063be3782281461045c578063bfb51ac914610464578063dbceb0051461047757600080fd5b8063a2f77bcc116100de578063a2f77bcc146103e8578063a83d3e8d1461040d578063a8c613a91461042d578063aaf6e0d51461043657600080fd5b80638da5cb5b146103b2578063910f8b2e146103c35780639619367d146103cc57806396b76c23146103d557600080fd5b806344813f26116101875780636a7f5a96116101565780636a7f5a961461035d5780636aae314c14610370578063715018a6146103975780637687dd491461039f57600080fd5b806344813f26146102dc57806346904840146102ef578063581c6ca81461031a57806365b3a7ca1461033a57600080fd5b80632e0be39a116101c35780632e0be39a146102ba5780632e5b2168146102c35780633674ae73146102cc5780633f1d941c146102d457600080fd5b8063117a5b90146101ea57806327a1d9481461027457806328f3f4a414610289575b600080fd5b6102566101f8366004612635565b6008602081905260009182526040909120805460018201546002830154600384015460068501546007860154968601546009909601546001600160a01b03861697600160a01b90960460ff9081169795969495939492811693169089565b60405161026b99989796959493929190612682565b60405180910390f35b610287610282366004612635565b6104e9565b005b6102ac610297366004612635565b60009081526008602052604090206004015490565b60405190815260200161026b565b6102ac60075481565b6102ac60055481565b6102ac600281565b6102ac600381565b6102876102ea366004612635565b610776565b600354610302906001600160a01b031681565b6040516001600160a01b03909116815260200161026b565b61032d610328366004612635565b610937565b60405161026b919061271b565b61034d610348366004612635565b6109ba565b604051901515815260200161026b565b61028761036b36600461272e565b610a38565b6103027f000000000000000000000000000000000000000000000000000000000000000081565b610287610dd3565b6102876103ad36600461272e565b610de7565b6001546001600160a01b0316610302565b6102ac61010081565b6102ac60045481565b6102876103e3366004612635565b610dfa565b6103fb6103f6366004612635565b610eff565b60405161026b96959493929190612750565b6102ac61041b366004612797565b60096020526000908152604090205481565b6102ac60065481565b600254610302906001600160a01b031681565b610287610457366004612797565b610ffe565b6102ac606481565b6102ac61047236600461272e565b611076565b610287610485366004612635565b611265565b610287610498366004612797565b6115ea565b6102876104ab366004612635565b611662565b6102876104be366004612797565b61183d565b6104d66104d13660046127c0565b611878565b60405161026b97969594939291906127f6565b6104f1611a13565b600081815260086020526040902061050881611a3d565b600681015460048201805460009260ff1690811061052857610528612841565b60009182526020909120600390910201805490915060021461055d57604051631afa378d60e21b815260040160405180910390fd5b6002810154610100900460ff168061057f5750600281015462010000900460ff165b1561059d57604051631afa378d60e21b815260040160405180910390fd5b60018101546105da906001600160a01b037f0000000000000000000000000000000000000000000000000000000000000000169033903090611aa4565b60028160010160008282546105ef919061286d565b909155505060028101805460ff19166001179055600061060e83611b11565b8254600180820185556000858152602090819020818404018054601f9094166101000a60ff8181021990951686861691820217909155600688015460408051928352928201939093529190921681830152905191925085916000805160206129e9833981519152916060908290030190a260068301546040518591600080516020612a09833981519152916106ab9160039160ff90911690612884565b60405180910390a28154604080516020808402820181019092528281526015926107299286919083018282801561071f57602002820191906000526020600020906000905b825461010083900a900460ff168152602060019283018181049485019490930390920291018084116106f05790505b5050505050611c29565b60ff16111561074a5760028201805462ff000019166201000017905561075c565b60028201805461ff0019166101001790555b6107668385611cd9565b5050506107736001600055565b50565b61077e611a13565b6000818152600860205260408120908154600160a01b900460ff1660048111156107aa576107aa61264e565b14806107d2575060048154600160a01b900460ff1660048111156107d0576107d061264e565b145b156107f057604051636e2ab89360e11b815260040160405180910390fd5b610100816003015461080291906128a3565b43101561082257604051637e22a63960e11b815260040160405180910390fd5b6000805b60048301548110156108785782600401818154811061084757610847612841565b9060005260206000209060030201600101548261086491906128a3565b915080610870816128b6565b915050610826565b5080600003610888575060018101545b8154600160a21b60ff60a01b1982161783556001600160a01b031660009081526009602052604081205580156108f15781546108f1906001600160a01b037f00000000000000000000000000000000000000000000000000000000000000008116911683611d36565b827f0c076aae091fc919e8f23294e4131683c901d239b789df8a4b92e402546f09a18260405161092391815260200190565b60405180910390a250506107736001600055565b6000818152600860209081526040918290206005018054835181840281018401909452808452606093928301828280156109ae57602002820191906000526020600020906000905b825461010083900a900460ff1681526020600192830181810494850194909303909202910180841161097f5790505b50505050509050919050565b6000818152600860205260408120818154600160a01b900460ff1660048111156109e6576109e661264e565b1480610a0e575060048154600160a01b900460ff166004811115610a0c57610a0c61264e565b145b15610a1c5750600092915050565b6101008160030154610a2e91906128a3565b4310159392505050565b610a40611a13565b600082815260086020526040902080546001600160a01b03163314610a7857604051631794a8af60e11b815260040160405180910390fd5b60018154600160a01b900460ff166004811115610a9757610a9761264e565b14610ab55760405163baf3f0f760e01b815260040160405180910390fd5b80600301544311610ad95760405163c349402d60e01b815260040160405180910390fd5b60028101546040805160208101859052016040516020818303038152906040528051906020012014610b1e57604051639ea6d12760e01b815260040160405180910390fd5b6003810154406000819003610b3c57610b386001436128cf565b4090505b60408051602081018590529081018290524460608083019190915242608083015233901b6bffffffffffffffffffffffff191660a082015260b40160408051601f1981840301815291905280516020909101206007830155600482018054600101808255600082815291908290610bb557610bb5612841565b90600052602060002090600302019050826001015481600101819055506000610bdd84611b11565b90506000610bea85611b11565b90506000610bf786611b11565b90506000610c0487611b11565b855460018181018855600088815260208082208185048101805460ff808d16601f98891661010090810a91820291830219909316179092558c548087018e5584810490930180548c8416948916830a94850294840219169390931790925560058e0180548087018255818652848620858204810180548d8616938b16870a93840293860219169290921790915581549687019091558386040180548289169690971690920a94850294021990941692909217909255875460408051828402810184019091528181529394509192610d1592909189919083018282801561071f576000918252602091829020805460ff1684529082028301929091600191018084116106f05790505050505050611c29565b90508060ff166015148015610d2b575085546002145b15610d465760028601805463ff000000191663010000001790555b875460ff60a01b1916600160a11b1788556040805160ff8781168252868116602083015285168183015290518b917fad503ce701563a4231b888ef89f1b44f686b5113cddff93b979e0ea7a6507d24919081900360600190a260028601546301000000900460ff1615610dbd57610dbd888b611d6c565b5050505050505050610dcf6001600055565b5050565b610ddb611ed4565b610de56000611f01565b565b610def611ed4565b600491909155600555565b610e02611a13565b6000818152600860205260409020610e1981611a3d565b600681015460048201805460009260ff16908110610e3957610e39612841565b906000526020600020906003020190508060020160019054906101000a900460ff1615610e7957604051634a2fa1bd60e01b815260040160405180910390fd5b600281015462010000900460ff1615610ea557604051633fe4294d60e01b815260040160405180910390fd5b6002808201805461ff00191661010017905560068301546040518592600080516020612a0983398151915292610ee19260ff9190911690612884565b60405180910390a2610ef38284611cd9565b50506107736001600055565b600081815260086020526040812080546001820154600683015460058401546001600160a01b03841695600160a01b90940460ff908116959394921692829115610ff45780600501600081548110610f5957610f59612841565b60009182526020918290209181049091015460ff601f9092166101000a90041692506004866004811115610f8f57610f8f61264e565b03610ff457610ff18160050180548060200260200160405190810160405280929190818152602001828054801561071f576000918252602091829020805460ff1684529082028301929091600191018084116106f05790505050505050611c29565b91505b5091939550919395565b611006611ed4565b6001600160a01b0381166110545760405162461bcd60e51b815260206004820152601060248201526f125b9d985b1a590818985b9adc9bdb1b60821b60448201526064015b60405180910390fd5b600280546001600160a01b0319166001600160a01b0392909216919091179055565b6000611080611a13565b600454831080611091575060055483115b156110af5760405163aa82224960e01b815260040160405180910390fd5b33600090815260096020526040902054156110dd57604051633497d0d160e21b815260040160405180910390fd5b6000600654846110ed919061286d565b6002546040516372b3630d60e11b8152600481018390529192506001600160a01b03169063e566c61a90602401602060405180830381865afa158015611137573d6000803e3d6000fd5b505050506040513d601f19601f8201168201806040525081019061115b91906128e2565b61117857604051632c0861a960e01b815260040160405180910390fd5b6111ad6001600160a01b037f000000000000000000000000000000000000000000000000000000000000000016333087611aa4565b6007600081546111bc906128b6565b9182905550600081815260086020908152604080832080543360ff60a01b1981166001600160a81b031990921691909117600160a01b178255600182018a9055600282018990554360038301558085526009845293829020859055815189815292830188905281519496509386927f819c04c865bc6560b7b772974d04ce24e098ab93a71e46514cf95b6040f638d992908290030190a3505061125f6001600055565b92915050565b61126d611a13565b600081815260086020526040902061128481611a3d565b600681015460048201805460009260ff169081106112a4576112a4612841565b6000918252602090912060039091020180549091506002146112d9576040516311b0aa2b60e21b815260040160405180910390fd5b611317816000016001815481106112f2576112f2612841565b90600052602060002090602091828204019190069054906101000a900460ff16611f53565b60ff16611333826000016000815481106112f2576112f2612841565b60ff1614611354576040516311b0aa2b60e21b815260040160405180910390fd5b60048281015410611378576040516311b0aa2b60e21b815260040160405180910390fd5b60018201546113b5906001600160a01b037f0000000000000000000000000000000000000000000000000000000000000000169033903090611aa4565b6000816000016001815481106113cd576113cd612841565b90600052602060002090602091828204019190069054906101000a900460ff1690508160000180548061140257611402612904565b60008281526020808220600019909301908104909201805460ff601f85166101000a02191690559155600484018054600190810180835582845261144691906128cf565b8154811061145657611456612841565b6000918252602080832060018089015460039094029091018181019390935582549081018355828452818420918104909101805460ff808816601f9094166101000a9384029302191691909117905591506114b085611b11565b905060006114bd86611b11565b85546001808201885560008881526020808220818504018054601f95861661010090810a60ff818102199093168b8416918202179093558a548087018c558b86529484902084860401805495909716900a80820219909416878216949094029390931790945560068b0154604080519586529185019390935291169082015290915087906000805160206129e98339815191529060600160405180910390a2866000805160206129e9833981519152826001808a6004018054905061158291906128cf565b6040805160ff9485168152921515602084015292168183015290519081900360600190a260068601546040518891600080516020612a09833981519152916115d29160049160ff90911690612884565b60405180910390a25050505050506107736001600055565b6115f2611ed4565b6001600160a01b0381166116405760405162461bcd60e51b8152602060048201526015602482015274125b9d985b1a5908199959481c9958da5c1a595b9d605a1b604482015260640161104b565b600380546001600160a01b0319166001600160a01b0392909216919091179055565b61166a611a13565b600081815260086020526040902061168181611a3d565b600681015460048201805460009260ff169081106116a1576116a1612841565b906000526020600020906003020190508060020160019054906101000a900460ff16156116e157604051634a2fa1bd60e01b815260040160405180910390fd5b600281015462010000900460ff161561170d57604051633fe4294d60e01b815260040160405180910390fd5b600061171883611b11565b8254600180820185556000858152602090819020818404018054601f9094166101000a60ff8181021990951686861691820217909155600688015460408051928352928201939093529190921681830152905191925085916000805160206129e9833981519152916060908290030190a260068301546040518591600080516020612a09833981519152916117b59160019160ff90911690612884565b60405180910390a28154604080516020808402820181019092528281526015926118179286919083018282801561071f576000918252602091829020805460ff1684529082028301929091600191018084116106f05790505050505050611c29565b60ff1611156107665760028201805462ff00001916620100001790556107668385611cd9565b611845611ed4565b6001600160a01b03811661186f57604051631e4fbdf760e01b81526000600482015260240161104b565b61077381611f01565b60008281526008602052604081206004810154606092918291829182918291829160ff8a16106118d95760405162461bcd60e51b815260206004820152600c60248201526b125b9d985b1a59081a185b9960a21b604482015260640161104b565b6000816004018a60ff16815481106118f3576118f3612841565b906000526020600020906003020190508060000180548060200260200160405190810160405280929190818152602001828054801561196f57602002820191906000526020600020906000905b825461010083900a900460ff168152602060019283018181049485019490930390920291018084116119405790505b50505050509850806001015497506119da8160000180548060200260200160405190810160405280929190818152602001828054801561071f576000918252602091829020805460ff1684529082028301929091600191018084116106f05790505050505050611c29565b600290910154989b979a5098505060ff808816976101008104821697620100008204831697506301000000909104909116945092505050565b600260005403611a3657604051633ee5aeb560e01b815260040160405180910390fd5b6002600055565b80546001600160a01b03163314611a6757604051631794a8af60e11b815260040160405180910390fd5b60028154600160a01b900460ff166004811115611a8657611a8661264e565b146107735760405163baf3f0f760e01b815260040160405180910390fd5b6040516001600160a01b038481166024830152838116604483015260648201839052611b0b9186918216906323b872dd906084015b604051602081830303815290604052915060e01b6020820180516001600160e01b038381831617835250505050611f9d565b50505050565b60008060005b6007840154600885015460408051602081019390935260f89190911b6001600160f81b031916908201526041810182905260009060610160408051601f1981840301815291905280516020909101209050611b73603482612930565b925081611b7f816128b6565b92505060c88210611bc55760405162461bcd60e51b815260206004820152601060248201526f10d85c9908191c985dc819985a5b195960821b604482015260640161104b565b506009840154600160ff84161b16600003611b1757600984018054600160ff8581169190911b909117909155600885018054909116906000611c0683612944565b91906101000a81548160ff021916908360ff160217905550508192505050919050565b60008080805b8451811015611c96576000611c5c868381518110611c4f57611c4f612841565b6020026020010151611f53565b9050611c688185612963565b93508060ff16600b03611c835782611c7f81612944565b9350505b5080611c8e816128b6565b915050611c2f565b505b60158260ff16118015611cae575060008160ff16115b15611cd257611cbe600a8361297c565b915080611cca81612995565b915050611c98565b5092915050565b60048201546006830154611cf19060ff166001612963565b60ff161015611d2c5760068201805460ff16906000611d0f83612944565b91906101000a81548160ff021916908360ff160217905550505050565b610dcf8282611d6c565b6040516001600160a01b03838116602483015260448201839052611d6791859182169063a9059cbb90606401611ad9565b505050565b815460ff60a01b1916600360a01b178255600160005b6004840154811015611de157836004018181548110611da357611da3612841565b906000526020600020906003020160020160029054906101000a900460ff16611dcf5760009150611de1565b80611dd9816128b6565b915050611d82565b5080611eca575b6011611e478460050180548060200260200160405190810160405280929190818152602001828054801561071f576000918252602091829020805460ff1684529082028301929091600191018084116106f05790505050505050611c29565b60ff161015611eca576000611e5b84611b11565b6005850180546001810182556000918252602080832081830401805460ff868116601f9095166101000a8581029102199091161790556040805192835290820183905281019190915290915083906000805160206129e98339815191529060600160405180910390a250611de8565b611d67838361200e565b6001546001600160a01b03163314610de55760405163118cdaa760e01b815233600482015260240161104b565b600180546001600160a01b038381166001600160a01b0319831681179093556040519116919082907f8be0079c531659141344cd1fd0a4f28419497f9722a3daafe3b4186f6b6457e090600090a35050565b600080611f61600d846129b2565b90508060ff16600003611f775750600b92915050565b600a8160ff1610611f8b5750600a92915050565b611f96816001612963565b9392505050565b600080602060008451602086016000885af180611fc0576040513d6000823e3d81fd5b50506000513d91508115611fd8578060011415611fe5565b6001600160a01b0384163b155b15611b0b57604051635274afe760e01b81526001600160a01b038516600482015260240161104b565b8154600160a21b60ff60a01b1982161783556001600160a01b031660009081526009602090815260408083208390556005850180548251818502810185019093528083526120919383018282801561071f576000918252602091829020805460ff1684529082028301929091600191018084116106f05790505050505050611c29565b9050601560ff8216818111916000911480156120b1575060058501546002145b905060008060005b60048801548110156122bf5760008860040182815481106120dc576120dc612841565b90600052602060002090600302019050600061214b8260000180548060200260200160405190810160405280929190818152602001828054801561071f576000918252602091829020805460ff1684529082028301929091600191018084116106f05790505050505050611c29565b905060008083600101548761216091906128a3565b600285015490975062010000900460ff161561217f5760009150612255565b60028401546301000000900460ff168015612198575087155b156121d4576002600385600101546121b0919061286d565b6121ba91906129d4565b84600101546121c991906128a3565b915060019050612255565b60028401546301000000900460ff1680156121ec5750875b156121fd5783600101549150612255565b871561220c5760009150612255565b88156122225760018401546121c990600261286d565b8960ff168360ff1611156122405760018401546121c990600261286d565b8960ff168360ff160361225557836001015491505b61225f82876128a3565b6040805160ff88168152602081018590528315158183015290519197508c917f7db10ee717d8af2815ac8010407deccb6b1559a9b5946fb45d3cb0ccecb6d35b9181900360600190a25050505080806122b7906128b6565b9150506120b9565b50818111156123e75760006122d483836128cf565b905060006127106122e660648461286d565b6122f091906129d4565b60025460405163093cc7db60e41b8152306004820152602481018590529192506001600160a01b0316906393cc7db090604401600060405180830381600087803b15801561233d57600080fd5b505af1158015612351573d6000803e3d6000fd5b505050506000818461236391906128cf565b8a5490915061239f906001600160a01b037f00000000000000000000000000000000000000000000000000000000000000008116911683611d36565b81156123df576003546123df906001600160a01b037f00000000000000000000000000000000000000000000000000000000000000008116911684611d36565b505050612513565b818110156124da5760006123fb82846128cf565b9050811561243c57875461243c906001600160a01b037f00000000000000000000000000000000000000000000000000000000000000008116911684611d36565b600254612476906001600160a01b037f00000000000000000000000000000000000000000000000000000000000000008116911683612556565b60025460405163033c19ab60e41b8152600481018390526001600160a01b03909116906333c19ab090602401600060405180830381600087803b1580156124bc57600080fd5b505af11580156124d0573d6000803e3d6000fd5b5050505050612513565b8654612513906001600160a01b037f00000000000000000000000000000000000000000000000000000000000000008116911683611d36565b857f0c076aae091fc919e8f23294e4131683c901d239b789df8a4b92e402546f09a18260405161254591815260200190565b60405180910390a250505050505050565b604080516001600160a01b038416602482015260448082018490528251808303909101815260649091019091526020810180516001600160e01b031663095ea7b360e01b1790526125a784826125e6565b611b0b576040516001600160a01b038481166024830152600060448301526125dc91869182169063095ea7b390606401611ad9565b611b0b8482611f9d565b6000806000806020600086516020880160008a5af192503d9150600051905082801561262b5750811561261c578060011461262b565b6000866001600160a01b03163b115b9695505050505050565b60006020828403121561264757600080fd5b5035919050565b634e487b7160e01b600052602160045260246000fd5b6005811061077357634e487b7160e01b600052602160045260246000fd5b6001600160a01b038a168152610120810161269c8a612664565b602082019990995260408101979097526060870195909552608086019390935260ff91821660a086015260c08501521660e083015261010090910152919050565b600081518084526020808501945080840160005b8381101561271057815160ff16875295820195908201906001016126f1565b509495945050505050565b602081526000611f9660208301846126dd565b6000806040838503121561274157600080fd5b50508035926020909101359150565b6001600160a01b038716815260c0810161276987612664565b6020820196909652604081019490945260ff928316606085015290821660808401521660a090910152919050565b6000602082840312156127a957600080fd5b81356001600160a01b0381168114611f9657600080fd5b600080604083850312156127d357600080fd5b82359150602083013560ff811681146127eb57600080fd5b809150509250929050565b60e08152600061280960e083018a6126dd565b60208301989098525060ff95909516604086015292151560608501529015156080840152151560a0830152151560c090910152919050565b634e487b7160e01b600052603260045260246000fd5b634e487b7160e01b600052601160045260246000fd5b808202811582820484141761125f5761125f612857565b6040810161289184612664565b92815260ff9190911660209091015290565b8082018082111561125f5761125f612857565b6000600182016128c8576128c8612857565b5060010190565b8181038181111561125f5761125f612857565b6000602082840312156128f457600080fd5b81518015158114611f9657600080fd5b634e487b7160e01b600052603160045260246000fd5b634e487b7160e01b600052601260045260246000fd5b60008261293f5761293f61291a565b500690565b600060ff821660ff810361295a5761295a612857565b60010192915050565b60ff818116838216019081111561125f5761125f612857565b60ff828116828216039081111561125f5761125f612857565b600060ff8216806129a8576129a8612857565b6000190192915050565b600060ff8316806129c5576129c561291a565b8060ff84160691505092915050565b6000826129e3576129e361291a565b50049056febe174eaf1cde5c436c1b1166d492403c40b06a51d71450c94cf766c864228fa46f2ae857db94db32634d66fe24be302bc3d127eb0415c82b0464e5f700863151a264697066735822122039163ceea0bb1d085397c3e9b28e93fb8f591073eedea8711f67819ac1c9c57464736f6c63430008140033",
  "linkReferences": {},
  "deployedLinkReferences": {}
}