{
  "_format": "hh-sol-artifact-1",
  "contractName": "ShellDice",
  "sourceName": "contracts/ShellDice.sol",
  "abi": [
    {
      "inputs": [
        {
          "internalType": "address",
          "name": "_shellToken",
          "type": "address"
        }
      ],
      "stateMutability": "nonpayable",
      "type": "constructor"
    },
    {
      "inputs": [
        {
          "internalType": "address",
          "name": "owner",
          "type": "address"
        }
      ],
      "name": "OwnableInvalidOwner",
      "type": "error"
    },
    {
      "inputs": [
        {
          "internalType": "address",
          "name": "account",
          "type": "address"
        }
      ],
      "name": "OwnableUnauthorizedAccount",
      "type": "error"
    },
    {
      "inputs": [],
      "name": "ReentrancyGuardReentrantCall",
      "type": "error"
    },
    {
      "inputs": [
        {
          "internalType": "address",
          "name": "token",
          "type": "address"
        }
      ],
      "name": "SafeERC20FailedOperation",
      "type": "error"
    },
    {
      "anonymous": false,
      "inputs": [
        {
          "indexed": true,
          "internalType": "address",
          "name": "agent",
          "type": "address"
        },
        {
          "indexed": false,
          "internalType": "string",
          "name": "name",
          "type": "string"
        }
      ],
      "name": "AgentVerified",
      "type": "event"
    },
    {
      "anonymous": false,
      "inputs": [
        {
          "indexed": true,
          "internalType": "uint256",
          "name": "rollId",
          "type": "uint256"
        },
        {
          "indexed": true,
          "internalType": "address",
          "name": "player",
          "type": "address"
        },
        {
          "indexed": false,
          "internalType": "uint256",
          "name": "betAmount",
          "type": "uint256"
        },
        {
          "indexed": false,
          "internalType": "uint8",
          "name": "targetNumber",
          "type": "uint8"
        },
        {
          "indexed": false,
          "internalType": "uint8",
          "name": "rolledNumber",
          "type": "uint8"
        },
        {
          "indexed": false,
          "internalType": "uint256",
          "name": "payout",
          "type": "uint256"
        },
        {
          "indexed": false,
          "internalType": "bool",
          "name": "won",
          "type": "bool"
        }
      ],
      "name": "DiceRolled",
      "type": "event"
    },
    {
      "anonymous": false,
      "inputs": [
        {
          "indexed": false,
          "internalType": "uint256",
          "name": "amount",
          "type": "uint256"
        }
      ],
      "name": "HouseFunded",
      "type": "event"
    },
    {
      "anonymous": false,
      "inputs": [
        {
          "indexed": true,
          "internalType": "address",
          "name": "previousOwner",
          "type": "address"
        },
        {
          "indexed": true,
          "internalType": "address",
          "name": "newOwner",
          "type": "address"
        }
      ],
      "name": "OwnershipTransferred",
      "type": "event"
    },
    {
      "inputs": [
        {
          "internalType": "address",
          "name": "",
          "type": "address"
        }
      ],
      "name": "agentNames",
      "outputs": [
        {
          "internalType": "string",
          "name": "",
          "type": "string"
        }
      ],
      "stateMutability": "view",
      "type": "function"
    },
    {
      "inputs": [
        {
          "internalType": "uint256",
          "name": "amount",
          "type": "uint256"
        }
      ],
      "name": "fundHouse",
      "outputs": [],
      "stateMutability": "nonpayable",
      "type": "function"
    },
    {
      "inputs": [
        {
          "internalType": "address",
          "name": "agent",
          "type": "address"
        }
      ],
      "name": "getAgentStats",
      "outputs": [
        {
          "internalType": "uint256",
          "name": "_wins",
          "type": "uint256"
        },
        {
          "internalType": "uint256",
          "name": "_losses",
          "type": "uint256"
        },
        {
          "internalType": "uint256",
          "name": "_totalWagered",
          "type": "uint256"
        },
        {
          "internalType": "int256",
          "name": "_profitLoss",
          "type": "int256"
        },
        {
          "internalType": "string",
          "name": "_name",
          "type": "string"
        }
      ],
      "stateMutability": "view",
      "type": "function"
    },
    {
      "inputs": [],
      "name": "getHouseBalance",
      "outputs": [
        {
          "internalType": "uint256",
          "name": "",
          "type": "uint256"
        }
      ],
      "stateMutability": "view",
      "type": "function"
    },
    {
      "inputs": [
        {
          "internalType": "uint8",
          "name": "targetNumber",
          "type": "uint8"
        }
      ],
      "name": "getMultiplier",
      "outputs": [
        {
          "internalType": "uint256",
          "name": "",
          "type": "uint256"
        }
      ],
      "stateMutability": "view",
      "type": "function"
    },
    {
      "inputs": [
        {
          "internalType": "address",
          "name": "player",
          "type": "address"
        },
        {
          "internalType": "uint256",
          "name": "count",
          "type": "uint256"
        }
      ],
      "name": "getPlayerRolls",
      "outputs": [
        {
          "components": [
            {
              "internalType": "address",
              "name": "player",
              "type": "address"
            },
            {
              "internalType": "uint256",
              "name": "betAmount",
              "type": "uint256"
            },
            {
              "internalType": "uint8",
              "name": "targetNumber",
              "type": "uint8"
            },
            {
              "internalType": "uint8",
              "name": "rolledNumber",
              "type": "uint8"
            },
            {
              "internalType": "uint256",
              "name": "payout",
              "type": "uint256"
            },
            {
              "internalType": "bool",
              "name": "won",
              "type": "bool"
            },
            {
              "internalType": "uint256",
              "name": "timestamp",
              "type": "uint256"
            }
          ],
          "internalType": "struct ShellDice.DiceRoll[]",
          "name": "",
          "type": "tuple[]"
        }
      ],
      "stateMutability": "view",
      "type": "function"
    },
    {
      "inputs": [
        {
          "internalType": "uint256",
          "name": "count",
          "type": "uint256"
        }
      ],
      "name": "getRecentRolls",
      "outputs": [
        {
          "components": [
            {
              "internalType": "address",
              "name": "player",
              "type": "address"
            },
            {
              "internalType": "uint256",
              "name": "betAmount",
              "type": "uint256"
            },
            {
              "internalType": "uint8",
              "name": "targetNumber",
              "type": "uint8"
            },
            {
              "internalType": "uint8",
              "name": "rolledNumber",
              "type": "uint8"
            },
            {
              "internalType": "uint256",
              "name": "payout",
              "type": "uint256"
            },
            {
              "internalType": "bool",
              "name": "won",
              "type": "bool"
            },
            {
              "internalType": "uint256",
              "name": "timestamp",
              "type": "uint256"
            }
          ],
          "internalType": "struct ShellDice.DiceRoll[]",
          "name": "",
          "type": "tuple[]"
        }
      ],
      "stateMutability": "view",
      "type": "function"
    },
    {
      "inputs": [
        {
          "internalType": "uint256",
          "name": "rollId",
          "type": "uint256"
        }
      ],
      "name": "getRoll",
      "outputs": [
        {
          "components": [
            {
              "internalType": "address",
              "name": "player",
              "type": "address"
            },
            {
              "internalType": "uint256",
              "name": "betAmount",
              "type": "uint256"
            },
            {
              "internalType": "uint8",
              "name": "targetNumber",
              "type": "uint8"
            },
            {
              "internalType": "uint8",
              "name": "rolledNumber",
              "type": "uint8"
            },
            {
              "internalType": "uint256",
              "name": "payout",
              "type": "uint256"
            },
            {
              "internalType": "bool",
              "name": "won",
              "type": "bool"
            },
            {
              "internalType": "uint256",
              "name": "timestamp",
              "type": "uint256"
            }
          ],
          "internalType": "struct ShellDice.DiceRoll",
          "name": "",
          "type": "tuple"
        }
      ],
      "stateMutability": "view",
      "type": "function"
    },
    {
      "inputs": [
        {
          "internalType": "uint8",
          "name": "targetNumber",
          "type": "uint8"
        }
      ],
      "name": "getWinChance",
      "outputs": [
        {
          "internalType": "uint256",
          "name": "",
          "type": "uint256"
        }
      ],
      "stateMutability": "pure",
      "type": "function"
    },
    {
      "inputs": [],
      "name": "houseEdgeBps",
      "outputs": [
        {
          "internalType": "uint256",
          "name": "",
          "type": "uint256"
        }
      ],
      "stateMutability": "view",
      "type": "function"
    },
    {
      "inputs": [],
      "name": "houseProfitLoss",
      "outputs": [
        {
          "internalType": "int256",
          "name": "",
          "type": "int256"
        }
      ],
      "stateMutability": "view",
      "type": "function"
    },
    {
      "inputs": [
        {
          "internalType": "address",
          "name": "",
          "type": "address"
        }
      ],
      "name": "losses",
      "outputs": [
        {
          "internalType": "uint256",
          "name": "",
          "type": "uint256"
        }
      ],
      "stateMutability": "view",
      "type": "function"
    },
    {
      "inputs": [],
      "name": "maxBet",
      "outputs": [
        {
          "internalType": "uint256",
          "name": "",
          "type": "uint256"
        }
      ],
      "stateMutability": "view",
      "type": "function"
    },
    {
      "inputs": [],
      "name": "minBet",
      "outputs": [
        {
          "internalType": "uint256",
          "name": "",
          "type": "uint256"
        }
      ],
      "stateMutability": "view",
      "type": "function"
    },
    {
      "inputs": [],
      "name": "owner",
      "outputs": [
        {
          "internalType": "address",
          "name": "",
          "type": "address"
        }
      ],
      "stateMutability": "view",
      "type": "function"
    },
    {
      "inputs": [
        {
          "internalType": "address",
          "name": "",
          "type": "address"
        },
        {
          "internalType": "uint256",
          "name": "",
          "type": "uint256"
        }
      ],
      "name": "playerRollIds",
      "outputs": [
        {
          "internalType": "uint256",
          "name": "",
          "type": "uint256"
        }
      ],
      "stateMutability": "view",
      "type": "function"
    },
    {
      "inputs": [
        {
          "internalType": "address",
          "name": "",
          "type": "address"
        }
      ],
      "name": "profitLoss",
      "outputs": [
        {
          "internalType": "int256",
          "name": "",
          "type": "int256"
        }
      ],
      "stateMutability": "view",
      "type": "function"
    },
    {
      "inputs": [
        {
          "internalType": "string",
          "name": "name",
          "type": "string"
        }
      ],
      "name": "registerAgent",
      "outputs": [],
      "stateMutability": "nonpayable",
      "type": "function"
    },
    {
      "inputs": [],
      "name": "renounceOwnership",
      "outputs": [],
      "stateMutability": "nonpayable",
      "type": "function"
    },
    {
      "inputs": [
        {
          "internalType": "uint256",
          "name": "betAmount",
          "type": "uint256"
        },
        {
          "internalType": "uint8",
          "name": "targetNumber",
          "type": "uint8"
        }
      ],
      "name": "rollDice",
      "outputs": [
        {
          "internalType": "uint256",
          "name": "",
          "type": "uint256"
        }
      ],
      "stateMutability": "nonpayable",
      "type": "function"
    },
    {
      "inputs": [
        {
          "internalType": "uint256",
          "name": "",
          "type": "uint256"
        }
      ],
      "name": "rollHistory",
      "outputs": [
        {
          "internalType": "address",
          "name": "player",
          "type": "address"
        },
        {
          "internalType": "uint256",
          "name": "betAmount",
          "type": "uint256"
        },
        {
          "internalType": "uint8",
          "name": "targetNumber",
          "type": "uint8"
        },
        {
          "internalType": "uint8",
          "name": "rolledNumber",
          "type": "uint8"
        },
        {
          "internalType": "uint256",
          "name": "payout",
          "type": "uint256"
        },
        {
          "internalType": "bool",
          "name": "won",
          "type": "bool"
        },
        {
          "internalType": "uint256",
          "name": "timestamp",
          "type": "uint256"
        }
      ],
      "stateMutability": "view",
      "type": "function"
    },
    {
      "inputs": [
        {
          "internalType": "uint256",
          "name": "_min",
          "type": "uint256"
        },
        {
          "internalType": "uint256",
          "name": "_max",
          "type": "uint256"
        }
      ],
      "name": "setBetLimits",
      "outputs": [],
      "stateMutability": "nonpayable",
      "type": "function"
    },
    {
      "inputs": [
        {
          "internalType": "uint256",
          "name": "_edgeBps",
          "type": "uint256"
        }
      ],
      "name": "setHouseEdge",
      "outputs": [],
      "stateMutability": "nonpayable",
      "type": "function"
    },
    {
      "inputs": [],
      "name": "shellToken",
      "outputs": [
        {
          "internalType": "contract IERC20",
          "name": "",
          "type": "address"
        }
      ],
      "stateMutability": "view",
      "type": "function"
    },
    {
      "inputs": [],
      "name": "totalGamesPlayed",
      "outputs": [
        {
          "internalType": "uint256",
          "name": "",
          "type": "uint256"
        }
      ],
      "stateMutability": "view",
      "type": "function"
    },
    {
      "inputs": [],
      "name": "totalVolume",
      "outputs": [
        {
          "internalType": "uint256",
          "name": "",
          "type": "uint256"
        }
      ],
      "stateMutability": "view",
      "type": "function"
    },
    {
      "inputs": [
        {
          "internalType": "address",
          "name": "",
          "type": "address"
        }
      ],
      "name": "totalWagered",
      "outputs": [
        {
          "internalType": "uint256",
          "name": "",
          "type": "uint256"
        }
      ],
      "stateMutability": "view",
      "type": "function"
    },
    {
      "inputs": [
        {
          "internalType": "address",
          "name": "newOwner",
          "type": "address"
        }
      ],
      "name": "transferOwnership",
      "outputs": [],
      "stateMutability": "nonpayable",
      "type": "function"
    },
    {
      "inputs": [
        {
          "internalType": "address",
          "name": "",
          "type": "address"
        }
      ],
      "name": "verifiedAgents",
      "outputs": [
        {
          "internalType": "bool",
          "name": "",
          "type": "bool"
        }
      ],
      "stateMutability": "view",
      "type": "function"
    },
    {
      "inputs": [
        {
          "internalType": "address",
          "name": "",
          "type": "address"
        }
      ],
      "name": "wins",
      "outputs": [
        {
          "internalType": "uint256",
          "name": "",
          "type": "uint256"
        }
      ],
      "stateMutability": "view",
      "type": "function"
    },
    {
      "inputs": [
        {
          "internalType": "address",
          "name": "to",
          "type": "address"
        },
        {
          "internalType": "uint256",
          "name": "amount",
          "type": "uint256"
        }
      ],
      "name": "withdrawProfit",
      "outputs": [],
      "stateMutability": "nonpayable",
      "type": "function"
    }
  ],
  "bytecode": "0x60a0604052670de0b6b3a764000060025568056bc75e2d6310000060035560c86004553480156200002f57600080fd5b5060405162001e4638038062001e468339810160408190526200005291620000ee565b600160005533806200007e57604051631e4fbdf760e01b81526000600482015260240160405180910390fd5b62000089816200009c565b506001600160a01b031660805262000120565b600180546001600160a01b038381166001600160a01b0319831681179093556040519116919082907f8be0079c531659141344cd1fd0a4f28419497f9722a3daafe3b4186f6b6457e090600090a35050565b6000602082840312156200010157600080fd5b81516001600160a01b03811681146200011957600080fd5b9392505050565b608051611ce062000166600039600081816102e40152818161050e01528181610c9901528181610d5c01528181610e8e015281816111c201526114090152611ce06000f3fe608060405234801561001057600080fd5b50600436106101e45760003560e01c8063715018a61161010f578063ae82455f116100a2578063d35c9a0711610071578063d35c9a0714610463578063ef4834ad14610476578063f10677d2146104d0578063f2fde38b146104e357600080fd5b8063ae82455f146103cc578063b111dfac146103ff578063b5695b381461041f578063c903c2331461044357600080fd5b80638746cf98116100de5780638746cf981461037f5780638da5cb5b146103925780639619367d146103a3578063a784cb11146103ac57600080fd5b8063715018a614610331578063734c5abe146103395780637687dd491461034c5780638047a97a1461035f57600080fd5b80632e5b2168116101875780635c492129116101565780635c492129146102cd5780635f81a57c146102d65780636aae314c146102df5780636cd0f1021461031e57600080fd5b80632e5b216814610288578063340988f814610291578063470762e9146102a4578063471d1239146102c457600080fd5b8063159dec6e116101c3578063159dec6e146102205780631867e88c146102405780632cbc1660146102535780632d2a95851461027357600080fd5b8062998421146101e957806305a8d569146102055780630b072b8d1461020d575b600080fd5b6101f260045481565b6040519081526020015b60405180910390f35b6101f26104f6565b6101f261021b36600461175e565b610586565b61023361022e366004611780565b61063a565b6040516101fc91906117ed565b61023361024e366004611852565b610785565b61026661026136600461187c565b610908565b6040516101fc91906118dd565b6102866102813660046118f0565b6109a2565b005b6101f260035481565b6101f261029f366004611852565b610a64565b6101f26102b236600461187c565b600c6020526000908152604090205481565b6101f260075481565b6101f260055481565b6101f260065481565b6103067f000000000000000000000000000000000000000000000000000000000000000081565b6040516001600160a01b0390911681526020016101fc565b61028661032c366004611780565b610a95565b610286610ae4565b6101f2610347366004611962565b610af8565b61028661035a36600461198e565b611162565b6101f261036d36600461187c565b600a6020526000908152604090205481565b61028661038d366004611780565b6111b5565b6001546001600160a01b0316610306565b6101f260025481565b6103bf6103ba366004611780565b611220565b6040516101fc91906119b0565b6103ef6103da36600461187c565b60086020526000908152604090205460ff1681565b60405190151581526020016101fc565b6101f261040d36600461187c565b600d6020526000908152604090205481565b61043261042d36600461187c565b6112b6565b6040516101fc9594939291906119be565b6101f261045136600461187c565b600b6020526000908152604090205481565b610286610471366004611852565b6113a2565b610489610484366004611780565b61144b565b604080516001600160a01b039098168852602088019690965260ff948516958701959095529290911660608501526080840152151560a083015260c082015260e0016101fc565b6101f26104de36600461175e565b6114ac565b6102866104f136600461187c565b611511565b6040516370a0823160e01b81523060048201526000907f00000000000000000000000000000000000000000000000000000000000000006001600160a01b0316906370a0823190602401602060405180830381865afa15801561055d573d6000803e3d6000fd5b505050506040513d601f19601f8201168201806040525081019061058191906119f4565b905090565b600060028260ff16101580156105a0575060628260ff1611155b6105e25760405162461bcd60e51b815260206004820152600e60248201526d125b9d985b1a59081d185c99d95d60921b60448201526064015b60405180910390fd5b60006105f2600160ff8516611a23565b905060006106098268056bc75e2d63100000611a4c565b905061271060045461271061061e9190611a23565b6106289083611a60565b6106329190611a4c565b949350505050565b600e546060908083111561064c578092505b60008367ffffffffffffffff81111561066757610667611a77565b6040519080825280602002602001820160405280156106a057816020015b61068d61170c565b8152602001906001900390816106855790505b50905060005b8481101561077d57600e816106bc600186611a23565b6106c69190611a23565b815481106106d6576106d6611a8d565b60009182526020918290206040805160e081018252600690930290910180546001600160a01b03168352600181015493830193909352600283015460ff8082169284019290925261010090048116606083015260038301546080830152600483015416151560a082015260059091015460c0820152825183908390811061075f5761075f611a8d565b6020026020010181905250808061077590611aa3565b9150506106a6565b509392505050565b6001600160a01b0382166000908152600f60205260409020805460609190808411156107af578093505b60008467ffffffffffffffff8111156107ca576107ca611a77565b60405190808252806020026020018201604052801561080357816020015b6107f061170c565b8152602001906001900390816107e85790505b50905060005b858110156108fc57600e8482610820600187611a23565b61082a9190611a23565b8154811061083a5761083a611a8d565b90600052602060002001548154811061085557610855611a8d565b60009182526020918290206040805160e081018252600690930290910180546001600160a01b03168352600181015493830193909352600283015460ff8082169284019290925261010090048116606083015260038301546080830152600483015416151560a082015260059091015460c082015282518390839081106108de576108de611a8d565b602002602001018190525080806108f490611aa3565b915050610809565b50925050505b92915050565b6009602052600090815260409020805461092190611abc565b80601f016020809104026020016040519081016040528092919081815260200182805461094d90611abc565b801561099a5780601f1061096f5761010080835404028352916020019161099a565b820191906000526020600020905b81548152906001019060200180831161097d57829003601f168201915b505050505081565b80158015906109b2575060208111155b6109ed5760405162461bcd60e51b815260206004820152600c60248201526b496e76616c6964206e616d6560a01b60448201526064016105d9565b336000908152600860209081526040808320805460ff1916600117905560099091529020610a1c828483611b44565b50336001600160a01b03167f45127b38457c2f5c381cad14d94b51d80a7700dfb7a910a1d816fee3d3e105918383604051610a58929190611c05565b60405180910390a25050565b600f6020528160005260406000208181548110610a8057600080fd5b90600052602060002001600091509150505481565b610a9d61154f565b6101f4811115610adf5760405162461bcd60e51b815260206004820152600d60248201526c08ac8ceca40e8dede40d0d2ced609b1b60448201526064016105d9565b600455565b610aec61154f565b610af6600061157c565b565b3360009081526008602052604081205460ff16610b4e5760405162461bcd60e51b8152602060048201526014602482015273139bdd0818481d995c9a599a5959081859d95b9d60621b60448201526064016105d9565b610b566115ce565b6002548310158015610b6a57506003548311155b610ba95760405162461bcd60e51b815260206004820152601060248201526f426574206f7574206f662072616e676560801b60448201526064016105d9565b60028260ff1610158015610bc1575060628260ff1611155b610c035760405162461bcd60e51b81526020600482015260136024820152720a8c2e4cecae840daeae6e840c4ca40645a727606b1b60448201526064016105d9565b6000610c13600160ff8516611a23565b90506000610c2a8268056bc75e2d63100000611a4c565b90506000612710600454612710610c419190611a23565b610c4b9084611a60565b610c559190611a4c565b90506000670de0b6b3a7640000610c6c8389611a60565b610c769190611a4c565b6040516370a0823160e01b81523060048201529091506000906001600160a01b037f000000000000000000000000000000000000000000000000000000000000000016906370a0823190602401602060405180830381865afa158015610ce0573d6000803e3d6000fd5b505050506040513d601f19601f82011682018060405250810190610d0491906119f4565b905081811015610d4f5760405162461bcd60e51b8152602060048201526016602482015275121bdd5cd94818d85b9b9bdd0818dbdd995c8818995d60521b60448201526064016105d9565b610d846001600160a01b037f00000000000000000000000000000000000000000000000000000000000000001633308b6115f8565b600e54604051600091606491610dca91429144913391602001938452602084019290925260601b6bffffffffffffffffffffffff19166040830152605482015260740190565b6040516020818303038152906040528051906020012060001c610ded9190611c34565b610df8906001611c48565b905060ff8089169082161060008115610eba5750336000908152600a6020526040812080548692909190610e2b83611aa3565b90915550610e3b90508b82611a23565b336000908152600d602052604081208054909190610e5a908490611c5b565b90915550610e6a90508b82611a23565b60076000828254610e7b9190611c83565b90915550610eb590506001600160a01b037f0000000000000000000000000000000000000000000000000000000000000000163383611665565b610f18565b336000908152600b60205260408120805491610ed583611aa3565b9091555050336000908152600d6020526040812080548d9290610ef9908490611c83565b925050819055508a60076000828254610f129190611c5b565b90915550505b60058054906000610f2883611aa3565b91905055508a60066000828254610f3f9190611c48565b9091555050336000908152600c6020526040812080548d9290610f63908490611c48565b925050819055506000600e805490509050600e6040518060e00160405280336001600160a01b031681526020018e81526020018d60ff1681526020018660ff168152602001848152602001851515815260200142815250908060018154018082558091505060019003906000526020600020906006020160009091909190915060008201518160000160006101000a8154816001600160a01b0302191690836001600160a01b031602179055506020820151816001015560408201518160020160006101000a81548160ff021916908360ff16021790555060608201518160020160016101000a81548160ff021916908360ff1602179055506080820151816003015560a08201518160040160006101000a81548160ff02191690831515021790555060c082015181600501555050600f6000336001600160a01b03166001600160a01b03168152602001908152602001600020819080600181540180825580915050600190039060005260206000200160009091909190915055336001600160a01b0316817f30079891fa929cfa9bfa87ad7ad48cbdc0813321c22ff58772943abc7578ced48e8e88878960405161114695949392919094855260ff938416602086015291909216604084015260608301919091521515608082015260a00190565b60405180910390a3985050505050505050506109026001600055565b61116a61154f565b8082106111aa5760405162461bcd60e51b815260206004820152600e60248201526d496e76616c6964206c696d69747360901b60448201526064016105d9565b600291909155600355565b6111ea6001600160a01b037f0000000000000000000000000000000000000000000000000000000000000000163330846115f8565b6040518181527f73deb9e7af4f8bf96cc7c418c08e939dac5b9dcfde84519e70ca1ce08b9974189060200160405180910390a150565b61122861170c565b600e828154811061123b5761123b611a8d565b60009182526020918290206040805160e081018252600690930290910180546001600160a01b03168352600181015493830193909352600283015460ff8082169284019290925261010090048116606083015260038301546080830152600483015416151560a082015260059091015460c082015292915050565b6001600160a01b0381166000908152600a6020908152604080832054600b835281842054600c845282852054600d8552838620546009909552928520805486958695869560609590949093919291819061130f90611abc565b80601f016020809104026020016040519081016040528092919081815260200182805461133b90611abc565b80156113885780601f1061135d57610100808354040283529160200191611388565b820191906000526020600020905b81548152906001019060200180831161136b57829003601f168201915b505050505090509450945094509450945091939590929450565b6113aa61154f565b6007548113156113fc5760405162461bcd60e51b815260206004820181905260248201527f43616e6e6f74207769746864726177206d6f7265207468616e2070726f66697460448201526064016105d9565b6114306001600160a01b037f0000000000000000000000000000000000000000000000000000000000000000168383611665565b80600760008282546114429190611c83565b90915550505050565b600e818154811061145b57600080fd5b60009182526020909120600690910201805460018201546002830154600384015460048501546005909501546001600160a01b039094169550919360ff808316946101009093048116939291169087565b600060028260ff16101580156114c6575060628260ff1611155b6115035760405162461bcd60e51b815260206004820152600e60248201526d125b9d985b1a59081d185c99d95d60921b60448201526064016105d9565b610902600160ff8416611a23565b61151961154f565b6001600160a01b03811661154357604051631e4fbdf760e01b8152600060048201526024016105d9565b61154c8161157c565b50565b6001546001600160a01b03163314610af65760405163118cdaa760e01b81523360048201526024016105d9565b600180546001600160a01b038381166001600160a01b0319831681179093556040519116919082907f8be0079c531659141344cd1fd0a4f28419497f9722a3daafe3b4186f6b6457e090600090a35050565b6002600054036115f157604051633ee5aeb560e01b815260040160405180910390fd5b6002600055565b6040516001600160a01b03848116602483015283811660448301526064820183905261165f9186918216906323b872dd906084015b604051602081830303815290604052915060e01b6020820180516001600160e01b03838183161783525050505061169b565b50505050565b6040516001600160a01b0383811660248301526044820183905261169691859182169063a9059cbb9060640161162d565b505050565b600080602060008451602086016000885af1806116be576040513d6000823e3d81fd5b50506000513d915081156116d65780600114156116e3565b6001600160a01b0384163b155b1561165f57604051635274afe760e01b81526001600160a01b03851660048201526024016105d9565b6040805160e081018252600080825260208201819052918101829052606081018290526080810182905260a0810182905260c081019190915290565b803560ff8116811461175957600080fd5b919050565b60006020828403121561177057600080fd5b61177982611748565b9392505050565b60006020828403121561179257600080fd5b5035919050565b60018060a01b0381511682526020810151602083015260ff604082015116604083015260ff60608201511660608301526080810151608083015260a0810151151560a083015260c081015160c08301525050565b6020808252825182820181905260009190848201906040850190845b8181101561182f5761181c838551611799565b9284019260e09290920191600101611809565b50909695505050505050565b80356001600160a01b038116811461175957600080fd5b6000806040838503121561186557600080fd5b61186e8361183b565b946020939093013593505050565b60006020828403121561188e57600080fd5b6117798261183b565b6000815180845260005b818110156118bd576020818501810151868301820152016118a1565b506000602082860101526020601f19601f83011685010191505092915050565b6020815260006117796020830184611897565b6000806020838503121561190357600080fd5b823567ffffffffffffffff8082111561191b57600080fd5b818501915085601f83011261192f57600080fd5b81358181111561193e57600080fd5b86602082850101111561195057600080fd5b60209290920196919550909350505050565b6000806040838503121561197557600080fd5b8235915061198560208401611748565b90509250929050565b600080604083850312156119a157600080fd5b50508035926020909101359150565b60e081016109028284611799565b85815284602082015283604082015282606082015260a0608082015260006119e960a0830184611897565b979650505050505050565b600060208284031215611a0657600080fd5b5051919050565b634e487b7160e01b600052601160045260246000fd5b8181038181111561090257610902611a0d565b634e487b7160e01b600052601260045260246000fd5b600082611a5b57611a5b611a36565b500490565b808202811582820484141761090257610902611a0d565b634e487b7160e01b600052604160045260246000fd5b634e487b7160e01b600052603260045260246000fd5b600060018201611ab557611ab5611a0d565b5060010190565b600181811c90821680611ad057607f821691505b602082108103611af057634e487b7160e01b600052602260045260246000fd5b50919050565b601f82111561169657600081815260208120601f850160051c81016020861015611b1d5750805b601f850160051c820191505b81811015611b3c57828155600101611b29565b505050505050565b67ffffffffffffffff831115611b5c57611b5c611a77565b611b7083611b6a8354611abc565b83611af6565b6000601f841160018114611ba45760008515611b8c5750838201355b600019600387901b1c1916600186901b178355611bfe565b600083815260209020601f19861690835b82811015611bd55786850135825560209485019460019092019101611bb5565b5086821015611bf25760001960f88860031b161c19848701351681555b505060018560011b0183555b5050505050565b60208152816020820152818360408301376000818301604090810191909152601f909201601f19160101919050565b600082611c4357611c43611a36565b500690565b8082018082111561090257610902611a0d565b8082018281126000831280158216821582161715611c7b57611c7b611a0d565b505092915050565b8181036000831280158383131683831282161715611ca357611ca3611a0d565b509291505056fea264697066735822122056c6a3b080a663c912f0f948de8698fa10df9b0fcda1576f952137ea96ddf87b64736f6c63430008140033",
  "linkReferences": {},
  "deployedLinkReferences": {}
}