{
  "_format": "hh-sol-artifact-1",
  "contractName": "ShellCoinflip",
  "sourceName": "contracts/ShellCoinflip.sol",
  "abi": [
    {
      "inputs": [
        {
          "internalType": "address",
          "name": "_shellToken",
          "type": "address"
        }
      ],
      "stateMutability": "nonpayable",
      "type": "constructor"
    },
    {
      "inputs": [
        {
          "internalType": "address",
          "name": "owner",
          "type": "address"
        }
      ],
      "name": "OwnableInvalidOwner",
      "type": "error"
    },
    {
      "inputs": [
        {
          "internalType": "address",
          "name": "account",
          "type": "address"
        }
      ],
      "name": "OwnableUnauthorizedAccount",
      "type": "error"
    },
    {
      "inputs": [],
      "name": "ReentrancyGuardReentrantCall",
      "type": "error"
    },
    {
      "inputs": [
        {
          "internalType": "address",
          "name": "token",
          "type": "address"
        }
      ],
      "name": "SafeERC20FailedOperation",
      "type": "error"
    },
    {
      "anonymous": false,
      "inputs": [
        {
          "indexed": true,
          "internalType": "address",
          "name": "agent",
          "type": "address"
        },
        {
          "indexed": false,
          "internalType": "string",
          "name": "name",
          "type": "string"
        }
      ],
      "name": "AgentRegistered",
      "type": "event"
    },
    {
      "anonymous": false,
      "inputs": [
        {
          "indexed": true,
          "internalType": "address",
          "name": "agent",
          "type": "address"
        },
        {
          "indexed": false,
          "internalType": "string",
          "name": "name",
          "type": "string"
        }
      ],
      "name": "AgentVerified",
      "type": "event"
    },
    {
      "anonymous": false,
      "inputs": [
        {
          "indexed": true,
          "internalType": "address",
          "name": "agent",
          "type": "address"
        },
        {
          "indexed": true,
          "internalType": "address",
          "name": "verifier",
          "type": "address"
        }
      ],
      "name": "AgentVerifiedByMoltbook",
      "type": "event"
    },
    {
      "anonymous": false,
      "inputs": [
        {
          "indexed": true,
          "internalType": "uint256",
          "name": "gameId",
          "type": "uint256"
        },
        {
          "indexed": true,
          "internalType": "address",
          "name": "challenger",
          "type": "address"
        },
        {
          "indexed": true,
          "internalType": "address",
          "name": "challenged",
          "type": "address"
        },
        {
          "indexed": false,
          "internalType": "uint256",
          "name": "betAmount",
          "type": "uint256"
        }
      ],
      "name": "ChallengeIssued",
      "type": "event"
    },
    {
      "anonymous": false,
      "inputs": [
        {
          "indexed": true,
          "internalType": "uint256",
          "name": "gameId",
          "type": "uint256"
        }
      ],
      "name": "GameCancelled",
      "type": "event"
    },
    {
      "anonymous": false,
      "inputs": [
        {
          "indexed": true,
          "internalType": "uint256",
          "name": "gameId",
          "type": "uint256"
        },
        {
          "indexed": true,
          "internalType": "address",
          "name": "player1",
          "type": "address"
        },
        {
          "indexed": false,
          "internalType": "uint256",
          "name": "betAmount",
          "type": "uint256"
        },
        {
          "indexed": true,
          "internalType": "address",
          "name": "challenged",
          "type": "address"
        }
      ],
      "name": "GameCreated",
      "type": "event"
    },
    {
      "anonymous": false,
      "inputs": [
        {
          "indexed": true,
          "internalType": "uint256",
          "name": "gameId",
          "type": "uint256"
        },
        {
          "indexed": false,
          "internalType": "string",
          "name": "reason",
          "type": "string"
        }
      ],
      "name": "GameExpired",
      "type": "event"
    },
    {
      "anonymous": false,
      "inputs": [
        {
          "indexed": true,
          "internalType": "uint256",
          "name": "gameId",
          "type": "uint256"
        },
        {
          "indexed": true,
          "internalType": "address",
          "name": "player2",
          "type": "address"
        },
        {
          "indexed": false,
          "internalType": "uint8",
          "name": "choice",
          "type": "uint8"
        }
      ],
      "name": "GameJoined",
      "type": "event"
    },
    {
      "anonymous": false,
      "inputs": [
        {
          "indexed": true,
          "internalType": "uint256",
          "name": "gameId",
          "type": "uint256"
        },
        {
          "indexed": true,
          "internalType": "address",
          "name": "winner",
          "type": "address"
        },
        {
          "indexed": false,
          "internalType": "uint256",
          "name": "payout",
          "type": "uint256"
        }
      ],
      "name": "GameResolved",
      "type": "event"
    },
    {
      "anonymous": false,
      "inputs": [
        {
          "indexed": true,
          "internalType": "address",
          "name": "previousOwner",
          "type": "address"
        },
        {
          "indexed": true,
          "internalType": "address",
          "name": "newOwner",
          "type": "address"
        }
      ],
      "name": "OwnershipTransferred",
      "type": "event"
    },
    {
      "anonymous": false,
      "inputs": [
        {
          "indexed": true,
          "internalType": "address",
          "name": "verifier",
          "type": "address"
        },
        {
          "indexed": false,
          "internalType": "bool",
          "name": "status",
          "type": "bool"
        }
      ],
      "name": "VerifierUpdated",
      "type": "event"
    },
    {
      "inputs": [
        {
          "internalType": "address",
          "name": "",
          "type": "address"
        }
      ],
      "name": "agentNames",
      "outputs": [
        {
          "internalType": "string",
          "name": "",
          "type": "string"
        }
      ],
      "stateMutability": "view",
      "type": "function"
    },
    {
      "inputs": [
        {
          "internalType": "address",
          "name": "",
          "type": "address"
        }
      ],
      "name": "agentStatus",
      "outputs": [
        {
          "internalType": "enum ShellCoinflip.VerificationStatus",
          "name": "",
          "type": "uint8"
        }
      ],
      "stateMutability": "view",
      "type": "function"
    },
    {
      "inputs": [
        {
          "internalType": "address[]",
          "name": "agents",
          "type": "address[]"
        }
      ],
      "name": "batchVerifyAgents",
      "outputs": [],
      "stateMutability": "nonpayable",
      "type": "function"
    },
    {
      "inputs": [
        {
          "internalType": "uint256",
          "name": "gameId",
          "type": "uint256"
        }
      ],
      "name": "cancelGame",
      "outputs": [],
      "stateMutability": "nonpayable",
      "type": "function"
    },
    {
      "inputs": [
        {
          "internalType": "uint256",
          "name": "betAmount",
          "type": "uint256"
        },
        {
          "internalType": "bytes32",
          "name": "commitment",
          "type": "bytes32"
        },
        {
          "internalType": "address",
          "name": "opponent",
          "type": "address"
        }
      ],
      "name": "challengeAgent",
      "outputs": [
        {
          "internalType": "uint256",
          "name": "",
          "type": "uint256"
        }
      ],
      "stateMutability": "nonpayable",
      "type": "function"
    },
    {
      "inputs": [
        {
          "internalType": "address",
          "name": "",
          "type": "address"
        },
        {
          "internalType": "uint256",
          "name": "",
          "type": "uint256"
        }
      ],
      "name": "challengesReceived",
      "outputs": [
        {
          "internalType": "uint256",
          "name": "",
          "type": "uint256"
        }
      ],
      "stateMutability": "view",
      "type": "function"
    },
    {
      "inputs": [
        {
          "internalType": "address",
          "name": "",
          "type": "address"
        },
        {
          "internalType": "uint256",
          "name": "",
          "type": "uint256"
        }
      ],
      "name": "challengesSent",
      "outputs": [
        {
          "internalType": "uint256",
          "name": "",
          "type": "uint256"
        }
      ],
      "stateMutability": "view",
      "type": "function"
    },
    {
      "inputs": [
        {
          "internalType": "uint256",
          "name": "betAmount",
          "type": "uint256"
        },
        {
          "internalType": "bytes32",
          "name": "commitment",
          "type": "bytes32"
        }
      ],
      "name": "createGame",
      "outputs": [
        {
          "internalType": "uint256",
          "name": "",
          "type": "uint256"
        }
      ],
      "stateMutability": "nonpayable",
      "type": "function"
    },
    {
      "inputs": [
        {
          "internalType": "uint256",
          "name": "gameId",
          "type": "uint256"
        }
      ],
      "name": "forceResolve",
      "outputs": [],
      "stateMutability": "nonpayable",
      "type": "function"
    },
    {
      "inputs": [],
      "name": "gameTimeout",
      "outputs": [
        {
          "internalType": "uint256",
          "name": "",
          "type": "uint256"
        }
      ],
      "stateMutability": "view",
      "type": "function"
    },
    {
      "inputs": [
        {
          "internalType": "uint256",
          "name": "",
          "type": "uint256"
        }
      ],
      "name": "games",
      "outputs": [
        {
          "internalType": "address",
          "name": "player1",
          "type": "address"
        },
        {
          "internalType": "address",
          "name": "player2",
          "type": "address"
        },
        {
          "internalType": "address",
          "name": "challenged",
          "type": "address"
        },
        {
          "internalType": "uint256",
          "name": "betAmount",
          "type": "uint256"
        },
        {
          "internalType": "bytes32",
          "name": "player1Commit",
          "type": "bytes32"
        },
        {
          "internalType": "uint8",
          "name": "player2Choice",
          "type": "uint8"
        },
        {
          "internalType": "enum ShellCoinflip.GameState",
          "name": "state",
          "type": "uint8"
        },
        {
          "internalType": "uint256",
          "name": "createdAt",
          "type": "uint256"
        },
        {
          "internalType": "uint256",
          "name": "joinedAt",
          "type": "uint256"
        },
        {
          "internalType": "address",
          "name": "winner",
          "type": "address"
        }
      ],
      "stateMutability": "view",
      "type": "function"
    },
    {
      "inputs": [
        {
          "internalType": "uint8",
          "name": "choice",
          "type": "uint8"
        },
        {
          "internalType": "bytes32",
          "name": "secret",
          "type": "bytes32"
        }
      ],
      "name": "generateCommitment",
      "outputs": [
        {
          "internalType": "bytes32",
          "name": "",
          "type": "bytes32"
        }
      ],
      "stateMutability": "pure",
      "type": "function"
    },
    {
      "inputs": [
        {
          "internalType": "address",
          "name": "agent",
          "type": "address"
        }
      ],
      "name": "getAgentProfile",
      "outputs": [
        {
          "internalType": "string",
          "name": "name",
          "type": "string"
        },
        {
          "internalType": "uint256",
          "name": "_wins",
          "type": "uint256"
        },
        {
          "internalType": "uint256",
          "name": "_losses",
          "type": "uint256"
        },
        {
          "internalType": "uint256",
          "name": "wagered",
          "type": "uint256"
        },
        {
          "internalType": "bool",
          "name": "canPlay",
          "type": "bool"
        },
        {
          "internalType": "bool",
          "name": "moltbookVerified",
          "type": "bool"
        }
      ],
      "stateMutability": "view",
      "type": "function"
    },
    {
      "inputs": [
        {
          "internalType": "address",
          "name": "agent",
          "type": "address"
        }
      ],
      "name": "getAgentStats",
      "outputs": [
        {
          "internalType": "uint256",
          "name": "_wins",
          "type": "uint256"
        },
        {
          "internalType": "uint256",
          "name": "_losses",
          "type": "uint256"
        },
        {
          "internalType": "uint256",
          "name": "_totalWagered",
          "type": "uint256"
        },
        {
          "internalType": "string",
          "name": "_name",
          "type": "string"
        }
      ],
      "stateMutability": "view",
      "type": "function"
    },
    {
      "inputs": [
        {
          "internalType": "uint256",
          "name": "gameId",
          "type": "uint256"
        }
      ],
      "name": "getGame",
      "outputs": [
        {
          "components": [
            {
              "internalType": "address",
              "name": "player1",
              "type": "address"
            },
            {
              "internalType": "address",
              "name": "player2",
              "type": "address"
            },
            {
              "internalType": "address",
              "name": "challenged",
              "type": "address"
            },
            {
              "internalType": "uint256",
              "name": "betAmount",
              "type": "uint256"
            },
            {
              "internalType": "bytes32",
              "name": "player1Commit",
              "type": "bytes32"
            },
            {
              "internalType": "uint8",
              "name": "player2Choice",
              "type": "uint8"
            },
            {
              "internalType": "enum ShellCoinflip.GameState",
              "name": "state",
              "type": "uint8"
            },
            {
              "internalType": "uint256",
              "name": "createdAt",
              "type": "uint256"
            },
            {
              "internalType": "uint256",
              "name": "joinedAt",
              "type": "uint256"
            },
            {
              "internalType": "address",
              "name": "winner",
              "type": "address"
            }
          ],
          "internalType": "struct ShellCoinflip.Game",
          "name": "",
          "type": "tuple"
        }
      ],
      "stateMutability": "view",
      "type": "function"
    },
    {
      "inputs": [
        {
          "internalType": "uint256",
          "name": "offset",
          "type": "uint256"
        },
        {
          "internalType": "uint256",
          "name": "limit",
          "type": "uint256"
        }
      ],
      "name": "getOpenGames",
      "outputs": [
        {
          "internalType": "uint256[]",
          "name": "gameIds",
          "type": "uint256[]"
        },
        {
          "components": [
            {
              "internalType": "address",
              "name": "player1",
              "type": "address"
            },
            {
              "internalType": "address",
              "name": "player2",
              "type": "address"
            },
            {
              "internalType": "address",
              "name": "challenged",
              "type": "address"
            },
            {
              "internalType": "uint256",
              "name": "betAmount",
              "type": "uint256"
            },
            {
              "internalType": "bytes32",
              "name": "player1Commit",
              "type": "bytes32"
            },
            {
              "internalType": "uint8",
              "name": "player2Choice",
              "type": "uint8"
            },
            {
              "internalType": "enum ShellCoinflip.GameState",
              "name": "state",
              "type": "uint8"
            },
            {
              "internalType": "uint256",
              "name": "createdAt",
              "type": "uint256"
            },
            {
              "internalType": "uint256",
              "name": "joinedAt",
              "type": "uint256"
            },
            {
              "internalType": "address",
              "name": "winner",
              "type": "address"
            }
          ],
          "internalType": "struct ShellCoinflip.Game[]",
          "name": "openGames",
          "type": "tuple[]"
        }
      ],
      "stateMutability": "view",
      "type": "function"
    },
    {
      "inputs": [
        {
          "internalType": "address",
          "name": "agent",
          "type": "address"
        }
      ],
      "name": "getPendingChallenges",
      "outputs": [
        {
          "internalType": "uint256[]",
          "name": "gameIds",
          "type": "uint256[]"
        },
        {
          "components": [
            {
              "internalType": "address",
              "name": "player1",
              "type": "address"
            },
            {
              "internalType": "address",
              "name": "player2",
              "type": "address"
            },
            {
              "internalType": "address",
              "name": "challenged",
              "type": "address"
            },
            {
              "internalType": "uint256",
              "name": "betAmount",
              "type": "uint256"
            },
            {
              "internalType": "bytes32",
              "name": "player1Commit",
              "type": "bytes32"
            },
            {
              "internalType": "uint8",
              "name": "player2Choice",
              "type": "uint8"
            },
            {
              "internalType": "enum ShellCoinflip.GameState",
              "name": "state",
              "type": "uint8"
            },
            {
              "internalType": "uint256",
              "name": "createdAt",
              "type": "uint256"
            },
            {
              "internalType": "uint256",
              "name": "joinedAt",
              "type": "uint256"
            },
            {
              "internalType": "address",
              "name": "winner",
              "type": "address"
            }
          ],
          "internalType": "struct ShellCoinflip.Game[]",
          "name": "challengeGames",
          "type": "tuple[]"
        }
      ],
      "stateMutability": "view",
      "type": "function"
    },
    {
      "inputs": [
        {
          "internalType": "address",
          "name": "agent",
          "type": "address"
        },
        {
          "internalType": "uint256",
          "name": "start",
          "type": "uint256"
        },
        {
          "internalType": "uint256",
          "name": "limit",
          "type": "uint256"
        }
      ],
      "name": "getPendingChallengesPaginated",
      "outputs": [
        {
          "internalType": "uint256[]",
          "name": "gameIds",
          "type": "uint256[]"
        },
        {
          "components": [
            {
              "internalType": "address",
              "name": "player1",
              "type": "address"
            },
            {
              "internalType": "address",
              "name": "player2",
              "type": "address"
            },
            {
              "internalType": "address",
              "name": "challenged",
              "type": "address"
            },
            {
              "internalType": "uint256",
              "name": "betAmount",
              "type": "uint256"
            },
            {
              "internalType": "bytes32",
              "name": "player1Commit",
              "type": "bytes32"
            },
            {
              "internalType": "uint8",
              "name": "player2Choice",
              "type": "uint8"
            },
            {
              "internalType": "enum ShellCoinflip.GameState",
              "name": "state",
              "type": "uint8"
            },
            {
              "internalType": "uint256",
              "name": "createdAt",
              "type": "uint256"
            },
            {
              "internalType": "uint256",
              "name": "joinedAt",
              "type": "uint256"
            },
            {
              "internalType": "address",
              "name": "winner",
              "type": "address"
            }
          ],
          "internalType": "struct ShellCoinflip.Game[]",
          "name": "challengeGames",
          "type": "tuple[]"
        }
      ],
      "stateMutability": "view",
      "type": "function"
    },
    {
      "inputs": [
        {
          "internalType": "address",
          "name": "agent",
          "type": "address"
        }
      ],
      "name": "getSentChallenges",
      "outputs": [
        {
          "internalType": "uint256[]",
          "name": "gameIds",
          "type": "uint256[]"
        },
        {
          "components": [
            {
              "internalType": "address",
              "name": "player1",
              "type": "address"
            },
            {
              "internalType": "address",
              "name": "player2",
              "type": "address"
            },
            {
              "internalType": "address",
              "name": "challenged",
              "type": "address"
            },
            {
              "internalType": "uint256",
              "name": "betAmount",
              "type": "uint256"
            },
            {
              "internalType": "bytes32",
              "name": "player1Commit",
              "type": "bytes32"
            },
            {
              "internalType": "uint8",
              "name": "player2Choice",
              "type": "uint8"
            },
            {
              "internalType": "enum ShellCoinflip.GameState",
              "name": "state",
              "type": "uint8"
            },
            {
              "internalType": "uint256",
              "name": "createdAt",
              "type": "uint256"
            },
            {
              "internalType": "uint256",
              "name": "joinedAt",
              "type": "uint256"
            },
            {
              "internalType": "address",
              "name": "winner",
              "type": "address"
            }
          ],
          "internalType": "struct ShellCoinflip.Game[]",
          "name": "challengeGames",
          "type": "tuple[]"
        }
      ],
      "stateMutability": "view",
      "type": "function"
    },
    {
      "inputs": [
        {
          "internalType": "address",
          "name": "agent",
          "type": "address"
        },
        {
          "internalType": "uint256",
          "name": "start",
          "type": "uint256"
        },
        {
          "internalType": "uint256",
          "name": "limit",
          "type": "uint256"
        }
      ],
      "name": "getSentChallengesPaginated",
      "outputs": [
        {
          "internalType": "uint256[]",
          "name": "gameIds",
          "type": "uint256[]"
        },
        {
          "components": [
            {
              "internalType": "address",
              "name": "player1",
              "type": "address"
            },
            {
              "internalType": "address",
              "name": "player2",
              "type": "address"
            },
            {
              "internalType": "address",
              "name": "challenged",
              "type": "address"
            },
            {
              "internalType": "uint256",
              "name": "betAmount",
              "type": "uint256"
            },
            {
              "internalType": "bytes32",
              "name": "player1Commit",
              "type": "bytes32"
            },
            {
              "internalType": "uint8",
              "name": "player2Choice",
              "type": "uint8"
            },
            {
              "internalType": "enum ShellCoinflip.GameState",
              "name": "state",
              "type": "uint8"
            },
            {
              "internalType": "uint256",
              "name": "createdAt",
              "type": "uint256"
            },
            {
              "internalType": "uint256",
              "name": "joinedAt",
              "type": "uint256"
            },
            {
              "internalType": "address",
              "name": "winner",
              "type": "address"
            }
          ],
          "internalType": "struct ShellCoinflip.Game[]",
          "name": "challengeGames",
          "type": "tuple[]"
        }
      ],
      "stateMutability": "view",
      "type": "function"
    },
    {
      "inputs": [
        {
          "internalType": "uint256",
          "name": "gameId",
          "type": "uint256"
        }
      ],
      "name": "isGameExpired",
      "outputs": [
        {
          "internalType": "bool",
          "name": "expired",
          "type": "bool"
        },
        {
          "internalType": "string",
          "name": "reason",
          "type": "string"
        }
      ],
      "stateMutability": "view",
      "type": "function"
    },
    {
      "inputs": [
        {
          "internalType": "address",
          "name": "agent",
          "type": "address"
        }
      ],
      "name": "isMoltbookVerified",
      "outputs": [
        {
          "internalType": "bool",
          "name": "",
          "type": "bool"
        }
      ],
      "stateMutability": "view",
      "type": "function"
    },
    {
      "inputs": [
        {
          "internalType": "uint256",
          "name": "gameId",
          "type": "uint256"
        },
        {
          "internalType": "uint8",
          "name": "choice",
          "type": "uint8"
        }
      ],
      "name": "joinGame",
      "outputs": [],
      "stateMutability": "nonpayable",
      "type": "function"
    },
    {
      "inputs": [
        {
          "internalType": "address",
          "name": "",
          "type": "address"
        }
      ],
      "name": "losses",
      "outputs": [
        {
          "internalType": "uint256",
          "name": "",
          "type": "uint256"
        }
      ],
      "stateMutability": "view",
      "type": "function"
    },
    {
      "inputs": [],
      "name": "maxBet",
      "outputs": [
        {
          "internalType": "uint256",
          "name": "",
          "type": "uint256"
        }
      ],
      "stateMutability": "view",
      "type": "function"
    },
    {
      "inputs": [],
      "name": "minBet",
      "outputs": [
        {
          "internalType": "uint256",
          "name": "",
          "type": "uint256"
        }
      ],
      "stateMutability": "view",
      "type": "function"
    },
    {
      "inputs": [],
      "name": "nextGameId",
      "outputs": [
        {
          "internalType": "uint256",
          "name": "",
          "type": "uint256"
        }
      ],
      "stateMutability": "view",
      "type": "function"
    },
    {
      "inputs": [],
      "name": "owner",
      "outputs": [
        {
          "internalType": "address",
          "name": "",
          "type": "address"
        }
      ],
      "stateMutability": "view",
      "type": "function"
    },
    {
      "inputs": [],
      "name": "protocolFeeBps",
      "outputs": [
        {
          "internalType": "uint256",
          "name": "",
          "type": "uint256"
        }
      ],
      "stateMutability": "view",
      "type": "function"
    },
    {
      "inputs": [
        {
          "internalType": "string",
          "name": "name",
          "type": "string"
        }
      ],
      "name": "registerAgent",
      "outputs": [],
      "stateMutability": "nonpayable",
      "type": "function"
    },
    {
      "inputs": [],
      "name": "renounceOwnership",
      "outputs": [],
      "stateMutability": "nonpayable",
      "type": "function"
    },
    {
      "inputs": [
        {
          "internalType": "uint256",
          "name": "gameId",
          "type": "uint256"
        },
        {
          "internalType": "uint8",
          "name": "choice",
          "type": "uint8"
        },
        {
          "internalType": "bytes32",
          "name": "secret",
          "type": "bytes32"
        }
      ],
      "name": "revealAndResolve",
      "outputs": [],
      "stateMutability": "nonpayable",
      "type": "function"
    },
    {
      "inputs": [],
      "name": "revealTimeout",
      "outputs": [
        {
          "internalType": "uint256",
          "name": "",
          "type": "uint256"
        }
      ],
      "stateMutability": "view",
      "type": "function"
    },
    {
      "inputs": [
        {
          "internalType": "uint256",
          "name": "_min",
          "type": "uint256"
        },
        {
          "internalType": "uint256",
          "name": "_max",
          "type": "uint256"
        }
      ],
      "name": "setBetLimits",
      "outputs": [],
      "stateMutability": "nonpayable",
      "type": "function"
    },
    {
      "inputs": [
        {
          "internalType": "uint256",
          "name": "_timeout",
          "type": "uint256"
        }
      ],
      "name": "setGameTimeout",
      "outputs": [],
      "stateMutability": "nonpayable",
      "type": "function"
    },
    {
      "inputs": [
        {
          "internalType": "uint256",
          "name": "_feeBps",
          "type": "uint256"
        }
      ],
      "name": "setProtocolFee",
      "outputs": [],
      "stateMutability": "nonpayable",
      "type": "function"
    },
    {
      "inputs": [
        {
          "internalType": "uint256",
          "name": "_timeout",
          "type": "uint256"
        }
      ],
      "name": "setRevealTimeout",
      "outputs": [],
      "stateMutability": "nonpayable",
      "type": "function"
    },
    {
      "inputs": [
        {
          "internalType": "address",
          "name": "verifier",
          "type": "address"
        },
        {
          "internalType": "bool",
          "name": "status",
          "type": "bool"
        }
      ],
      "name": "setVerifier",
      "outputs": [],
      "stateMutability": "nonpayable",
      "type": "function"
    },
    {
      "inputs": [],
      "name": "shellToken",
      "outputs": [
        {
          "internalType": "contract IERC20",
          "name": "",
          "type": "address"
        }
      ],
      "stateMutability": "view",
      "type": "function"
    },
    {
      "inputs": [],
      "name": "totalGamesPlayed",
      "outputs": [
        {
          "internalType": "uint256",
          "name": "",
          "type": "uint256"
        }
      ],
      "stateMutability": "view",
      "type": "function"
    },
    {
      "inputs": [],
      "name": "totalVolume",
      "outputs": [
        {
          "internalType": "uint256",
          "name": "",
          "type": "uint256"
        }
      ],
      "stateMutability": "view",
      "type": "function"
    },
    {
      "inputs": [
        {
          "internalType": "address",
          "name": "",
          "type": "address"
        }
      ],
      "name": "totalWagered",
      "outputs": [
        {
          "internalType": "uint256",
          "name": "",
          "type": "uint256"
        }
      ],
      "stateMutability": "view",
      "type": "function"
    },
    {
      "inputs": [
        {
          "internalType": "address",
          "name": "newOwner",
          "type": "address"
        }
      ],
      "name": "transferOwnership",
      "outputs": [],
      "stateMutability": "nonpayable",
      "type": "function"
    },
    {
      "inputs": [
        {
          "internalType": "address",
          "name": "",
          "type": "address"
        }
      ],
      "name": "verifiedAgents",
      "outputs": [
        {
          "internalType": "bool",
          "name": "",
          "type": "bool"
        }
      ],
      "stateMutability": "view",
      "type": "function"
    },
    {
      "inputs": [
        {
          "internalType": "address",
          "name": "",
          "type": "address"
        }
      ],
      "name": "verifiers",
      "outputs": [
        {
          "internalType": "bool",
          "name": "",
          "type": "bool"
        }
      ],
      "stateMutability": "view",
      "type": "function"
    },
    {
      "inputs": [
        {
          "internalType": "address",
          "name": "agent",
          "type": "address"
        }
      ],
      "name": "verifyAgentIdentity",
      "outputs": [],
      "stateMutability": "nonpayable",
      "type": "function"
    },
    {
      "inputs": [
        {
          "internalType": "address",
          "name": "",
          "type": "address"
        }
      ],
      "name": "wins",
      "outputs": [
        {
          "internalType": "uint256",
          "name": "",
          "type": "uint256"
        }
      ],
      "stateMutability": "view",
      "type": "function"
    },
    {
      "inputs": [
        {
          "internalType": "address",
          "name": "to",
          "type": "address"
        }
      ],
      "name": "withdrawFees",
      "outputs": [],
      "stateMutability": "nonpayable",
      "type": "function"
    }
  ],
  "bytecode": "0x60a0604052670de0b6b3a7640000600255683635c9adc5dea000006003556064600455610e10600755610e106008556001600a553480156200004057600080fd5b5060405162003a5e38038062003a5e833981016040819052620000639162000119565b600160005533806200008f57604051631e4fbdf760e01b81526000600482015260240160405180910390fd5b6200009a81620000c7565b506001600160a01b0316608052336000908152600e60205260409020805460ff191660011790556200014b565b600180546001600160a01b038381166001600160a01b0319831681179093556040519116919082907f8be0079c531659141344cd1fd0a4f28419497f9722a3daafe3b4186f6b6457e090600090a35050565b6000602082840312156200012c57600080fd5b81516001600160a01b03811681146200014457600080fd5b9392505050565b6080516138c662000198600039600081816104ee01528181610a9101528181610c360152818161167e01528181611ff1015281816123290152818161282a0152612d4b01526138c66000f3fe608060405234801561001057600080fd5b50600436106102a05760003560e01c80636c82448711610167578063ab8b3721116100ce578063b135bbb011610087578063b135bbb014610713578063b5695b381461071c578063c903c2331461073f578063ca6649c51461075f578063de92285f14610772578063f2fde38b1461078557600080fd5b8063ab8b372114610654578063ac258d9714610667578063ac9b5671146106b7578063ae82455f146106ca578063af499c35146106ed578063b087ae4f1461070057600080fd5b80638da5cb5b116101205780638da5cb5b146105e15780638fbf281d146105f25780639619367d14610605578063a1506dee1461060e578063a2f77bcc14610621578063a34803ad1461064157600080fd5b80636c8244871461053b578063715018a61461056e5780637687dd4914610576578063787dce3d1461058957806378dc93a41461059c5780638047a97a146105c157600080fd5b80632e5b21681161020b5780635c492129116101c45780635c492129146104a35780635f81a57c146104ac57806365b3a7ca146104b557806369958ab9146104d65780636aae314c146104e95780636c6b12561461052857600080fd5b80632e5b21681461044257806335659fb81461044b57806338b64085146104545780634376cb3414610467578063470762e9146104705780635b0215251461049057600080fd5b806328f3fac91161025d57806328f3fac9146103985780632a0ec7f3146103c85780632ba86b12146103db5780632beb8bb2146103fc5780632cbc16601461040f5780632d2a95851461042f57600080fd5b806302559eeb146102a55780630d8b2def146102ba5780630f394b61146102e0578063117a5b90146102f3578063164e68de1461037c5780631e72553d1461038f575b600080fd5b6102b86102b3366004613095565b610798565b005b6102cd6102c8366004613126565b610932565b6040519081526020015b60405180910390f35b6102b86102ee366004613150565b610963565b61036661030136600461316b565b6009602052600090815260409020805460018201546002830154600384015460048501546005860154600687015460078801546008909801546001600160a01b039788169896881697958616969495939460ff8085169561010090950416939091168a565b6040516102d79a999897969594939291906131ae565b6102b861038a366004613150565b610a71565b6102cd60075481565b6103bb6103a6366004613150565b600b6020526000908152604090205460ff1681565b6040516102d7919061321b565b6102cd6103d6366004613235565b610c5d565b6103ee6103e9366004613257565b610cb2565b6040516102d7929190613338565b6102cd61040a3660046133be565b61100c565b61042261041d366004613150565b6111ee565b6040516102d79190613439565b6102b861043d36600461344c565b611288565b6102cd60035481565b6102cd60045481565b6102b861046236600461316b565b6113c8565b6102cd60085481565b6102cd61047e366004613150565b60116020526000908152604090205481565b6103ee61049e366004613150565b611428565b6102cd60055481565b6102cd60065481565b6104c86104c336600461316b565b611441565b6040516102d79291906134ac565b6102b86104e436600461316b565b611573565b6105107f000000000000000000000000000000000000000000000000000000000000000081565b6040516001600160a01b0390911681526020016102d7565b6103ee610536366004613257565b611766565b61055e610549366004613150565b600e6020526000908152604090205460ff1681565b60405190151581526020016102d7565b6102b8611ab1565b6102b8610584366004613235565b611ac5565b6102b861059736600461316b565b611b18565b6105af6105aa366004613150565b611b66565b6040516102d7969594939291906134cf565b6102cd6105cf366004613150565b600f6020526000908152604090205481565b6001546001600160a01b0316610510565b6102b8610600366004613520565b611c79565b6102cd60025481565b6103ee61061c366004613150565b61206c565b61063461062f36600461316b565b61207c565b6040516102d79190613555565b6102b861064f36600461316b565b612150565b6102b861066236600461316b565b612419565b6102cd610675366004613564565b6040516001600160f81b031960f884901b1660208201526021810182905260009060410160405160208183030381529060405280519060200120905092915050565b6102b86106c5366004613580565b612479565b61055e6106d8366004613150565b600d6020526000908152604090205460ff1681565b6102cd6106fb366004613126565b6124d9565b61055e61070e366004613150565b6124f5565b6102cd600a5481565b61072f61072a366004613150565b61252d565b6040516102d794939291906135bc565b6102cd61074d366004613150565b60106020526000908152604090205481565b6102b861076d3660046135eb565b612607565b6103ee610780366004613235565b6128cf565b6102b8610793366004613150565b612bb6565b336000908152600e602052604090205460ff166107ed5760405162461bcd60e51b815260206004820152600e60248201526d2737ba1030903b32b934b334b2b960911b60448201526064015b60405180910390fd5b60005b8181101561092d576001600b600085858581811061081057610810613617565b90506020020160208101906108259190613150565b6001600160a01b0316815260208101919091526040016000205460ff16600281111561085357610853613184565b0361091b576002600b600085858581811061087057610870613617565b90506020020160208101906108859190613150565b6001600160a01b031681526020810191909152604001600020805460ff191660018360028111156108b8576108b8613184565b0217905550338383838181106108d0576108d0613617565b90506020020160208101906108e59190613150565b6001600160a01b03167f7f5835461dbf886f27de41a9adf55100f10e6974a3fc4a867ded38b50daf358d60405160405180910390a35b8061092581613643565b9150506107f0565b505050565b6012602052816000526040600020818154811061094e57600080fd5b90600052602060002001600091509150505481565b336000908152600e602052604090205460ff166109b35760405162461bcd60e51b815260206004820152600e60248201526d2737ba1030903b32b934b334b2b960911b60448201526064016107e4565b60016001600160a01b0382166000908152600b602052604090205460ff1660028111156109e2576109e2613184565b14610a235760405162461bcd60e51b81526020600482015260116024820152704167656e74206e6f742070656e64696e6760781b60448201526064016107e4565b6001600160a01b0381166000818152600b6020526040808220805460ff19166002179055513392917f7f5835461dbf886f27de41a9adf55100f10e6974a3fc4a867ded38b50daf358d91a350565b610a79612bf1565b6040516370a0823160e01b81523060048201526000907f00000000000000000000000000000000000000000000000000000000000000006001600160a01b0316906370a0823190602401602060405180830381865afa158015610ae0573d6000803e3d6000fd5b505050506040513d601f19601f82011682018060405250810190610b04919061365c565b9050600060015b600a54811015610bd8576001600082815260096020526040902060050154610100900460ff166003811115610b4257610b42613184565b03610b6a57600081815260096020526040902060030154610b639083613675565b9150610bc6565b6002600082815260096020526040902060050154610100900460ff166003811115610b9757610b97613184565b03610bc657600081815260096020526040902060030154610bb9906002613688565b610bc39083613675565b91505b80610bd081613643565b915050610b0b565b50808211610c1e5760405162461bcd60e51b81526020600482015260136024820152724e6f206665657320746f20776974686472617760681b60448201526064016107e4565b61092d83610c2c838561369f565b6001600160a01b037f0000000000000000000000000000000000000000000000000000000000000000169190612c1e565b336000908152600d602052604081205460ff16610c8c5760405162461bcd60e51b81526004016107e4906136b2565b610c94612c7d565b610ca083836000612ca7565b9050610cac6001600055565b92915050565b6001600160a01b0383166000908152601260205260409020805460609182918510610d1b5760408051600080825260208201818152828401909352909190610d10565b610cfd613039565b815260200190600190039081610cf55790505b509250925050611004565b6064841115610d2957606493505b8054600090610d388688613675565b11610d4c57610d478587613675565b610d4f565b81545b90506000865b82811015610dd557600160096000868481548110610d7557610d75613617565b9060005260206000200154815260200190815260200160002060050160019054906101000a900460ff166003811115610db057610db0613184565b03610dc35781610dbf81613643565b9250505b80610dcd81613643565b915050610d55565b508067ffffffffffffffff811115610def57610def6136e0565b604051908082528060200260200182016040528015610e18578160200160208202803683370190505b5094508067ffffffffffffffff811115610e3457610e346136e0565b604051908082528060200260200182016040528015610e6d57816020015b610e5a613039565b815260200190600190039081610e525790505b5093506000875b8381108015610e8257508282105b15610ffe576000858281548110610e9b57610e9b613617565b60009182526020909120015490506001600082815260096020526040902060050154610100900460ff166003811115610ed657610ed6613184565b03610feb5780888481518110610eee57610eee613617565b60209081029190910181019190915260008281526009825260409081902081516101408101835281546001600160a01b0390811682526001830154811694820194909452600282015490931691830191909152600380820154606084015260048201546080840152600582015460ff80821660a086015260c08501926101009092041690811115610f8157610f81613184565b6003811115610f9257610f92613184565b815260068201546020820152600782015460408201526008909101546001600160a01b03166060909101528751889085908110610fd157610fd1613617565b60200260200101819052508280610fe790613643565b9350505b5080610ff681613643565b915050610e74565b50505050505b935093915050565b336000908152600d602052604081205460ff1661103b5760405162461bcd60e51b81526004016107e4906136b2565b611043612c7d565b6001600160a01b03821661108c5760405162461bcd60e51b815260206004820152601060248201526f125b9d985b1a59081bdc1c1bdb995b9d60821b60448201526064016107e4565b336001600160a01b038316036110e45760405162461bcd60e51b815260206004820152601960248201527f43616e6e6f74206368616c6c656e676520796f757273656c660000000000000060448201526064016107e4565b6001600160a01b0382166000908152600d602052604090205460ff1661114c5760405162461bcd60e51b815260206004820152601d60248201527f4f70706f6e656e74206e6f742061207665726966696564206167656e7400000060448201526064016107e4565b6000611159858585612ca7565b6001600160a01b03841660008181526012602090815260408083208054600180820183559185528385200186905533808552601384528285208054928301815585529383902001859055518981529394509192909184917f689d6025813ec7a85f98f14388328e9e48053a65b79e20e34bf3f3142decebce910160405180910390a490506111e76001600055565b9392505050565b600c6020526000908152604090208054611207906136f6565b80601f0160208091040260200160405190810160405280929190818152602001828054611233906136f6565b80156112805780601f1061125557610100808354040283529160200191611280565b820191906000526020600020905b81548152906001019060200180831161126357829003601f168201915b505050505081565b8015801590611298575060208111155b6112d35760405162461bcd60e51b815260206004820152600c60248201526b496e76616c6964206e616d6560a01b60448201526064016107e4565b336000908152600d60209081526040808320805460ff19166001179055600c909152902061130282848361377e565b50336000908152600b602052604081205460ff16600281111561132757611327613184565b0361138157336000818152600b602052604090819020805460ff19166001179055517fda816ca2fc37b9eecec62ae8263008ec6be1afb38dc28bc9c7c51d7e348da9c290611378908590859061383f565b60405180910390a25b336001600160a01b03167f45127b38457c2f5c381cad14d94b51d80a7700dfb7a910a1d816fee3d3e1059183836040516113bc92919061383f565b60405180910390a25050565b6113d0612bf1565b61070881101580156113e557506202a3008111155b6114235760405162461bcd60e51b815260206004820152600f60248201526e125b9d985b1a59081d1a5b595bdd5d608a1b60448201526064016107e4565b600855565b6060806114388360006032610cb2565b91509150915091565b600081815260096020526040812060609060016005820154610100900460ff16600381111561147257611472613184565b036114d75760075481600601546114899190613675565b4211156114d25760016040518060400160405280601a81526020017f4e6f206f70706f6e656e74206a6f696e656420696e2074696d650000000000008152509250925050915091565b611557565b60026005820154610100900460ff1660038111156114f7576114f7613184565b0361155757600854816007015461150e9190613675565b4211156115575760016040518060400160405280601e81526020017f506c617965723120646964206e6f742072657665616c20696e2074696d6500008152509250925050915091565b6000604051806020016040528060008152509250925050915091565b61157b612c7d565b600081815260096020526040902060016005820154610100900460ff1660038111156115a9576115a9613184565b146115e65760405162461bcd60e51b815260206004820152600d60248201526c10d85b9b9bdd0818d85b98d95b609a1b60448201526064016107e4565b805460075460068301546001600160a01b039290921633149160009161160b91613675565b4211905081806116185750805b6116585760405162461bcd60e51b815260206004820152601160248201527010d85b9b9bdd0818d85b98d95b081e595d607a1b60448201526064016107e4565b60058301805461ff001916610300179055825460038401546116a8916001600160a01b037f0000000000000000000000000000000000000000000000000000000000000000811692911690612c1e565b8080156116b3575081155b1561172b57837fd38304b601013934ec411ac3ecc152228d5349b6671f052480451a7e348f8de36040516117229060208082526021908201527f47616d652074696d656f7574202d206e6f206f70706f6e656e74206a6f696e656040820152601960fa1b606082015260800190565b60405180910390a25b60405184907f681705fdbd93dba3b679fd712577e9a86d57c5551c520f8c74857deb57f9623f90600090a25050506117636001600055565b50565b6001600160a01b03831660009081526013602052604090208054606091829185106117ce5760408051600080825260208201818152828401909352909190610d10565b6117b1613039565b8152602001906001900390816117a9579050509250925050611004565b60648411156117dc57606493505b80546000906117eb8688613675565b116117ff576117fa8587613675565b611802565b81545b90506000865b828110156118885760016009600086848154811061182857611828613617565b9060005260206000200154815260200190815260200160002060050160019054906101000a900460ff16600381111561186357611863613184565b03611876578161187281613643565b9250505b8061188081613643565b915050611808565b508067ffffffffffffffff8111156118a2576118a26136e0565b6040519080825280602002602001820160405280156118cb578160200160208202803683370190505b5094508067ffffffffffffffff8111156118e7576118e76136e0565b60405190808252806020026020018201604052801561192057816020015b61190d613039565b8152602001906001900390816119055790505b5093506000875b838110801561193557508282105b15610ffe57600085828154811061194e5761194e613617565b60009182526020909120015490506001600082815260096020526040902060050154610100900460ff16600381111561198957611989613184565b03611a9e57808884815181106119a1576119a1613617565b60209081029190910181019190915260008281526009825260409081902081516101408101835281546001600160a01b0390811682526001830154811694820194909452600282015490931691830191909152600380820154606084015260048201546080840152600582015460ff80821660a086015260c08501926101009092041690811115611a3457611a34613184565b6003811115611a4557611a45613184565b815260068201546020820152600782015460408201526008909101546001600160a01b03166060909101528751889085908110611a8457611a84613617565b60200260200101819052508280611a9a90613643565b9350505b5080611aa981613643565b915050611927565b611ab9612bf1565b611ac36000612f37565b565b611acd612bf1565b808210611b0d5760405162461bcd60e51b815260206004820152600e60248201526d496e76616c6964206c696d69747360901b60448201526064016107e4565b600291909155600355565b611b20612bf1565b6101f4811115611b615760405162461bcd60e51b815260206004820152600c60248201526b08ccaca40e8dede40d0d2ced60a31b60448201526064016107e4565b600455565b6001600160a01b0381166000908152600c60209081526040808320600f83528184205460108452828520546011855283862054600d865284872054600b909652938620546060969586958695869586959194909391929160ff908116916002911681811115611bd757611bd7613184565b14858054611be4906136f6565b80601f0160208091040260200160405190810160405280929190818152602001828054611c10906136f6565b8015611c5d5780601f10611c3257610100808354040283529160200191611c5d565b820191906000526020600020905b815481529060010190602001808311611c4057829003601f168201915b5050505050955095509550955095509550955091939550919395565b611c81612c7d565b600083815260096020526040902060026005820154610100900460ff166003811115611caf57611caf613184565b14611cfc5760405162461bcd60e51b815260206004820152601960248201527f47616d65206e6f7420726561647920746f207265736f6c76650000000000000060448201526064016107e4565b80546001600160a01b03163314611d555760405162461bcd60e51b815260206004820152601760248201527f4f6e6c7920706c61796572312063616e2072657665616c00000000000000000060448201526064016107e4565b60018360ff161115611d9a5760405162461bcd60e51b815260206004820152600e60248201526d496e76616c69642063686f69636560901b60448201526064016107e4565b6040516001600160f81b031960f885901b1660208201526021810183905260009060410160405160208183030381529060405280519060200120905081600401548114611e1a5760405162461bcd60e51b815260206004820152600e60248201526d125b9d985b1a59081c995d99585b60921b60448201526064016107e4565b600582015460009060ff90811690861603611e40575081546001600160a01b0316611e50565b5060018201546001600160a01b03165b6008830180546001600160a01b0319166001600160a01b03831617905560058301805461ff0019166103001790556003830154600090611e91906002613688565b9050600061271060045483611ea69190613688565b611eb0919061386e565b90506000611ebe828461369f565b600580549192506000611ed083613643565b91905055508260066000828254611ee79190613675565b90915550506001600160a01b0384166000908152600f60205260408120805491611f1083613643565b909155505085546010906000906001600160a01b03878116911614611f3f5787546001600160a01b0316611f4e565b60018801546001600160a01b03165b6001600160a01b0316815260208101919091526040016000908120805491611f7583613643565b9091555050600386015486546001600160a01b031660009081526011602052604081208054909190611fa8908490613675565b9091555050600386015460018701546001600160a01b031660009081526011602052604081208054909190611fde908490613675565b9091555061201890506001600160a01b037f0000000000000000000000000000000000000000000000000000000000000000168583612c1e565b836001600160a01b0316897f36e33eea5df2e6c873949c5c856feb597f250ea8a329ed5ac38c39ab969053598360405161205491815260200190565b60405180910390a350505050505061092d6001600055565b6060806114388360006032611766565b612084613039565b60008281526009602090815260409182902082516101408101845281546001600160a01b0390811682526001830154811693820193909352600282015490921692820192909252600380830154606083015260048301546080830152600583015460ff80821660a085015292939260c0850192610100909204169081111561210e5761210e613184565b600381111561211f5761211f613184565b815260068201546020820152600782015460408201526008909101546001600160a01b031660609091015292915050565b612158612c7d565b600081815260096020526040902060026005820154610100900460ff16600381111561218657612186613184565b146121c55760405162461bcd60e51b815260206004820152600f60248201526e11d85b59481b9bdd081a9bda5b9959608a1b60448201526064016107e4565b60085481600701546121d79190613675565b421161221a5760405162461bcd60e51b8152602060048201526012602482015271546f6f206561726c7920746f20666f72636560701b60448201526064016107e4565b60018101546008820180546001600160a01b0319166001600160a01b0390921691909117905560058101805461ff0019166103001790556003810154600090612264906002613688565b90506000612710600454836122799190613688565b612283919061386e565b90506000612291828461369f565b6005805491925060006122a383613643565b919050555082600660008282546122ba9190613675565b909155505060018401546001600160a01b03166000908152600f602052604081208054916122e783613643565b909155505083546001600160a01b0316600090815260106020526040812080549161231183613643565b90915550506001840154612352906001600160a01b037f00000000000000000000000000000000000000000000000000000000000000008116911683612c1e565b847fd38304b601013934ec411ac3ecc152228d5349b6671f052480451a7e348f8de36040516123bd9060208082526022908201527f52657665616c2074696d656f7574202d20706c617965723120666f7266656974604082015261195960f21b606082015260800190565b60405180910390a260018401546040518281526001600160a01b039091169086907f36e33eea5df2e6c873949c5c856feb597f250ea8a329ed5ac38c39ab969053599060200160405180910390a3505050506117636001600055565b612421612bf1565b61038481101580156124365750620151808111155b6124745760405162461bcd60e51b815260206004820152600f60248201526e125b9d985b1a59081d1a5b595bdd5d608a1b60448201526064016107e4565b600755565b612481612bf1565b6001600160a01b0382166000818152600e6020908152604091829020805460ff191685151590811790915591519182527fba5f7031ad83095931ee4b5138591db2dc3cfc56178367622fa4b05c2efad23191016113bc565b6013602052816000526040600020818154811061094e57600080fd5b600060026001600160a01b0383166000908152600b602052604090205460ff16600281111561252657612526613184565b1492915050565b6001600160a01b0381166000908152600f602090815260408083205460108352818420546011845282852054600c9094529184208054859485946060949390928190612578906136f6565b80601f01602080910402602001604051908101604052809291908181526020018280546125a4906136f6565b80156125f15780601f106125c6576101008083540402835291602001916125f1565b820191906000526020600020905b8154815290600101906020018083116125d457829003601f168201915b5050505050905093509350935093509193509193565b336000908152600d602052604090205460ff166126365760405162461bcd60e51b81526004016107e4906136b2565b61263e612c7d565b600082815260096020526040902060016005820154610100900460ff16600381111561266c5761266c613184565b146126ae5760405162461bcd60e51b815260206004820152601260248201527147616d65206e6f7420617661696c61626c6560701b60448201526064016107e4565b8054336001600160a01b03909116036127005760405162461bcd60e51b815260206004820152601460248201527321b0b73737ba10383630bc903cb7bab939b2b63360611b60448201526064016107e4565b60018260ff16111561274c5760405162461bcd60e51b815260206004820152601560248201527443686f696365206d7573742062652030206f72203160581b60448201526064016107e4565b600754816006015461275e9190613675565b42111561279c5760405162461bcd60e51b815260206004820152600c60248201526b11d85b5948195e1c1a5c995960a21b60448201526064016107e4565b60028101546001600160a01b0316156128175760028101546001600160a01b031633146128175760405162461bcd60e51b815260206004820152602360248201527f54686973206368616c6c656e676520697320666f7220616e6f74686572206167604482015262195b9d60ea1b60648201526084016107e4565b6003810154612854906001600160a01b037f0000000000000000000000000000000000000000000000000000000000000000169033903090612f89565b6001810180546001600160a01b0319163390811790915560058201805460ff851661ffff19909116811761020017909155426007840155604080519182525185917f9543429ff4d0366bda7e6f7907ab4d8c123ad250f9a8d6ecffabe880ab084e04919081900360200190a3506128cb6001600055565b5050565b606080600060015b600a54811080156128e757508482105b15612963576001600082815260096020526040902060050154610100900460ff16600381111561291957612919613184565b14801561293e57506000818152600960205260409020600201546001600160a01b0316155b15612951578161294d81613643565b9250505b8061295b81613643565b9150506128d7565b508067ffffffffffffffff81111561297d5761297d6136e0565b6040519080825280602002602001820160405280156129a6578160200160208202803683370190505b5092508067ffffffffffffffff8111156129c2576129c26136e0565b6040519080825280602002602001820160405280156129fb57816020015b6129e8613039565b8152602001906001900390816129e05790505b50915060008060015b600a5481108015612a1457508383105b15612bab576001600082815260096020526040902060050154610100900460ff166003811115612a4657612a46613184565b148015612a6b57506000818152600960205260409020600201546001600160a01b0316155b15612b9957878210612b8b5780868481518110612a8a57612a8a613617565b60209081029190910181019190915260008281526009825260409081902081516101408101835281546001600160a01b0390811682526001830154811694820194909452600282015490931691830191909152600380820154606084015260048201546080840152600582015460ff80821660a086015260c08501926101009092041690811115612b1d57612b1d613184565b6003811115612b2e57612b2e613184565b815260068201546020820152600782015460408201526008909101546001600160a01b03166060909101528551869085908110612b6d57612b6d613617565b60200260200101819052508280612b8390613643565b935050612b99565b81612b9581613643565b9250505b80612ba381613643565b915050612a04565b505050509250929050565b612bbe612bf1565b6001600160a01b038116612be857604051631e4fbdf760e01b8152600060048201526024016107e4565b61176381612f37565b6001546001600160a01b03163314611ac35760405163118cdaa760e01b81523360048201526024016107e4565b6040516001600160a01b0383811660248301526044820183905261092d91859182169063a9059cbb906064015b604051602081830303815290604052915060e01b6020820180516001600160e01b038381831617835250505050612fc8565b600260005403612ca057604051633ee5aeb560e01b815260040160405180910390fd5b6002600055565b60006002548410158015612cbd57506003548411155b612cfc5760405162461bcd60e51b815260206004820152601060248201526f426574206f7574206f662072616e676560801b60448201526064016107e4565b82612d3e5760405162461bcd60e51b8152602060048201526012602482015271125b9d985b1a590818dbdb5b5a5d1b595b9d60721b60448201526064016107e4565b612d736001600160a01b037f000000000000000000000000000000000000000000000000000000000000000016333087612f89565b600a805460009182612d8483613643565b919050559050604051806101400160405280336001600160a01b0316815260200160006001600160a01b03168152602001846001600160a01b03168152602001868152602001858152602001600060ff16815260200160016003811115612ded57612ded613184565b8152426020808301919091526000604080840182905260609384018290528582526009835290819020845181546001600160a01b039182166001600160a01b03199182161783559386015160018301805491831691861691909117905591850151600282018054919093169316929092179055908201516003808301919091556080830151600483015560a083015160058301805460ff90921660ff1983168117825560c086015193919261ffff19161790610100908490811115612eb457612eb4613184565b021790555060e08201516006820155610100820151600782015561012090910151600890910180546001600160a01b0319166001600160a01b0392831617905560405186815290841690339083907fc94e0e39f6c88eefe2da1019ef63fcd57321af4dde03fbe73dadb0275cb061529060200160405180910390a4949350505050565b600180546001600160a01b038381166001600160a01b0319831681179093556040519116919082907f8be0079c531659141344cd1fd0a4f28419497f9722a3daafe3b4186f6b6457e090600090a35050565b6040516001600160a01b038481166024830152838116604483015260648201839052612fc29186918216906323b872dd90608401612c4b565b50505050565b600080602060008451602086016000885af180612feb576040513d6000823e3d81fd5b50506000513d91508115613003578060011415613010565b6001600160a01b0384163b155b15612fc257604051635274afe760e01b81526001600160a01b03851660048201526024016107e4565b6040805161014081018252600080825260208201819052918101829052606081018290526080810182905260a081018290529060c08201908152602001600081526020016000815260200160006001600160a01b031681525090565b600080602083850312156130a857600080fd5b823567ffffffffffffffff808211156130c057600080fd5b818501915085601f8301126130d457600080fd5b8135818111156130e357600080fd5b8660208260051b85010111156130f857600080fd5b60209290920196919550909350505050565b80356001600160a01b038116811461312157600080fd5b919050565b6000806040838503121561313957600080fd5b6131428361310a565b946020939093013593505050565b60006020828403121561316257600080fd5b6111e78261310a565b60006020828403121561317d57600080fd5b5035919050565b634e487b7160e01b600052602160045260246000fd5b600481106131aa576131aa613184565b9052565b6001600160a01b038b811682528a811660208301528981166040830152606082018990526080820188905260ff871660a08301526101408201906131f560c084018861319a565b8560e084015284610100840152808416610120840152509b9a5050505050505050505050565b602081016003831061322f5761322f613184565b91905290565b6000806040838503121561324857600080fd5b50508035926020909101359150565b60008060006060848603121561326c57600080fd5b6132758461310a565b95602085013595506040909401359392505050565b80516001600160a01b0316825260208101516132b160208401826001600160a01b03169052565b5060408101516132cc60408401826001600160a01b03169052565b50606081015160608301526080810151608083015260a08101516132f560a084018260ff169052565b5060c081015161330860c084018261319a565b5060e081810151908301526101008082015190830152610120808201516001600160a01b03811682850152612fc2565b604080825283519082018190526000906020906060840190828701845b8281101561337157815184529284019290840190600101613355565b5050508381038285015284518082528583019183019060005b818110156133b15761339d83855161328a565b92840192610140929092019160010161338a565b5090979650505050505050565b6000806000606084860312156133d357600080fd5b83359250602084013591506133ea6040850161310a565b90509250925092565b6000815180845260005b81811015613419576020818501810151868301820152016133fd565b506000602082860101526020601f19601f83011685010191505092915050565b6020815260006111e760208301846133f3565b6000806020838503121561345f57600080fd5b823567ffffffffffffffff8082111561347757600080fd5b818501915085601f83011261348b57600080fd5b81358181111561349a57600080fd5b8660208285010111156130f857600080fd5b82151581526040602082015260006134c760408301846133f3565b949350505050565b60c0815260006134e260c08301896133f3565b6020830197909752506040810194909452606084019290925215156080830152151560a090910152919050565b803560ff8116811461312157600080fd5b60008060006060848603121561353557600080fd5b833592506135456020850161350f565b9150604084013590509250925092565b6101408101610cac828461328a565b6000806040838503121561357757600080fd5b6131428361350f565b6000806040838503121561359357600080fd5b61359c8361310a565b9150602083013580151581146135b157600080fd5b809150509250929050565b8481528360208201528260408201526080606082015260006135e160808301846133f3565b9695505050505050565b600080604083850312156135fe57600080fd5b8235915061360e6020840161350f565b90509250929050565b634e487b7160e01b600052603260045260246000fd5b634e487b7160e01b600052601160045260246000fd5b6000600182016136555761365561362d565b5060010190565b60006020828403121561366e57600080fd5b5051919050565b80820180821115610cac57610cac61362d565b8082028115828204841417610cac57610cac61362d565b81810381811115610cac57610cac61362d565b602080825260149082015273139bdd0818481d995c9a599a5959081859d95b9d60621b604082015260600190565b634e487b7160e01b600052604160045260246000fd5b600181811c9082168061370a57607f821691505b60208210810361372a57634e487b7160e01b600052602260045260246000fd5b50919050565b601f82111561092d57600081815260208120601f850160051c810160208610156137575750805b601f850160051c820191505b8181101561377657828155600101613763565b505050505050565b67ffffffffffffffff831115613796576137966136e0565b6137aa836137a483546136f6565b83613730565b6000601f8411600181146137de57600085156137c65750838201355b600019600387901b1c1916600186901b178355613838565b600083815260209020601f19861690835b8281101561380f57868501358255602094850194600190920191016137ef565b508682101561382c5760001960f88860031b161c19848701351681555b505060018560011b0183555b5050505050565b60208152816020820152818360408301376000818301604090810191909152601f909201601f19160101919050565b60008261388b57634e487b7160e01b600052601260045260246000fd5b50049056fea264697066735822122038dfdeec46a85c9838d50fcaee4d589abdf5ed66929e86e50e730d099d8c7cc964736f6c63430008140033",
  "linkReferences": {},
  "deployedLinkReferences": {}
}