{
  "_format": "hh-sol-artifact-1",
  "contractName": "InstantBlackjack",
  "sourceName": "contracts/games/InstantBlackjack.sol",
  "abi": [
    {
      "inputs": [
        {
          "internalType": "address",
          "name": "_shellToken",
          "type": "address"
        },
        {
          "internalType": "address",
          "name": "_houseBankroll",
          "type": "address"
        }
      ],
      "stateMutability": "nonpayable",
      "type": "constructor"
    },
    {
      "inputs": [
        {
          "internalType": "address",
          "name": "owner",
          "type": "address"
        }
      ],
      "name": "OwnableInvalidOwner",
      "type": "error"
    },
    {
      "inputs": [
        {
          "internalType": "address",
          "name": "account",
          "type": "address"
        }
      ],
      "name": "OwnableUnauthorizedAccount",
      "type": "error"
    },
    {
      "inputs": [],
      "name": "ReentrancyGuardReentrantCall",
      "type": "error"
    },
    {
      "inputs": [
        {
          "internalType": "address",
          "name": "token",
          "type": "address"
        }
      ],
      "name": "SafeERC20FailedOperation",
      "type": "error"
    },
    {
      "anonymous": false,
      "inputs": [
        {
          "indexed": true,
          "internalType": "address",
          "name": "agent",
          "type": "address"
        },
        {
          "indexed": false,
          "internalType": "string",
          "name": "name",
          "type": "string"
        }
      ],
      "name": "AgentVerified",
      "type": "event"
    },
    {
      "anonymous": false,
      "inputs": [
        {
          "indexed": true,
          "internalType": "uint256",
          "name": "gameId",
          "type": "uint256"
        },
        {
          "indexed": true,
          "internalType": "address",
          "name": "player",
          "type": "address"
        },
        {
          "indexed": false,
          "internalType": "uint256",
          "name": "betAmount",
          "type": "uint256"
        },
        {
          "indexed": false,
          "internalType": "uint8",
          "name": "playerTotal",
          "type": "uint8"
        },
        {
          "indexed": false,
          "internalType": "uint8",
          "name": "dealerTotal",
          "type": "uint8"
        },
        {
          "indexed": false,
          "internalType": "uint256",
          "name": "payout",
          "type": "uint256"
        },
        {
          "indexed": false,
          "internalType": "string",
          "name": "result",
          "type": "string"
        }
      ],
      "name": "InstantBlackjackPlayed",
      "type": "event"
    },
    {
      "anonymous": false,
      "inputs": [
        {
          "indexed": true,
          "internalType": "address",
          "name": "previousOwner",
          "type": "address"
        },
        {
          "indexed": true,
          "internalType": "address",
          "name": "newOwner",
          "type": "address"
        }
      ],
      "name": "OwnershipTransferred",
      "type": "event"
    },
    {
      "inputs": [
        {
          "internalType": "address",
          "name": "",
          "type": "address"
        }
      ],
      "name": "agentNames",
      "outputs": [
        {
          "internalType": "string",
          "name": "",
          "type": "string"
        }
      ],
      "stateMutability": "view",
      "type": "function"
    },
    {
      "inputs": [
        {
          "internalType": "address",
          "name": "",
          "type": "address"
        }
      ],
      "name": "blackjacks",
      "outputs": [
        {
          "internalType": "uint256",
          "name": "",
          "type": "uint256"
        }
      ],
      "stateMutability": "view",
      "type": "function"
    },
    {
      "inputs": [
        {
          "internalType": "uint256",
          "name": "",
          "type": "uint256"
        }
      ],
      "name": "gameHistory",
      "outputs": [
        {
          "internalType": "uint256",
          "name": "gameId",
          "type": "uint256"
        },
        {
          "internalType": "address",
          "name": "player",
          "type": "address"
        },
        {
          "internalType": "uint256",
          "name": "betAmount",
          "type": "uint256"
        },
        {
          "internalType": "uint8",
          "name": "playerTotal",
          "type": "uint8"
        },
        {
          "internalType": "uint8",
          "name": "dealerTotal",
          "type": "uint8"
        },
        {
          "internalType": "bool",
          "name": "playerBlackjack",
          "type": "bool"
        },
        {
          "internalType": "bool",
          "name": "dealerBlackjack",
          "type": "bool"
        },
        {
          "internalType": "bool",
          "name": "playerBusted",
          "type": "bool"
        },
        {
          "internalType": "bool",
          "name": "dealerBusted",
          "type": "bool"
        },
        {
          "internalType": "uint256",
          "name": "payout",
          "type": "uint256"
        },
        {
          "internalType": "string",
          "name": "result",
          "type": "string"
        }
      ],
      "stateMutability": "view",
      "type": "function"
    },
    {
      "inputs": [
        {
          "internalType": "address",
          "name": "agent",
          "type": "address"
        }
      ],
      "name": "getAgentStats",
      "outputs": [
        {
          "internalType": "string",
          "name": "name",
          "type": "string"
        },
        {
          "internalType": "uint256",
          "name": "_wins",
          "type": "uint256"
        },
        {
          "internalType": "uint256",
          "name": "_losses",
          "type": "uint256"
        },
        {
          "internalType": "uint256",
          "name": "_pushes",
          "type": "uint256"
        },
        {
          "internalType": "uint256",
          "name": "_blackjacks",
          "type": "uint256"
        },
        {
          "internalType": "uint256",
          "name": "wagered",
          "type": "uint256"
        },
        {
          "internalType": "int256",
          "name": "pnl",
          "type": "int256"
        }
      ],
      "stateMutability": "view",
      "type": "function"
    },
    {
      "inputs": [
        {
          "internalType": "address",
          "name": "player",
          "type": "address"
        },
        {
          "internalType": "uint256",
          "name": "count",
          "type": "uint256"
        }
      ],
      "name": "getPlayerGames",
      "outputs": [
        {
          "internalType": "uint256[]",
          "name": "",
          "type": "uint256[]"
        }
      ],
      "stateMutability": "view",
      "type": "function"
    },
    {
      "inputs": [
        {
          "internalType": "uint256",
          "name": "count",
          "type": "uint256"
        }
      ],
      "name": "getRecentGames",
      "outputs": [
        {
          "components": [
            {
              "internalType": "uint256",
              "name": "gameId",
              "type": "uint256"
            },
            {
              "internalType": "address",
              "name": "player",
              "type": "address"
            },
            {
              "internalType": "uint256",
              "name": "betAmount",
              "type": "uint256"
            },
            {
              "internalType": "uint8[]",
              "name": "playerCards",
              "type": "uint8[]"
            },
            {
              "internalType": "uint8[]",
              "name": "dealerCards",
              "type": "uint8[]"
            },
            {
              "internalType": "uint8",
              "name": "playerTotal",
              "type": "uint8"
            },
            {
              "internalType": "uint8",
              "name": "dealerTotal",
              "type": "uint8"
            },
            {
              "internalType": "bool",
              "name": "playerBlackjack",
              "type": "bool"
            },
            {
              "internalType": "bool",
              "name": "dealerBlackjack",
              "type": "bool"
            },
            {
              "internalType": "bool",
              "name": "playerBusted",
              "type": "bool"
            },
            {
              "internalType": "bool",
              "name": "dealerBusted",
              "type": "bool"
            },
            {
              "internalType": "uint256",
              "name": "payout",
              "type": "uint256"
            },
            {
              "internalType": "string",
              "name": "result",
              "type": "string"
            }
          ],
          "internalType": "struct InstantBlackjack.GameResult[]",
          "name": "",
          "type": "tuple[]"
        }
      ],
      "stateMutability": "view",
      "type": "function"
    },
    {
      "inputs": [],
      "name": "houseBankroll",
      "outputs": [
        {
          "internalType": "address",
          "name": "",
          "type": "address"
        }
      ],
      "stateMutability": "view",
      "type": "function"
    },
    {
      "inputs": [
        {
          "internalType": "address",
          "name": "",
          "type": "address"
        }
      ],
      "name": "losses",
      "outputs": [
        {
          "internalType": "uint256",
          "name": "",
          "type": "uint256"
        }
      ],
      "stateMutability": "view",
      "type": "function"
    },
    {
      "inputs": [],
      "name": "maxBet",
      "outputs": [
        {
          "internalType": "uint256",
          "name": "",
          "type": "uint256"
        }
      ],
      "stateMutability": "view",
      "type": "function"
    },
    {
      "inputs": [],
      "name": "minBet",
      "outputs": [
        {
          "internalType": "uint256",
          "name": "",
          "type": "uint256"
        }
      ],
      "stateMutability": "view",
      "type": "function"
    },
    {
      "inputs": [],
      "name": "owner",
      "outputs": [
        {
          "internalType": "address",
          "name": "",
          "type": "address"
        }
      ],
      "stateMutability": "view",
      "type": "function"
    },
    {
      "inputs": [
        {
          "internalType": "uint256",
          "name": "betAmount",
          "type": "uint256"
        }
      ],
      "name": "playHand",
      "outputs": [
        {
          "components": [
            {
              "internalType": "uint256",
              "name": "gameId",
              "type": "uint256"
            },
            {
              "internalType": "address",
              "name": "player",
              "type": "address"
            },
            {
              "internalType": "uint256",
              "name": "betAmount",
              "type": "uint256"
            },
            {
              "internalType": "uint8[]",
              "name": "playerCards",
              "type": "uint8[]"
            },
            {
              "internalType": "uint8[]",
              "name": "dealerCards",
              "type": "uint8[]"
            },
            {
              "internalType": "uint8",
              "name": "playerTotal",
              "type": "uint8"
            },
            {
              "internalType": "uint8",
              "name": "dealerTotal",
              "type": "uint8"
            },
            {
              "internalType": "bool",
              "name": "playerBlackjack",
              "type": "bool"
            },
            {
              "internalType": "bool",
              "name": "dealerBlackjack",
              "type": "bool"
            },
            {
              "internalType": "bool",
              "name": "playerBusted",
              "type": "bool"
            },
            {
              "internalType": "bool",
              "name": "dealerBusted",
              "type": "bool"
            },
            {
              "internalType": "uint256",
              "name": "payout",
              "type": "uint256"
            },
            {
              "internalType": "string",
              "name": "result",
              "type": "string"
            }
          ],
          "internalType": "struct InstantBlackjack.GameResult",
          "name": "result",
          "type": "tuple"
        }
      ],
      "stateMutability": "nonpayable",
      "type": "function"
    },
    {
      "inputs": [
        {
          "internalType": "address",
          "name": "",
          "type": "address"
        },
        {
          "internalType": "uint256",
          "name": "",
          "type": "uint256"
        }
      ],
      "name": "playerGameIds",
      "outputs": [
        {
          "internalType": "uint256",
          "name": "",
          "type": "uint256"
        }
      ],
      "stateMutability": "view",
      "type": "function"
    },
    {
      "inputs": [
        {
          "internalType": "address",
          "name": "",
          "type": "address"
        }
      ],
      "name": "profitLoss",
      "outputs": [
        {
          "internalType": "int256",
          "name": "",
          "type": "int256"
        }
      ],
      "stateMutability": "view",
      "type": "function"
    },
    {
      "inputs": [],
      "name": "protocolFeeBps",
      "outputs": [
        {
          "internalType": "uint256",
          "name": "",
          "type": "uint256"
        }
      ],
      "stateMutability": "view",
      "type": "function"
    },
    {
      "inputs": [
        {
          "internalType": "address",
          "name": "",
          "type": "address"
        }
      ],
      "name": "pushes",
      "outputs": [
        {
          "internalType": "uint256",
          "name": "",
          "type": "uint256"
        }
      ],
      "stateMutability": "view",
      "type": "function"
    },
    {
      "inputs": [
        {
          "internalType": "string",
          "name": "name",
          "type": "string"
        }
      ],
      "name": "registerAgent",
      "outputs": [],
      "stateMutability": "nonpayable",
      "type": "function"
    },
    {
      "inputs": [],
      "name": "renounceOwnership",
      "outputs": [],
      "stateMutability": "nonpayable",
      "type": "function"
    },
    {
      "inputs": [
        {
          "internalType": "uint256",
          "name": "_min",
          "type": "uint256"
        },
        {
          "internalType": "uint256",
          "name": "_max",
          "type": "uint256"
        }
      ],
      "name": "setBetLimits",
      "outputs": [],
      "stateMutability": "nonpayable",
      "type": "function"
    },
    {
      "inputs": [
        {
          "internalType": "address",
          "name": "_houseBankroll",
          "type": "address"
        }
      ],
      "name": "setHouseBankroll",
      "outputs": [],
      "stateMutability": "nonpayable",
      "type": "function"
    },
    {
      "inputs": [
        {
          "internalType": "uint256",
          "name": "_feeBps",
          "type": "uint256"
        }
      ],
      "name": "setProtocolFee",
      "outputs": [],
      "stateMutability": "nonpayable",
      "type": "function"
    },
    {
      "inputs": [],
      "name": "shellToken",
      "outputs": [
        {
          "internalType": "contract IERC20",
          "name": "",
          "type": "address"
        }
      ],
      "stateMutability": "view",
      "type": "function"
    },
    {
      "inputs": [],
      "name": "totalGamesPlayed",
      "outputs": [
        {
          "internalType": "uint256",
          "name": "",
          "type": "uint256"
        }
      ],
      "stateMutability": "view",
      "type": "function"
    },
    {
      "inputs": [],
      "name": "totalVolume",
      "outputs": [
        {
          "internalType": "uint256",
          "name": "",
          "type": "uint256"
        }
      ],
      "stateMutability": "view",
      "type": "function"
    },
    {
      "inputs": [
        {
          "internalType": "address",
          "name": "",
          "type": "address"
        }
      ],
      "name": "totalWagered",
      "outputs": [
        {
          "internalType": "uint256",
          "name": "",
          "type": "uint256"
        }
      ],
      "stateMutability": "view",
      "type": "function"
    },
    {
      "inputs": [
        {
          "internalType": "address",
          "name": "newOwner",
          "type": "address"
        }
      ],
      "name": "transferOwnership",
      "outputs": [],
      "stateMutability": "nonpayable",
      "type": "function"
    },
    {
      "inputs": [
        {
          "internalType": "address",
          "name": "",
          "type": "address"
        }
      ],
      "name": "verifiedAgents",
      "outputs": [
        {
          "internalType": "bool",
          "name": "",
          "type": "bool"
        }
      ],
      "stateMutability": "view",
      "type": "function"
    },
    {
      "inputs": [
        {
          "internalType": "address",
          "name": "",
          "type": "address"
        }
      ],
      "name": "wins",
      "outputs": [
        {
          "internalType": "uint256",
          "name": "",
          "type": "uint256"
        }
      ],
      "stateMutability": "view",
      "type": "function"
    }
  ],
  "bytecode": "0x60a0604052670de0b6b3a7640000600355681b1ae4d6e2ef50000060045560646005553480156200002f57600080fd5b5060405162002e4a38038062002e4a833981016040819052620000529162000122565b600160005533806200007e57604051631e4fbdf760e01b81526000600482015260240160405180910390fd5b6200008981620000b3565b506001600160a01b03918216608052600280546001600160a01b031916919092161790556200015a565b600180546001600160a01b038381166001600160a01b0319831681179093556040519116919082907f8be0079c531659141344cd1fd0a4f28419497f9722a3daafe3b4186f6b6457e090600090a35050565b80516001600160a01b03811681146200011d57600080fd5b919050565b600080604083850312156200013657600080fd5b620001418362000105565b9150620001516020840162000105565b90509250929050565b608051612cb862000192600039600081816102da01528181610dac01528181611c9a01528181611de40152611eef0152612cb86000f3fe608060405234801561001057600080fd5b50600436106101c45760003560e01c8063787dce3d116100f9578063b111dfac11610097578063c6ba35ec11610071578063c6ba35ec1461042e578063c903c2331461044e578063d3438aa21461046e578063f2fde38b1461049857600080fd5b8063b111dfac146103d5578063b5695b38146103f5578063c13342cd1461041b57600080fd5b80639619367d116100d35780639619367d14610373578063aaf6e0d51461037c578063ab782b981461038f578063ae82455f146103a257600080fd5b8063787dce3d1461032f5780638047a97a146103425780638da5cb5b1461036257600080fd5b8063470762e9116101665780635f81a57c116101405780635f81a57c146102cc5780636aae314c146102d5578063715018a6146103145780637687dd491461031c57600080fd5b8063470762e9146102835780634e0e7157146102a35780635c492129146102c357600080fd5b80632cbc1660116101a25780632cbc16601461023c5780632d2a95851461025c5780632e5b21681461027157806335659fb81461027a57600080fd5b806308853efc146101c9578063122b477b146101fc578063288b45951461021c575b600080fd5b6101e96101d7366004612442565b600d6020526000908152604090205481565b6040519081526020015b60405180910390f35b61020f61020a36600461245d565b6104ab565b6040516101f391906125ee565b61022f61022a366004612650565b6107a5565b6040516101f3919061267a565b61024f61024a366004612442565b61088e565b6040516101f391906126be565b61026f61026a3660046126d1565b610928565b005b6101e960045481565b6101e960055481565b6101e9610291366004612442565b600e6020526000908152604090205481565b6101e96102b1366004612442565b600c6020526000908152604090205481565b6101e960065481565b6101e960075481565b6102fc7f000000000000000000000000000000000000000000000000000000000000000081565b6040516001600160a01b0390911681526020016101f3565b61026f6109ef565b61026f61032a366004612743565b610a03565b61026f61033d36600461245d565b610a56565b6101e9610350366004612442565b600a6020526000908152604090205481565b6001546001600160a01b03166102fc565b6101e960035481565b6002546102fc906001600160a01b031681565b61026f61039d366004612442565b610aa2565b6103c56103b0366004612442565b60086020526000908152604090205460ff1681565b60405190151581526020016101f3565b6101e96103e3366004612442565b600f6020526000908152604090205481565b610408610403366004612442565b610acc565b6040516101f39796959493929190612765565b6101e9610429366004612650565b610bd7565b61044161043c36600461245d565b610c08565b6040516101f391906127a9565b6101e961045c366004612442565b600b6020526000908152604090205481565b61048161047c36600461245d565b61110c565b6040516101f39b9a999897969594939291906127bc565b61026f6104a6366004612442565b611221565b601054606090808311156104bd578092505b60008367ffffffffffffffff8111156104d8576104d8612837565b60405190808252806020026020018201604052801561051157816020015b6104fe6122f1565b8152602001906001900390816104f65790505b50905060005b8481101561079d5760108161052d600186612863565b6105379190612863565b8154811061054757610547612876565b6000918252602091829020604080516101a08101825260089093029091018054835260018101546001600160a01b031683850152600281015483830152600381018054835181870281018701909452808452939491936060860193928301828280156105f057602002820191906000526020600020906000905b825461010083900a900460ff168152602060019283018181049485019490930390920291018084116105c15790505b505050505081526020016004820180548060200260200160405190810160405280929190818152602001828054801561066657602002820191906000526020600020906000905b825461010083900a900460ff168152602060019283018181049485019490930390920291018084116106375790505b5050509183525050600582015460ff8082166020840152610100808304821660408501526201000083048216151560608501526301000000830482161515608085015264010000000083048216151560a08501526501000000000090920416151560c0830152600683015460e08301526007830180549190920191906106eb9061288c565b80601f01602080910402602001604051908101604052809291908181526020018280546107179061288c565b80156107645780601f1061073957610100808354040283529160200191610764565b820191906000526020600020905b81548152906001019060200180831161074757829003601f168201915b50505050508152505082828151811061077f5761077f612876565b60200260200101819052508080610795906128c6565b915050610517565b509392505050565b6001600160a01b0382166000908152601160205260409020805460609190808411156107cf578093505b60008467ffffffffffffffff8111156107ea576107ea612837565b604051908082528060200260200182016040528015610813578160200160208202803683370190505b50905060005b8581101561088257838161082e600186612863565b6108389190612863565b8154811061084857610848612876565b906000526020600020015482828151811061086557610865612876565b60209081029190910101528061087a816128c6565b915050610819565b50925050505b92915050565b600960205260009081526040902080546108a79061288c565b80601f01602080910402602001604051908101604052809291908181526020018280546108d39061288c565b80156109205780601f106108f557610100808354040283529160200191610920565b820191906000526020600020905b81548152906001019060200180831161090357829003601f168201915b505050505081565b8015801590610938575060208111155b6109785760405162461bcd60e51b815260206004820152600c60248201526b496e76616c6964206e616d6560a01b60448201526064015b60405180910390fd5b336000908152600860209081526040808320805460ff19166001179055600990915290206109a782848361292d565b50336001600160a01b03167f45127b38457c2f5c381cad14d94b51d80a7700dfb7a910a1d816fee3d3e1059183836040516109e39291906129ee565b60405180910390a25050565b6109f761125f565b610a01600061128c565b565b610a0b61125f565b808210610a4b5760405162461bcd60e51b815260206004820152600e60248201526d496e76616c6964206c696d69747360901b604482015260640161096f565b600391909155600455565b610a5e61125f565b6101f4811115610a9d5760405162461bcd60e51b815260206004820152600a6024820152694d61782035252066656560b01b604482015260640161096f565b600555565b610aaa61125f565b600280546001600160a01b0319166001600160a01b0392909216919091179055565b6001600160a01b0381166000908152600960209081526040808320600a835281842054600b845282852054600c855283862054600d865284872054600e875285882054600f909752948720548454606098978897889788978897889792969195909492939291908790610b3e9061288c565b80601f0160208091040260200160405190810160405280929190818152602001828054610b6a9061288c565b8015610bb75780601f10610b8c57610100808354040283529160200191610bb7565b820191906000526020600020905b815481529060010190602001808311610b9a57829003601f168201915b505050505096509650965096509650965096509650919395979092949650565b60116020528160005260406000208181548110610bf357600080fd5b90600052602060002001600091509150505481565b610c106122f1565b3360009081526008602052604090205460ff16610c665760405162461bcd60e51b8152602060048201526014602482015273139bdd0818481d995c9a599a5959081859d95b9d60621b604482015260640161096f565b610c6e6112de565b6003548210158015610c8257506004548211155b610cc15760405162461bcd60e51b815260206004820152601060248201526f426574206f7574206f662072616e676560801b604482015260640161096f565b60006002610cd0846005612a1d565b610cda9190612a4a565b6002549091506001600160a01b031615610d9f576002546040516372b3630d60e11b8152600481018390526001600160a01b039091169063e566c61a90602401602060405180830381865afa158015610d37573d6000803e3d6000fd5b505050506040513d601f19601f82011682018060405250810190610d5b9190612a5e565b610d9f5760405162461bcd60e51b8152602060048201526015602482015274125b9cdd59999a58da595b9d0818985b9adc9bdb1b605a1b604482015260640161096f565b610dd46001600160a01b037f000000000000000000000000000000000000000000000000000000000000000016333086611308565b60068054906000610de4836128c6565b91905055508260076000828254610dfb9190612a80565b9091555050336000908152600e602052604081208054859290610e1f908490612a80565b9091555050600654604051600091610e689144914291339190602001938452602084019290925260601b6bffffffffffffffffffffffff19166040830152605482015260740190565b6040516020818303038152906040528051906020012060001c9050610e8e338583611375565b6006548152336020808301918252604083018781526010805460018101825560009190915284517f1b6847dc741a1b0cd08d278845f9d819d87b734759afb55fe2de5cb82a9ae672600890920291820190815593517f1b6847dc741a1b0cd08d278845f9d819d87b734759afb55fe2de5cb82a9ae673820180546001600160a01b0319166001600160a01b0390921691909117905590517f1b6847dc741a1b0cd08d278845f9d819d87b734759afb55fe2de5cb82a9ae674820155606084015180519497508794610f88937f1b6847dc741a1b0cd08d278845f9d819d87b734759afb55fe2de5cb82a9ae675909301929190910190612370565b5060808201518051610fa4916004840191602090910190612370565b5060a082015160058201805460c085015160e0860151610100808801516101208901516101408a01511515650100000000000265ff000000000019911515640100000000029190911665ffff000000001992151563010000000263ff0000001995151562010000029590951663ffff00001960ff97881690950261ffff199098169690991695909517959095179190911695909517179390931692909217919091179055610160820151600682015561018082015160078201906110689082612a93565b50503360009081526011602090815260408220600654815460018101835591845291909220909101555061109b83611c4d565b336001600160a01b031683600001517fdfbd7e324c7affbae354f011d5d3f2a9420edd71c7d837ad099577c737d55861868660a001518760c001518861016001518961018001516040516110f3959493929190612b53565b60405180910390a350506111076001600055565b919050565b6010818154811061111c57600080fd5b60009182526020909120600890910201805460018201546002830154600584015460068501546007860180549597506001600160a01b0390941695929460ff8084169561010085048216956201000086048316956301000000810484169564010000000082048516956501000000000090920490941693929061119e9061288c565b80601f01602080910402602001604051908101604052809291908181526020018280546111ca9061288c565b80156112175780601f106111ec57610100808354040283529160200191611217565b820191906000526020600020905b8154815290600101906020018083116111fa57829003601f168201915b505050505090508b565b61122961125f565b6001600160a01b03811661125357604051631e4fbdf760e01b81526000600482015260240161096f565b61125c8161128c565b50565b6001546001600160a01b03163314610a015760405163118cdaa760e01b815233600482015260240161096f565b600180546001600160a01b038381166001600160a01b0319831681179093556040519116919082907f8be0079c531659141344cd1fd0a4f28419497f9722a3daafe3b4186f6b6457e090600090a35050565b60026000540361130157604051633ee5aeb560e01b815260040160405180910390fd5b6002600055565b6040516001600160a01b03848116602483015283811660448301526064820183905261136f9186918216906323b872dd906084015b604051602081830303815290604052915060e01b6020820180516001600160e01b038381831617835250505050611f5d565b50505050565b61137d6122f1565b6040805160348082526106a0820190925260009160208201610680803683370190505090506000805b60348160ff1610156113ec5780838260ff16815181106113c8576113c8612876565b60ff90921660209283029190910190910152806113e481612b8f565b9150506113a6565b5060335b60ff8116156114e9576000611406826001612bae565b60ff16868360405160200161143292919091825260f81b6001600160f81b031916602082015260210190565b6040516020818303038152906040528051906020012060001c6114559190612bc7565b9050838160ff168151811061146c5761146c612876565b6020026020010151848360ff168151811061148957611489612876565b6020026020010151858460ff16815181106114a6576114a6612876565b60200260200101868460ff16815181106114c2576114c2612876565b60ff93841660209182029290920101529116905250806114e181612bdb565b9150506113f0565b5060408051600a8082526101608201909252906020820161014080368337505050606084015260408051600a80825261016082019092529060208201610140803683375050506080840152600080838361154281612b8f565b945060ff168151811061155757611557612876565b60200260200101518560600151838061156f90612b8f565b945060ff168151811061158457611584612876565b60ff9092166020928302919091019091015283836115a181612b8f565b945060ff16815181106115b6576115b6612876565b6020026020010151856080015182806115ce90612b8f565b935060ff16815181106115e3576115e3612876565b60ff90921660209283029190910190910152838361160081612b8f565b945060ff168151811061161557611615612876565b60200260200101518560600151838061162d90612b8f565b945060ff168151811061164257611642612876565b60ff90921660209283029190910190910152838361165f81612b8f565b945060ff168151811061167457611674612876565b60200260200101518560800151828061168c90612b8f565b935060ff16815181106116a1576116a1612876565b602002602001019060ff16908160ff16815250506116c3856060015183611fce565b60ff1660a086015260808501516116da9082611fce565b60ff90811660c087015260a0860151166015036116f957600160e08601525b8460c0015160ff166015036117115760016101008601525b8460e001518061172357508461010001515b156118c8578460e00151801561173b57508461010001515b1561179c5760408051808201825260048152630e0eae6d60e31b60208083019190915261018088019190915261016087018990526001600160a01b038a166000908152600c909152908120805491611792836128c6565b9190505550611897565b8460e001511561184057604080518082019091526009815268626c61636b6a61636b60b81b602082015261018086015260026117d9886003612a1d565b6117e39190612a4a565b6117ed9088612a80565b6101608601526001600160a01b0388166000908152600d60205260408120805491611817836128c6565b90915550506001600160a01b0388166000908152600a60205260408120805491611792836128c6565b60408051808201825260048152636c6f737360e01b602080830191909152610180880191909152600061016088018190526001600160a01b038b168152600b909152908120805491611891836128c6565b91905055505b6118a5856060015183612085565b606086015260808501516118b99082612085565b608086015250611c4692505050565b60158560a0015160ff1610156119ae57600061190186608001516000815181106118f4576118f4612876565b6020026020010151612138565b905060006119218760a001518361191c8a606001518861217b565b61220a565b90508061192f5750506119ae565b858561193a81612b8f565b965060ff168151811061194f5761194f612876565b60200260200101518760600151858061196790612b8f565b965060ff168151811061197c5761197c612876565b602002602001019060ff16908160ff168152505061199e876060015185611fce565b60ff1660a0880152506118c89050565b60158560a0015160ff161115611a1757600161012086015260408051808201825260048152636c6f737360e01b602080830191909152610180880191909152600061016088018190526001600160a01b038b168152600b909152908120805491611891836128c6565b60118560c0015160ff161015611aa3578383611a3281612b8f565b945060ff1681518110611a4757611a47612876565b602002602001015185608001518280611a5f90612b8f565b935060ff1681518110611a7457611a74612876565b602002602001019060ff16908160ff1681525050611a96856080015182611fce565b60ff1660c0860152611a17565b60158560c0015160ff161115611b1a5760016101408601526040805180820190915260038152623bb4b760e91b6020820152610180860152611ae6876002612a1d565b6101608601526001600160a01b0388166000908152600a60205260408120805491611b10836128c6565b9190505550611c1a565b8460c0015160ff168560a0015160ff161115611b5b576040805180820190915260038152623bb4b760e91b6020820152610180860152611ae6876002612a1d565b8460c0015160ff168560a0015160ff161015611bc25760408051808201825260048152636c6f737360e01b602080830191909152610180880191909152600061016088018190526001600160a01b038b168152600b909152908120805491611b10836128c6565b60408051808201825260048152630e0eae6d60e31b60208083019190915261018088019190915261016087018990526001600160a01b038a166000908152600c909152908120805491611c14836128c6565b91905055505b611c28856060015183612085565b60608601526080850151611c3c9082612085565b6080860152505050505b9392505050565b806101600151600003611dbc576002546001600160a01b031615611d7457600254604082810151905163095ea7b360e01b81526001600160a01b03928316600482015260248101919091527f00000000000000000000000000000000000000000000000000000000000000009091169063095ea7b3906044016020604051808303816000875af1158015611ce5573d6000803e3d6000fd5b505050506040513d601f19601f82011682018060405250810190611d099190612a5e565b50600254604080830151905163033c19ab60e41b81526001600160a01b03909216916333c19ab091611d419160040190815260200190565b600060405180830381600087803b158015611d5b57600080fd5b505af1158015611d6f573d6000803e3d6000fd5b505050505b8060400151600f600083602001516001600160a01b03166001600160a01b031681526020019081526020016000206000828254611db19190612bf8565b9091555061125c9050565b806040015181610160015103611e0a576020810151604082015161125c916001600160a01b037f000000000000000000000000000000000000000000000000000000000000000016916122bb565b60008160400151826101600151611e219190612863565b9050600061271060055483611e369190612a1d565b611e409190612a4a565b9050600081846101600151611e559190612863565b6002549091506001600160a01b031615801590611e725750600083115b15611edc5760025460405163093cc7db60e41b8152306004820152602481018590526001600160a01b03909116906393cc7db090604401600060405180830381600087803b158015611ec357600080fd5b505af1158015611ed7573d6000803e3d6000fd5b505050505b6020840151611f16906001600160a01b037f00000000000000000000000000000000000000000000000000000000000000001690836122bb565b6040840151611f259082612bf8565b6020808601516001600160a01b03166000908152600f909152604081208054909190611f52908490612c1f565b909155505050505050565b600080602060008451602086016000885af180611f80576040513d6000823e3d81fd5b50506000513d91508115611f98578060011415611fa5565b6001600160a01b0384163b155b1561136f57604051635274afe760e01b81526001600160a01b038516600482015260240161096f565b60008080805b8460ff168160ff161015612049576000611ffc878360ff16815181106118f4576118f4612876565b90508060ff16600103612029578261201381612b8f565b93506120229050600b85612bae565b9350612036565b6120338185612bae565b93505b508061204181612b8f565b915050611fd4565b505b60158260ff16118015612061575060008160ff16115b1561079d57612071600a83612c47565b91508061207d81612bdb565b91505061204b565b606060008260ff1667ffffffffffffffff8111156120a5576120a5612837565b6040519080825280602002602001820160405280156120ce578160200160208202803683370190505b50905060005b8360ff168160ff16101561079d57848160ff16815181106120f7576120f7612876565b6020026020010151828260ff168151811061211457612114612876565b60ff909216602092830291909101909101528061213081612b8f565b9150506120d4565b600080612146600d84612c60565b90508060ff1660000361215c5750600192915050565b600a8160ff16106121705750600a92915050565b611c46816001612bae565b60008080805b8460ff168160ff1610156121ef5760006121a9878360ff16815181106118f4576118f4612876565b90508060ff166001036121bb57600192505b8060ff166001146121cc57806121cf565b600b5b6121d99085612bae565b93505080806121e790612b8f565b915050612181565b50808015612201575060158260ff1611155b95945050505050565b600081156122515760118460ff161161222557506001611c46565b8360ff16601214801561223c575060098360ff1610155b1561224957506001611c46565b506000611c46565b600b8460ff161161226457506001611c46565b60118460ff161061227757506000611c46565b600c8460ff161015801561228f575060108460ff1611155b156122b15760078360ff161015806122aa57508260ff166001145b9050611c46565b5060009392505050565b6040516001600160a01b038381166024830152604482018390526122ec91859182169063a9059cbb9060640161133d565b505050565b604051806101a001604052806000815260200160006001600160a01b03168152602001600081526020016060815260200160608152602001600060ff168152602001600060ff16815260200160001515815260200160001515815260200160001515815260200160001515815260200160008152602001606081525090565b82805482825590600052602060002090601f016020900481019282156124065791602002820160005b838211156123d757835183826101000a81548160ff021916908360ff1602179055509260200192600101602081600001049283019260010302612399565b80156124045782816101000a81549060ff02191690556001016020816000010492830192600103026123d7565b505b50612412929150612416565b5090565b5b808211156124125760008155600101612417565b80356001600160a01b038116811461110757600080fd5b60006020828403121561245457600080fd5b611c468261242b565b60006020828403121561246f57600080fd5b5035919050565b600081518084526020808501945080840160005b838110156124a957815160ff168752958201959082019060010161248a565b509495945050505050565b6000815180845260005b818110156124da576020818501810151868301820152016124be565b506000602082860101526020601f19601f83011685010191505092915050565b60006101a082518452602083015161251d60208601826001600160a01b03169052565b5060408301516040850152606083015181606086015261253f82860182612476565b915050608083015184820360808601526125598282612476565b91505060a083015161257060a086018260ff169052565b5060c083015161258560c086018260ff169052565b5060e083015161259960e086018215159052565b50610100838101511515908501526101208084015115159085015261014080840151151590850152610160808401519085015261018080840151858303828701526125e483826124b4565b9695505050505050565b6000602080830181845280855180835260408601915060408160051b870101925083870160005b8281101561264357603f198886030184526126318583516124fa565b94509285019290850190600101612615565b5092979650505050505050565b6000806040838503121561266357600080fd5b61266c8361242b565b946020939093013593505050565b6020808252825182820181905260009190848201906040850190845b818110156126b257835183529284019291840191600101612696565b50909695505050505050565b602081526000611c4660208301846124b4565b600080602083850312156126e457600080fd5b823567ffffffffffffffff808211156126fc57600080fd5b818501915085601f83011261271057600080fd5b81358181111561271f57600080fd5b86602082850101111561273157600080fd5b60209290920196919550909350505050565b6000806040838503121561275657600080fd5b50508035926020909101359150565b60e08152600061277860e083018a6124b4565b60208301989098525060408101959095526060850193909352608084019190915260a083015260c090910152919050565b602081526000611c4660208301846124fa565b60006101608d835260018060a01b038d1660208401528b604084015260ff8b16606084015260ff8a16608084015288151560a084015287151560c084015286151560e08401528515156101008401528461012084015280610140840152612825818401856124b4565b9e9d5050505050505050505050505050565b634e487b7160e01b600052604160045260246000fd5b634e487b7160e01b600052601160045260246000fd5b818103818111156108885761088861284d565b634e487b7160e01b600052603260045260246000fd5b600181811c908216806128a057607f821691505b6020821081036128c057634e487b7160e01b600052602260045260246000fd5b50919050565b6000600182016128d8576128d861284d565b5060010190565b601f8211156122ec57600081815260208120601f850160051c810160208610156129065750805b601f850160051c820191505b8181101561292557828155600101612912565b505050505050565b67ffffffffffffffff83111561294557612945612837565b61295983612953835461288c565b836128df565b6000601f84116001811461298d57600085156129755750838201355b600019600387901b1c1916600186901b1783556129e7565b600083815260209020601f19861690835b828110156129be578685013582556020948501946001909201910161299e565b50868210156129db5760001960f88860031b161c19848701351681555b505060018560011b0183555b5050505050565b60208152816020820152818360408301376000818301604090810191909152601f909201601f19160101919050565b80820281158282048414176108885761088861284d565b634e487b7160e01b600052601260045260246000fd5b600082612a5957612a59612a34565b500490565b600060208284031215612a7057600080fd5b81518015158114611c4657600080fd5b808201808211156108885761088861284d565b815167ffffffffffffffff811115612aad57612aad612837565b612ac181612abb845461288c565b846128df565b602080601f831160018114612af65760008415612ade5750858301515b600019600386901b1c1916600185901b178555612925565b600085815260208120601f198616915b82811015612b2557888601518255948401946001909101908401612b06565b5085821015612b435787850151600019600388901b60f8161c191681555b5050505050600190811b01905550565b85815260ff8516602082015260ff8416604082015282606082015260a060808201526000612b8460a08301846124b4565b979650505050505050565b600060ff821660ff8103612ba557612ba561284d565b60010192915050565b60ff81811683821601908111156108885761088861284d565b600082612bd657612bd6612a34565b500690565b600060ff821680612bee57612bee61284d565b6000190192915050565b8181036000831280158383131683831282161715612c1857612c1861284d565b5092915050565b8082018281126000831280158216821582161715612c3f57612c3f61284d565b505092915050565b60ff82811682821603908111156108885761088861284d565b600060ff831680612c7357612c73612a34565b8060ff8416069150509291505056fea264697066735822122033e9402ee24e074d38b84533116f5e5f36aea3ceb5666104df01b5b829cbcfcf64736f6c63430008140033",
  "linkReferences": {},
  "deployedLinkReferences": {}
}